{
  "_format": "hh-sol-artifact-1",
  "contractName": "CCTPBurnHookWrapper",
  "sourceName": "contracts/CCTPBurnHookWrapper.sol",
  "abi": [
    {
      "inputs": [
        {
          "internalType": "address",
          "name": "_tokenMessenger",
          "type": "address"
        }
      ],
      "stateMutability": "nonpayable",
      "type": "constructor"
    },
    {
      "inputs": [],
      "name": "TOKEN_MESSENGER",
      "outputs": [
        {
          "internalType": "address",
          "name": "",
          "type": "address"
        }
      ],
      "stateMutability": "view",
      "type": "function"
    },
    {
      "inputs": [
        {
          "internalType": "address",
          "name": "",
          "type": "address"
        },
        {
          "internalType": "address",
          "name": "",
          "type": "address"
        },
        {
          "internalType": "uint256",
          "name": "",
          "type": "uint256"
        },
        {
          "internalType": "uint256",
          "name": "",
          "type": "uint256"
        },
        {
          "internalType": "bytes",
          "name": "_structData",
          "type": "bytes"
        }
      ],
      "name": "executeHook",
      "outputs": [
        {
          "internalType": "bool",
          "name": "",
          "type": "bool"
        }
      ],
      "stateMutability": "nonpayable",
      "type": "function"
    }
  ],
  "bytecode": "0x60a060405234801561001057600080fd5b50604051610de7380380610de783398181016040528101906100329190610084565b8073ffffffffffffffffffffffffffffffffffffffff1660808173ffffffffffffffffffffffffffffffffffffffff1660601b81525050506100f6565b60008151905061007e816100df565b92915050565b60006020828403121561009657600080fd5b60006100a48482850161006f565b91505092915050565b60006100b8826100bf565b9050919050565b600073ffffffffffffffffffffffffffffffffffffffff82169050919050565b6100e8816100ad565b81146100f357600080fd5b50565b60805160601c610cd061011760003980608b528061013e5250610cd06000f3fe608060405234801561001057600080fd5b50600436106100365760003560e01c8063b8b32ff71461003b578063fc4e5a3614610059575b600080fd5b610043610089565b60405161005091906109ce565b60405180910390f35b610073600480360381019061006e9190610837565b6100ad565b60405161008091906109e9565b60405180910390f35b7f000000000000000000000000000000000000000000000000000000000000000081565b60008083839050116100f4576040517f08c379a00000000000000000000000000000000000000000000000000000000081526004016100eb90610a04565b60405180910390fd5b6000838381019061010591906108c9565b905061013c33308360000151846060015173ffffffffffffffffffffffffffffffffffffffff16610204909392919063ffffffff16565b7f000000000000000000000000000000000000000000000000000000000000000073ffffffffffffffffffffffffffffffffffffffff1663779b432d826000015183602001518460400151856060015186608001518760a001518860c001518960e001516040518963ffffffff1660e01b81526004016101c3989796959493929190610a24565b600060405180830381600087803b1580156101dd57600080fd5b505af11580156101f1573d6000803e3d6000fd5b5050505060019150509695505050505050565b6102bf846323b872dd60e01b858585604051602401808473ffffffffffffffffffffffffffffffffffffffff1681526020018373ffffffffffffffffffffffffffffffffffffffff1681526020018281526020019350505050604051602081830303815290604052907bffffffffffffffffffffffffffffffffffffffffffffffffffffffff19166020820180517bffffffffffffffffffffffffffffffffffffffffffffffffffffffff83818316178352505050506102c5565b50505050565b6000610327826040518060400160405280602081526020017f5361666545524332303a206c6f772d6c6576656c2063616c6c206661696c65648152508573ffffffffffffffffffffffffffffffffffffffff166103b49092919063ffffffff16565b90506000815111156103af5780806020019051602081101561034857600080fd5b81019080805190602001909291905050506103ae576040517f08c379a000000000000000000000000000000000000000000000000000000000815260040180806020018281038252602a815260200180610c71602a913960400191505060405180910390fd5b5b505050565b60606103c384846000856103cc565b90509392505050565b606082471015610427576040517f08c379a0000000000000000000000000000000000000000000000000000000008152600401808060200182810382526026815260200180610c4b6026913960400191505060405180910390fd5b61043085610574565b6104a2576040517f08c379a000000000000000000000000000000000000000000000000000000000815260040180806020018281038252601d8152602001807f416464726573733a2063616c6c20746f206e6f6e2d636f6e747261637400000081525060200191505060405180910390fd5b6000808673ffffffffffffffffffffffffffffffffffffffff1685876040518082805190602001908083835b602083106104f157805182526020820191506020810190506020830392506104ce565b6001836020036101000a03801982511681845116808217855250505050505090500191505060006040518083038185875af1925050503d8060008114610553576040519150601f19603f3d011682016040523d82523d6000602084013e610558565b606091505b5091509150610568828286610587565b92505050949350505050565b600080823b905060008111915050919050565b606083156105975782905061064c565b6000835111156105aa5782518084602001fd5b816040517f08c379a00000000000000000000000000000000000000000000000000000000081526004018080602001828103825283818151815260200191508051906020019080838360005b838110156106115780820151818401526020810190506105f6565b50505050905090810190601f16801561063e5780820380516001836020036101000a031916815260200191505b509250505060405180910390fd5b9392505050565b600061066661066184610ada565b610aa9565b90508281526020810184848401111561067e57600080fd5b610689848285610b99565b509392505050565b6000813590506106a081610bee565b92915050565b6000813590506106b581610c05565b92915050565b60008083601f8401126106cd57600080fd5b8235905067ffffffffffffffff8111156106e657600080fd5b6020830191508360018202830111156106fe57600080fd5b9250929050565b600082601f83011261071657600080fd5b8135610726848260208601610653565b91505092915050565b6000610100828403121561074257600080fd5b61074d610100610aa9565b9050600061075d8482850161080d565b600083015250602061077184828501610822565b6020830152506040610785848285016106a6565b604083015250606061079984828501610691565b60608301525060806107ad848285016106a6565b60808301525060a06107c18482850161080d565b60a08301525060c06107d584828501610822565b60c08301525060e082013567ffffffffffffffff8111156107f557600080fd5b61080184828501610705565b60e08301525092915050565b60008135905061081c81610c1c565b92915050565b60008135905061083181610c33565b92915050565b60008060008060008060a0878903121561085057600080fd5b600061085e89828a01610691565b965050602061086f89828a01610691565b955050604061088089828a0161080d565b945050606061089189828a0161080d565b935050608087013567ffffffffffffffff8111156108ae57600080fd5b6108ba89828a016106bb565b92509250509295509295509295565b6000602082840312156108db57600080fd5b600082013567ffffffffffffffff8111156108f557600080fd5b6109018482850161072f565b91505092915050565b61091381610b37565b82525050565b61092281610b49565b82525050565b61093181610b55565b82525050565b600061094282610b0a565b61094c8185610b15565b935061095c818560208601610ba8565b61096581610bdd565b840191505092915050565b600061097d601383610b26565b91507f496e76616c6964207374727563742064617461000000000000000000000000006000830152602082019050919050565b6109b981610b7f565b82525050565b6109c881610b89565b82525050565b60006020820190506109e3600083018461090a565b92915050565b60006020820190506109fe6000830184610919565b92915050565b60006020820190508181036000830152610a1d81610970565b9050919050565b600061010082019050610a3a600083018b6109b0565b610a47602083018a6109bf565b610a546040830189610928565b610a61606083018861090a565b610a6e6080830187610928565b610a7b60a08301866109b0565b610a8860c08301856109bf565b81810360e0830152610a9a8184610937565b90509998505050505050505050565b6000604051905081810181811067ffffffffffffffff82111715610ad057610acf610bdb565b5b8060405250919050565b600067ffffffffffffffff821115610af557610af4610bdb565b5b601f19601f8301169050602081019050919050565b600081519050919050565b600082825260208201905092915050565b600082825260208201905092915050565b6000610b4282610b5f565b9050919050565b60008115159050919050565b6000819050919050565b600073ffffffffffffffffffffffffffffffffffffffff82169050919050565b6000819050919050565b600063ffffffff82169050919050565b82818337600083830152505050565b60005b83811015610bc6578082015181840152602081019050610bab565b83811115610bd5576000848401525b50505050565bfe5b6000601f19601f8301169050919050565b610bf781610b37565b8114610c0257600080fd5b50565b610c0e81610b55565b8114610c1957600080fd5b50565b610c2581610b7f565b8114610c3057600080fd5b50565b610c3c81610b89565b8114610c4757600080fd5b5056fe416464726573733a20696e73756666696369656e742062616c616e636520666f722063616c6c5361666545524332303a204552433230206f7065726174696f6e20646964206e6f742073756363656564a264697066735822122091237cc588a2625847d38b5c16c9b55e77fb81df8f0dede3a55472b8211430a264736f6c63430007060033",
  "linkReferences": {},
  "deployedLinkReferences": {}
}