{
  "_format": "hh-sol-artifact-1",
  "contractName": "CCTPHookWrapper",
  "sourceName": "contracts/CCTPHookWrapper.sol",
  "abi": [
    {
      "inputs": [
        {
          "internalType": "address",
          "name": "_messageTransmitter",
          "type": "address"
        }
      ],
      "stateMutability": "nonpayable",
      "type": "constructor"
    },
    {
      "anonymous": false,
      "inputs": [
        {
          "indexed": true,
          "internalType": "bytes32",
          "name": "nonce",
          "type": "bytes32"
        },
        {
          "indexed": true,
          "internalType": "address",
          "name": "hookTarget",
          "type": "address"
        },
        {
          "indexed": false,
          "internalType": "bool",
          "name": "success",
          "type": "bool"
        },
        {
          "indexed": false,
          "internalType": "bytes",
          "name": "returnData",
          "type": "bytes"
        }
      ],
      "name": "CCTPHookExecuted",
      "type": "event"
    },
    {
      "anonymous": false,
      "inputs": [
        {
          "indexed": true,
          "internalType": "bytes32",
          "name": "role",
          "type": "bytes32"
        },
        {
          "indexed": true,
          "internalType": "bytes32",
          "name": "previousAdminRole",
          "type": "bytes32"
        },
        {
          "indexed": true,
          "internalType": "bytes32",
          "name": "newAdminRole",
          "type": "bytes32"
        }
      ],
      "name": "RoleAdminChanged",
      "type": "event"
    },
    {
      "anonymous": false,
      "inputs": [
        {
          "indexed": true,
          "internalType": "bytes32",
          "name": "role",
          "type": "bytes32"
        },
        {
          "indexed": true,
          "internalType": "address",
          "name": "account",
          "type": "address"
        },
        {
          "indexed": true,
          "internalType": "address",
          "name": "sender",
          "type": "address"
        }
      ],
      "name": "RoleGranted",
      "type": "event"
    },
    {
      "anonymous": false,
      "inputs": [
        {
          "indexed": true,
          "internalType": "bytes32",
          "name": "role",
          "type": "bytes32"
        },
        {
          "indexed": true,
          "internalType": "address",
          "name": "account",
          "type": "address"
        },
        {
          "indexed": true,
          "internalType": "address",
          "name": "sender",
          "type": "address"
        }
      ],
      "name": "RoleRevoked",
      "type": "event"
    },
    {
      "inputs": [],
      "name": "DEFAULT_ADMIN_ROLE",
      "outputs": [
        {
          "internalType": "bytes32",
          "name": "",
          "type": "bytes32"
        }
      ],
      "stateMutability": "view",
      "type": "function"
    },
    {
      "inputs": [],
      "name": "MESSAGE_TRANSMITTER",
      "outputs": [
        {
          "internalType": "contract IReceiverV2",
          "name": "",
          "type": "address"
        }
      ],
      "stateMutability": "view",
      "type": "function"
    },
    {
      "inputs": [],
      "name": "RELAYER_ROLE",
      "outputs": [
        {
          "internalType": "bytes32",
          "name": "",
          "type": "bytes32"
        }
      ],
      "stateMutability": "view",
      "type": "function"
    },
    {
      "inputs": [],
      "name": "SUPPORTED_MESSAGE_BODY_VERSION",
      "outputs": [
        {
          "internalType": "uint32",
          "name": "",
          "type": "uint32"
        }
      ],
      "stateMutability": "view",
      "type": "function"
    },
    {
      "inputs": [],
      "name": "SUPPORTED_MESSAGE_VERSION",
      "outputs": [
        {
          "internalType": "uint32",
          "name": "",
          "type": "uint32"
        }
      ],
      "stateMutability": "view",
      "type": "function"
    },
    {
      "inputs": [
        {
          "internalType": "bytes32",
          "name": "role",
          "type": "bytes32"
        }
      ],
      "name": "getRoleAdmin",
      "outputs": [
        {
          "internalType": "bytes32",
          "name": "",
          "type": "bytes32"
        }
      ],
      "stateMutability": "view",
      "type": "function"
    },
    {
      "inputs": [
        {
          "internalType": "bytes32",
          "name": "role",
          "type": "bytes32"
        },
        {
          "internalType": "uint256",
          "name": "index",
          "type": "uint256"
        }
      ],
      "name": "getRoleMember",
      "outputs": [
        {
          "internalType": "address",
          "name": "",
          "type": "address"
        }
      ],
      "stateMutability": "view",
      "type": "function"
    },
    {
      "inputs": [
        {
          "internalType": "bytes32",
          "name": "role",
          "type": "bytes32"
        }
      ],
      "name": "getRoleMemberCount",
      "outputs": [
        {
          "internalType": "uint256",
          "name": "",
          "type": "uint256"
        }
      ],
      "stateMutability": "view",
      "type": "function"
    },
    {
      "inputs": [
        {
          "internalType": "bytes32",
          "name": "role",
          "type": "bytes32"
        },
        {
          "internalType": "address",
          "name": "account",
          "type": "address"
        }
      ],
      "name": "grantRole",
      "outputs": [],
      "stateMutability": "nonpayable",
      "type": "function"
    },
    {
      "inputs": [
        {
          "internalType": "bytes32",
          "name": "role",
          "type": "bytes32"
        },
        {
          "internalType": "address",
          "name": "account",
          "type": "address"
        }
      ],
      "name": "hasRole",
      "outputs": [
        {
          "internalType": "bool",
          "name": "",
          "type": "bool"
        }
      ],
      "stateMutability": "view",
      "type": "function"
    },
    {
      "inputs": [
        {
          "internalType": "bytes",
          "name": "message",
          "type": "bytes"
        },
        {
          "internalType": "bytes",
          "name": "attestation",
          "type": "bytes"
        }
      ],
      "name": "relay",
      "outputs": [
        {
          "internalType": "bool",
          "name": "relaySuccess",
          "type": "bool"
        },
        {
          "internalType": "bool",
          "name": "hookSuccess",
          "type": "bool"
        },
        {
          "internalType": "bytes",
          "name": "hookReturnData",
          "type": "bytes"
        }
      ],
      "stateMutability": "nonpayable",
      "type": "function"
    },
    {
      "inputs": [
        {
          "internalType": "bytes32",
          "name": "role",
          "type": "bytes32"
        },
        {
          "internalType": "address",
          "name": "account",
          "type": "address"
        }
      ],
      "name": "renounceRole",
      "outputs": [],
      "stateMutability": "nonpayable",
      "type": "function"
    },
    {
      "inputs": [
        {
          "internalType": "bytes32",
          "name": "role",
          "type": "bytes32"
        },
        {
          "internalType": "address",
          "name": "account",
          "type": "address"
        }
      ],
      "name": "revokeRole",
      "outputs": [],
      "stateMutability": "nonpayable",
      "type": "function"
    }
  ],
  "bytecode": "0x60a06040523480156200001157600080fd5b50604051620027da380380620027da833981810160405260208110156200003757600080fd5b810190808051906020019092919050505060018081905550600073ffffffffffffffffffffffffffffffffffffffff168173ffffffffffffffffffffffffffffffffffffffff161415620000f3576040517f08c379a000000000000000000000000000000000000000000000000000000000815260040180806020018281038252601f8152602001807f4d657373616765207472616e736d697474657220697320746865207a65726f0081525060200191505060405180910390fd5b8073ffffffffffffffffffffffffffffffffffffffff1660808173ffffffffffffffffffffffffffffffffffffffff1660601b815250506200013f6000801b336200017860201b60201c565b620001717fe2b7fb3b832174769106daebcfd6d1970523240dda11281102db9363b83b0dc4336200017860201b60201c565b506200030e565b6200018a82826200018e60201b60201c565b5050565b620001bc816000808581526020019081526020016000206000016200023160201b62000e9e1790919060201c565b156200022d57620001d26200026960201b60201c565b73ffffffffffffffffffffffffffffffffffffffff168173ffffffffffffffffffffffffffffffffffffffff16837f2f8788117e7eff1d82e926ec794901d17c78024a50270940304540a733656f0d60405160405180910390a45b5050565b600062000261836000018373ffffffffffffffffffffffffffffffffffffffff1660001b6200027160201b60201c565b905092915050565b600033905090565b6000620002858383620002eb60201b60201c565b620002e0578260000182908060018154018082558091505060019003906000526020600020016000909190919091505582600001805490508360010160008481526020019081526020016000208190555060019050620002e5565b600090505b92915050565b600080836001016000848152602001908152602001600020541415905092915050565b60805160601c6124a962000331600039806109265280610dc852506124a96000f3fe608060405234801561001057600080fd5b50600436106100cf5760003560e01c806391d148541161008c578063b6a84a5f11610066578063b6a84a5f14610431578063ca15c87314610465578063d547741f146104a7578063ffd7c9a5146104f5576100cf565b806391d1485414610391578063926d7d7f146103f5578063a217fddf14610413576100cf565b80631c4f1214146100d4578063248a9ca3146100f85780632f2ff15d1461013a57806336568abe14610188578063564a5158146101d65780639010d07c1461032f575b600080fd5b6100dc610519565b604051808263ffffffff16815260200191505060405180910390f35b6101246004803603602081101561010e57600080fd5b810190808035906020019092919050505061051e565b6040518082815260200191505060405180910390f35b6101866004803603604081101561015057600080fd5b8101908080359060200190929190803573ffffffffffffffffffffffffffffffffffffffff16906020019092919050505061053d565b005b6101d46004803603604081101561019e57600080fd5b8101908080359060200190929190803573ffffffffffffffffffffffffffffffffffffffff1690602001909291905050506105c6565b005b6102a2600480360360408110156101ec57600080fd5b810190808035906020019064010000000081111561020957600080fd5b82018360208201111561021b57600080fd5b8035906020019184600183028401116401000000008311171561023d57600080fd5b90919293919293908035906020019064010000000081111561025e57600080fd5b82018360208201111561027057600080fd5b8035906020019184600183028401116401000000008311171561029257600080fd5b909192939192939050505061065f565b604051808415158152602001831515815260200180602001828103825283818151815260200191508051906020019080838360005b838110156102f25780820151818401526020810190506102d7565b50505050905090810190601f16801561031f5780820380516001836020036101000a031916815260200191505b5094505050505060405180910390f35b6103656004803603604081101561034557600080fd5b810190808035906020019092919080359060200190929190505050610d39565b604051808273ffffffffffffffffffffffffffffffffffffffff16815260200191505060405180910390f35b6103dd600480360360408110156103a757600080fd5b8101908080359060200190929190803573ffffffffffffffffffffffffffffffffffffffff169060200190929190505050610d6a565b60405180821515815260200191505060405180910390f35b6103fd610d9b565b6040518082815260200191505060405180910390f35b61041b610dbf565b6040518082815260200191505060405180910390f35b610439610dc6565b604051808273ffffffffffffffffffffffffffffffffffffffff16815260200191505060405180910390f35b6104916004803603602081101561047b57600080fd5b8101908080359060200190929190505050610dea565b6040518082815260200191505060405180910390f35b6104f3600480360360408110156104bd57600080fd5b8101908080359060200190929190803573ffffffffffffffffffffffffffffffffffffffff169060200190929190505050610e10565b005b6104fd610e99565b604051808263ffffffff16815260200191505060405180910390f35b600181565b6000806000838152602001908152602001600020600201549050919050565b6105636000808481526020019081526020016000206002015461055e610ece565b610d6a565b6105b8576040517f08c379a000000000000000000000000000000000000000000000000000000000815260040180806020018281038252602f815260200180612303602f913960400191505060405180910390fd5b6105c28282610ed6565b5050565b6105ce610ece565b73ffffffffffffffffffffffffffffffffffffffff168173ffffffffffffffffffffffffffffffffffffffff1614610651576040517f08c379a000000000000000000000000000000000000000000000000000000000815260040180806020018281038252602f815260200180612410602f913960400191505060405180910390fd5b61065b8282610f69565b5050565b6000806060600260015414156106dd576040517f08c379a000000000000000000000000000000000000000000000000000000000815260040180806020018281038252601f8152602001807f5265656e7472616e637947756172643a207265656e7472616e742063616c6c0081525060200191505060405180910390fd5b600260018190555061070f7fe2b7fb3b832174769106daebcfd6d1970523240dda11281102db9363b83b0dc433610d6a565b8061072357506107226000801b33610d6a565b5b610795576040517f08c379a00000000000000000000000000000000000000000000000000000000081526004018080602001828103825260158152602001807f4f6e6c792072656c61796572206f722061646d696e000000000000000000000081525060200191505060405180910390fd5b60006107ef600089898080601f016020809104026020016040519081016040528093929190818152602001838380828437600081840152601f19601f82011690508083019250505050505050610ffc90919063ffffffff16565b90506107fa81611027565b600163ffffffff1661080b82611141565b63ffffffff1614610884576040517f08c379a00000000000000000000000000000000000000000000000000000000081526004018080602001828103825260178152602001807f496e76616c6964206d6573736167652076657273696f6e00000000000000000081525060200191505060405180910390fd5b600061088f8261116a565b905061089a816111b7565b600163ffffffff166108ab826112d1565b63ffffffff1614610924576040517f08c379a000000000000000000000000000000000000000000000000000000000815260040180806020018281038252601c8152602001807f496e76616c6964206d65737361676520626f64792076657273696f6e0000000081525060200191505060405180910390fd5b7f000000000000000000000000000000000000000000000000000000000000000073ffffffffffffffffffffffffffffffffffffffff166357ecfd288a8a8a8a6040518563ffffffff1660e01b81526004018080602001806020018381038352878782818152602001925080828437600081840152601f19601f8201169050808301925050508381038252858582818152602001925080828437600081840152601f19601f8201169050808301925050509650505050505050602060405180830381600087803b1580156109f757600080fd5b505af1158015610a0b573d6000803e3d6000fd5b505050506040513d6020811015610a2157600080fd5b8101908080519060200190929190505050945084610aa7576040517f08c379a00000000000000000000000000000000000000000000000000000000081526004018080602001828103825260168152602001807f52656365697665206d657373616765206661696c65640000000000000000000081525060200191505060405180910390fd5b6000610ab2836112e9565b90506000610abf83611312565b9050610ad08162ffffff191661135f565b15610d24576000610ae68262ffffff19166113a2565b90506000610af3856113e9565b90506000638df8663c60e01b85836000015184602001518560400151866060015187608001518860a001518960c001518a60e001518c604051602401808b81526020018a63ffffffff16815260200189815260200188815260200187815260200186815260200185815260200184815260200183815260200180602001828103825283818151815260200191508051906020019080838360005b83811015610ba8578082015181840152602081019050610b8d565b50505050905090810190601f168015610bd55780820380516001836020036101000a031916815260200191505b509b505050505050505050505050604051602081830303815290604052907bffffffffffffffffffffffffffffffffffffffffffffffffffffffff19166020820180517bffffffffffffffffffffffffffffffffffffffffffffffffffffffff83818316178352505050509050610c53826040015160001c82611494565b809950819a505050816040015160001c73ffffffffffffffffffffffffffffffffffffffff16857f2b482f7417214e257c9a074b6c0c0fc8424f23855387168f742053fb1590bedc8b8b60405180831515815260200180602001828103825283818151815260200191508051906020019080838360005b83811015610ce5578082015181840152602081019050610cca565b50505050905090810190601f168015610d125780820380516001836020036101000a031916815260200191505b50935050505060405180910390a35050505b50505050600180819055509450945094915050565b6000610d628260008086815260200190815260200160002060000161155a90919063ffffffff16565b905092915050565b6000610d938260008086815260200190815260200160002060000161157490919063ffffffff16565b905092915050565b7fe2b7fb3b832174769106daebcfd6d1970523240dda11281102db9363b83b0dc481565b6000801b81565b7f000000000000000000000000000000000000000000000000000000000000000081565b6000610e096000808481526020019081526020016000206000016115a4565b9050919050565b610e3660008084815260200190815260200160002060020154610e31610ece565b610d6a565b610e8b576040517f08c379a00000000000000000000000000000000000000000000000000000000081526004018080602001828103825260308152602001806123326030913960400191505060405180910390fd5b610e958282610f69565b5050565b600181565b6000610ec6836000018373ffffffffffffffffffffffffffffffffffffffff1660001b6115b9565b905092915050565b600033905090565b610efd81600080858152602001908152602001600020600001610e9e90919063ffffffff16565b15610f6557610f0a610ece565b73ffffffffffffffffffffffffffffffffffffffff168173ffffffffffffffffffffffffffffffffffffffff16837f2f8788117e7eff1d82e926ec794901d17c78024a50270940304540a733656f0d60405160405180910390a45b5050565b610f908160008085815260200190815260200160002060000161162990919063ffffffff16565b15610ff857610f9d610ece565b73ffffffffffffffffffffffffffffffffffffffff168173ffffffffffffffffffffffffffffffffffffffff16837ff6391f5c32d9c69d2a47ea670b442974b53935d1edc7fd64eb21e047a839171b60405160405180910390a45b5050565b60008083519050600060208501905061101d8464ffffffffff168284611659565b9250505092915050565b6110368162ffffff191661135f565b6110a8576040517f08c379a00000000000000000000000000000000000000000000000000000000081526004018080602001828103825260118152602001807f4d616c666f726d6564206d65737361676500000000000000000000000000000081525060200191505060405180910390fd5b609460ff166110bc8262ffffff19166116c8565b6bffffffffffffffffffffffff16101561113e576040517f08c379a000000000000000000000000000000000000000000000000000000000815260040180806020018281038252601a8152602001807f496e76616c6964206d6573736167653a20746f6f2073686f727400000000000081525060200191505060405180910390fd5b50565b6000611163600060ff1660048462ffffff19166116ee9092919063ffffffff16565b9050919050565b60006111b0609460ff16609460ff166111888562ffffff19166116c8565b036bffffffffffffffffffffffff1660008562ffffff1916611713909392919063ffffffff16565b9050919050565b6111c68162ffffff191661135f565b611238576040517f08c379a00000000000000000000000000000000000000000000000000000000081526004018080602001828103825260118152602001807f4d616c666f726d6564206d65737361676500000000000000000000000000000081525060200191505060405180910390fd5b60e460ff1661124c8262ffffff19166116c8565b6bffffffffffffffffffffffff1610156112ce576040517f08c379a000000000000000000000000000000000000000000000000000000000815260040180806020018281038252601f8152602001807f496e76616c6964206275726e206d6573736167653a20746f6f2073686f72740081525060200191505060405180910390fd5b50565b60006112e28262ffffff19166117bf565b9050919050565b600061130b600c60ff1660208462ffffff19166117e89092919063ffffffff16565b9050919050565b600061135860e460ff1660e460ff166113308562ffffff19166116c8565b036bffffffffffffffffffffffff1660008562ffffff1916611713909392919063ffffffff16565b9050919050565b600064ffffffffff611370836119af565b64ffffffffff161415611386576000905061139d565b6000611391836119c4565b90506040518111159150505b919050565b60606000806113b0846116c8565b6bffffffffffffffffffffffff16905060405191508192506113d584602084016119ee565b506020818301016040528082525050919050565b6113f161228c565b6113fa826112d1565b816000019063ffffffff16908163ffffffff168152505061141a82611b9b565b81602001818152505061142c82611bb3565b81604001818152505061143e82611bcb565b81606001818152505061145082611be3565b81608001818152505061146282611bfb565b8160a001818152505061147482611c24565b8160c001818152505061148682611c4d565b8160e0018181525050919050565b600060608373ffffffffffffffffffffffffffffffffffffffff16836040518082805190602001908083835b602083106114e357805182526020820191506020810190506020830392506114c0565b6001836020036101000a0380198251168184511680821785525050505050509050019150506000604051808303816000865af19150503d8060008114611545576040519150601f19603f3d011682016040523d82523d6000602084013e61154a565b606091505b5080925081935050509250929050565b60006115698360000183611c76565b60001c905092915050565b600061159c836000018373ffffffffffffffffffffffffffffffffffffffff1660001b611cf9565b905092915050565b60006115b282600001611d1c565b9050919050565b60006115c58383611cf9565b61161e578260000182908060018154018082558091505060019003906000526020600020016000909190919091505582600001805490508360010160008481526020019081526020016000208190555060019050611623565b600090505b92915050565b6000611651836000018373ffffffffffffffffffffffffffffffffffffffff1660001b611d2d565b905092915050565b60008061166f8385611e1590919063ffffffff16565b905060405181111561168057600090505b60008114156116b2577fffffffffffffffffffffffffffffffffffffffffffffffffffffffffff0000009150506116c1565b6116bd858585611e98565b9150505b9392505050565b6000806bffffffffffffffffffffffff90506000601890508184821c1692505050919050565b60006008826020030260ff166117058585856117e8565b60001c901c90509392505050565b60008061171f86611ec3565b6bffffffffffffffffffffffff169050611738866119c4565b61175d8561174f8885611e1590919063ffffffff16565b611e1590919063ffffffff16565b111561178c577fffffffffffffffffffffffffffffffffffffffffffffffffffffffffff0000009150506117b7565b61179f8582611e1590919063ffffffff16565b90506117b38364ffffffffff168286611659565b9150505b949350505050565b60006117e1600060ff1660048462ffffff19166116ee9092919063ffffffff16565b9050919050565b6000808260ff161415611800576000801b90506119a8565b611809846116c8565b6bffffffffffffffffffffffff1661182d8360ff1685611e1590919063ffffffff16565b111561190f5761186e61183f85611ec3565b6bffffffffffffffffffffffff16611856866116c8565b6bffffffffffffffffffffffff16858560ff16611eec565b6040517f08c379a00000000000000000000000000000000000000000000000000000000081526004018080602001828103825283818151815260200191508051906020019080838360005b838110156118d45780820151818401526020810190506118b9565b50505050905090810190601f1680156119015780820380516001836020036101000a031916815260200191505b509250505060405180910390fd5b60208260ff16111561196c576040517f08c379a000000000000000000000000000000000000000000000000000000000815260040180806020018281038252603a815260200180612383603a913960400191505060405180910390fd5b6000600883029050600061197f86611ec3565b6bffffffffffffffffffffffff169050600061199a83612026565b905080868301511693505050505b9392505050565b60008060d860ff16905082811c915050919050565b60006119cf826116c8565b6119d883611ec3565b016bffffffffffffffffffffffff169050919050565b60006119f983612055565b611a4e576040517f08c379a00000000000000000000000000000000000000000000000000000000081526004018080602001828103825260288152602001806123bd6028913960400191505060405180910390fd5b611a578361135f565b611aac576040517f08c379a000000000000000000000000000000000000000000000000000000000815260040180806020018281038252602b8152602001806123e5602b913960400191505060405180910390fd5b6000611ab7846116c8565b6bffffffffffffffffffffffff1690506000611ad285611ec3565b6bffffffffffffffffffffffff169050600080604051915085821115611af85760206060fd5b8386858560045afa905080611b75576040517f08c379a000000000000000000000000000000000000000000000000000000000815260040180806020018281038252600c8152602001807f6964656e74697479204f4f47000000000000000000000000000000000000000081525060200191505060405180910390fd5b611b8f611b81886119af565b64ffffffffff168786611e98565b94505050505092915050565b6000611bac8262ffffff1916612068565b9050919050565b6000611bc48262ffffff1916612091565b9050919050565b6000611bdc8262ffffff19166120ba565b9050919050565b6000611bf48262ffffff19166120e3565b9050919050565b6000611c1d608460ff1660208462ffffff19166116ee9092919063ffffffff16565b9050919050565b6000611c4660a460ff1660208462ffffff19166116ee9092919063ffffffff16565b9050919050565b6000611c6f60c460ff1660208462ffffff19166116ee9092919063ffffffff16565b9050919050565b600081836000018054905011611cd7576040517f08c379a00000000000000000000000000000000000000000000000000000000081526004018080602001828103825260228152602001806122e16022913960400191505060405180910390fd5b826000018281548110611ce657fe5b9060005260206000200154905092915050565b600080836001016000848152602001908152602001600020541415905092915050565b600081600001805490509050919050565b60008083600101600084815260200190815260200160002054905060008114611e095760006001820390506000600186600001805490500390506000866000018281548110611d7857fe5b9060005260206000200154905080876000018481548110611d9557fe5b9060005260206000200181905550600183018760010160008381526020019081526020016000208190555086600001805480611dcd57fe5b60019003818190600052602060002001600090559055866001016000878152602001908152602001600020600090556001945050505050611e0f565b60009150505b92915050565b6000818301905082811015611e92576040517f08c379a00000000000000000000000000000000000000000000000000000000081526004018080602001828103825260198152602001807f4f766572666c6f7720647572696e67206164646974696f6e2e0000000000000081525060200191505060405180910390fd5b92915050565b60008060609050600060189050858317821b9250848317821b9250838317811b925050509392505050565b6000806bffffffffffffffffffffffff90506000607860ff1690508184821c1692505050919050565b60606000611ef98661210c565b9150506000611f078661210c565b9150506000611f158661210c565b9150506000611f238661210c565b91505083838383604051602001808061243f603591396035018565ffffffffffff1660d01b8152600601807f2077697468206c656e6774682030780000000000000000000000000000000000815250600f018465ffffffffffff1660d01b815260060180612362602191396021018365ffffffffffff1660d01b8152600601807f2077697468206c656e6774682030780000000000000000000000000000000000815250600f018265ffffffffffff1660d01b8152600601807f2e00000000000000000000000000000000000000000000000000000000000000815250600101945050505050604051602081830303815290604052945050505050949350505050565b60007f8000000000000000000000000000000000000000000000000000000000000000600183031d9050919050565b6000612060826121b8565b159050919050565b600061208a600460ff1660208462ffffff19166117e89092919063ffffffff16565b9050919050565b60006120b3602460ff1660208462ffffff19166117e89092919063ffffffff16565b9050919050565b60006120dc604460ff1660208462ffffff19166116ee9092919063ffffffff16565b9050919050565b6000612105606460ff1660208462ffffff19166117e89092919063ffffffff16565b9050919050565b6000806000601f90505b600f8160ff1611156121605760006008820260ff1685901c9050612139816121f0565b61ffff168417935060108260ff161461215457601084901b93505b50600181039050612116565b506000600f90505b60ff8160ff1610156121b25760006008820260ff1685901c905061218b816121f0565b61ffff168317925060008260ff16146121a657601083901b92505b50600181039050612168565b50915091565b60007fffffffffffffffffffffffffffffffffffffffffffffffffffffffffff00000062ffffff19168262ffffff1916149050919050565b600061220260048360ff16901c612229565b60ff168117905060088161ffff16901b905061221d82612229565b60ff1681179050919050565b600080600f831690506040518060400160405280601081526020017f30313233343536373839616263646566000000000000000000000000000000008152508160ff168151811061227657fe5b602001015160f81c60f81b60f81c915050919050565b604051806101000160405280600063ffffffff16815260200160008019168152602001600080191681526020016000815260200160008019168152602001600081526020016000815260200160008152509056fe456e756d657261626c655365743a20696e646578206f7574206f6620626f756e6473416363657373436f6e74726f6c3a2073656e646572206d75737420626520616e2061646d696e20746f206772616e74416363657373436f6e74726f6c3a2073656e646572206d75737420626520616e2061646d696e20746f207265766f6b652e20417474656d7074656420746f20696e646578206174206f666673657420307854797065644d656d566965772f696e646578202d20417474656d7074656420746f20696e646578206d6f7265207468616e20333220627974657354797065644d656d566965772f636f7079546f202d204e756c6c20706f696e74657220646572656654797065644d656d566965772f636f7079546f202d20496e76616c696420706f696e746572206465726566416363657373436f6e74726f6c3a2063616e206f6e6c792072656e6f756e636520726f6c657320666f722073656c6654797065644d656d566965772f696e646578202d204f76657272616e2074686520766965772e20536c696365206973206174203078a26469706673582212200b71bc5dcbe177d325b5cfae48af3693ffda572378e5ea386bbdc4ed7953db9b64736f6c63430007060033",
  "linkReferences": {},
  "deployedLinkReferences": {}
}