{
  "_format": "hh-sol-artifact-1",
  "contractName": "CCTPMintHookWrapper",
  "sourceName": "contracts/CCTPMintHookWrapper.sol",
  "abi": [
    {
      "inputs": [
        {
          "internalType": "address",
          "name": "_usdc",
          "type": "address"
        },
        {
          "internalType": "address",
          "name": "_messageTransmitter",
          "type": "address"
        }
      ],
      "stateMutability": "nonpayable",
      "type": "constructor"
    },
    {
      "anonymous": false,
      "inputs": [
        {
          "indexed": true,
          "internalType": "bytes32",
          "name": "nonce",
          "type": "bytes32"
        },
        {
          "components": [
            {
              "internalType": "address",
              "name": "target",
              "type": "address"
            },
            {
              "internalType": "bytes32",
              "name": "orderId",
              "type": "bytes32"
            },
            {
              "internalType": "bytes32",
              "name": "intentHash",
              "type": "bytes32"
            }
          ],
          "indexed": false,
          "internalType": "struct CCTPMintHookWrapper.PaymentIntentOrder",
          "name": "order",
          "type": "tuple"
        }
      ],
      "name": "CCTPHookExecuted",
      "type": "event"
    },
    {
      "anonymous": false,
      "inputs": [
        {
          "indexed": true,
          "internalType": "bytes29",
          "name": "msg",
          "type": "bytes29"
        },
        {
          "indexed": true,
          "internalType": "bytes29",
          "name": "msgBody",
          "type": "bytes29"
        },
        {
          "indexed": false,
          "internalType": "bytes32",
          "name": "nonce",
          "type": "bytes32"
        },
        {
          "components": [
            {
              "internalType": "uint32",
              "name": "version",
              "type": "uint32"
            },
            {
              "internalType": "bytes32",
              "name": "burnToken",
              "type": "bytes32"
            },
            {
              "internalType": "bytes32",
              "name": "mintRecipient",
              "type": "bytes32"
            },
            {
              "internalType": "uint256",
              "name": "amount",
              "type": "uint256"
            },
            {
              "internalType": "bytes32",
              "name": "messageSender",
              "type": "bytes32"
            },
            {
              "internalType": "uint256",
              "name": "maxFee",
              "type": "uint256"
            },
            {
              "internalType": "uint256",
              "name": "feeExecuted",
              "type": "uint256"
            },
            {
              "internalType": "uint256",
              "name": "expirationBlock",
              "type": "uint256"
            }
          ],
          "indexed": false,
          "internalType": "struct CCTPMintHookWrapper.BurnMessageFields",
          "name": "fields",
          "type": "tuple"
        }
      ],
      "name": "CCTPMessageConsumed",
      "type": "event"
    },
    {
      "anonymous": false,
      "inputs": [
        {
          "indexed": true,
          "internalType": "bytes32",
          "name": "role",
          "type": "bytes32"
        },
        {
          "indexed": true,
          "internalType": "bytes32",
          "name": "previousAdminRole",
          "type": "bytes32"
        },
        {
          "indexed": true,
          "internalType": "bytes32",
          "name": "newAdminRole",
          "type": "bytes32"
        }
      ],
      "name": "RoleAdminChanged",
      "type": "event"
    },
    {
      "anonymous": false,
      "inputs": [
        {
          "indexed": true,
          "internalType": "bytes32",
          "name": "role",
          "type": "bytes32"
        },
        {
          "indexed": true,
          "internalType": "address",
          "name": "account",
          "type": "address"
        },
        {
          "indexed": true,
          "internalType": "address",
          "name": "sender",
          "type": "address"
        }
      ],
      "name": "RoleGranted",
      "type": "event"
    },
    {
      "anonymous": false,
      "inputs": [
        {
          "indexed": true,
          "internalType": "bytes32",
          "name": "role",
          "type": "bytes32"
        },
        {
          "indexed": true,
          "internalType": "address",
          "name": "account",
          "type": "address"
        },
        {
          "indexed": true,
          "internalType": "address",
          "name": "sender",
          "type": "address"
        }
      ],
      "name": "RoleRevoked",
      "type": "event"
    },
    {
      "inputs": [],
      "name": "DEFAULT_ADMIN_ROLE",
      "outputs": [
        {
          "internalType": "bytes32",
          "name": "",
          "type": "bytes32"
        }
      ],
      "stateMutability": "view",
      "type": "function"
    },
    {
      "inputs": [],
      "name": "MESSAGE_TRANSMITTER",
      "outputs": [
        {
          "internalType": "contract IReceiverV2",
          "name": "",
          "type": "address"
        }
      ],
      "stateMutability": "view",
      "type": "function"
    },
    {
      "inputs": [],
      "name": "RELAYER_ROLE",
      "outputs": [
        {
          "internalType": "bytes32",
          "name": "",
          "type": "bytes32"
        }
      ],
      "stateMutability": "view",
      "type": "function"
    },
    {
      "inputs": [],
      "name": "SUPPORTED_MESSAGE_BODY_VERSION",
      "outputs": [
        {
          "internalType": "uint32",
          "name": "",
          "type": "uint32"
        }
      ],
      "stateMutability": "view",
      "type": "function"
    },
    {
      "inputs": [],
      "name": "SUPPORTED_MESSAGE_VERSION",
      "outputs": [
        {
          "internalType": "uint32",
          "name": "",
          "type": "uint32"
        }
      ],
      "stateMutability": "view",
      "type": "function"
    },
    {
      "inputs": [],
      "name": "USDC",
      "outputs": [
        {
          "internalType": "contract IERC20",
          "name": "",
          "type": "address"
        }
      ],
      "stateMutability": "view",
      "type": "function"
    },
    {
      "inputs": [
        {
          "internalType": "bytes32",
          "name": "role",
          "type": "bytes32"
        }
      ],
      "name": "getRoleAdmin",
      "outputs": [
        {
          "internalType": "bytes32",
          "name": "",
          "type": "bytes32"
        }
      ],
      "stateMutability": "view",
      "type": "function"
    },
    {
      "inputs": [
        {
          "internalType": "bytes32",
          "name": "role",
          "type": "bytes32"
        },
        {
          "internalType": "uint256",
          "name": "index",
          "type": "uint256"
        }
      ],
      "name": "getRoleMember",
      "outputs": [
        {
          "internalType": "address",
          "name": "",
          "type": "address"
        }
      ],
      "stateMutability": "view",
      "type": "function"
    },
    {
      "inputs": [
        {
          "internalType": "bytes32",
          "name": "role",
          "type": "bytes32"
        }
      ],
      "name": "getRoleMemberCount",
      "outputs": [
        {
          "internalType": "uint256",
          "name": "",
          "type": "uint256"
        }
      ],
      "stateMutability": "view",
      "type": "function"
    },
    {
      "inputs": [
        {
          "internalType": "bytes32",
          "name": "role",
          "type": "bytes32"
        },
        {
          "internalType": "address",
          "name": "account",
          "type": "address"
        }
      ],
      "name": "grantRole",
      "outputs": [],
      "stateMutability": "nonpayable",
      "type": "function"
    },
    {
      "inputs": [
        {
          "internalType": "bytes32",
          "name": "role",
          "type": "bytes32"
        },
        {
          "internalType": "address",
          "name": "account",
          "type": "address"
        }
      ],
      "name": "hasRole",
      "outputs": [
        {
          "internalType": "bool",
          "name": "",
          "type": "bool"
        }
      ],
      "stateMutability": "view",
      "type": "function"
    },
    {
      "inputs": [],
      "name": "recoveryWallet",
      "outputs": [
        {
          "internalType": "address",
          "name": "",
          "type": "address"
        }
      ],
      "stateMutability": "view",
      "type": "function"
    },
    {
      "inputs": [
        {
          "internalType": "bytes",
          "name": "message",
          "type": "bytes"
        },
        {
          "internalType": "bytes",
          "name": "attestation",
          "type": "bytes"
        },
        {
          "components": [
            {
              "internalType": "uint256",
              "name": "amount",
              "type": "uint256"
            },
            {
              "internalType": "uint256",
              "name": "feeBps",
              "type": "uint256"
            },
            {
              "internalType": "address",
              "name": "feeRecipient",
              "type": "address"
            },
            {
              "internalType": "address",
              "name": "merchant",
              "type": "address"
            },
            {
              "internalType": "uint256",
              "name": "salt",
              "type": "uint256"
            },
            {
              "internalType": "enum QuantityType",
              "name": "quantityType",
              "type": "uint8"
            },
            {
              "internalType": "uint256",
              "name": "quantity",
              "type": "uint256"
            },
            {
              "internalType": "enum SignerType",
              "name": "signerType",
              "type": "uint8"
            },
            {
              "internalType": "address",
              "name": "signer",
              "type": "address"
            },
            {
              "internalType": "uint256",
              "name": "nonce",
              "type": "uint256"
            }
          ],
          "internalType": "struct PaymentIntent",
          "name": "intent",
          "type": "tuple"
        },
        {
          "internalType": "bytes",
          "name": "signature",
          "type": "bytes"
        }
      ],
      "name": "relayIntent",
      "outputs": [],
      "stateMutability": "nonpayable",
      "type": "function"
    },
    {
      "inputs": [
        {
          "internalType": "bytes32",
          "name": "role",
          "type": "bytes32"
        },
        {
          "internalType": "address",
          "name": "account",
          "type": "address"
        }
      ],
      "name": "renounceRole",
      "outputs": [],
      "stateMutability": "nonpayable",
      "type": "function"
    },
    {
      "inputs": [
        {
          "internalType": "bytes32",
          "name": "role",
          "type": "bytes32"
        },
        {
          "internalType": "address",
          "name": "account",
          "type": "address"
        }
      ],
      "name": "revokeRole",
      "outputs": [],
      "stateMutability": "nonpayable",
      "type": "function"
    },
    {
      "inputs": [
        {
          "internalType": "bytes",
          "name": "message",
          "type": "bytes"
        },
        {
          "internalType": "bytes",
          "name": "attestation",
          "type": "bytes"
        }
      ],
      "name": "saveRelay",
      "outputs": [],
      "stateMutability": "nonpayable",
      "type": "function"
    },
    {
      "inputs": [
        {
          "internalType": "address",
          "name": "_recoveryWallet",
          "type": "address"
        }
      ],
      "name": "setRecoveryWallet",
      "outputs": [],
      "stateMutability": "nonpayable",
      "type": "function"
    }
  ],
  "bytecode": "0x60c06040523480156200001157600080fd5b50604051620041243803806200412483398181016040528101906200003791906200038e565b60018081905550600073ffffffffffffffffffffffffffffffffffffffff168173ffffffffffffffffffffffffffffffffffffffff161415620000b1576040517f08c379a0000000000000000000000000000000000000000000000000000000008152600401620000a89062000475565b60405180910390fd5b600073ffffffffffffffffffffffffffffffffffffffff168273ffffffffffffffffffffffffffffffffffffffff16141562000124576040517f08c379a00000000000000000000000000000000000000000000000000000000081526004016200011b9062000453565b60405180910390fd5b8073ffffffffffffffffffffffffffffffffffffffff1660808173ffffffffffffffffffffffffffffffffffffffff1660601b815250508173ffffffffffffffffffffffffffffffffffffffff1660a08173ffffffffffffffffffffffffffffffffffffffff1660601b81525050620001a76000801b33620001e160201b60201c565b620001d97fe2b7fb3b832174769106daebcfd6d1970523240dda11281102db9363b83b0dc433620001e160201b60201c565b5050620004f6565b620001f38282620001f760201b60201c565b5050565b62000225816000808581526020019081526020016000206000016200029a60201b62000a561790919060201c565b1562000296576200023b620002d260201b60201c565b73ffffffffffffffffffffffffffffffffffffffff168173ffffffffffffffffffffffffffffffffffffffff16837f2f8788117e7eff1d82e926ec794901d17c78024a50270940304540a733656f0d60405160405180910390a45b5050565b6000620002ca836000018373ffffffffffffffffffffffffffffffffffffffff1660001b620002da60201b60201c565b905092915050565b600033905090565b6000620002ee83836200035460201b60201c565b620003495782600001829080600181540180825580915050600190039060005260206000200160009091909190915055826000018054905083600101600084815260200190815260200160002081905550600190506200034e565b600090505b92915050565b600080836001016000848152602001908152602001600020541415905092915050565b6000815190506200038881620004dc565b92915050565b60008060408385031215620003a257600080fd5b6000620003b28582860162000377565b9250506020620003c58582860162000377565b9150509250929050565b6000620003de60108362000497565b91507f5553444320697320746865207a65726f000000000000000000000000000000006000830152602082019050919050565b600062000420601f8362000497565b91507f4d657373616765207472616e736d697474657220697320746865207a65726f006000830152602082019050919050565b600060208201905081810360008301526200046e81620003cf565b9050919050565b60006020820190508181036000830152620004908162000411565b9050919050565b600082825260208201905092915050565b6000620004b582620004bc565b9050919050565b600073ffffffffffffffffffffffffffffffffffffffff82169050919050565b620004e781620004a8565b8114620004f357600080fd5b50565b60805160601c60a05160601c613beb620005396000398061065852806108bb528061105d52806110b652806111eb5250806107095280610cea5250613beb6000f3fe608060405234801561001057600080fd5b506004361061010b5760003560e01c806391d14854116100a2578063ca06ca9411610071578063ca06ca94146102a8578063ca15c873146102c4578063cd00c538146102f4578063d547741f14610310578063ffd7c9a51461032c5761010b565b806391d148541461021e578063926d7d7f1461024e578063a217fddf1461026c578063b6a84a5f1461028a5761010b565b80633ec954ed116100de5780633ec954ed146101965780637e91f774146101b457806389a30271146101d05780639010d07c146101ee5761010b565b80631c4f121414610110578063248a9ca31461012e5780632f2ff15d1461015e57806336568abe1461017a575b600080fd5b61011861034a565b60405161012591906136f5565b60405180910390f35b61014860048036038101906101439190612c89565b61034f565b604051610155919061346a565b60405180910390f35b61017860048036038101906101739190612cdb565b61036e565b005b610194600480360381019061018f9190612cdb565b6103f7565b005b61019e610490565b6040516101ab9190613434565b60405180910390f35b6101ce60048036038101906101c99190612dc8565b6104b6565b005b6101d8610656565b6040516101e5919061358d565b60405180910390f35b61020860048036038101906102039190612d17565b61067a565b6040516102159190613434565b60405180910390f35b61023860048036038101906102339190612cdb565b6106ab565b604051610245919061344f565b60405180910390f35b6102566106dc565b604051610263919061346a565b60405180910390f35b610274610700565b604051610281919061346a565b60405180910390f35b610292610707565b60405161029f91906135a8565b60405180910390f35b6102c260048036038101906102bd9190612d53565b61072b565b005b6102de60048036038101906102d99190612c89565b610912565b6040516102eb91906136da565b60405180910390f35b61030e60048036038101906103099190612c37565b610938565b005b61032a60048036038101906103259190612cdb565b6109c8565b005b610334610a51565b60405161034191906136f5565b60405180910390f35b600181565b6000806000838152602001908152602001600020600201549050919050565b6103946000808481526020019081526020016000206002015461038f610a86565b6106ab565b6103e9576040517f08c379a000000000000000000000000000000000000000000000000000000000815260040180806020018281038252602f8152602001806139bf602f913960400191505060405180910390fd5b6103f38282610a8e565b5050565b6103ff610a86565b73ffffffffffffffffffffffffffffffffffffffff168173ffffffffffffffffffffffffffffffffffffffff1614610482576040517f08c379a000000000000000000000000000000000000000000000000000000000815260040180806020018281038252602f815260200180613b52602f913960400191505060405180910390fd5b61048c8282610b21565b5050565b600260009054906101000a900473ffffffffffffffffffffffffffffffffffffffff1681565b6002600154141561052f576040517f08c379a000000000000000000000000000000000000000000000000000000000815260040180806020018281038252601f8152602001807f5265656e7472616e637947756172643a207265656e7472616e742063616c6c0081525060200191505060405180910390fd5b60026001819055506105617fe2b7fb3b832174769106daebcfd6d1970523240dda11281102db9363b83b0dc4336106ab565b8061057557506105746000801b336106ab565b5b6105b4576040517f08c379a00000000000000000000000000000000000000000000000000000000081526004016105ab90613683565b60405180910390fd5b6000806000806105c68a8a8a8a610bb4565b935093509350935060006105d984610e47565b905060006105ec8262ffffff1916610e94565b905060006105f982610edb565b90506106088582868c8c610f7f565b847f582cdfa1f4b650da44bcb971f1f68cf0bb1660531c8c0895db990a8eab0ed8cc8260405161063891906136a3565b60405180910390a25050505050505060018081905550505050505050565b7f000000000000000000000000000000000000000000000000000000000000000081565b60006106a38260008086815260200190815260200160002060000161123790919063ffffffff16565b905092915050565b60006106d48260008086815260200190815260200160002060000161125190919063ffffffff16565b905092915050565b7fe2b7fb3b832174769106daebcfd6d1970523240dda11281102db9363b83b0dc481565b6000801b81565b7f000000000000000000000000000000000000000000000000000000000000000081565b600260015414156107a4576040517f08c379a000000000000000000000000000000000000000000000000000000000815260040180806020018281038252601f8152602001807f5265656e7472616e637947756172643a207265656e7472616e742063616c6c0081525060200191505060405180910390fd5b60026001819055506107d67fe2b7fb3b832174769106daebcfd6d1970523240dda11281102db9363b83b0dc4336106ab565b806107ea57506107e96000801b336106ab565b5b610829576040517f08c379a000000000000000000000000000000000000000000000000000000000815260040161082090613683565b60405180910390fd5b60008060008061083b88888888610bb4565b935093509350935060006108528260400151611281565b90503073ffffffffffffffffffffffffffffffffffffffff168173ffffffffffffffffffffffffffffffffffffffff161415610900576108ff600260009054906101000a900473ffffffffffffffffffffffffffffffffffffffff168360c001518460600151037f000000000000000000000000000000000000000000000000000000000000000073ffffffffffffffffffffffffffffffffffffffff1661128e9092919063ffffffff16565b5b50505050506001808190555050505050565b6000610931600080848152602001908152602001600020600001611330565b9050919050565b6109456000801b336106ab565b610984576040517f08c379a000000000000000000000000000000000000000000000000000000000815260040161097b906135e3565b60405180910390fd5b80600260006101000a81548173ffffffffffffffffffffffffffffffffffffffff021916908373ffffffffffffffffffffffffffffffffffffffff16021790555050565b6109ee600080848152602001908152602001600020600201546109e9610a86565b6106ab565b610a43576040517f08c379a0000000000000000000000000000000000000000000000000000000008152600401808060200182810382526030815260200180613a146030913960400191505060405180910390fd5b610a4d8282610b21565b5050565b600181565b6000610a7e836000018373ffffffffffffffffffffffffffffffffffffffff1660001b611345565b905092915050565b600033905090565b610ab581600080858152602001908152602001600020600001610a5690919063ffffffff16565b15610b1d57610ac2610a86565b73ffffffffffffffffffffffffffffffffffffffff168173ffffffffffffffffffffffffffffffffffffffff16837f2f8788117e7eff1d82e926ec794901d17c78024a50270940304540a733656f0d60405160405180910390a45b5050565b610b48816000808581526020019081526020016000206000016113b590919063ffffffff16565b15610bb057610b55610a86565b73ffffffffffffffffffffffffffffffffffffffff168173ffffffffffffffffffffffffffffffffffffffff16837ff6391f5c32d9c69d2a47ea670b442974b53935d1edc7fd64eb21e047a839171b60405160405180910390a45b5050565b6000806000610bc161296f565b610c19600089898080601f016020809104026020016040519081016040528093929190818152602001838380828437600081840152601f19601f820116905080830192505050505050506113e590919063ffffffff16565b9350610c2484611410565b600163ffffffff16610c358561152a565b63ffffffff1614610c7b576040517f08c379a0000000000000000000000000000000000000000000000000000000008152600401610c7290613663565b60405180910390fd5b6000610c8685611553565b9050610c91816115a0565b600163ffffffff16610ca2826116ba565b63ffffffff1614610ce8576040517f08c379a0000000000000000000000000000000000000000000000000000000008152600401610cdf906135c3565b60405180910390fd5b7f000000000000000000000000000000000000000000000000000000000000000073ffffffffffffffffffffffffffffffffffffffff166357ecfd288a8a8a8a6040518563ffffffff1660e01b8152600401610d479493929190613552565b602060405180830381600087803b158015610d6157600080fd5b505af1158015610d75573d6000803e3d6000fd5b505050506040513d601f19601f82011682018060405250810190610d999190612c60565b610dd8576040517f08c379a0000000000000000000000000000000000000000000000000000000008152600401610dcf90613643565b60405180910390fd5b610de1856116d2565b9250610dec816116fb565b91508062ffffff19168562ffffff19167f834eb50e9512c977c642fe8fa4035143a710357d7660be88a32cb4fb312439c58585604051610e2d929190613485565b60405180910390a384819450945050945094509450949050565b6000610e8d60e460ff1660e460ff16610e658562ffffff19166117a6565b036bffffffffffffffffffffffff1660008562ffffff19166117cc909392919063ffffffff16565b9050919050565b6060600080610ea2846117a6565b6bffffffffffffffffffffffff1690506040519150819250610ec78460208401611878565b506020818301016040528082525050919050565b610ee36129c3565b6054825114610f27576040517f08c379a0000000000000000000000000000000000000000000000000000000008152600401610f1e90613623565b60405180910390fd5b6000806000602085015160601c9250603485015191506054850151905060405180606001604052808473ffffffffffffffffffffffffffffffffffffffff168152602001838152602001828152509350505050919050565b8360400151846000015173ffffffffffffffffffffffffffffffffffffffff1663c44b9b3e846040518263ffffffff1660e01b8152600401610fc191906136be565b60206040518083038186803b158015610fd957600080fd5b505afa158015610fed573d6000803e3d6000fd5b505050506040513d601f19601f820116820180604052508101906110119190612cb2565b14611051576040517f08c379a000000000000000000000000000000000000000000000000000000000815260040161104890613603565b60405180910390fd5b6110a1846000015160007f000000000000000000000000000000000000000000000000000000000000000073ffffffffffffffffffffffffffffffffffffffff16611a259092919063ffffffff16565b6110fa84600001518460c001518560600151037f000000000000000000000000000000000000000000000000000000000000000073ffffffffffffffffffffffffffffffffffffffff16611a259092919063ffffffff16565b6000604051806060016040528086602001518152602001848152602001838152509050846000015173ffffffffffffffffffffffffffffffffffffffff166386beff848786600001518760200151886040015189606001518a608001518b60a001518c60c001518d60e001518b6040518b63ffffffff1660e01b815260040161118c9a999897969594939291906134af565b602060405180830381600087803b1580156111a657600080fd5b505af11580156111ba573d6000803e3d6000fd5b505050506040513d601f19601f820116820180604052508101906111de9190612c60565b5061122f856000015160007f000000000000000000000000000000000000000000000000000000000000000073ffffffffffffffffffffffffffffffffffffffff16611a259092919063ffffffff16565b505050505050565b60006112468360000183611bea565b60001c905092915050565b6000611279836000018373ffffffffffffffffffffffffffffffffffffffff1660001b611c6d565b905092915050565b60008160001c9050919050565b61132b8363a9059cbb60e01b8484604051602401808373ffffffffffffffffffffffffffffffffffffffff16815260200182815260200192505050604051602081830303815290604052907bffffffffffffffffffffffffffffffffffffffffffffffffffffffff19166020820180517bffffffffffffffffffffffffffffffffffffffffffffffffffffffff8381831617835250505050611c90565b505050565b600061133e82600001611d7f565b9050919050565b60006113518383611c6d565b6113aa5782600001829080600181540180825580915050600190039060005260206000200160009091909190915055826000018054905083600101600084815260200190815260200160002081905550600190506113af565b600090505b92915050565b60006113dd836000018373ffffffffffffffffffffffffffffffffffffffff1660001b611d90565b905092915050565b6000808351905060006020850190506114068464ffffffffff168284611e78565b9250505092915050565b61141f8162ffffff1916611ee7565b611491576040517f08c379a00000000000000000000000000000000000000000000000000000000081526004018080602001828103825260118152602001807f4d616c666f726d6564206d65737361676500000000000000000000000000000081525060200191505060405180910390fd5b609460ff166114a58262ffffff19166117a6565b6bffffffffffffffffffffffff161015611527576040517f08c379a000000000000000000000000000000000000000000000000000000000815260040180806020018281038252601a8152602001807f496e76616c6964206d6573736167653a20746f6f2073686f727400000000000081525060200191505060405180910390fd5b50565b600061154c600060ff1660048462ffffff1916611f2a9092919063ffffffff16565b9050919050565b6000611599609460ff16609460ff166115718562ffffff19166117a6565b036bffffffffffffffffffffffff1660008562ffffff19166117cc909392919063ffffffff16565b9050919050565b6115af8162ffffff1916611ee7565b611621576040517f08c379a00000000000000000000000000000000000000000000000000000000081526004018080602001828103825260118152602001807f4d616c666f726d6564206d65737361676500000000000000000000000000000081525060200191505060405180910390fd5b60e460ff166116358262ffffff19166117a6565b6bffffffffffffffffffffffff1610156116b7576040517f08c379a000000000000000000000000000000000000000000000000000000000815260040180806020018281038252601f8152602001807f496e76616c6964206275726e206d6573736167653a20746f6f2073686f72740081525060200191505060405180910390fd5b50565b60006116cb8262ffffff1916611f4f565b9050919050565b60006116f4600c60ff1660208462ffffff1916611f789092919063ffffffff16565b9050919050565b61170361296f565b61170c826116ba565b816000019063ffffffff16908163ffffffff168152505061172c8261213f565b81602001818152505061173e82612157565b8160400181815250506117508261216f565b81606001818152505061176282612187565b8160800181815250506117748261219f565b8160a0018181525050611786826121c8565b8160c0018181525050611798826121f1565b8160e0018181525050919050565b6000806bffffffffffffffffffffffff90506000601890508184821c1692505050919050565b6000806117d88661221a565b6bffffffffffffffffffffffff1690506117f186612243565b61181685611808888561226d90919063ffffffff16565b61226d90919063ffffffff16565b1115611845577fffffffffffffffffffffffffffffffffffffffffffffffffffffffffff000000915050611870565b611858858261226d90919063ffffffff16565b905061186c8364ffffffffff168286611e78565b9150505b949350505050565b6000611883836122f0565b6118d8576040517f08c379a0000000000000000000000000000000000000000000000000000000008152600401808060200182810382526028815260200180613aff6028913960400191505060405180910390fd5b6118e183611ee7565b611936576040517f08c379a000000000000000000000000000000000000000000000000000000000815260040180806020018281038252602b815260200180613b27602b913960400191505060405180910390fd5b6000611941846117a6565b6bffffffffffffffffffffffff169050600061195c8561221a565b6bffffffffffffffffffffffff1690506000806040519150858211156119825760206060fd5b8386858560045afa9050806119ff576040517f08c379a000000000000000000000000000000000000000000000000000000000815260040180806020018281038252600c8152602001807f6964656e74697479204f4f47000000000000000000000000000000000000000081525060200191505060405180910390fd5b611a19611a0b88612303565b64ffffffffff168786612318565b94505050505092915050565b6000811480611af3575060008373ffffffffffffffffffffffffffffffffffffffff1663dd62ed3e30856040518363ffffffff1660e01b8152600401808373ffffffffffffffffffffffffffffffffffffffff1681526020018273ffffffffffffffffffffffffffffffffffffffff1681526020019250505060206040518083038186803b158015611ab657600080fd5b505afa158015611aca573d6000803e3d6000fd5b505050506040513d6020811015611ae057600080fd5b8101908080519060200190929190505050145b611b48576040517f08c379a0000000000000000000000000000000000000000000000000000000008152600401808060200182810382526036815260200180613ac96036913960400191505060405180910390fd5b611be58363095ea7b360e01b8484604051602401808373ffffffffffffffffffffffffffffffffffffffff16815260200182815260200192505050604051602081830303815290604052907bffffffffffffffffffffffffffffffffffffffffffffffffffffffff19166020820180517bffffffffffffffffffffffffffffffffffffffffffffffffffffffff8381831617835250505050611c90565b505050565b600081836000018054905011611c4b576040517f08c379a000000000000000000000000000000000000000000000000000000000815260040180806020018281038252602281526020018061399d6022913960400191505060405180910390fd5b826000018281548110611c5a57fe5b9060005260206000200154905092915050565b600080836001016000848152602001908152602001600020541415905092915050565b6000611cf2826040518060400160405280602081526020017f5361666545524332303a206c6f772d6c6576656c2063616c6c206661696c65648152508573ffffffffffffffffffffffffffffffffffffffff166123439092919063ffffffff16565b9050600081511115611d7a57808060200190516020811015611d1357600080fd5b8101908080519060200190929190505050611d79576040517f08c379a000000000000000000000000000000000000000000000000000000000815260040180806020018281038252602a815260200180613a9f602a913960400191505060405180910390fd5b5b505050565b600081600001805490509050919050565b60008083600101600084815260200190815260200160002054905060008114611e6c5760006001820390506000600186600001805490500390506000866000018281548110611ddb57fe5b9060005260206000200154905080876000018481548110611df857fe5b9060005260206000200181905550600183018760010160008381526020019081526020016000208190555086600001805480611e3057fe5b60019003818190600052602060002001600090559055866001016000878152602001908152602001600020600090556001945050505050611e72565b60009150505b92915050565b600080611e8e838561226d90919063ffffffff16565b9050604051811115611e9f57600090505b6000811415611ed1577fffffffffffffffffffffffffffffffffffffffffffffffffffffffffff000000915050611ee0565b611edc858585612318565b9150505b9392505050565b600064ffffffffff611ef883612303565b64ffffffffff161415611f0e5760009050611f25565b6000611f1983612243565b90506040518111159150505b919050565b60006008826020030260ff16611f41858585611f78565b60001c901c90509392505050565b6000611f71600060ff1660048462ffffff1916611f2a9092919063ffffffff16565b9050919050565b6000808260ff161415611f90576000801b9050612138565b611f99846117a6565b6bffffffffffffffffffffffff16611fbd8360ff168561226d90919063ffffffff16565b111561209f57611ffe611fcf8561221a565b6bffffffffffffffffffffffff16611fe6866117a6565b6bffffffffffffffffffffffff16858560ff1661235b565b6040517f08c379a00000000000000000000000000000000000000000000000000000000081526004018080602001828103825283818151815260200191508051906020019080838360005b83811015612064578082015181840152602081019050612049565b50505050905090810190601f1680156120915780820380516001836020036101000a031916815260200191505b509250505060405180910390fd5b60208260ff1611156120fc576040517f08c379a000000000000000000000000000000000000000000000000000000000815260040180806020018281038252603a815260200180613a65603a913960400191505060405180910390fd5b6000600883029050600061210f8661221a565b6bffffffffffffffffffffffff169050600061212a83612495565b905080868301511693505050505b9392505050565b60006121508262ffffff19166124c4565b9050919050565b60006121688262ffffff19166124ed565b9050919050565b60006121808262ffffff1916612516565b9050919050565b60006121988262ffffff191661253f565b9050919050565b60006121c1608460ff1660208462ffffff1916611f2a9092919063ffffffff16565b9050919050565b60006121ea60a460ff1660208462ffffff1916611f2a9092919063ffffffff16565b9050919050565b600061221360c460ff1660208462ffffff1916611f2a9092919063ffffffff16565b9050919050565b6000806bffffffffffffffffffffffff90506000607860ff1690508184821c1692505050919050565b600061224e826117a6565b6122578361221a565b016bffffffffffffffffffffffff169050919050565b60008183019050828110156122ea576040517f08c379a00000000000000000000000000000000000000000000000000000000081526004018080602001828103825260198152602001807f4f766572666c6f7720647572696e67206164646974696f6e2e0000000000000081525060200191505060405180910390fd5b92915050565b60006122fb82612568565b159050919050565b60008060d860ff16905082811c915050919050565b60008060609050600060189050858317821b9250848317821b9250838317811b925050509392505050565b606061235284846000856125a0565b90509392505050565b6060600061236886612748565b915050600061237686612748565b915050600061238486612748565b915050600061239286612748565b915050838383836040516020018080613b81603591396035018565ffffffffffff1660d01b8152600601807f2077697468206c656e6774682030780000000000000000000000000000000000815250600f018465ffffffffffff1660d01b815260060180613a44602191396021018365ffffffffffff1660d01b8152600601807f2077697468206c656e6774682030780000000000000000000000000000000000815250600f018265ffffffffffff1660d01b8152600601807f2e00000000000000000000000000000000000000000000000000000000000000815250600101945050505050604051602081830303815290604052945050505050949350505050565b60007f8000000000000000000000000000000000000000000000000000000000000000600183031d9050919050565b60006124e6600460ff1660208462ffffff1916611f789092919063ffffffff16565b9050919050565b600061250f602460ff1660208462ffffff1916611f789092919063ffffffff16565b9050919050565b6000612538604460ff1660208462ffffff1916611f2a9092919063ffffffff16565b9050919050565b6000612561606460ff1660208462ffffff1916611f789092919063ffffffff16565b9050919050565b60007fffffffffffffffffffffffffffffffffffffffffffffffffffffffffff00000062ffffff19168262ffffff1916149050919050565b6060824710156125fb576040517f08c379a00000000000000000000000000000000000000000000000000000000081526004018080602001828103825260268152602001806139ee6026913960400191505060405180910390fd5b612604856127f4565b612676576040517f08c379a000000000000000000000000000000000000000000000000000000000815260040180806020018281038252601d8152602001807f416464726573733a2063616c6c20746f206e6f6e2d636f6e747261637400000081525060200191505060405180910390fd5b6000808673ffffffffffffffffffffffffffffffffffffffff1685876040518082805190602001908083835b602083106126c557805182526020820191506020810190506020830392506126a2565b6001836020036101000a03801982511681845116808217855250505050505090500191505060006040518083038185875af1925050503d8060008114612727576040519150601f19603f3d011682016040523d82523d6000602084013e61272c565b606091505b509150915061273c828286612807565b92505050949350505050565b6000806000601f90505b600f8160ff16111561279c5760006008820260ff1685901c9050612775816128d3565b61ffff168417935060108260ff161461279057601084901b93505b50600181039050612752565b506000600f90505b60ff8160ff1610156127ee5760006008820260ff1685901c90506127c7816128d3565b61ffff168317925060008260ff16146127e257601083901b92505b506001810390506127a4565b50915091565b600080823b905060008111915050919050565b60608315612817578290506128cc565b60008351111561282a5782518084602001fd5b816040517f08c379a00000000000000000000000000000000000000000000000000000000081526004018080602001828103825283818151815260200191508051906020019080838360005b83811015612891578082015181840152602081019050612876565b50505050905090810190601f1680156128be5780820380516001836020036101000a031916815260200191505b509250505060405180910390fd5b9392505050565b60006128e560048360ff16901c61290c565b60ff168117905060088161ffff16901b90506129008261290c565b60ff1681179050919050565b600080600f831690506040518060400160405280601081526020017f30313233343536373839616263646566000000000000000000000000000000008152508160ff168151811061295957fe5b602001015160f81c60f81b60f81c915050919050565b604051806101000160405280600063ffffffff168152602001600080191681526020016000801916815260200160008152602001600080191681526020016000815260200160008152602001600081525090565b6040518060600160405280600073ffffffffffffffffffffffffffffffffffffffff16815260200160008019168152602001600080191681525090565b6000612a13612a0e84613741565b613710565b905082815260208101848484011115612a2b57600080fd5b612a368482856138a3565b509392505050565b600081359050612a4d81613920565b92915050565b600081519050612a6281613937565b92915050565b600081359050612a778161394e565b92915050565b600081519050612a8c8161394e565b92915050565b60008083601f840112612aa457600080fd5b8235905067ffffffffffffffff811115612abd57600080fd5b602083019150836001820283011115612ad557600080fd5b9250929050565b600082601f830112612aed57600080fd5b8135612afd848260208601612a00565b91505092915050565b600081359050612b1581613965565b92915050565b600081359050612b2a81613975565b92915050565b60006101408284031215612b4357600080fd5b612b4e610140613710565b90506000612b5e84828501612c22565b6000830152506020612b7284828501612c22565b6020830152506040612b8684828501612a3e565b6040830152506060612b9a84828501612a3e565b6060830152506080612bae84828501612c22565b60808301525060a0612bc284828501612b06565b60a08301525060c0612bd684828501612c22565b60c08301525060e0612bea84828501612b1b565b60e083015250610100612bff84828501612a3e565b61010083015250610120612c1584828501612c22565b6101208301525092915050565b600081359050612c3181613985565b92915050565b600060208284031215612c4957600080fd5b6000612c5784828501612a3e565b91505092915050565b600060208284031215612c7257600080fd5b6000612c8084828501612a53565b91505092915050565b600060208284031215612c9b57600080fd5b6000612ca984828501612a68565b91505092915050565b600060208284031215612cc457600080fd5b6000612cd284828501612a7d565b91505092915050565b60008060408385031215612cee57600080fd5b6000612cfc85828601612a68565b9250506020612d0d85828601612a3e565b9150509250929050565b60008060408385031215612d2a57600080fd5b6000612d3885828601612a68565b9250506020612d4985828601612c22565b9150509250929050565b60008060008060408587031215612d6957600080fd5b600085013567ffffffffffffffff811115612d8357600080fd5b612d8f87828801612a92565b9450945050602085013567ffffffffffffffff811115612dae57600080fd5b612dba87828801612a92565b925092505092959194509250565b6000806000806000806101a08789031215612de257600080fd5b600087013567ffffffffffffffff811115612dfc57600080fd5b612e0889828a01612a92565b9650965050602087013567ffffffffffffffff811115612e2757600080fd5b612e3389828a01612a92565b94509450506040612e4689828a01612b30565b92505061018087013567ffffffffffffffff811115612e6457600080fd5b612e7089828a01612adc565b9150509295509295509295565b612e86816137af565b82525050565b612e95816137af565b82525050565b612ea4816137c1565b82525050565b612eb3816137cd565b82525050565b612ec2816137cd565b82525050565b6000612ed4838561378d565b9350612ee18385846138a3565b612eea836138e7565b840190509392505050565b6000612f0082613771565b612f0a818561377c565b9350612f1a8185602086016138b2565b612f23816138e7565b840191505092915050565b612f3781613837565b82525050565b612f468161385b565b82525050565b612f558161387f565b82525050565b612f6481613891565b82525050565b6000612f77601c8361379e565b91507f496e76616c6964206d65737361676520626f64792076657273696f6e000000006000830152602082019050919050565b6000612fb7600a8361379e565b91507f4f6e6c792061646d696e000000000000000000000000000000000000000000006000830152602082019050919050565b6000612ff760138361379e565b91507f496e76616c696420696e74656e742068617368000000000000000000000000006000830152602082019050919050565b600061303760188361379e565b91507f496e76616c696420686f6f6b2064617461206c656e67746800000000000000006000830152602082019050919050565b600061307760168361379e565b91507f52656365697665206d657373616765206661696c6564000000000000000000006000830152602082019050919050565b60006130b760178361379e565b91507f496e76616c6964206d6573736167652076657273696f6e0000000000000000006000830152602082019050919050565b60006130f760158361379e565b91507f4f6e6c792072656c61796572206f722061646d696e00000000000000000000006000830152602082019050919050565b610100820160008201516131416000850182613416565b5060208201516131546020850182612eaa565b5060408201516131676040850182612eaa565b50606082015161317a60608501826133f8565b50608082015161318d6080850182612eaa565b5060a08201516131a060a08501826133f8565b5060c08201516131b360c08501826133f8565b5060e08201516131c660e08501826133f8565b50505050565b6000610180830160008301516131e56000860182612eaa565b5060208301516131f86020860182613260565b5060408301518482036101608601526132118282612ef5565b9150508091505092915050565b6060820160008201516132346000850182612e7d565b5060208201516132476020850182612eaa565b50604082015161325a6040850182612eaa565b50505050565b6101408201600082015161327760008501826133f8565b50602082015161328a60208501826133f8565b50604082015161329d6040850182612e7d565b5060608201516132b06060850182612e7d565b5060808201516132c360808501826133f8565b5060a08201516132d660a0850182612f4c565b5060c08201516132e960c08501826133f8565b5060e08201516132fc60e0850182612f5b565b50610100820151613311610100850182612e7d565b506101208201516133266101208501826133f8565b50505050565b6101408201600082015161334360008501826133f8565b50602082015161335660208501826133f8565b5060408201516133696040850182612e7d565b50606082015161337c6060850182612e7d565b50608082015161338f60808501826133f8565b5060a08201516133a260a0850182612f4c565b5060c08201516133b560c08501826133f8565b5060e08201516133c860e0850182612f5b565b506101008201516133dd610100850182612e7d565b506101208201516133f26101208501826133f8565b50505050565b6134018161381d565b82525050565b6134108161381d565b82525050565b61341f81613827565b82525050565b61342e81613827565b82525050565b60006020820190506134496000830184612e8c565b92915050565b60006020820190506134646000830184612e9b565b92915050565b600060208201905061347f6000830184612eb9565b92915050565b60006101208201905061349b6000830185612eb9565b6134a8602083018461312a565b9392505050565b6000610140820190506134c5600083018d612eb9565b6134d2602083018c613425565b6134df604083018b612eb9565b6134ec606083018a612eb9565b6134f96080830189613407565b61350660a0830188612eb9565b61351360c0830187613407565b61352060e0830186613407565b61352e610100830185613407565b81810361012083015261354181846131cc565b90509b9a5050505050505050505050565b6000604082019050818103600083015261356d818688612ec8565b90508181036020830152613582818486612ec8565b905095945050505050565b60006020820190506135a26000830184612f2e565b92915050565b60006020820190506135bd6000830184612f3d565b92915050565b600060208201905081810360008301526135dc81612f6a565b9050919050565b600060208201905081810360008301526135fc81612faa565b9050919050565b6000602082019050818103600083015261361c81612fea565b9050919050565b6000602082019050818103600083015261363c8161302a565b9050919050565b6000602082019050818103600083015261365c8161306a565b9050919050565b6000602082019050818103600083015261367c816130aa565b9050919050565b6000602082019050818103600083015261369c816130ea565b9050919050565b60006060820190506136b8600083018461321e565b92915050565b6000610140820190506136d4600083018461332c565b92915050565b60006020820190506136ef6000830184613407565b92915050565b600060208201905061370a6000830184613425565b92915050565b6000604051905081810181811067ffffffffffffffff82111715613737576137366138e5565b5b8060405250919050565b600067ffffffffffffffff82111561375c5761375b6138e5565b5b601f19601f8301169050602081019050919050565b600081519050919050565b600082825260208201905092915050565b600082825260208201905092915050565b600082825260208201905092915050565b60006137ba826137fd565b9050919050565b60008115159050919050565b6000819050919050565b60008190506137e5826138f8565b919050565b60008190506137f88261390c565b919050565b600073ffffffffffffffffffffffffffffffffffffffff82169050919050565b6000819050919050565b600063ffffffff82169050919050565b600061384282613849565b9050919050565b6000613854826137fd565b9050919050565b60006138668261386d565b9050919050565b6000613878826137fd565b9050919050565b600061388a826137d7565b9050919050565b600061389c826137ea565b9050919050565b82818337600083830152505050565b60005b838110156138d05780820151818401526020810190506138b5565b838111156138df576000848401525b50505050565bfe5b6000601f19601f8301169050919050565b60028110613909576139086138e5565b5b50565b6002811061391d5761391c6138e5565b5b50565b613929816137af565b811461393457600080fd5b50565b613940816137c1565b811461394b57600080fd5b50565b613957816137cd565b811461396257600080fd5b50565b6002811061397257600080fd5b50565b6002811061398257600080fd5b50565b61398e8161381d565b811461399957600080fd5b5056fe456e756d657261626c655365743a20696e646578206f7574206f6620626f756e6473416363657373436f6e74726f6c3a2073656e646572206d75737420626520616e2061646d696e20746f206772616e74416464726573733a20696e73756666696369656e742062616c616e636520666f722063616c6c416363657373436f6e74726f6c3a2073656e646572206d75737420626520616e2061646d696e20746f207265766f6b652e20417474656d7074656420746f20696e646578206174206f666673657420307854797065644d656d566965772f696e646578202d20417474656d7074656420746f20696e646578206d6f7265207468616e2033322062797465735361666545524332303a204552433230206f7065726174696f6e20646964206e6f7420737563636565645361666545524332303a20617070726f76652066726f6d206e6f6e2d7a65726f20746f206e6f6e2d7a65726f20616c6c6f77616e636554797065644d656d566965772f636f7079546f202d204e756c6c20706f696e74657220646572656654797065644d656d566965772f636f7079546f202d20496e76616c696420706f696e746572206465726566416363657373436f6e74726f6c3a2063616e206f6e6c792072656e6f756e636520726f6c657320666f722073656c6654797065644d656d566965772f696e646578202d204f76657272616e2074686520766965772e20536c696365206973206174203078a26469706673582212202802721cd34e16554401491e45ba091a9b60051809a48f4c999f49adf3bf091564736f6c63430007060033",
  "linkReferences": {},
  "deployedLinkReferences": {}
}