{
  "_format": "hh-sol-artifact-1",
  "contractName": "CCTPMintHookWrapper",
  "sourceName": "contracts/CCTPMintHookWrapper.sol",
  "abi": [
    {
      "inputs": [
        {
          "internalType": "address",
          "name": "_usdc",
          "type": "address"
        },
        {
          "internalType": "address",
          "name": "_messageTransmitter",
          "type": "address"
        }
      ],
      "stateMutability": "nonpayable",
      "type": "constructor"
    },
    {
      "anonymous": false,
      "inputs": [
        {
          "indexed": true,
          "internalType": "bytes32",
          "name": "nonce",
          "type": "bytes32"
        },
        {
          "components": [
            {
              "internalType": "address",
              "name": "target",
              "type": "address"
            },
            {
              "internalType": "bytes32",
              "name": "orderId",
              "type": "bytes32"
            },
            {
              "internalType": "bytes32",
              "name": "intentHash",
              "type": "bytes32"
            }
          ],
          "indexed": false,
          "internalType": "struct CCTPMintHookWrapper.PaymentIntentOrder",
          "name": "order",
          "type": "tuple"
        }
      ],
      "name": "CCTPHookExecuted",
      "type": "event"
    },
    {
      "anonymous": false,
      "inputs": [
        {
          "indexed": true,
          "internalType": "bytes29",
          "name": "msg",
          "type": "bytes29"
        },
        {
          "indexed": true,
          "internalType": "bytes29",
          "name": "msgBody",
          "type": "bytes29"
        },
        {
          "indexed": false,
          "internalType": "bytes32",
          "name": "nonce",
          "type": "bytes32"
        },
        {
          "components": [
            {
              "internalType": "uint32",
              "name": "version",
              "type": "uint32"
            },
            {
              "internalType": "bytes32",
              "name": "burnToken",
              "type": "bytes32"
            },
            {
              "internalType": "bytes32",
              "name": "mintRecipient",
              "type": "bytes32"
            },
            {
              "internalType": "uint256",
              "name": "amount",
              "type": "uint256"
            },
            {
              "internalType": "bytes32",
              "name": "messageSender",
              "type": "bytes32"
            },
            {
              "internalType": "uint256",
              "name": "maxFee",
              "type": "uint256"
            },
            {
              "internalType": "uint256",
              "name": "feeExecuted",
              "type": "uint256"
            },
            {
              "internalType": "uint256",
              "name": "expirationBlock",
              "type": "uint256"
            }
          ],
          "indexed": false,
          "internalType": "struct CCTPMintHookWrapper.BurnMessageFields",
          "name": "fields",
          "type": "tuple"
        }
      ],
      "name": "CCTPMessageConsumed",
      "type": "event"
    },
    {
      "anonymous": false,
      "inputs": [
        {
          "indexed": true,
          "internalType": "bytes32",
          "name": "role",
          "type": "bytes32"
        },
        {
          "indexed": true,
          "internalType": "bytes32",
          "name": "previousAdminRole",
          "type": "bytes32"
        },
        {
          "indexed": true,
          "internalType": "bytes32",
          "name": "newAdminRole",
          "type": "bytes32"
        }
      ],
      "name": "RoleAdminChanged",
      "type": "event"
    },
    {
      "anonymous": false,
      "inputs": [
        {
          "indexed": true,
          "internalType": "bytes32",
          "name": "role",
          "type": "bytes32"
        },
        {
          "indexed": true,
          "internalType": "address",
          "name": "account",
          "type": "address"
        },
        {
          "indexed": true,
          "internalType": "address",
          "name": "sender",
          "type": "address"
        }
      ],
      "name": "RoleGranted",
      "type": "event"
    },
    {
      "anonymous": false,
      "inputs": [
        {
          "indexed": true,
          "internalType": "bytes32",
          "name": "role",
          "type": "bytes32"
        },
        {
          "indexed": true,
          "internalType": "address",
          "name": "account",
          "type": "address"
        },
        {
          "indexed": true,
          "internalType": "address",
          "name": "sender",
          "type": "address"
        }
      ],
      "name": "RoleRevoked",
      "type": "event"
    },
    {
      "inputs": [],
      "name": "DEFAULT_ADMIN_ROLE",
      "outputs": [
        {
          "internalType": "bytes32",
          "name": "",
          "type": "bytes32"
        }
      ],
      "stateMutability": "view",
      "type": "function"
    },
    {
      "inputs": [],
      "name": "MESSAGE_TRANSMITTER",
      "outputs": [
        {
          "internalType": "contract IReceiverV2",
          "name": "",
          "type": "address"
        }
      ],
      "stateMutability": "view",
      "type": "function"
    },
    {
      "inputs": [],
      "name": "RELAYER_ROLE",
      "outputs": [
        {
          "internalType": "bytes32",
          "name": "",
          "type": "bytes32"
        }
      ],
      "stateMutability": "view",
      "type": "function"
    },
    {
      "inputs": [],
      "name": "SUPPORTED_MESSAGE_BODY_VERSION",
      "outputs": [
        {
          "internalType": "uint32",
          "name": "",
          "type": "uint32"
        }
      ],
      "stateMutability": "view",
      "type": "function"
    },
    {
      "inputs": [],
      "name": "SUPPORTED_MESSAGE_VERSION",
      "outputs": [
        {
          "internalType": "uint32",
          "name": "",
          "type": "uint32"
        }
      ],
      "stateMutability": "view",
      "type": "function"
    },
    {
      "inputs": [],
      "name": "USDC",
      "outputs": [
        {
          "internalType": "contract IERC20",
          "name": "",
          "type": "address"
        }
      ],
      "stateMutability": "view",
      "type": "function"
    },
    {
      "inputs": [
        {
          "internalType": "bytes32",
          "name": "role",
          "type": "bytes32"
        }
      ],
      "name": "getRoleAdmin",
      "outputs": [
        {
          "internalType": "bytes32",
          "name": "",
          "type": "bytes32"
        }
      ],
      "stateMutability": "view",
      "type": "function"
    },
    {
      "inputs": [
        {
          "internalType": "bytes32",
          "name": "role",
          "type": "bytes32"
        },
        {
          "internalType": "uint256",
          "name": "index",
          "type": "uint256"
        }
      ],
      "name": "getRoleMember",
      "outputs": [
        {
          "internalType": "address",
          "name": "",
          "type": "address"
        }
      ],
      "stateMutability": "view",
      "type": "function"
    },
    {
      "inputs": [
        {
          "internalType": "bytes32",
          "name": "role",
          "type": "bytes32"
        }
      ],
      "name": "getRoleMemberCount",
      "outputs": [
        {
          "internalType": "uint256",
          "name": "",
          "type": "uint256"
        }
      ],
      "stateMutability": "view",
      "type": "function"
    },
    {
      "inputs": [
        {
          "internalType": "bytes32",
          "name": "role",
          "type": "bytes32"
        },
        {
          "internalType": "address",
          "name": "account",
          "type": "address"
        }
      ],
      "name": "grantRole",
      "outputs": [],
      "stateMutability": "nonpayable",
      "type": "function"
    },
    {
      "inputs": [
        {
          "internalType": "bytes32",
          "name": "role",
          "type": "bytes32"
        },
        {
          "internalType": "address",
          "name": "account",
          "type": "address"
        }
      ],
      "name": "hasRole",
      "outputs": [
        {
          "internalType": "bool",
          "name": "",
          "type": "bool"
        }
      ],
      "stateMutability": "view",
      "type": "function"
    },
    {
      "inputs": [
        {
          "internalType": "bytes",
          "name": "message",
          "type": "bytes"
        },
        {
          "internalType": "bytes",
          "name": "attestation",
          "type": "bytes"
        },
        {
          "components": [
            {
              "internalType": "uint256",
              "name": "amount",
              "type": "uint256"
            },
            {
              "internalType": "uint256",
              "name": "feeBps",
              "type": "uint256"
            },
            {
              "internalType": "address",
              "name": "feeRecipient",
              "type": "address"
            },
            {
              "internalType": "address",
              "name": "merchant",
              "type": "address"
            },
            {
              "internalType": "uint256",
              "name": "salt",
              "type": "uint256"
            },
            {
              "internalType": "enum QuantityType",
              "name": "quantityType",
              "type": "uint8"
            },
            {
              "internalType": "uint256",
              "name": "quantity",
              "type": "uint256"
            },
            {
              "internalType": "enum SignerType",
              "name": "signerType",
              "type": "uint8"
            },
            {
              "internalType": "address",
              "name": "signer",
              "type": "address"
            },
            {
              "internalType": "uint256",
              "name": "nonce",
              "type": "uint256"
            }
          ],
          "internalType": "struct PaymentIntent",
          "name": "intent",
          "type": "tuple"
        },
        {
          "internalType": "bytes",
          "name": "signature",
          "type": "bytes"
        }
      ],
      "name": "relayIntent",
      "outputs": [],
      "stateMutability": "nonpayable",
      "type": "function"
    },
    {
      "inputs": [
        {
          "internalType": "bytes32",
          "name": "role",
          "type": "bytes32"
        },
        {
          "internalType": "address",
          "name": "account",
          "type": "address"
        }
      ],
      "name": "renounceRole",
      "outputs": [],
      "stateMutability": "nonpayable",
      "type": "function"
    },
    {
      "inputs": [
        {
          "internalType": "bytes32",
          "name": "role",
          "type": "bytes32"
        },
        {
          "internalType": "address",
          "name": "account",
          "type": "address"
        }
      ],
      "name": "revokeRole",
      "outputs": [],
      "stateMutability": "nonpayable",
      "type": "function"
    },
    {
      "inputs": [
        {
          "internalType": "bytes",
          "name": "message",
          "type": "bytes"
        },
        {
          "internalType": "bytes",
          "name": "attestation",
          "type": "bytes"
        },
        {
          "internalType": "address",
          "name": "recoveryAddress",
          "type": "address"
        }
      ],
      "name": "saveRelay",
      "outputs": [],
      "stateMutability": "nonpayable",
      "type": "function"
    }
  ],
  "bytecode": "0x60c06040523480156200001157600080fd5b5060405162003f8838038062003f8883398181016040528101906200003791906200038e565b60018081905550600073ffffffffffffffffffffffffffffffffffffffff168173ffffffffffffffffffffffffffffffffffffffff161415620000b1576040517f08c379a0000000000000000000000000000000000000000000000000000000008152600401620000a89062000475565b60405180910390fd5b600073ffffffffffffffffffffffffffffffffffffffff168273ffffffffffffffffffffffffffffffffffffffff16141562000124576040517f08c379a00000000000000000000000000000000000000000000000000000000081526004016200011b9062000453565b60405180910390fd5b8073ffffffffffffffffffffffffffffffffffffffff1660808173ffffffffffffffffffffffffffffffffffffffff1660601b815250508173ffffffffffffffffffffffffffffffffffffffff1660a08173ffffffffffffffffffffffffffffffffffffffff1660601b81525050620001a76000801b33620001e160201b60201c565b620001d97fe2b7fb3b832174769106daebcfd6d1970523240dda11281102db9363b83b0dc433620001e160201b60201c565b5050620004f6565b620001f38282620001f760201b60201c565b5050565b62000225816000808581526020019081526020016000206000016200029a60201b6200092f1790919060201c565b1562000296576200023b620002d260201b60201c565b73ffffffffffffffffffffffffffffffffffffffff168173ffffffffffffffffffffffffffffffffffffffff16837f2f8788117e7eff1d82e926ec794901d17c78024a50270940304540a733656f0d60405160405180910390a45b5050565b6000620002ca836000018373ffffffffffffffffffffffffffffffffffffffff1660001b620002da60201b60201c565b905092915050565b600033905090565b6000620002ee83836200035460201b60201c565b620003495782600001829080600181540180825580915050600190039060005260206000200160009091909190915055826000018054905083600101600084815260200190815260200160002081905550600190506200034e565b600090505b92915050565b600080836001016000848152602001908152602001600020541415905092915050565b6000815190506200038881620004dc565b92915050565b60008060408385031215620003a257600080fd5b6000620003b28582860162000377565b9250506020620003c58582860162000377565b9150509250929050565b6000620003de60108362000497565b91507f5553444320697320746865207a65726f000000000000000000000000000000006000830152602082019050919050565b600062000420601f8362000497565b91507f4d657373616765207472616e736d697474657220697320746865207a65726f006000830152602082019050919050565b600060208201905081810360008301526200046e81620003cf565b9050919050565b60006020820190508181036000830152620004908162000411565b9050919050565b600082825260208201905092915050565b6000620004b582620004bc565b9050919050565b600073ffffffffffffffffffffffffffffffffffffffff82169050919050565b620004e781620004a8565b8114620004f357600080fd5b50565b60805160601c60a05160601c613a4f62000539600039806105e252806108235280610f365280610f8f52806110c45250806106935280610bc35250613a4f6000f3fe608060405234801561001057600080fd5b50600436106100f55760003560e01c806391d1485411610097578063c7770c9c11610066578063c7770c9c14610274578063ca15c87314610290578063d547741f146102c0578063ffd7c9a5146102dc576100f5565b806391d14854146101ea578063926d7d7f1461021a578063a217fddf14610238578063b6a84a5f14610256576100f5565b806336568abe116100d357806336568abe146101645780637e91f7741461018057806389a302711461019c5780639010d07c146101ba576100f5565b80631c4f1214146100fa578063248a9ca3146101185780632f2ff15d14610148575b600080fd5b6101026102fa565b60405161010f9190613559565b60405180910390f35b610132600480360381019061012d9190612b39565b6102ff565b60405161013f91906132ee565b60405180910390f35b610162600480360381019061015d9190612b8b565b61031e565b005b61017e60048036038101906101799190612b8b565b6103a7565b005b61019a60048036038101906101959190612c8c565b610440565b005b6101a46105e0565b6040516101b19190613411565b60405180910390f35b6101d460048036038101906101cf9190612bc7565b610604565b6040516101e191906132b8565b60405180910390f35b61020460048036038101906101ff9190612b8b565b610635565b60405161021191906132d3565b60405180910390f35b610222610666565b60405161022f91906132ee565b60405180910390f35b61024061068a565b60405161024d91906132ee565b60405180910390f35b61025e610691565b60405161026b919061342c565b60405180910390f35b61028e60048036038101906102899190612c03565b6106b5565b005b6102aa60048036038101906102a59190612b39565b61087b565b6040516102b7919061353e565b60405180910390f35b6102da60048036038101906102d59190612b8b565b6108a1565b005b6102e461092a565b6040516102f19190613559565b60405180910390f35b600181565b6000806000838152602001908152602001600020600201549050919050565b6103446000808481526020019081526020016000206002015461033f61095f565b610635565b610399576040517f08c379a000000000000000000000000000000000000000000000000000000000815260040180806020018281038252602f815260200180613823602f913960400191505060405180910390fd5b6103a38282610967565b5050565b6103af61095f565b73ffffffffffffffffffffffffffffffffffffffff168173ffffffffffffffffffffffffffffffffffffffff1614610432576040517f08c379a000000000000000000000000000000000000000000000000000000000815260040180806020018281038252602f8152602001806139b6602f913960400191505060405180910390fd5b61043c82826109fa565b5050565b600260015414156104b9576040517f08c379a000000000000000000000000000000000000000000000000000000000815260040180806020018281038252601f8152602001807f5265656e7472616e637947756172643a207265656e7472616e742063616c6c0081525060200191505060405180910390fd5b60026001819055506104eb7fe2b7fb3b832174769106daebcfd6d1970523240dda11281102db9363b83b0dc433610635565b806104ff57506104fe6000801b33610635565b5b61053e576040517f08c379a0000000000000000000000000000000000000000000000000000000008152600401610535906134e7565b60405180910390fd5b6000806000806105508a8a8a8a610a8d565b9350935093509350600061056384610d20565b905060006105768262ffffff1916610d6d565b9050600061058382610db4565b90506105928582868c8c610e58565b847f582cdfa1f4b650da44bcb971f1f68cf0bb1660531c8c0895db990a8eab0ed8cc826040516105c29190613507565b60405180910390a25050505050505060018081905550505050505050565b7f000000000000000000000000000000000000000000000000000000000000000081565b600061062d8260008086815260200190815260200160002060000161111090919063ffffffff16565b905092915050565b600061065e8260008086815260200190815260200160002060000161112a90919063ffffffff16565b905092915050565b7fe2b7fb3b832174769106daebcfd6d1970523240dda11281102db9363b83b0dc481565b6000801b81565b7f000000000000000000000000000000000000000000000000000000000000000081565b6002600154141561072e576040517f08c379a000000000000000000000000000000000000000000000000000000000815260040180806020018281038252601f8152602001807f5265656e7472616e637947756172643a207265656e7472616e742063616c6c0081525060200191505060405180910390fd5b60026001819055506107607fe2b7fb3b832174769106daebcfd6d1970523240dda11281102db9363b83b0dc433610635565b8061077457506107736000801b33610635565b5b6107b3576040517f08c379a00000000000000000000000000000000000000000000000000000000081526004016107aa906134e7565b60405180910390fd5b6000806000806107c589898989610a8d565b935093509350935060006107dc826040015161115a565b90503073ffffffffffffffffffffffffffffffffffffffff168173ffffffffffffffffffffffffffffffffffffffff16141561086857610867868360c001518460600151037f000000000000000000000000000000000000000000000000000000000000000073ffffffffffffffffffffffffffffffffffffffff166111679092919063ffffffff16565b5b5050505050600180819055505050505050565b600061089a600080848152602001908152602001600020600001611209565b9050919050565b6108c7600080848152602001908152602001600020600201546108c261095f565b610635565b61091c576040517f08c379a00000000000000000000000000000000000000000000000000000000081526004018080602001828103825260308152602001806138786030913960400191505060405180910390fd5b61092682826109fa565b5050565b600181565b6000610957836000018373ffffffffffffffffffffffffffffffffffffffff1660001b61121e565b905092915050565b600033905090565b61098e8160008085815260200190815260200160002060000161092f90919063ffffffff16565b156109f65761099b61095f565b73ffffffffffffffffffffffffffffffffffffffff168173ffffffffffffffffffffffffffffffffffffffff16837f2f8788117e7eff1d82e926ec794901d17c78024a50270940304540a733656f0d60405160405180910390a45b5050565b610a218160008085815260200190815260200160002060000161128e90919063ffffffff16565b15610a8957610a2e61095f565b73ffffffffffffffffffffffffffffffffffffffff168173ffffffffffffffffffffffffffffffffffffffff16837ff6391f5c32d9c69d2a47ea670b442974b53935d1edc7fd64eb21e047a839171b60405160405180910390a45b5050565b6000806000610a9a612848565b610af2600089898080601f016020809104026020016040519081016040528093929190818152602001838380828437600081840152601f19601f820116905080830192505050505050506112be90919063ffffffff16565b9350610afd846112e9565b600163ffffffff16610b0e85611403565b63ffffffff1614610b54576040517f08c379a0000000000000000000000000000000000000000000000000000000008152600401610b4b906134c7565b60405180910390fd5b6000610b5f8561142c565b9050610b6a81611479565b600163ffffffff16610b7b82611593565b63ffffffff1614610bc1576040517f08c379a0000000000000000000000000000000000000000000000000000000008152600401610bb890613447565b60405180910390fd5b7f000000000000000000000000000000000000000000000000000000000000000073ffffffffffffffffffffffffffffffffffffffff166357ecfd288a8a8a8a6040518563ffffffff1660e01b8152600401610c2094939291906133d6565b602060405180830381600087803b158015610c3a57600080fd5b505af1158015610c4e573d6000803e3d6000fd5b505050506040513d601f19601f82011682018060405250810190610c729190612b10565b610cb1576040517f08c379a0000000000000000000000000000000000000000000000000000000008152600401610ca8906134a7565b60405180910390fd5b610cba856115ab565b9250610cc5816115d4565b91508062ffffff19168562ffffff19167f834eb50e9512c977c642fe8fa4035143a710357d7660be88a32cb4fb312439c58585604051610d06929190613309565b60405180910390a384819450945050945094509450949050565b6000610d6660e460ff1660e460ff16610d3e8562ffffff191661167f565b036bffffffffffffffffffffffff1660008562ffffff19166116a5909392919063ffffffff16565b9050919050565b6060600080610d7b8461167f565b6bffffffffffffffffffffffff1690506040519150819250610da08460208401611751565b506020818301016040528082525050919050565b610dbc61289c565b6054825114610e00576040517f08c379a0000000000000000000000000000000000000000000000000000000008152600401610df790613487565b60405180910390fd5b6000806000602085015160601c9250603485015191506054850151905060405180606001604052808473ffffffffffffffffffffffffffffffffffffffff168152602001838152602001828152509350505050919050565b8360400151846000015173ffffffffffffffffffffffffffffffffffffffff1663c44b9b3e846040518263ffffffff1660e01b8152600401610e9a9190613522565b60206040518083038186803b158015610eb257600080fd5b505afa158015610ec6573d6000803e3d6000fd5b505050506040513d601f19601f82011682018060405250810190610eea9190612b62565b14610f2a576040517f08c379a0000000000000000000000000000000000000000000000000000000008152600401610f2190613467565b60405180910390fd5b610f7a846000015160007f000000000000000000000000000000000000000000000000000000000000000073ffffffffffffffffffffffffffffffffffffffff166118fe9092919063ffffffff16565b610fd384600001518460c001518560600151037f000000000000000000000000000000000000000000000000000000000000000073ffffffffffffffffffffffffffffffffffffffff166118fe9092919063ffffffff16565b6000604051806060016040528086602001518152602001848152602001838152509050846000015173ffffffffffffffffffffffffffffffffffffffff166386beff848786600001518760200151886040015189606001518a608001518b60a001518c60c001518d60e001518b6040518b63ffffffff1660e01b81526004016110659a99989796959493929190613333565b602060405180830381600087803b15801561107f57600080fd5b505af1158015611093573d6000803e3d6000fd5b505050506040513d601f19601f820116820180604052508101906110b79190612b10565b50611108856000015160007f000000000000000000000000000000000000000000000000000000000000000073ffffffffffffffffffffffffffffffffffffffff166118fe9092919063ffffffff16565b505050505050565b600061111f8360000183611ac3565b60001c905092915050565b6000611152836000018373ffffffffffffffffffffffffffffffffffffffff1660001b611b46565b905092915050565b60008160001c9050919050565b6112048363a9059cbb60e01b8484604051602401808373ffffffffffffffffffffffffffffffffffffffff16815260200182815260200192505050604051602081830303815290604052907bffffffffffffffffffffffffffffffffffffffffffffffffffffffff19166020820180517bffffffffffffffffffffffffffffffffffffffffffffffffffffffff8381831617835250505050611b69565b505050565b600061121782600001611c58565b9050919050565b600061122a8383611b46565b611283578260000182908060018154018082558091505060019003906000526020600020016000909190919091505582600001805490508360010160008481526020019081526020016000208190555060019050611288565b600090505b92915050565b60006112b6836000018373ffffffffffffffffffffffffffffffffffffffff1660001b611c69565b905092915050565b6000808351905060006020850190506112df8464ffffffffff168284611d51565b9250505092915050565b6112f88162ffffff1916611dc0565b61136a576040517f08c379a00000000000000000000000000000000000000000000000000000000081526004018080602001828103825260118152602001807f4d616c666f726d6564206d65737361676500000000000000000000000000000081525060200191505060405180910390fd5b609460ff1661137e8262ffffff191661167f565b6bffffffffffffffffffffffff161015611400576040517f08c379a000000000000000000000000000000000000000000000000000000000815260040180806020018281038252601a8152602001807f496e76616c6964206d6573736167653a20746f6f2073686f727400000000000081525060200191505060405180910390fd5b50565b6000611425600060ff1660048462ffffff1916611e039092919063ffffffff16565b9050919050565b6000611472609460ff16609460ff1661144a8562ffffff191661167f565b036bffffffffffffffffffffffff1660008562ffffff19166116a5909392919063ffffffff16565b9050919050565b6114888162ffffff1916611dc0565b6114fa576040517f08c379a00000000000000000000000000000000000000000000000000000000081526004018080602001828103825260118152602001807f4d616c666f726d6564206d65737361676500000000000000000000000000000081525060200191505060405180910390fd5b60e460ff1661150e8262ffffff191661167f565b6bffffffffffffffffffffffff161015611590576040517f08c379a000000000000000000000000000000000000000000000000000000000815260040180806020018281038252601f8152602001807f496e76616c6964206275726e206d6573736167653a20746f6f2073686f72740081525060200191505060405180910390fd5b50565b60006115a48262ffffff1916611e28565b9050919050565b60006115cd600c60ff1660208462ffffff1916611e519092919063ffffffff16565b9050919050565b6115dc612848565b6115e582611593565b816000019063ffffffff16908163ffffffff168152505061160582612018565b81602001818152505061161782612030565b81604001818152505061162982612048565b81606001818152505061163b82612060565b81608001818152505061164d82612078565b8160a001818152505061165f826120a1565b8160c0018181525050611671826120ca565b8160e0018181525050919050565b6000806bffffffffffffffffffffffff90506000601890508184821c1692505050919050565b6000806116b1866120f3565b6bffffffffffffffffffffffff1690506116ca8661211c565b6116ef856116e1888561214690919063ffffffff16565b61214690919063ffffffff16565b111561171e577fffffffffffffffffffffffffffffffffffffffffffffffffffffffffff000000915050611749565b611731858261214690919063ffffffff16565b90506117458364ffffffffff168286611d51565b9150505b949350505050565b600061175c836121c9565b6117b1576040517f08c379a00000000000000000000000000000000000000000000000000000000081526004018080602001828103825260288152602001806139636028913960400191505060405180910390fd5b6117ba83611dc0565b61180f576040517f08c379a000000000000000000000000000000000000000000000000000000000815260040180806020018281038252602b81526020018061398b602b913960400191505060405180910390fd5b600061181a8461167f565b6bffffffffffffffffffffffff1690506000611835856120f3565b6bffffffffffffffffffffffff16905060008060405191508582111561185b5760206060fd5b8386858560045afa9050806118d8576040517f08c379a000000000000000000000000000000000000000000000000000000000815260040180806020018281038252600c8152602001807f6964656e74697479204f4f47000000000000000000000000000000000000000081525060200191505060405180910390fd5b6118f26118e4886121dc565b64ffffffffff1687866121f1565b94505050505092915050565b60008114806119cc575060008373ffffffffffffffffffffffffffffffffffffffff1663dd62ed3e30856040518363ffffffff1660e01b8152600401808373ffffffffffffffffffffffffffffffffffffffff1681526020018273ffffffffffffffffffffffffffffffffffffffff1681526020019250505060206040518083038186803b15801561198f57600080fd5b505afa1580156119a3573d6000803e3d6000fd5b505050506040513d60208110156119b957600080fd5b8101908080519060200190929190505050145b611a21576040517f08c379a000000000000000000000000000000000000000000000000000000000815260040180806020018281038252603681526020018061392d6036913960400191505060405180910390fd5b611abe8363095ea7b360e01b8484604051602401808373ffffffffffffffffffffffffffffffffffffffff16815260200182815260200192505050604051602081830303815290604052907bffffffffffffffffffffffffffffffffffffffffffffffffffffffff19166020820180517bffffffffffffffffffffffffffffffffffffffffffffffffffffffff8381831617835250505050611b69565b505050565b600081836000018054905011611b24576040517f08c379a00000000000000000000000000000000000000000000000000000000081526004018080602001828103825260228152602001806138016022913960400191505060405180910390fd5b826000018281548110611b3357fe5b9060005260206000200154905092915050565b600080836001016000848152602001908152602001600020541415905092915050565b6000611bcb826040518060400160405280602081526020017f5361666545524332303a206c6f772d6c6576656c2063616c6c206661696c65648152508573ffffffffffffffffffffffffffffffffffffffff1661221c9092919063ffffffff16565b9050600081511115611c5357808060200190516020811015611bec57600080fd5b8101908080519060200190929190505050611c52576040517f08c379a000000000000000000000000000000000000000000000000000000000815260040180806020018281038252602a815260200180613903602a913960400191505060405180910390fd5b5b505050565b600081600001805490509050919050565b60008083600101600084815260200190815260200160002054905060008114611d455760006001820390506000600186600001805490500390506000866000018281548110611cb457fe5b9060005260206000200154905080876000018481548110611cd157fe5b9060005260206000200181905550600183018760010160008381526020019081526020016000208190555086600001805480611d0957fe5b60019003818190600052602060002001600090559055866001016000878152602001908152602001600020600090556001945050505050611d4b565b60009150505b92915050565b600080611d67838561214690919063ffffffff16565b9050604051811115611d7857600090505b6000811415611daa577fffffffffffffffffffffffffffffffffffffffffffffffffffffffffff000000915050611db9565b611db58585856121f1565b9150505b9392505050565b600064ffffffffff611dd1836121dc565b64ffffffffff161415611de75760009050611dfe565b6000611df28361211c565b90506040518111159150505b919050565b60006008826020030260ff16611e1a858585611e51565b60001c901c90509392505050565b6000611e4a600060ff1660048462ffffff1916611e039092919063ffffffff16565b9050919050565b6000808260ff161415611e69576000801b9050612011565b611e728461167f565b6bffffffffffffffffffffffff16611e968360ff168561214690919063ffffffff16565b1115611f7857611ed7611ea8856120f3565b6bffffffffffffffffffffffff16611ebf8661167f565b6bffffffffffffffffffffffff16858560ff16612234565b6040517f08c379a00000000000000000000000000000000000000000000000000000000081526004018080602001828103825283818151815260200191508051906020019080838360005b83811015611f3d578082015181840152602081019050611f22565b50505050905090810190601f168015611f6a5780820380516001836020036101000a031916815260200191505b509250505060405180910390fd5b60208260ff161115611fd5576040517f08c379a000000000000000000000000000000000000000000000000000000000815260040180806020018281038252603a8152602001806138c9603a913960400191505060405180910390fd5b60006008830290506000611fe8866120f3565b6bffffffffffffffffffffffff16905060006120038361236e565b905080868301511693505050505b9392505050565b60006120298262ffffff191661239d565b9050919050565b60006120418262ffffff19166123c6565b9050919050565b60006120598262ffffff19166123ef565b9050919050565b60006120718262ffffff1916612418565b9050919050565b600061209a608460ff1660208462ffffff1916611e039092919063ffffffff16565b9050919050565b60006120c360a460ff1660208462ffffff1916611e039092919063ffffffff16565b9050919050565b60006120ec60c460ff1660208462ffffff1916611e039092919063ffffffff16565b9050919050565b6000806bffffffffffffffffffffffff90506000607860ff1690508184821c1692505050919050565b60006121278261167f565b612130836120f3565b016bffffffffffffffffffffffff169050919050565b60008183019050828110156121c3576040517f08c379a00000000000000000000000000000000000000000000000000000000081526004018080602001828103825260198152602001807f4f766572666c6f7720647572696e67206164646974696f6e2e0000000000000081525060200191505060405180910390fd5b92915050565b60006121d482612441565b159050919050565b60008060d860ff16905082811c915050919050565b60008060609050600060189050858317821b9250848317821b9250838317811b925050509392505050565b606061222b8484600085612479565b90509392505050565b6060600061224186612621565b915050600061224f86612621565b915050600061225d86612621565b915050600061226b86612621565b9150508383838360405160200180806139e5603591396035018565ffffffffffff1660d01b8152600601807f2077697468206c656e6774682030780000000000000000000000000000000000815250600f018465ffffffffffff1660d01b8152600601806138a8602191396021018365ffffffffffff1660d01b8152600601807f2077697468206c656e6774682030780000000000000000000000000000000000815250600f018265ffffffffffff1660d01b8152600601807f2e00000000000000000000000000000000000000000000000000000000000000815250600101945050505050604051602081830303815290604052945050505050949350505050565b60007f8000000000000000000000000000000000000000000000000000000000000000600183031d9050919050565b60006123bf600460ff1660208462ffffff1916611e519092919063ffffffff16565b9050919050565b60006123e8602460ff1660208462ffffff1916611e519092919063ffffffff16565b9050919050565b6000612411604460ff1660208462ffffff1916611e039092919063ffffffff16565b9050919050565b600061243a606460ff1660208462ffffff1916611e519092919063ffffffff16565b9050919050565b60007fffffffffffffffffffffffffffffffffffffffffffffffffffffffffff00000062ffffff19168262ffffff1916149050919050565b6060824710156124d4576040517f08c379a00000000000000000000000000000000000000000000000000000000081526004018080602001828103825260268152602001806138526026913960400191505060405180910390fd5b6124dd856126cd565b61254f576040517f08c379a000000000000000000000000000000000000000000000000000000000815260040180806020018281038252601d8152602001807f416464726573733a2063616c6c20746f206e6f6e2d636f6e747261637400000081525060200191505060405180910390fd5b6000808673ffffffffffffffffffffffffffffffffffffffff1685876040518082805190602001908083835b6020831061259e578051825260208201915060208101905060208303925061257b565b6001836020036101000a03801982511681845116808217855250505050505090500191505060006040518083038185875af1925050503d8060008114612600576040519150601f19603f3d011682016040523d82523d6000602084013e612605565b606091505b50915091506126158282866126e0565b92505050949350505050565b6000806000601f90505b600f8160ff1611156126755760006008820260ff1685901c905061264e816127ac565b61ffff168417935060108260ff161461266957601084901b93505b5060018103905061262b565b506000600f90505b60ff8160ff1610156126c75760006008820260ff1685901c90506126a0816127ac565b61ffff168317925060008260ff16146126bb57601083901b92505b5060018103905061267d565b50915091565b600080823b905060008111915050919050565b606083156126f0578290506127a5565b6000835111156127035782518084602001fd5b816040517f08c379a00000000000000000000000000000000000000000000000000000000081526004018080602001828103825283818151815260200191508051906020019080838360005b8381101561276a57808201518184015260208101905061274f565b50505050905090810190601f1680156127975780820380516001836020036101000a031916815260200191505b509250505060405180910390fd5b9392505050565b60006127be60048360ff16901c6127e5565b60ff168117905060088161ffff16901b90506127d9826127e5565b60ff1681179050919050565b600080600f831690506040518060400160405280601081526020017f30313233343536373839616263646566000000000000000000000000000000008152508160ff168151811061283257fe5b602001015160f81c60f81b60f81c915050919050565b604051806101000160405280600063ffffffff168152602001600080191681526020016000801916815260200160008152602001600080191681526020016000815260200160008152602001600081525090565b6040518060600160405280600073ffffffffffffffffffffffffffffffffffffffff16815260200160008019168152602001600080191681525090565b60006128ec6128e7846135a5565b613574565b90508281526020810184848401111561290457600080fd5b61290f848285613707565b509392505050565b60008135905061292681613784565b92915050565b60008151905061293b8161379b565b92915050565b600081359050612950816137b2565b92915050565b600081519050612965816137b2565b92915050565b60008083601f84011261297d57600080fd5b8235905067ffffffffffffffff81111561299657600080fd5b6020830191508360018202830111156129ae57600080fd5b9250929050565b600082601f8301126129c657600080fd5b81356129d68482602086016128d9565b91505092915050565b6000813590506129ee816137c9565b92915050565b600081359050612a03816137d9565b92915050565b60006101408284031215612a1c57600080fd5b612a27610140613574565b90506000612a3784828501612afb565b6000830152506020612a4b84828501612afb565b6020830152506040612a5f84828501612917565b6040830152506060612a7384828501612917565b6060830152506080612a8784828501612afb565b60808301525060a0612a9b848285016129df565b60a08301525060c0612aaf84828501612afb565b60c08301525060e0612ac3848285016129f4565b60e083015250610100612ad884828501612917565b61010083015250610120612aee84828501612afb565b6101208301525092915050565b600081359050612b0a816137e9565b92915050565b600060208284031215612b2257600080fd5b6000612b308482850161292c565b91505092915050565b600060208284031215612b4b57600080fd5b6000612b5984828501612941565b91505092915050565b600060208284031215612b7457600080fd5b6000612b8284828501612956565b91505092915050565b60008060408385031215612b9e57600080fd5b6000612bac85828601612941565b9250506020612bbd85828601612917565b9150509250929050565b60008060408385031215612bda57600080fd5b6000612be885828601612941565b9250506020612bf985828601612afb565b9150509250929050565b600080600080600060608688031215612c1b57600080fd5b600086013567ffffffffffffffff811115612c3557600080fd5b612c418882890161296b565b9550955050602086013567ffffffffffffffff811115612c6057600080fd5b612c6c8882890161296b565b93509350506040612c7f88828901612917565b9150509295509295909350565b6000806000806000806101a08789031215612ca657600080fd5b600087013567ffffffffffffffff811115612cc057600080fd5b612ccc89828a0161296b565b9650965050602087013567ffffffffffffffff811115612ceb57600080fd5b612cf789828a0161296b565b94509450506040612d0a89828a01612a09565b92505061018087013567ffffffffffffffff811115612d2857600080fd5b612d3489828a016129b5565b9150509295509295509295565b612d4a81613613565b82525050565b612d5981613613565b82525050565b612d6881613625565b82525050565b612d7781613631565b82525050565b612d8681613631565b82525050565b6000612d9883856135f1565b9350612da5838584613707565b612dae8361374b565b840190509392505050565b6000612dc4826135d5565b612dce81856135e0565b9350612dde818560208601613716565b612de78161374b565b840191505092915050565b612dfb8161369b565b82525050565b612e0a816136bf565b82525050565b612e19816136e3565b82525050565b612e28816136f5565b82525050565b6000612e3b601c83613602565b91507f496e76616c6964206d65737361676520626f64792076657273696f6e000000006000830152602082019050919050565b6000612e7b601383613602565b91507f496e76616c696420696e74656e742068617368000000000000000000000000006000830152602082019050919050565b6000612ebb601883613602565b91507f496e76616c696420686f6f6b2064617461206c656e67746800000000000000006000830152602082019050919050565b6000612efb601683613602565b91507f52656365697665206d657373616765206661696c6564000000000000000000006000830152602082019050919050565b6000612f3b601783613602565b91507f496e76616c6964206d6573736167652076657273696f6e0000000000000000006000830152602082019050919050565b6000612f7b601583613602565b91507f4f6e6c792072656c61796572206f722061646d696e00000000000000000000006000830152602082019050919050565b61010082016000820151612fc5600085018261329a565b506020820151612fd86020850182612d6e565b506040820151612feb6040850182612d6e565b506060820151612ffe606085018261327c565b5060808201516130116080850182612d6e565b5060a082015161302460a085018261327c565b5060c082015161303760c085018261327c565b5060e082015161304a60e085018261327c565b50505050565b6000610180830160008301516130696000860182612d6e565b50602083015161307c60208601826130e4565b5060408301518482036101608601526130958282612db9565b9150508091505092915050565b6060820160008201516130b86000850182612d41565b5060208201516130cb6020850182612d6e565b5060408201516130de6040850182612d6e565b50505050565b610140820160008201516130fb600085018261327c565b50602082015161310e602085018261327c565b5060408201516131216040850182612d41565b5060608201516131346060850182612d41565b506080820151613147608085018261327c565b5060a082015161315a60a0850182612e10565b5060c082015161316d60c085018261327c565b5060e082015161318060e0850182612e1f565b50610100820151613195610100850182612d41565b506101208201516131aa61012085018261327c565b50505050565b610140820160008201516131c7600085018261327c565b5060208201516131da602085018261327c565b5060408201516131ed6040850182612d41565b5060608201516132006060850182612d41565b506080820151613213608085018261327c565b5060a082015161322660a0850182612e10565b5060c082015161323960c085018261327c565b5060e082015161324c60e0850182612e1f565b50610100820151613261610100850182612d41565b5061012082015161327661012085018261327c565b50505050565b61328581613681565b82525050565b61329481613681565b82525050565b6132a38161368b565b82525050565b6132b28161368b565b82525050565b60006020820190506132cd6000830184612d50565b92915050565b60006020820190506132e86000830184612d5f565b92915050565b60006020820190506133036000830184612d7d565b92915050565b60006101208201905061331f6000830185612d7d565b61332c6020830184612fae565b9392505050565b600061014082019050613349600083018d612d7d565b613356602083018c6132a9565b613363604083018b612d7d565b613370606083018a612d7d565b61337d608083018961328b565b61338a60a0830188612d7d565b61339760c083018761328b565b6133a460e083018661328b565b6133b261010083018561328b565b8181036101208301526133c58184613050565b90509b9a5050505050505050505050565b600060408201905081810360008301526133f1818688612d8c565b90508181036020830152613406818486612d8c565b905095945050505050565b60006020820190506134266000830184612df2565b92915050565b60006020820190506134416000830184612e01565b92915050565b6000602082019050818103600083015261346081612e2e565b9050919050565b6000602082019050818103600083015261348081612e6e565b9050919050565b600060208201905081810360008301526134a081612eae565b9050919050565b600060208201905081810360008301526134c081612eee565b9050919050565b600060208201905081810360008301526134e081612f2e565b9050919050565b6000602082019050818103600083015261350081612f6e565b9050919050565b600060608201905061351c60008301846130a2565b92915050565b60006101408201905061353860008301846131b0565b92915050565b6000602082019050613553600083018461328b565b92915050565b600060208201905061356e60008301846132a9565b92915050565b6000604051905081810181811067ffffffffffffffff8211171561359b5761359a613749565b5b8060405250919050565b600067ffffffffffffffff8211156135c0576135bf613749565b5b601f19601f8301169050602081019050919050565b600081519050919050565b600082825260208201905092915050565b600082825260208201905092915050565b600082825260208201905092915050565b600061361e82613661565b9050919050565b60008115159050919050565b6000819050919050565b60008190506136498261375c565b919050565b600081905061365c82613770565b919050565b600073ffffffffffffffffffffffffffffffffffffffff82169050919050565b6000819050919050565b600063ffffffff82169050919050565b60006136a6826136ad565b9050919050565b60006136b882613661565b9050919050565b60006136ca826136d1565b9050919050565b60006136dc82613661565b9050919050565b60006136ee8261363b565b9050919050565b60006137008261364e565b9050919050565b82818337600083830152505050565b60005b83811015613734578082015181840152602081019050613719565b83811115613743576000848401525b50505050565bfe5b6000601f19601f8301169050919050565b6002811061376d5761376c613749565b5b50565b6002811061378157613780613749565b5b50565b61378d81613613565b811461379857600080fd5b50565b6137a481613625565b81146137af57600080fd5b50565b6137bb81613631565b81146137c657600080fd5b50565b600281106137d657600080fd5b50565b600281106137e657600080fd5b50565b6137f281613681565b81146137fd57600080fd5b5056fe456e756d657261626c655365743a20696e646578206f7574206f6620626f756e6473416363657373436f6e74726f6c3a2073656e646572206d75737420626520616e2061646d696e20746f206772616e74416464726573733a20696e73756666696369656e742062616c616e636520666f722063616c6c416363657373436f6e74726f6c3a2073656e646572206d75737420626520616e2061646d696e20746f207265766f6b652e20417474656d7074656420746f20696e646578206174206f666673657420307854797065644d656d566965772f696e646578202d20417474656d7074656420746f20696e646578206d6f7265207468616e2033322062797465735361666545524332303a204552433230206f7065726174696f6e20646964206e6f7420737563636565645361666545524332303a20617070726f76652066726f6d206e6f6e2d7a65726f20746f206e6f6e2d7a65726f20616c6c6f77616e636554797065644d656d566965772f636f7079546f202d204e756c6c20706f696e74657220646572656654797065644d656d566965772f636f7079546f202d20496e76616c696420706f696e746572206465726566416363657373436f6e74726f6c3a2063616e206f6e6c792072656e6f756e636520726f6c657320666f722073656c6654797065644d656d566965772f696e646578202d204f76657272616e2074686520766965772e20536c696365206973206174203078a264697066735822122061c800e2aa0b343e3d155000c5db173728ffb3a19ee0aa256013652e05f177cc64736f6c63430007060033",
  "linkReferences": {},
  "deployedLinkReferences": {}
}