{
  "_format": "hh-sol-artifact-1",
  "contractName": "PaymentIntentHandlerV2",
  "sourceName": "contracts/v2/PaymentIntentHandlerV2.sol",
  "abi": [
    {
      "inputs": [
        {
          "internalType": "address",
          "name": "_usdc",
          "type": "address"
        },
        {
          "internalType": "address",
          "name": "_hookWrapper",
          "type": "address"
        }
      ],
      "stateMutability": "nonpayable",
      "type": "constructor"
    },
    {
      "anonymous": false,
      "inputs": [
        {
          "indexed": false,
          "internalType": "uint256",
          "name": "amount",
          "type": "uint256"
        },
        {
          "indexed": false,
          "internalType": "uint32",
          "name": "destinationDomain",
          "type": "uint32"
        },
        {
          "indexed": false,
          "internalType": "bytes32",
          "name": "mintRecipient",
          "type": "bytes32"
        },
        {
          "indexed": false,
          "internalType": "address",
          "name": "burnToken",
          "type": "address"
        },
        {
          "indexed": false,
          "internalType": "bytes32",
          "name": "destinationCaller",
          "type": "bytes32"
        },
        {
          "indexed": false,
          "internalType": "uint256",
          "name": "maxFee",
          "type": "uint256"
        },
        {
          "indexed": false,
          "internalType": "uint32",
          "name": "minFinalityThreshold",
          "type": "uint32"
        },
        {
          "indexed": false,
          "internalType": "bytes",
          "name": "hookData",
          "type": "bytes"
        }
      ],
      "name": "BurnHookExecuted",
      "type": "event"
    },
    {
      "anonymous": false,
      "inputs": [
        {
          "indexed": false,
          "internalType": "address",
          "name": "to",
          "type": "address"
        },
        {
          "indexed": false,
          "internalType": "uint256",
          "name": "amount",
          "type": "uint256"
        }
      ],
      "name": "EmergencyRecovery",
      "type": "event"
    },
    {
      "anonymous": false,
      "inputs": [
        {
          "indexed": true,
          "internalType": "bytes32",
          "name": "nonce",
          "type": "bytes32"
        },
        {
          "indexed": false,
          "internalType": "string",
          "name": "reason",
          "type": "string"
        }
      ],
      "name": "PaymentIntentFailed",
      "type": "event"
    },
    {
      "anonymous": false,
      "inputs": [
        {
          "indexed": true,
          "internalType": "uint256",
          "name": "salt",
          "type": "uint256"
        },
        {
          "indexed": false,
          "internalType": "uint256",
          "name": "nonce",
          "type": "uint256"
        }
      ],
      "name": "PaymentIntentNonceUpdated",
      "type": "event"
    },
    {
      "anonymous": false,
      "inputs": [
        {
          "indexed": true,
          "internalType": "bytes32",
          "name": "consumptionNonce",
          "type": "bytes32"
        },
        {
          "components": [
            {
              "internalType": "uint256",
              "name": "amount",
              "type": "uint256"
            },
            {
              "internalType": "uint256",
              "name": "feeBps",
              "type": "uint256"
            },
            {
              "internalType": "address",
              "name": "feeRecipient",
              "type": "address"
            },
            {
              "internalType": "address",
              "name": "merchant",
              "type": "address"
            },
            {
              "internalType": "uint256",
              "name": "salt",
              "type": "uint256"
            },
            {
              "internalType": "enum QuantityType",
              "name": "quantityType",
              "type": "uint8"
            },
            {
              "internalType": "uint256",
              "name": "quantity",
              "type": "uint256"
            },
            {
              "internalType": "uint256",
              "name": "nonce",
              "type": "uint256"
            },
            {
              "internalType": "enum SignerType",
              "name": "signerType",
              "type": "uint8"
            },
            {
              "internalType": "address",
              "name": "signer",
              "type": "address"
            }
          ],
          "indexed": false,
          "internalType": "struct PaymentIntent",
          "name": "intent",
          "type": "tuple"
        },
        {
          "indexed": false,
          "internalType": "uint256",
          "name": "feeExecuted",
          "type": "uint256"
        },
        {
          "indexed": false,
          "internalType": "uint256",
          "name": "netMinted",
          "type": "uint256"
        },
        {
          "indexed": false,
          "internalType": "uint256",
          "name": "netPayable",
          "type": "uint256"
        },
        {
          "indexed": false,
          "internalType": "uint256",
          "name": "netFee",
          "type": "uint256"
        },
        {
          "indexed": false,
          "internalType": "uint256",
          "name": "quantityUsed",
          "type": "uint256"
        }
      ],
      "name": "PaymentIntentSuccess",
      "type": "event"
    },
    {
      "anonymous": false,
      "inputs": [
        {
          "indexed": true,
          "internalType": "bytes32",
          "name": "role",
          "type": "bytes32"
        },
        {
          "indexed": true,
          "internalType": "bytes32",
          "name": "previousAdminRole",
          "type": "bytes32"
        },
        {
          "indexed": true,
          "internalType": "bytes32",
          "name": "newAdminRole",
          "type": "bytes32"
        }
      ],
      "name": "RoleAdminChanged",
      "type": "event"
    },
    {
      "anonymous": false,
      "inputs": [
        {
          "indexed": true,
          "internalType": "bytes32",
          "name": "role",
          "type": "bytes32"
        },
        {
          "indexed": true,
          "internalType": "address",
          "name": "account",
          "type": "address"
        },
        {
          "indexed": true,
          "internalType": "address",
          "name": "sender",
          "type": "address"
        }
      ],
      "name": "RoleGranted",
      "type": "event"
    },
    {
      "anonymous": false,
      "inputs": [
        {
          "indexed": true,
          "internalType": "bytes32",
          "name": "role",
          "type": "bytes32"
        },
        {
          "indexed": true,
          "internalType": "address",
          "name": "account",
          "type": "address"
        },
        {
          "indexed": true,
          "internalType": "address",
          "name": "sender",
          "type": "address"
        }
      ],
      "name": "RoleRevoked",
      "type": "event"
    },
    {
      "inputs": [],
      "name": "DEFAULT_ADMIN_ROLE",
      "outputs": [
        {
          "internalType": "bytes32",
          "name": "",
          "type": "bytes32"
        }
      ],
      "stateMutability": "view",
      "type": "function"
    },
    {
      "inputs": [],
      "name": "OPERATOR_ROLE",
      "outputs": [
        {
          "internalType": "bytes32",
          "name": "",
          "type": "bytes32"
        }
      ],
      "stateMutability": "view",
      "type": "function"
    },
    {
      "inputs": [],
      "name": "RECOVER_ROLE",
      "outputs": [
        {
          "internalType": "bytes32",
          "name": "",
          "type": "bytes32"
        }
      ],
      "stateMutability": "view",
      "type": "function"
    },
    {
      "inputs": [
        {
          "internalType": "bytes32",
          "name": "_nonce",
          "type": "bytes32"
        },
        {
          "internalType": "uint256",
          "name": "_amount",
          "type": "uint256"
        },
        {
          "internalType": "uint256",
          "name": "_feeExecuted",
          "type": "uint256"
        },
        {
          "internalType": "bytes",
          "name": "_structData",
          "type": "bytes"
        }
      ],
      "name": "_executeHook",
      "outputs": [
        {
          "internalType": "bool",
          "name": "",
          "type": "bool"
        }
      ],
      "stateMutability": "nonpayable",
      "type": "function"
    },
    {
      "inputs": [
        {
          "internalType": "address",
          "name": "to",
          "type": "address"
        }
      ],
      "name": "emergencyRecover",
      "outputs": [],
      "stateMutability": "nonpayable",
      "type": "function"
    },
    {
      "inputs": [
        {
          "internalType": "bytes32",
          "name": "_nonce",
          "type": "bytes32"
        },
        {
          "internalType": "address",
          "name": "_to",
          "type": "address"
        }
      ],
      "name": "emergencyRecoverNonceMint",
      "outputs": [],
      "stateMutability": "nonpayable",
      "type": "function"
    },
    {
      "inputs": [
        {
          "internalType": "bytes32",
          "name": "_nonce",
          "type": "bytes32"
        },
        {
          "internalType": "uint32",
          "name": "",
          "type": "uint32"
        },
        {
          "internalType": "bytes32",
          "name": "",
          "type": "bytes32"
        },
        {
          "internalType": "bytes32",
          "name": "",
          "type": "bytes32"
        },
        {
          "internalType": "uint256",
          "name": "_amount",
          "type": "uint256"
        },
        {
          "internalType": "bytes32",
          "name": "",
          "type": "bytes32"
        },
        {
          "internalType": "uint256",
          "name": "",
          "type": "uint256"
        },
        {
          "internalType": "uint256",
          "name": "_feeExecuted",
          "type": "uint256"
        },
        {
          "internalType": "uint256",
          "name": "",
          "type": "uint256"
        },
        {
          "internalType": "bytes",
          "name": "_structData",
          "type": "bytes"
        }
      ],
      "name": "executePaymentHook",
      "outputs": [
        {
          "internalType": "bool",
          "name": "",
          "type": "bool"
        }
      ],
      "stateMutability": "nonpayable",
      "type": "function"
    },
    {
      "inputs": [
        {
          "internalType": "address",
          "name": "",
          "type": "address"
        },
        {
          "internalType": "address",
          "name": "",
          "type": "address"
        },
        {
          "internalType": "uint256",
          "name": "",
          "type": "uint256"
        },
        {
          "internalType": "uint256",
          "name": "",
          "type": "uint256"
        },
        {
          "internalType": "bytes",
          "name": "_structData",
          "type": "bytes"
        }
      ],
      "name": "executeSwapHook",
      "outputs": [
        {
          "internalType": "bool",
          "name": "",
          "type": "bool"
        }
      ],
      "stateMutability": "nonpayable",
      "type": "function"
    },
    {
      "inputs": [
        {
          "internalType": "bytes32",
          "name": "role",
          "type": "bytes32"
        }
      ],
      "name": "getRoleAdmin",
      "outputs": [
        {
          "internalType": "bytes32",
          "name": "",
          "type": "bytes32"
        }
      ],
      "stateMutability": "view",
      "type": "function"
    },
    {
      "inputs": [
        {
          "internalType": "bytes32",
          "name": "role",
          "type": "bytes32"
        },
        {
          "internalType": "uint256",
          "name": "index",
          "type": "uint256"
        }
      ],
      "name": "getRoleMember",
      "outputs": [
        {
          "internalType": "address",
          "name": "",
          "type": "address"
        }
      ],
      "stateMutability": "view",
      "type": "function"
    },
    {
      "inputs": [
        {
          "internalType": "bytes32",
          "name": "role",
          "type": "bytes32"
        }
      ],
      "name": "getRoleMemberCount",
      "outputs": [
        {
          "internalType": "uint256",
          "name": "",
          "type": "uint256"
        }
      ],
      "stateMutability": "view",
      "type": "function"
    },
    {
      "inputs": [
        {
          "internalType": "bytes32",
          "name": "role",
          "type": "bytes32"
        },
        {
          "internalType": "address",
          "name": "account",
          "type": "address"
        }
      ],
      "name": "grantRole",
      "outputs": [],
      "stateMutability": "nonpayable",
      "type": "function"
    },
    {
      "inputs": [
        {
          "internalType": "bytes32",
          "name": "role",
          "type": "bytes32"
        },
        {
          "internalType": "address",
          "name": "account",
          "type": "address"
        }
      ],
      "name": "hasRole",
      "outputs": [
        {
          "internalType": "bool",
          "name": "",
          "type": "bool"
        }
      ],
      "stateMutability": "view",
      "type": "function"
    },
    {
      "inputs": [
        {
          "components": [
            {
              "internalType": "uint256",
              "name": "amount",
              "type": "uint256"
            },
            {
              "internalType": "uint256",
              "name": "feeBps",
              "type": "uint256"
            },
            {
              "internalType": "address",
              "name": "feeRecipient",
              "type": "address"
            },
            {
              "internalType": "address",
              "name": "merchant",
              "type": "address"
            },
            {
              "internalType": "uint256",
              "name": "salt",
              "type": "uint256"
            },
            {
              "internalType": "enum QuantityType",
              "name": "quantityType",
              "type": "uint8"
            },
            {
              "internalType": "uint256",
              "name": "quantity",
              "type": "uint256"
            },
            {
              "internalType": "uint256",
              "name": "nonce",
              "type": "uint256"
            },
            {
              "internalType": "enum SignerType",
              "name": "signerType",
              "type": "uint8"
            },
            {
              "internalType": "address",
              "name": "signer",
              "type": "address"
            }
          ],
          "internalType": "struct PaymentIntent",
          "name": "intent",
          "type": "tuple"
        }
      ],
      "name": "hashPaymentIntent",
      "outputs": [
        {
          "internalType": "bytes32",
          "name": "",
          "type": "bytes32"
        }
      ],
      "stateMutability": "view",
      "type": "function"
    },
    {
      "inputs": [],
      "name": "hookWrapper",
      "outputs": [
        {
          "internalType": "address",
          "name": "",
          "type": "address"
        }
      ],
      "stateMutability": "view",
      "type": "function"
    },
    {
      "inputs": [
        {
          "internalType": "uint256",
          "name": "",
          "type": "uint256"
        }
      ],
      "name": "intentNonces",
      "outputs": [
        {
          "internalType": "uint256",
          "name": "",
          "type": "uint256"
        }
      ],
      "stateMutability": "view",
      "type": "function"
    },
    {
      "inputs": [
        {
          "components": [
            {
              "internalType": "uint256",
              "name": "amount",
              "type": "uint256"
            },
            {
              "internalType": "uint256",
              "name": "feeBps",
              "type": "uint256"
            },
            {
              "internalType": "address",
              "name": "feeRecipient",
              "type": "address"
            },
            {
              "internalType": "address",
              "name": "merchant",
              "type": "address"
            },
            {
              "internalType": "uint256",
              "name": "salt",
              "type": "uint256"
            },
            {
              "internalType": "enum QuantityType",
              "name": "quantityType",
              "type": "uint8"
            },
            {
              "internalType": "uint256",
              "name": "quantity",
              "type": "uint256"
            },
            {
              "internalType": "uint256",
              "name": "nonce",
              "type": "uint256"
            },
            {
              "internalType": "enum SignerType",
              "name": "signerType",
              "type": "uint8"
            },
            {
              "internalType": "address",
              "name": "signer",
              "type": "address"
            }
          ],
          "internalType": "struct PaymentIntent",
          "name": "_intent",
          "type": "tuple"
        },
        {
          "internalType": "bytes",
          "name": "_signature",
          "type": "bytes"
        }
      ],
      "name": "localExecuteHook",
      "outputs": [
        {
          "internalType": "bool",
          "name": "",
          "type": "bool"
        }
      ],
      "stateMutability": "nonpayable",
      "type": "function"
    },
    {
      "inputs": [
        {
          "internalType": "bytes32",
          "name": "",
          "type": "bytes32"
        }
      ],
      "name": "receivedMints",
      "outputs": [
        {
          "internalType": "uint256",
          "name": "",
          "type": "uint256"
        }
      ],
      "stateMutability": "view",
      "type": "function"
    },
    {
      "inputs": [
        {
          "internalType": "bytes32",
          "name": "role",
          "type": "bytes32"
        },
        {
          "internalType": "address",
          "name": "account",
          "type": "address"
        }
      ],
      "name": "renounceRole",
      "outputs": [],
      "stateMutability": "nonpayable",
      "type": "function"
    },
    {
      "inputs": [
        {
          "internalType": "bytes32",
          "name": "role",
          "type": "bytes32"
        },
        {
          "internalType": "address",
          "name": "account",
          "type": "address"
        }
      ],
      "name": "revokeRole",
      "outputs": [],
      "stateMutability": "nonpayable",
      "type": "function"
    },
    {
      "inputs": [
        {
          "internalType": "uint256",
          "name": "",
          "type": "uint256"
        }
      ],
      "name": "usages",
      "outputs": [
        {
          "internalType": "uint256",
          "name": "",
          "type": "uint256"
        }
      ],
      "stateMutability": "view",
      "type": "function"
    },
    {
      "inputs": [],
      "name": "usdc",
      "outputs": [
        {
          "internalType": "address",
          "name": "",
          "type": "address"
        }
      ],
      "stateMutability": "view",
      "type": "function"
    },
    {
      "inputs": [
        {
          "components": [
            {
              "internalType": "uint256",
              "name": "amount",
              "type": "uint256"
            },
            {
              "internalType": "uint256",
              "name": "feeBps",
              "type": "uint256"
            },
            {
              "internalType": "address",
              "name": "feeRecipient",
              "type": "address"
            },
            {
              "internalType": "address",
              "name": "merchant",
              "type": "address"
            },
            {
              "internalType": "uint256",
              "name": "salt",
              "type": "uint256"
            },
            {
              "internalType": "enum QuantityType",
              "name": "quantityType",
              "type": "uint8"
            },
            {
              "internalType": "uint256",
              "name": "quantity",
              "type": "uint256"
            },
            {
              "internalType": "uint256",
              "name": "nonce",
              "type": "uint256"
            },
            {
              "internalType": "enum SignerType",
              "name": "signerType",
              "type": "uint8"
            },
            {
              "internalType": "address",
              "name": "signer",
              "type": "address"
            }
          ],
          "internalType": "struct PaymentIntent",
          "name": "_intent",
          "type": "tuple"
        },
        {
          "internalType": "bytes",
          "name": "_signature",
          "type": "bytes"
        },
        {
          "internalType": "uint256",
          "name": "amount",
          "type": "uint256"
        }
      ],
      "name": "validateIntent",
      "outputs": [
        {
          "internalType": "bool",
          "name": "",
          "type": "bool"
        }
      ],
      "stateMutability": "nonpayable",
      "type": "function"
    }
  ],
  "bytecode": "0x60806040523480156200001157600080fd5b50604051620051ea380380620051ea833981810160405281019062000037919062000426565b620000476200021960201b60201c565b600080600160008491905055839190505550506001600281905550600073ffffffffffffffffffffffffffffffffffffffff168273ffffffffffffffffffffffffffffffffffffffff161415620000d5576040517f08c379a0000000000000000000000000000000000000000000000000000000008152600401620000cc9062000a6d565b60405180910390fd5b600073ffffffffffffffffffffffffffffffffffffffff168173ffffffffffffffffffffffffffffffffffffffff16141562000148576040517f08c379a00000000000000000000000000000000000000000000000000000000081526004016200013f9062000a4b565b60405180910390fd5b81600760006101000a81548173ffffffffffffffffffffffffffffffffffffffff021916908373ffffffffffffffffffffffffffffffffffffffff16021790555080600860006101000a81548173ffffffffffffffffffffffffffffffffffffffff021916908373ffffffffffffffffffffffffffffffffffffffff160217905550620001df6000801b336200027860201b60201c565b620002117f62b337eaefec74dadf1a62e856bf9db4f14a0f27d4f48156a95a9f98e7d5e066336200027860201b60201c565b505062000af9565b6000806040516020016200022d90620009f3565b604051602081830303815290604052805190602001209150600060405160200162000258906200094d565b604051602081830303815290604052905080805190602001209150509091565b6200028a82826200028e60201b60201c565b5050565b620002bd81600360008581526020019081526020016000206000016200033260201b620014201790919060201c565b156200032e57620002d36200036a60201b60201c565b73ffffffffffffffffffffffffffffffffffffffff168173ffffffffffffffffffffffffffffffffffffffff16837f2f8788117e7eff1d82e926ec794901d17c78024a50270940304540a733656f0d60405160405180910390a45b5050565b600062000362836000018373ffffffffffffffffffffffffffffffffffffffff1660001b6200037260201b60201c565b905092915050565b600033905090565b6000620003868383620003ec60201b60201c565b620003e1578260000182908060018154018082558091505060019003906000526020600020016000909190919091505582600001805490508360010160008481526020019081526020016000208190555060019050620003e6565b600090505b92915050565b600080836001016000848152602001908152602001600020541415905092915050565b600081519050620004208162000adf565b92915050565b600080604083850312156200043a57600080fd5b60006200044a858286016200040f565b92505060206200045d858286016200040f565b9150509250929050565b600062000476600c8362000aa0565b91507f737472696e67206e616d652c00000000000000000000000000000000000000006000830152600c82019050919050565b6000620004b8600f8362000aa0565b91507f75696e7432353620616d6f756e742c00000000000000000000000000000000006000830152600f82019050919050565b6000620004fa60118362000aa0565b91507f75696e74323536207175616e746974792c0000000000000000000000000000006000830152601182019050919050565b60006200053c60198362000aa0565b91507f6164647265737320766572696679696e67436f6e7472616374000000000000006000830152601982019050919050565b60006200057e60108362000aa0565b91507f75696e7432353620636861696e49642c000000000000000000000000000000006000830152601082019050919050565b6000620005c0601c8362000a8f565b91507f496e76616c696420686f6f6b20777261707065722061646472657373000000006000830152602082019050919050565b60006200060260118362000aa0565b91507f61646472657373206d65726368616e742c0000000000000000000000000000006000830152601182019050919050565b600062000644600d8362000aa0565b91507f75696e74323536206e6f6e6365000000000000000000000000000000000000006000830152600d82019050919050565b60006200068660018362000aa0565b91507f29000000000000000000000000000000000000000000000000000000000000006000830152600182019050919050565b6000620006c8600f8362000aa0565b91507f737472696e672076657273696f6e2c00000000000000000000000000000000006000830152600f82019050919050565b60006200070a60148362000a8f565b91507f496e76616c6964205553444320616464726573730000000000000000000000006000830152602082019050919050565b60006200074c600d8362000aa0565b91507f75696e743235362073616c742c000000000000000000000000000000000000006000830152600d82019050919050565b60006200078e60138362000aa0565b91507f75696e7438207175616e74697479547970652c000000000000000000000000006000830152601382019050919050565b6000620007d0600f8362000aa0565b91507f75696e74323536206665654270732c00000000000000000000000000000000006000830152600f82019050919050565b600062000812600f8362000aa0565b91507f61646472657373207369676e65722c00000000000000000000000000000000006000830152600f82019050919050565b600062000854600e8362000aa0565b91507f5061796d656e74496e74656e74280000000000000000000000000000000000006000830152600e82019050919050565b600062000896600d8362000aa0565b91507f454950373132446f6d61696e28000000000000000000000000000000000000006000830152600d82019050919050565b6000620008d860158362000aa0565b91507f6164647265737320666565526563697069656e742c00000000000000000000006000830152601582019050919050565b60006200091a60118362000aa0565b91507f75696e7438207369676e6572547970652c0000000000000000000000000000006000830152601182019050919050565b60006200095a8262000845565b91506200096782620004a9565b91506200097482620007c1565b91506200098182620008c9565b91506200098e82620005f3565b91506200099b826200073d565b9150620009a8826200077f565b9150620009b582620004eb565b9150620009c2826200090b565b9150620009cf8262000803565b9150620009dc8262000635565b9150620009e98262000677565b9150819050919050565b600062000a008262000887565b915062000a0d8262000467565b915062000a1a82620006b9565b915062000a27826200056f565b915062000a34826200052d565b915062000a418262000677565b9150819050919050565b6000602082019050818103600083015262000a6681620005b1565b9050919050565b6000602082019050818103600083015262000a8881620006fb565b9050919050565b600082825260208201905092915050565b600081905092915050565b600062000ab88262000abf565b9050919050565b600073ffffffffffffffffffffffffffffffffffffffff82169050919050565b62000aea8162000aab565b811462000af657600080fd5b50565b6146e18062000b096000396000f3fe608060405234801561001057600080fd5b506004361061014d5760003560e01c806372c64509116100c3578063aafafa9f1161007c578063aafafa9f146103fe578063b2b9d9501461041a578063ca15c8731461044a578063cec6e2271461047a578063d547741f146104aa578063f5b541a6146104c65761014d565b806372c64509146103025780637f202e24146103325780639010d07c1461036257806391d1485414610392578063939bcbc9146103c2578063a217fddf146103e05761014d565b80633c1cb25f116101155780633c1cb25f1461021a5780633e413bee146102365780635a316f7a146102545780635d312af6146102725780636640bac5146102a25780636dd31f2e146102d25761014d565b80631e999dad14610152578063248a9ca31461018257806328c26a6a146101b25780632f2ff15d146101e257806336568abe146101fe575b600080fd5b61016c60048036038101906101679190612ef7565b6104e4565b6040516101799190613c0f565b60405180910390f35b61019c60048036038101906101979190612fb2565b61059f565b6040516101a99190613c2a565b60405180910390f35b6101cc60048036038101906101c79190613235565b6105bf565b6040516101d99190613c2a565b60405180910390f35b6101fc60048036038101906101f79190612fdb565b6105d1565b005b61021860048036038101906102139190612fdb565b61065b565b005b610234600480360381019061022f9190612fdb565b6106f4565b005b61023e610837565b60405161024b9190613bcb565b60405180910390f35b61025c61085d565b6040516102699190613bcb565b60405180910390f35b61028c6004803603810190610287919061331f565b610883565b6040516102999190614176565b60405180910390f35b6102bc60048036038101906102b7919061325f565b61089b565b6040516102c99190613c0f565b60405180910390f35b6102ec60048036038101906102e791906130d3565b610936565b6040516102f99190613c0f565b60405180910390f35b61031c60048036038101906103179190613053565b610ba1565b6040516103299190613c0f565b60405180910390f35b61034c60048036038101906103479190612fb2565b610e3d565b6040516103599190614176565b60405180910390f35b61037c60048036038101906103779190613017565b610e55565b6040516103899190613bcb565b60405180910390f35b6103ac60048036038101906103a79190612fdb565b610e87565b6040516103b99190613c0f565b60405180910390f35b6103ca610eb9565b6040516103d79190613c2a565b60405180910390f35b6103e8610edd565b6040516103f59190613c2a565b60405180910390f35b61041860048036038101906104139190612e4f565b610ee4565b005b610434600480360381019061042f919061331f565b6111c2565b6040516104419190614176565b60405180910390f35b610464600480360381019061045f9190612fb2565b6111da565b6040516104719190614176565b60405180910390f35b610494600480360381019061048f91906132b5565b611201565b6040516104a19190613c0f565b60405180910390f35b6104c460048036038101906104bf9190612fdb565b611372565b005b6104ce6113fc565b6040516104db9190613c2a565b60405180910390f35b600060028054141561055e576040517f08c379a000000000000000000000000000000000000000000000000000000000815260040180806020018281038252601f8152602001807f5265656e7472616e637947756172643a207265656e7472616e742063616c6c0081525060200191505060405180910390fd5b600280819055506000838381019061057691906131f4565b905061058a81600001518260200151611450565b91505060016002819055509695505050505050565b600060036000838152602001908152602001600020600201549050919050565b60006105ca82611742565b9050919050565b6105f860036000848152602001908152602001600020600201546105f36117b2565b610e87565b61064d576040517f08c379a000000000000000000000000000000000000000000000000000000000815260040180806020018281038252602f8152602001806145ad602f913960400191505060405180910390fd5b61065782826117ba565b5050565b6106636117b2565b73ffffffffffffffffffffffffffffffffffffffff168173ffffffffffffffffffffffffffffffffffffffff16146106e6576040517f08c379a000000000000000000000000000000000000000000000000000000000815260040180806020018281038252602f81526020018061467d602f913960400191505060405180910390fd5b6106f0828261184e565b5050565b61071e7f62b337eaefec74dadf1a62e856bf9db4f14a0f27d4f48156a95a9f98e7d5e06633610e87565b8061073257506107316000801b33610e87565b5b610771576040517f08c379a000000000000000000000000000000000000000000000000000000000815260040161076890614028565b60405180910390fd5b600060066000848152602001908152602001600020549050600081116107cc576040517f08c379a00000000000000000000000000000000000000000000000000000000081526004016107c390614088565b60405180910390fd5b600060066000858152602001908152602001600020819055506108328282600760009054906101000a900473ffffffffffffffffffffffffffffffffffffffff1673ffffffffffffffffffffffffffffffffffffffff166118e29092919063ffffffff16565b505050565b600760009054906101000a900473ffffffffffffffffffffffffffffffffffffffff1681565b600860009054906101000a900473ffffffffffffffffffffffffffffffffffffffff1681565b60056020528060005260406000206000915090505481565b6000600280541415610915576040517f08c379a000000000000000000000000000000000000000000000000000000000815260040180806020018281038252601f8152602001807f5265656e7472616e637947756172643a207265656e7472616e742063616c6c0081525060200191505060405180910390fd5b600280819055506109268383611450565b9050600160028190555092915050565b60006002805414156109b0576040517f08c379a000000000000000000000000000000000000000000000000000000000815260040180806020018281038252601f8152602001807f5265656e7472616e637947756172643a207265656e7472616e742063616c6c0081525060200191505060405180910390fd5b60028081905550600860009054906101000a900473ffffffffffffffffffffffffffffffffffffffff1673ffffffffffffffffffffffffffffffffffffffff163373ffffffffffffffffffffffffffffffffffffffff1614610a47576040517f08c379a0000000000000000000000000000000000000000000000000000000008152600401610a3e90614008565b60405180910390fd5b848803600660008e8152602001908152602001600020819055503073ffffffffffffffffffffffffffffffffffffffff166372c645098d8a8887876040518663ffffffff1660e01b8152600401610aa2959493929190613d73565b602060405180830381600087803b158015610abc57600080fd5b505af1925050508015610aed57506040513d601f19601f82011682018060405250810190610aea9190612f89565b60015b610b8557610af96143eb565b80610b045750610b46565b8c7f548eb1029b4a35323ec07af86cc4efa887532238db4c729b35c72ea93d734a3082604051610b349190613e06565b60405180910390a26000915050610b8a565b8b7f548eb1029b4a35323ec07af86cc4efa887532238db4c729b35c72ea93d734a30604051610b7490613e48565b60405180910390a260009050610b8a565b809150505b60016002819055509b9a5050505050505050505050565b60003073ffffffffffffffffffffffffffffffffffffffff163373ffffffffffffffffffffffffffffffffffffffff1614610c11576040517f08c379a0000000000000000000000000000000000000000000000000000000008152600401610c0890614068565b60405180910390fd5b60008383810190610c2291906131f4565b9050610c3681600001518260200151611984565b8581600001516000015114610c80576040517f08c379a0000000000000000000000000000000000000000000000000000000008152600401610c7790613f08565b60405180910390fd5b600085870390506000610cc0612710610cb2856000015160200151866000015160000151611b3b90919063ffffffff16565b611bc190919063ffffffff16565b905086811015610d05576040517f08c379a0000000000000000000000000000000000000000000000000000000008152600401610cfc90613f88565b60405180910390fd5b600081846000015160000151039050610d6984600001516060015182600760009054906101000a900473ffffffffffffffffffffffffffffffffffffffff1673ffffffffffffffffffffffffffffffffffffffff166118e29092919063ffffffff16565b80831115610dc957610dc8846000015160400151828503600760009054906101000a900473ffffffffffffffffffffffffffffffffffffffff1673ffffffffffffffffffffffffffffffffffffffff166118e29092919063ffffffff16565b5b897f2d268365b46f9a27fa5f67bd5ddee675fd76068ab7eea3e7b82ccfbba8a2209a85600001518a8685868903600460008c6000015160800151815260200190815260200160002054604051610e249695949392919061410f565b60405180910390a2600194505050505095945050505050565b60066020528060005260406000206000915090505481565b6000610e7f8260036000868152602001908152602001600020600001611c4a90919063ffffffff16565b905092915050565b6000610eb18260036000868152602001908152602001600020600001611c6490919063ffffffff16565b905092915050565b7f62b337eaefec74dadf1a62e856bf9db4f14a0f27d4f48156a95a9f98e7d5e06681565b6000801b81565b610f0e7f62b337eaefec74dadf1a62e856bf9db4f14a0f27d4f48156a95a9f98e7d5e06633610e87565b80610f225750610f216000801b33610e87565b5b610f61576040517f08c379a0000000000000000000000000000000000000000000000000000000008152600401610f5890614028565b60405180910390fd5b600280541415610fd9576040517f08c379a000000000000000000000000000000000000000000000000000000000815260040180806020018281038252601f8152602001807f5265656e7472616e637947756172643a207265656e7472616e742063616c6c0081525060200191505060405180910390fd5b600280819055506000600760009054906101000a900473ffffffffffffffffffffffffffffffffffffffff1673ffffffffffffffffffffffffffffffffffffffff166370a08231306040518263ffffffff1660e01b815260040161103d9190613bcb565b60206040518083038186803b15801561105557600080fd5b505afa158015611069573d6000803e3d6000fd5b505050506040513d601f19601f8201168201806040525081019061108d9190613348565b9050600760009054906101000a900473ffffffffffffffffffffffffffffffffffffffff1673ffffffffffffffffffffffffffffffffffffffff1663a9059cbb83836040518363ffffffff1660e01b81526004016110ec929190613be6565b602060405180830381600087803b15801561110657600080fd5b505af115801561111a573d6000803e3d6000fd5b505050506040513d601f19601f8201168201806040525081019061113e9190612f89565b61117d576040517f08c379a000000000000000000000000000000000000000000000000000000000815260040161117490613e88565b60405180910390fd5b7fa9364fb2836862098c2b593d2d3f46759b4c6d5b054300f96172b0394430008a82826040516111ae929190613be6565b60405180910390a150600160028190555050565b60046020528060005260406000206000915090505481565b60006111fa60036000848152602001908152602001600020600001611c94565b9050919050565b60008061120d85611742565b9050600061121a86611ca9565b9050611227828287611db9565b60006005600088608001518152602001908152602001600020549050808760e0015114806112585750808760e00151115b611297576040517f08c379a000000000000000000000000000000000000000000000000000000000815260040161128e90613fc8565b60405180910390fd5b60006004600089608001518152602001908152602001600020549050600060018111156112c057fe5b8860a0015160018111156112d057fe5b141561131d578760c00151811061131c576040517f08c379a000000000000000000000000000000000000000000000000000000000815260040161131390613ec8565b60405180910390fd5b5b85886000015114611363576040517f08c379a000000000000000000000000000000000000000000000000000000000815260040161135a90613f68565b60405180910390fd5b60019450505050509392505050565b61139960036000848152602001908152602001600020600201546113946117b2565b610e87565b6113ee576040517f08c379a00000000000000000000000000000000000000000000000000000000081526004018080602001828103825260308152602001806146026030913960400191505060405180910390fd5b6113f8828261184e565b5050565b7f97667070c54ef182b0f5858b034beac1b6f3089aa2d3188bb1e8929f4fa9b92981565b6000611448836000018373ffffffffffffffffffffffffffffffffffffffff1660001b612092565b905092915050565b600061145c8383611984565b60008360000151116114a3576040517f08c379a000000000000000000000000000000000000000000000000000000000815260040161149a90613f08565b60405180910390fd5b612710836020015111156114ec576040517f08c379a00000000000000000000000000000000000000000000000000000000081526004016114e390613e68565b60405180910390fd5b600073ffffffffffffffffffffffffffffffffffffffff16836060015173ffffffffffffffffffffffffffffffffffffffff161415611560576040517f08c379a000000000000000000000000000000000000000000000000000000000815260040161155790613fe8565b60405180910390fd5b600061159161271061158386602001518760000151611b3b90919063ffffffff16565b611bc190919063ffffffff16565b9050836000015181106115d9576040517f08c379a00000000000000000000000000000000000000000000000000000000081526004016115d090613f48565b60405180910390fd5b61163233856060015183876000015103600760009054906101000a900473ffffffffffffffffffffffffffffffffffffffff1673ffffffffffffffffffffffffffffffffffffffff16612102909392919063ffffffff16565b6000811180156116735750600073ffffffffffffffffffffffffffffffffffffffff16846040015173ffffffffffffffffffffffffffffffffffffffff1614155b156116cc576116cb33856040015183600760009054906101000a900473ffffffffffffffffffffffffffffffffffffffff1673ffffffffffffffffffffffffffffffffffffffff16612102909392919063ffffffff16565b5b836080015160001b7f2d268365b46f9a27fa5f67bd5ddee675fd76068ab7eea3e7b82ccfbba8a2209a85600087600001518589600001510386600460008c6080015181526020019081526020016000205460405161172f969594939291906140a8565b60405180910390a2600191505092915050565b6000600154826000015183602001518460400151856060015186608001518760a001518860c001518961010001518a61012001518b60e001516040516020016117959b9a99989796959493929190613cc8565b604051602081830303815290604052805190602001209050919050565b600033905090565b6117e2816003600085815260200190815260200160002060000161142090919063ffffffff16565b1561184a576117ef6117b2565b73ffffffffffffffffffffffffffffffffffffffff168173ffffffffffffffffffffffffffffffffffffffff16837f2f8788117e7eff1d82e926ec794901d17c78024a50270940304540a733656f0d60405160405180910390a45b5050565b61187681600360008581526020019081526020016000206000016121c390919063ffffffff16565b156118de576118836117b2565b73ffffffffffffffffffffffffffffffffffffffff168173ffffffffffffffffffffffffffffffffffffffff16837ff6391f5c32d9c69d2a47ea670b442974b53935d1edc7fd64eb21e047a839171b60405160405180910390a45b5050565b61197f8363a9059cbb60e01b8484604051602401808373ffffffffffffffffffffffffffffffffffffffff16815260200182815260200192505050604051602081830303815290604052907bffffffffffffffffffffffffffffffffffffffffffffffffffffffff19166020820180517bffffffffffffffffffffffffffffffffffffffffffffffffffffffff83818316178352505050506121f3565b505050565b6005600083608001518152602001908152602001600020548260e001511115611a0c578160e0015160056000846080015181526020019081526020016000208190555081608001517f619d9a2b252d58f1ddd737ee3190a3ae4697c1493db50a135d109f04c674f34f8360e001516040516119ff9190614176565b60405180910390a2611a6a565b6005600083608001518152602001908152602001600020548260e0015114611a69576040517f08c379a0000000000000000000000000000000000000000000000000000000008152600401611a6090613fc8565b60405180910390fd5b5b6000600460008460800151815260200190815260200160002054905060006001811115611a9357fe5b8360a001516001811115611aa357fe5b1415611af0578260c001518110611aef576040517f08c379a0000000000000000000000000000000000000000000000000000000008152600401611ae690613ec8565b60405180910390fd5b5b600181016004600085608001518152602001908152602001600020819055506000611b1a84611742565b90506000611b2785611ca9565b9050611b34828286611db9565b5050505050565b600080831415611b4e5760009050611bbb565b6000828402905082848281611b5f57fe5b0414611bb6576040517f08c379a00000000000000000000000000000000000000000000000000000000081526004018080602001828103825260218152602001806146326021913960400191505060405180910390fd5b809150505b92915050565b6000808211611c38576040517f08c379a000000000000000000000000000000000000000000000000000000000815260040180806020018281038252601a8152602001807f536166654d6174683a206469766973696f6e206279207a65726f00000000000081525060200191505060405180910390fd5b818381611c4157fe5b04905092915050565b6000611c5983600001836122e2565b60001c905092915050565b6000611c8c836000018373ffffffffffffffffffffffffffffffffffffffff1660001b612365565b905092915050565b6000611ca282600001612388565b9050919050565b6000806001811115611cb757fe5b8261010001516001811115611cc857fe5b1415611cda5781606001519050611db4565b600180811115611ce657fe5b8261010001516001811115611cf757fe5b1415611d7857611d2c7f97667070c54ef182b0f5858b034beac1b6f3089aa2d3188bb1e8929f4fa9b929836101200151610e87565b611d6b576040517f08c379a0000000000000000000000000000000000000000000000000000000008152600401611d6290614048565b60405180910390fd5b8161012001519050611db3565b6040517f08c379a0000000000000000000000000000000000000000000000000000000008152600401611daa90613fa8565b60405180910390fd5b5b919050565b600080600060606000611dcb88612399565b905060007f649264926492649264926492649264926492649264926492649264926492649260001b611dfc8861245b565b1490508015611f2957600060606000611e148a6124b4565b905080806020019051810190611e2a9190612e78565b8098508194508295505050506000611e418c6125c7565b5190506000811415611f20576000808573ffffffffffffffffffffffffffffffffffffffff1685604051611e759190613b92565b6000604051808303816000865af19150503d8060008114611eb2576040519150601f19603f3d011682016040523d82523d6000602084013e611eb7565b606091505b509150915081611f1d5780604051602001611ed29190613ba9565b6040516020818303038152906040526040517f08c379a0000000000000000000000000000000000000000000000000000000008152600401611f149190613e06565b60405180910390fd5b50505b50505050611f2d565b8692505b6000611f38896125c7565b5111156120615760008873ffffffffffffffffffffffffffffffffffffffff16631626ba7e84866040518363ffffffff1660e01b8152600401611f7c929190613c98565b60206040518083038186803b158015611f9457600080fd5b505afa158015611fa8573d6000803e3d6000fd5b505050506040513d601f19601f82011682018060405250810190611fcc91906131cb565b9050631626ba7e60e01b7bffffffffffffffffffffffffffffffffffffffffffffffffffffffff1916817bffffffffffffffffffffffffffffffffffffffffffffffffffffffff191614612055576040517f08c379a000000000000000000000000000000000000000000000000000000000815260040161204c90613ea8565b60405180910390fd5b5050505050505061208d565b6020870151955060408701519450606087015160001a935061208688838689896125eb565b5050505050505b505050565b600061209e8383612365565b6120f75782600001829080600181540180825580915050600190039060005260206000200160009091909190915055826000018054905083600101600084815260200190815260200160002081905550600190506120fc565b600090505b92915050565b6121bd846323b872dd60e01b858585604051602401808473ffffffffffffffffffffffffffffffffffffffff1681526020018373ffffffffffffffffffffffffffffffffffffffff1681526020018281526020019350505050604051602081830303815290604052907bffffffffffffffffffffffffffffffffffffffffffffffffffffffff19166020820180517bffffffffffffffffffffffffffffffffffffffffffffffffffffffff83818316178352505050506121f3565b50505050565b60006121eb836000018373ffffffffffffffffffffffffffffffffffffffff1660001b612745565b905092915050565b6000612255826040518060400160405280602081526020017f5361666545524332303a206c6f772d6c6576656c2063616c6c206661696c65648152508573ffffffffffffffffffffffffffffffffffffffff1661282d9092919063ffffffff16565b90506000815111156122dd5780806020019051602081101561227657600080fd5b81019080805190602001909291905050506122dc576040517f08c379a000000000000000000000000000000000000000000000000000000000815260040180806020018281038252602a815260200180614653602a913960400191505060405180910390fd5b5b505050565b600081836000018054905011612343576040517f08c379a000000000000000000000000000000000000000000000000000000000815260040180806020018281038252602281526020018061458b6022913960400191505060405180910390fd5b82600001828154811061235257fe5b9060005260206000200154905092915050565b600080836001016000848152602001908152602001600020541415905092915050565b600081600001805490509050919050565b6000806124216000546040518060400160405280601681526020017f5061796d656e74496e74656e7448616e646c6572563200000000000000000000815250805190602001206040518060400160405280600181526020017f310000000000000000000000000000000000000000000000000000000000000081525080519060200120612845565b905061190160f01b818460405160200161243d93929190613b55565b60405160208183030381529060405280519060200120915050919050565b60006020825110156124a2576040517f08c379a000000000000000000000000000000000000000000000000000000000815260040161249990613f28565b60405180910390fd5b60208251036020018201519050919050565b606060208251116124fa576040517f08c379a00000000000000000000000000000000000000000000000000000000081526004016124f190613e28565b60405180910390fd5b60006020835103905060008167ffffffffffffffff8111801561251c57600080fd5b506040519080825280601f01601f19166020018201604052801561254f5781602001600182028036833780820191505090505b50905060005b828110156125bc5784818151811061256957fe5b602001015160f81c60f81b82828151811061258057fe5b60200101907effffffffffffffffffffffffffffffffffffffffffffffffffffffffffffff1916908160001a9053508080600101915050612555565b508092505050919050565b6060813b604051915080825280600060208401853c60208101820160405250919050565b601b8360ff16141580156126035750601c8360ff1614155b15612643576040517f08c379a000000000000000000000000000000000000000000000000000000000815260040161263a90613ee8565b60405180910390fd5b6000600185858585604051600081526020016040526040516126689493929190613dc1565b6020604051602081039080840390855afa15801561268a573d6000803e3d6000fd5b505050602060405103519050600073ffffffffffffffffffffffffffffffffffffffff168173ffffffffffffffffffffffffffffffffffffffff1614806126fd57508073ffffffffffffffffffffffffffffffffffffffff168673ffffffffffffffffffffffffffffffffffffffff1614155b1561273d576040517f08c379a000000000000000000000000000000000000000000000000000000000815260040161273490613ea8565b60405180910390fd5b505050505050565b60008083600101600084815260200190815260200160002054905060008114612821576000600182039050600060018660000180549050039050600086600001828154811061279057fe5b90600052602060002001549050808760000184815481106127ad57fe5b90600052602060002001819055506001830187600101600083815260200190815260200160002081905550866000018054806127e557fe5b60019003818190600052602060002001600090559055866001016000878152602001908152602001600020600090556001945050505050612827565b60009150505b92915050565b606061283c8484600085612884565b90509392505050565b6000804690508484848330604051602001612864959493929190613c45565b604051602081830303815290604052805190602001209150509392505050565b6060824710156128df576040517f08c379a00000000000000000000000000000000000000000000000000000000081526004018080602001828103825260268152602001806145dc6026913960400191505060405180910390fd5b6128e885612a2c565b61295a576040517f08c379a000000000000000000000000000000000000000000000000000000000815260040180806020018281038252601d8152602001807f416464726573733a2063616c6c20746f206e6f6e2d636f6e747261637400000081525060200191505060405180910390fd5b6000808673ffffffffffffffffffffffffffffffffffffffff1685876040518082805190602001908083835b602083106129a95780518252602082019150602081019050602083039250612986565b6001836020036101000a03801982511681845116808217855250505050505090500191505060006040518083038185875af1925050503d8060008114612a0b576040519150601f19603f3d011682016040523d82523d6000602084013e612a10565b606091505b5091509150612a20828286612a3f565b92505050949350505050565b600080823b905060008111915050919050565b60608315612a4f57829050612b04565b600083511115612a625782518084602001fd5b816040517f08c379a00000000000000000000000000000000000000000000000000000000081526004018080602001828103825283818151815260200191508051906020019080838360005b83811015612ac9578082015181840152602081019050612aae565b50505050905090810190601f168015612af65780820380516001836020036101000a031916815260200191505b509250505060405180910390fd5b9392505050565b6000612b1e612b19846141c2565b614191565b905082815260208101848484011115612b3657600080fd5b612b41848285614375565b509392505050565b6000612b5c612b57846141c2565b614191565b905082815260208101848484011115612b7457600080fd5b612b7f848285614384565b509392505050565b600081359050612b96816144c9565b92915050565b600081519050612bab816144e0565b92915050565b600081519050612bc0816144f7565b92915050565b600081359050612bd58161450e565b92915050565b600081519050612bea81614525565b92915050565b60008083601f840112612c0257600080fd5b8235905067ffffffffffffffff811115612c1b57600080fd5b602083019150836001820283011115612c3357600080fd5b9250929050565b600082601f830112612c4b57600080fd5b8135612c5b848260208601612b0b565b91505092915050565b600082601f830112612c7557600080fd5b8151612c85848260208601612b49565b91505092915050565b600081359050612c9d8161453c565b92915050565b600081359050612cb28161454c565b92915050565b60006101608284031215612ccb57600080fd5b612cd56040614191565b90506000612ce584828501612d1e565b60008301525061014082013567ffffffffffffffff811115612d0657600080fd5b612d1284828501612c3a565b60208301525092915050565b60006101408284031215612d3157600080fd5b612d3c610140614191565b90506000612d4c84828501612e10565b6000830152506020612d6084828501612e10565b6020830152506040612d7484828501612b87565b6040830152506060612d8884828501612b87565b6060830152506080612d9c84828501612e10565b60808301525060a0612db084828501612c8e565b60a08301525060c0612dc484828501612e10565b60c08301525060e0612dd884828501612e10565b60e083015250610100612ded84828501612ca3565b61010083015250610120612e0384828501612b87565b6101208301525092915050565b600081359050612e1f8161455c565b92915050565b600081519050612e348161455c565b92915050565b600081359050612e4981614573565b92915050565b600060208284031215612e6157600080fd5b6000612e6f84828501612b87565b91505092915050565b600080600060608486031215612e8d57600080fd5b6000612e9b86828701612b9c565b935050602084015167ffffffffffffffff811115612eb857600080fd5b612ec486828701612c64565b925050604084015167ffffffffffffffff811115612ee157600080fd5b612eed86828701612c64565b9150509250925092565b60008060008060008060a08789031215612f1057600080fd5b6000612f1e89828a01612b87565b9650506020612f2f89828a01612b87565b9550506040612f4089828a01612e10565b9450506060612f5189828a01612e10565b935050608087013567ffffffffffffffff811115612f6e57600080fd5b612f7a89828a01612bf0565b92509250509295509295509295565b600060208284031215612f9b57600080fd5b6000612fa984828501612bb1565b91505092915050565b600060208284031215612fc457600080fd5b6000612fd284828501612bc6565b91505092915050565b60008060408385031215612fee57600080fd5b6000612ffc85828601612bc6565b925050602061300d85828601612b87565b9150509250929050565b6000806040838503121561302a57600080fd5b600061303885828601612bc6565b925050602061304985828601612e10565b9150509250929050565b60008060008060006080868803121561306b57600080fd5b600061307988828901612bc6565b955050602061308a88828901612e10565b945050604061309b88828901612e10565b935050606086013567ffffffffffffffff8111156130b857600080fd5b6130c488828901612bf0565b92509250509295509295909350565b60008060008060008060008060008060006101408c8e0312156130f557600080fd5b60006131038e828f01612bc6565b9b505060206131148e828f01612e3a565b9a505060406131258e828f01612bc6565b99505060606131368e828f01612bc6565b98505060806131478e828f01612e10565b97505060a06131588e828f01612bc6565b96505060c06131698e828f01612e10565b95505060e061317a8e828f01612e10565b94505061010061318c8e828f01612e10565b9350506101208c013567ffffffffffffffff8111156131aa57600080fd5b6131b68e828f01612bf0565b92509250509295989b509295989b9093969950565b6000602082840312156131dd57600080fd5b60006131eb84828501612bdb565b91505092915050565b60006020828403121561320657600080fd5b600082013567ffffffffffffffff81111561322057600080fd5b61322c84828501612cb8565b91505092915050565b6000610140828403121561324857600080fd5b600061325684828501612d1e565b91505092915050565b600080610160838503121561327357600080fd5b600061328185828601612d1e565b92505061014083013567ffffffffffffffff81111561329f57600080fd5b6132ab85828601612c3a565b9150509250929050565b600080600061018084860312156132cb57600080fd5b60006132d986828701612d1e565b93505061014084013567ffffffffffffffff8111156132f757600080fd5b61330386828701612c3a565b92505061016061331586828701612e10565b9150509250925092565b60006020828403121561333157600080fd5b600061333f84828501612e10565b91505092915050565b60006020828403121561335a57600080fd5b600061336884828501612e25565b91505092915050565b61337a81614240565b82525050565b61338981614240565b82525050565b61339881614264565b82525050565b6133af6133aa82614270565b6143b7565b82525050565b6133be8161429c565b82525050565b6133d56133d08261429c565b6143c1565b82525050565b60006133e78385614208565b93506133f4838584614375565b6133fd836143cd565b840190509392505050565b6000613413826141f2565b61341d8185614208565b935061342d818560208601614384565b613436816143cd565b840191505092915050565b600061344c826141f2565b6134568185614219565b9350613466818560208601614384565b80840191505092915050565b61347b8161433f565b82525050565b61348a8161433f565b82525050565b61349981614351565b82525050565b6134a881614351565b82525050565b6134b781614363565b82525050565b60006134c8826141fd565b6134d28185614224565b93506134e2818560208601614384565b6134eb816143cd565b840191505092915050565b6000613503602383614224565b91507f5369676e617475726520746f6f2073686f727420666f7220363439322073756660008301527f66697800000000000000000000000000000000000000000000000000000000006020830152604082019050919050565b6000613569600d83614224565b91507f556e6b6e6f776e206572726f72000000000000000000000000000000000000006000830152602082019050919050565b60006135a9600f83614224565b91507f496e76616c6964206665652062707300000000000000000000000000000000006000830152602082019050919050565b60006135e9600f83614224565b91507f5472616e73666572206661696c656400000000000000000000000000000000006000830152602082019050919050565b6000613629601083614224565b91507f496e76616c69645369676e6174757265000000000000000000000000000000006000830152602082019050919050565b6000613669601583614224565b91507f5175616e7469747920616c7265616479207573656400000000000000000000006000830152602082019050919050565b60006136a9601183614224565b91507f496e76616c696456506172616d657465720000000000000000000000000000006000830152602082019050919050565b60006136e9600e83614224565b91507f496e76616c696420616d6f756e740000000000000000000000000000000000006000830152602082019050919050565b6000613729601383614224565b91507f5369676e617475726520746f6f2073686f7274000000000000000000000000006000830152602082019050919050565b6000613769600c83614224565b91507f46656520746f6f206869676800000000000000000000000000000000000000006000830152602082019050919050565b60006137a9601183614224565b91507f4d69736d61746368656420616d6f756e740000000000000000000000000000006000830152602082019050919050565b60006137e9601583614235565b91507f455243363439324465706c6f794661696c65643a2000000000000000000000006000830152601582019050919050565b6000613829601e83614224565b91507f46656520657865637574656420657863656564732067726f73732066656500006000830152602082019050919050565b6000613869601383614224565b91507f496e76616c6964207369676e65722074797065000000000000000000000000006000830152602082019050919050565b60006138a9601683614224565b91507f5573696e67206f6c6420696e74656e74206e6f6e6365000000000000000000006000830152602082019050919050565b60006138e9601083614224565b91507f496e76616c6964206d65726368616e74000000000000000000000000000000006000830152602082019050919050565b6000613929601d83614224565b91507f4f6e6c792063616c6c61626c6520627920686f6f6b20777261707065720000006000830152602082019050919050565b6000613969601583614224565b91507f4f6e6c79207265636f766572206f722061646d696e00000000000000000000006000830152602082019050919050565b60006139a9601083614224565b91507f496e76616c6964206f70657261746f72000000000000000000000000000000006000830152602082019050919050565b60006139e9601583614224565b91507f4f6e6c792063616c6c61626c652062792073656c6600000000000000000000006000830152602082019050919050565b6000613a29601283614224565b91507f4e6f20616d6f756e7420726563656976656400000000000000000000000000006000830152602082019050919050565b61014082016000820151613a736000850182613b28565b506020820151613a866020850182613b28565b506040820151613a996040850182613371565b506060820151613aac6060850182613371565b506080820151613abf6080850182613b28565b5060a0820151613ad260a0850182613472565b5060c0820151613ae560c0850182613b28565b5060e0820151613af860e0850182613b28565b50610100820151613b0d610100850182613490565b50610120820151613b22610120850182613371565b50505050565b613b3181614318565b82525050565b613b4081614318565b82525050565b613b4f81614332565b82525050565b6000613b61828661339e565b600282019150613b7182856133c4565b602082019150613b8182846133c4565b602082019150819050949350505050565b6000613b9e8284613441565b915081905092915050565b6000613bb4826137dc565b9150613bc08284613441565b915081905092915050565b6000602082019050613be06000830184613380565b92915050565b6000604082019050613bfb6000830185613380565b613c086020830184613b37565b9392505050565b6000602082019050613c24600083018461338f565b92915050565b6000602082019050613c3f60008301846133b5565b92915050565b600060a082019050613c5a60008301886133b5565b613c6760208301876133b5565b613c7460408301866133b5565b613c816060830185613b37565b613c8e6080830184613380565b9695505050505050565b6000604082019050613cad60008301856133b5565b8181036020830152613cbf8184613408565b90509392505050565b600061016082019050613cde600083018e6133b5565b613ceb602083018d613b37565b613cf8604083018c613b37565b613d05606083018b613380565b613d12608083018a613380565b613d1f60a0830189613b37565b613d2c60c0830188613481565b613d3960e0830187613b37565b613d4761010083018661349f565b613d55610120830185613380565b613d63610140830184613b37565b9c9b505050505050505050505050565b6000608082019050613d8860008301886133b5565b613d956020830187613b37565b613da26040830186613b37565b8181036060830152613db58184866133db565b90509695505050505050565b6000608082019050613dd660008301876133b5565b613de36020830186613b46565b613df060408301856133b5565b613dfd60608301846133b5565b95945050505050565b60006020820190508181036000830152613e2081846134bd565b905092915050565b60006020820190508181036000830152613e41816134f6565b9050919050565b60006020820190508181036000830152613e618161355c565b9050919050565b60006020820190508181036000830152613e818161359c565b9050919050565b60006020820190508181036000830152613ea1816135dc565b9050919050565b60006020820190508181036000830152613ec18161361c565b9050919050565b60006020820190508181036000830152613ee18161365c565b9050919050565b60006020820190508181036000830152613f018161369c565b9050919050565b60006020820190508181036000830152613f21816136dc565b9050919050565b60006020820190508181036000830152613f418161371c565b9050919050565b60006020820190508181036000830152613f618161375c565b9050919050565b60006020820190508181036000830152613f818161379c565b9050919050565b60006020820190508181036000830152613fa18161381c565b9050919050565b60006020820190508181036000830152613fc18161385c565b9050919050565b60006020820190508181036000830152613fe18161389c565b9050919050565b60006020820190508181036000830152614001816138dc565b9050919050565b600060208201905081810360008301526140218161391c565b9050919050565b600060208201905081810360008301526140418161395c565b9050919050565b600060208201905081810360008301526140618161399c565b9050919050565b60006020820190508181036000830152614081816139dc565b9050919050565b600060208201905081810360008301526140a181613a1c565b9050919050565b60006101e0820190506140be6000830189613a5c565b6140cc6101408301886134ae565b6140da610160830187613b37565b6140e8610180830186613b37565b6140f66101a0830185613b37565b6141046101c0830184613b37565b979650505050505050565b60006101e0820190506141256000830189613a5c565b614133610140830188613b37565b614141610160830187613b37565b61414f610180830186613b37565b61415d6101a0830185613b37565b61416b6101c0830184613b37565b979650505050505050565b600060208201905061418b6000830184613b37565b92915050565b6000604051905081810181811067ffffffffffffffff821117156141b8576141b76143cb565b5b8060405250919050565b600067ffffffffffffffff8211156141dd576141dc6143cb565b5b601f19601f8301169050602081019050919050565b600081519050919050565b600081519050919050565b600082825260208201905092915050565b600081905092915050565b600082825260208201905092915050565b600081905092915050565b600061424b826142f8565b9050919050565b600061425d826142f8565b9050919050565b60008115159050919050565b60007fffff00000000000000000000000000000000000000000000000000000000000082169050919050565b6000819050919050565b60007fffffffff0000000000000000000000000000000000000000000000000000000082169050919050565b60008190506142e0826144a1565b919050565b60008190506142f3826144b5565b919050565b600073ffffffffffffffffffffffffffffffffffffffff82169050919050565b6000819050919050565b600063ffffffff82169050919050565b600060ff82169050919050565b600061434a826142d2565b9050919050565b600061435c826142e5565b9050919050565b600061436e82614318565b9050919050565b82818337600083830152505050565b60005b838110156143a2578082015181840152602081019050614387565b838111156143b1576000848401525b50505050565b6000819050919050565b6000819050919050565bfe5b6000601f19601f8301169050919050565b60008160e01c9050919050565b600060443d10156143fb5761449e565b60046000803e61440c6000516143de565b6308c379a0811461441d575061449e565b60405160043d036004823e80513d602482011167ffffffffffffffff821117156144495750505061449e565b808201805167ffffffffffffffff81111561446857505050505061449e565b8060208301013d85018111156144835750505050505061449e565b61448c826143cd565b60208401016040528296505050505050505b90565b600281106144b2576144b16143cb565b5b50565b600281106144c6576144c56143cb565b5b50565b6144d281614240565b81146144dd57600080fd5b50565b6144e981614252565b81146144f457600080fd5b50565b61450081614264565b811461450b57600080fd5b50565b6145178161429c565b811461452257600080fd5b50565b61452e816142a6565b811461453957600080fd5b50565b6002811061454957600080fd5b50565b6002811061455957600080fd5b50565b61456581614318565b811461457057600080fd5b50565b61457c81614322565b811461458757600080fd5b5056fe456e756d657261626c655365743a20696e646578206f7574206f6620626f756e6473416363657373436f6e74726f6c3a2073656e646572206d75737420626520616e2061646d696e20746f206772616e74416464726573733a20696e73756666696369656e742062616c616e636520666f722063616c6c416363657373436f6e74726f6c3a2073656e646572206d75737420626520616e2061646d696e20746f207265766f6b65536166654d6174683a206d756c7469706c69636174696f6e206f766572666c6f775361666545524332303a204552433230206f7065726174696f6e20646964206e6f742073756363656564416363657373436f6e74726f6c3a2063616e206f6e6c792072656e6f756e636520726f6c657320666f722073656c66a26469706673582212206eb48301a6ceead5389e191f86b167302eb8fa461783095d8efcc5d95f5c8be664736f6c63430007060033",
  "linkReferences": {},
  "deployedLinkReferences": {}
}