{
  "_format": "hh-sol-artifact-1",
  "contractName": "PaymentIntentHandlerV1",
  "sourceName": "contracts/v1/PaymentIntentHandler.sol",
  "abi": [
    {
      "inputs": [
        {
          "internalType": "address",
          "name": "_usdc",
          "type": "address"
        },
        {
          "internalType": "address",
          "name": "_hookWrapper",
          "type": "address"
        }
      ],
      "stateMutability": "nonpayable",
      "type": "constructor"
    },
    {
      "anonymous": false,
      "inputs": [
        {
          "indexed": false,
          "internalType": "address",
          "name": "to",
          "type": "address"
        },
        {
          "indexed": false,
          "internalType": "uint256",
          "name": "amount",
          "type": "uint256"
        }
      ],
      "name": "EmergencyRecovery",
      "type": "event"
    },
    {
      "anonymous": false,
      "inputs": [
        {
          "indexed": true,
          "internalType": "bytes32",
          "name": "nonce",
          "type": "bytes32"
        },
        {
          "indexed": false,
          "internalType": "string",
          "name": "reason",
          "type": "string"
        }
      ],
      "name": "PaymentIntentFailed",
      "type": "event"
    },
    {
      "anonymous": false,
      "inputs": [
        {
          "indexed": true,
          "internalType": "bytes32",
          "name": "nonce",
          "type": "bytes32"
        },
        {
          "indexed": true,
          "internalType": "address",
          "name": "merchant",
          "type": "address"
        },
        {
          "indexed": false,
          "internalType": "uint256",
          "name": "amount",
          "type": "uint256"
        },
        {
          "indexed": false,
          "internalType": "uint256",
          "name": "feeExecuted",
          "type": "uint256"
        },
        {
          "indexed": false,
          "internalType": "uint256",
          "name": "netMinted",
          "type": "uint256"
        },
        {
          "indexed": false,
          "internalType": "uint256",
          "name": "netPayable",
          "type": "uint256"
        },
        {
          "indexed": false,
          "internalType": "uint256",
          "name": "netFee",
          "type": "uint256"
        },
        {
          "indexed": false,
          "internalType": "uint256",
          "name": "feeBps",
          "type": "uint256"
        },
        {
          "indexed": false,
          "internalType": "address",
          "name": "feeRecipient",
          "type": "address"
        },
        {
          "indexed": false,
          "internalType": "uint256",
          "name": "salt",
          "type": "uint256"
        }
      ],
      "name": "PaymentIntentSuccess",
      "type": "event"
    },
    {
      "anonymous": false,
      "inputs": [
        {
          "indexed": true,
          "internalType": "bytes32",
          "name": "role",
          "type": "bytes32"
        },
        {
          "indexed": true,
          "internalType": "bytes32",
          "name": "previousAdminRole",
          "type": "bytes32"
        },
        {
          "indexed": true,
          "internalType": "bytes32",
          "name": "newAdminRole",
          "type": "bytes32"
        }
      ],
      "name": "RoleAdminChanged",
      "type": "event"
    },
    {
      "anonymous": false,
      "inputs": [
        {
          "indexed": true,
          "internalType": "bytes32",
          "name": "role",
          "type": "bytes32"
        },
        {
          "indexed": true,
          "internalType": "address",
          "name": "account",
          "type": "address"
        },
        {
          "indexed": true,
          "internalType": "address",
          "name": "sender",
          "type": "address"
        }
      ],
      "name": "RoleGranted",
      "type": "event"
    },
    {
      "anonymous": false,
      "inputs": [
        {
          "indexed": true,
          "internalType": "bytes32",
          "name": "role",
          "type": "bytes32"
        },
        {
          "indexed": true,
          "internalType": "address",
          "name": "account",
          "type": "address"
        },
        {
          "indexed": true,
          "internalType": "address",
          "name": "sender",
          "type": "address"
        }
      ],
      "name": "RoleRevoked",
      "type": "event"
    },
    {
      "inputs": [],
      "name": "DEFAULT_ADMIN_ROLE",
      "outputs": [
        {
          "internalType": "bytes32",
          "name": "",
          "type": "bytes32"
        }
      ],
      "stateMutability": "view",
      "type": "function"
    },
    {
      "inputs": [],
      "name": "RECOVER_ROLE",
      "outputs": [
        {
          "internalType": "bytes32",
          "name": "",
          "type": "bytes32"
        }
      ],
      "stateMutability": "view",
      "type": "function"
    },
    {
      "inputs": [
        {
          "internalType": "bytes32",
          "name": "_nonce",
          "type": "bytes32"
        },
        {
          "internalType": "uint256",
          "name": "_amount",
          "type": "uint256"
        },
        {
          "internalType": "uint256",
          "name": "_feeExecuted",
          "type": "uint256"
        },
        {
          "internalType": "bytes",
          "name": "_structData",
          "type": "bytes"
        }
      ],
      "name": "_executeHook",
      "outputs": [
        {
          "internalType": "bool",
          "name": "",
          "type": "bool"
        }
      ],
      "stateMutability": "nonpayable",
      "type": "function"
    },
    {
      "inputs": [
        {
          "internalType": "address",
          "name": "to",
          "type": "address"
        }
      ],
      "name": "emergencyRecover",
      "outputs": [],
      "stateMutability": "nonpayable",
      "type": "function"
    },
    {
      "inputs": [
        {
          "internalType": "bytes32",
          "name": "_nonce",
          "type": "bytes32"
        },
        {
          "internalType": "address",
          "name": "_to",
          "type": "address"
        }
      ],
      "name": "emergencyRecoverNonceMint",
      "outputs": [],
      "stateMutability": "nonpayable",
      "type": "function"
    },
    {
      "inputs": [
        {
          "internalType": "bytes32",
          "name": "_nonce",
          "type": "bytes32"
        },
        {
          "internalType": "uint32",
          "name": "",
          "type": "uint32"
        },
        {
          "internalType": "bytes32",
          "name": "",
          "type": "bytes32"
        },
        {
          "internalType": "bytes32",
          "name": "",
          "type": "bytes32"
        },
        {
          "internalType": "uint256",
          "name": "_amount",
          "type": "uint256"
        },
        {
          "internalType": "bytes32",
          "name": "",
          "type": "bytes32"
        },
        {
          "internalType": "uint256",
          "name": "",
          "type": "uint256"
        },
        {
          "internalType": "uint256",
          "name": "_feeExecuted",
          "type": "uint256"
        },
        {
          "internalType": "uint256",
          "name": "",
          "type": "uint256"
        },
        {
          "internalType": "bytes",
          "name": "_structData",
          "type": "bytes"
        }
      ],
      "name": "executePaymentHook",
      "outputs": [
        {
          "internalType": "bool",
          "name": "",
          "type": "bool"
        }
      ],
      "stateMutability": "nonpayable",
      "type": "function"
    },
    {
      "inputs": [
        {
          "internalType": "address",
          "name": "",
          "type": "address"
        },
        {
          "internalType": "address",
          "name": "",
          "type": "address"
        },
        {
          "internalType": "uint256",
          "name": "",
          "type": "uint256"
        },
        {
          "internalType": "uint256",
          "name": "",
          "type": "uint256"
        },
        {
          "internalType": "bytes",
          "name": "_structData",
          "type": "bytes"
        }
      ],
      "name": "executeSwapHook",
      "outputs": [
        {
          "internalType": "bool",
          "name": "",
          "type": "bool"
        }
      ],
      "stateMutability": "nonpayable",
      "type": "function"
    },
    {
      "inputs": [
        {
          "internalType": "bytes32",
          "name": "role",
          "type": "bytes32"
        }
      ],
      "name": "getRoleAdmin",
      "outputs": [
        {
          "internalType": "bytes32",
          "name": "",
          "type": "bytes32"
        }
      ],
      "stateMutability": "view",
      "type": "function"
    },
    {
      "inputs": [
        {
          "internalType": "bytes32",
          "name": "role",
          "type": "bytes32"
        },
        {
          "internalType": "uint256",
          "name": "index",
          "type": "uint256"
        }
      ],
      "name": "getRoleMember",
      "outputs": [
        {
          "internalType": "address",
          "name": "",
          "type": "address"
        }
      ],
      "stateMutability": "view",
      "type": "function"
    },
    {
      "inputs": [
        {
          "internalType": "bytes32",
          "name": "role",
          "type": "bytes32"
        }
      ],
      "name": "getRoleMemberCount",
      "outputs": [
        {
          "internalType": "uint256",
          "name": "",
          "type": "uint256"
        }
      ],
      "stateMutability": "view",
      "type": "function"
    },
    {
      "inputs": [
        {
          "internalType": "bytes32",
          "name": "role",
          "type": "bytes32"
        },
        {
          "internalType": "address",
          "name": "account",
          "type": "address"
        }
      ],
      "name": "grantRole",
      "outputs": [],
      "stateMutability": "nonpayable",
      "type": "function"
    },
    {
      "inputs": [
        {
          "internalType": "bytes32",
          "name": "role",
          "type": "bytes32"
        },
        {
          "internalType": "address",
          "name": "account",
          "type": "address"
        }
      ],
      "name": "hasRole",
      "outputs": [
        {
          "internalType": "bool",
          "name": "",
          "type": "bool"
        }
      ],
      "stateMutability": "view",
      "type": "function"
    },
    {
      "inputs": [
        {
          "components": [
            {
              "internalType": "uint256",
              "name": "amount",
              "type": "uint256"
            },
            {
              "internalType": "uint256",
              "name": "feeBps",
              "type": "uint256"
            },
            {
              "internalType": "address",
              "name": "feeRecipient",
              "type": "address"
            },
            {
              "internalType": "address",
              "name": "merchant",
              "type": "address"
            },
            {
              "internalType": "uint256",
              "name": "salt",
              "type": "uint256"
            }
          ],
          "internalType": "struct PaymentIntent",
          "name": "intent",
          "type": "tuple"
        }
      ],
      "name": "hashPaymentIntent",
      "outputs": [
        {
          "internalType": "bytes32",
          "name": "",
          "type": "bytes32"
        }
      ],
      "stateMutability": "view",
      "type": "function"
    },
    {
      "inputs": [],
      "name": "hookWrapper",
      "outputs": [
        {
          "internalType": "address",
          "name": "",
          "type": "address"
        }
      ],
      "stateMutability": "view",
      "type": "function"
    },
    {
      "inputs": [
        {
          "components": [
            {
              "internalType": "uint256",
              "name": "amount",
              "type": "uint256"
            },
            {
              "internalType": "uint256",
              "name": "feeBps",
              "type": "uint256"
            },
            {
              "internalType": "address",
              "name": "feeRecipient",
              "type": "address"
            },
            {
              "internalType": "address",
              "name": "merchant",
              "type": "address"
            },
            {
              "internalType": "uint256",
              "name": "salt",
              "type": "uint256"
            }
          ],
          "internalType": "struct PaymentIntent",
          "name": "_intent",
          "type": "tuple"
        },
        {
          "internalType": "bytes",
          "name": "_signature",
          "type": "bytes"
        }
      ],
      "name": "localExecuteHook",
      "outputs": [
        {
          "internalType": "bool",
          "name": "",
          "type": "bool"
        }
      ],
      "stateMutability": "nonpayable",
      "type": "function"
    },
    {
      "inputs": [
        {
          "internalType": "bytes32",
          "name": "",
          "type": "bytes32"
        }
      ],
      "name": "receivedMints",
      "outputs": [
        {
          "internalType": "uint256",
          "name": "",
          "type": "uint256"
        }
      ],
      "stateMutability": "view",
      "type": "function"
    },
    {
      "inputs": [
        {
          "internalType": "bytes32",
          "name": "role",
          "type": "bytes32"
        },
        {
          "internalType": "address",
          "name": "account",
          "type": "address"
        }
      ],
      "name": "renounceRole",
      "outputs": [],
      "stateMutability": "nonpayable",
      "type": "function"
    },
    {
      "inputs": [
        {
          "internalType": "bytes32",
          "name": "role",
          "type": "bytes32"
        },
        {
          "internalType": "address",
          "name": "account",
          "type": "address"
        }
      ],
      "name": "revokeRole",
      "outputs": [],
      "stateMutability": "nonpayable",
      "type": "function"
    },
    {
      "inputs": [
        {
          "internalType": "uint256",
          "name": "",
          "type": "uint256"
        }
      ],
      "name": "salts",
      "outputs": [
        {
          "internalType": "bool",
          "name": "",
          "type": "bool"
        }
      ],
      "stateMutability": "view",
      "type": "function"
    },
    {
      "inputs": [],
      "name": "usdc",
      "outputs": [
        {
          "internalType": "address",
          "name": "",
          "type": "address"
        }
      ],
      "stateMutability": "view",
      "type": "function"
    }
  ],
  "bytecode": "0x60806040523480156200001157600080fd5b506040516200487a3803806200487a833981810160405281019062000037919062000426565b620000476200021960201b60201c565b600080600160008491905055839190505550506001600281905550600073ffffffffffffffffffffffffffffffffffffffff168273ffffffffffffffffffffffffffffffffffffffff161415620000d5576040517f08c379a0000000000000000000000000000000000000000000000000000000008152600401620000cc90620008e2565b60405180910390fd5b600073ffffffffffffffffffffffffffffffffffffffff168173ffffffffffffffffffffffffffffffffffffffff16141562000148576040517f08c379a00000000000000000000000000000000000000000000000000000000081526004016200013f90620008c0565b60405180910390fd5b81600660006101000a81548173ffffffffffffffffffffffffffffffffffffffff021916908373ffffffffffffffffffffffffffffffffffffffff16021790555080600760006101000a81548173ffffffffffffffffffffffffffffffffffffffff021916908373ffffffffffffffffffffffffffffffffffffffff160217905550620001df6000801b336200027860201b60201c565b620002117f62b337eaefec74dadf1a62e856bf9db4f14a0f27d4f48156a95a9f98e7d5e066336200027860201b60201c565b50506200096e565b6000806040516020016200022d9062000868565b6040516020818303038152906040528051906020012091506000604051602001620002589062000803565b604051602081830303815290604052905080805190602001209150509091565b6200028a82826200028e60201b60201c565b5050565b620002bd81600360008581526020019081526020016000206000016200033260201b620012b91790919060201c565b156200032e57620002d36200036a60201b60201c565b73ffffffffffffffffffffffffffffffffffffffff168173ffffffffffffffffffffffffffffffffffffffff16837f2f8788117e7eff1d82e926ec794901d17c78024a50270940304540a733656f0d60405160405180910390a45b5050565b600062000362836000018373ffffffffffffffffffffffffffffffffffffffff1660001b6200037260201b60201c565b905092915050565b600033905090565b6000620003868383620003ec60201b60201c565b620003e1578260000182908060018154018082558091505060019003906000526020600020016000909190919091505582600001805490508360010160008481526020019081526020016000208190555060019050620003e6565b600090505b92915050565b600080836001016000848152602001908152602001600020541415905092915050565b600081519050620004208162000954565b92915050565b600080604083850312156200043a57600080fd5b60006200044a858286016200040f565b92505060206200045d858286016200040f565b9150509250929050565b600062000476600c8362000915565b91507f737472696e67206e616d652c00000000000000000000000000000000000000006000830152600c82019050919050565b6000620004b8600f8362000915565b91507f75696e7432353620616d6f756e742c00000000000000000000000000000000006000830152600f82019050919050565b6000620004fa60198362000915565b91507f6164647265737320766572696679696e67436f6e7472616374000000000000006000830152601982019050919050565b60006200053c60108362000915565b91507f75696e7432353620636861696e49642c000000000000000000000000000000006000830152601082019050919050565b60006200057e601c8362000904565b91507f496e76616c696420686f6f6b20777261707065722061646472657373000000006000830152602082019050919050565b6000620005c060118362000915565b91507f61646472657373206d65726368616e742c0000000000000000000000000000006000830152601182019050919050565b60006200060260018362000915565b91507f29000000000000000000000000000000000000000000000000000000000000006000830152600182019050919050565b600062000644600f8362000915565b91507f737472696e672076657273696f6e2c00000000000000000000000000000000006000830152600f82019050919050565b60006200068660148362000904565b91507f496e76616c6964205553444320616464726573730000000000000000000000006000830152602082019050919050565b6000620006c8600f8362000915565b91507f75696e74323536206665654270732c00000000000000000000000000000000006000830152600f82019050919050565b60006200070a600e8362000915565b91507f5061796d656e74496e74656e74280000000000000000000000000000000000006000830152600e82019050919050565b60006200074c600c8362000915565b91507f75696e743235362073616c7400000000000000000000000000000000000000006000830152600c82019050919050565b60006200078e600d8362000915565b91507f454950373132446f6d61696e28000000000000000000000000000000000000006000830152600d82019050919050565b6000620007d060158362000915565b91507f6164647265737320666565526563697069656e742c00000000000000000000006000830152601582019050919050565b60006200081082620006fb565b91506200081d82620004a9565b91506200082a82620006b9565b91506200083782620007c1565b91506200084482620005b1565b915062000851826200073d565b91506200085e82620005f3565b9150819050919050565b600062000875826200077f565b9150620008828262000467565b91506200088f8262000635565b91506200089c826200052d565b9150620008a982620004eb565b9150620008b682620005f3565b9150819050919050565b60006020820190508181036000830152620008db816200056f565b9050919050565b60006020820190508181036000830152620008fd8162000677565b9050919050565b600082825260208201905092915050565b600081905092915050565b60006200092d8262000934565b9050919050565b600073ffffffffffffffffffffffffffffffffffffffff82169050919050565b6200095f8162000920565b81146200096b57600080fd5b50565b613efc806200097e6000396000f3fe608060405234801561001057600080fd5b506004361061012c5760003560e01c80637f202e24116100ad578063a217fddf11610071578063a217fddf1461038f578063aafafa9f146103ad578063ac1d45c5146103c9578063ca15c873146103f9578063d547741f146104295761012c565b80637f202e24146102b15780639010d07c146102e157806391d1485414610311578063939bcbc914610341578063959c43c81461035f5761012c565b80633e413bee116100f45780633e413bee146101e55780635a316f7a146102035780636dd31f2e1461022157806372c64509146102515780637d0c8b77146102815761012c565b80631e999dad14610131578063248a9ca3146101615780632f2ff15d1461019157806336568abe146101ad5780633c1cb25f146101c9575b600080fd5b61014b60048036038101906101469190612ad3565b610445565b6040516101589190613558565b60405180910390f35b61017b60048036038101906101769190612b8e565b610500565b6040516101889190613573565b60405180910390f35b6101ab60048036038101906101a69190612bb7565b610520565b005b6101c760048036038101906101c29190612bb7565b6105aa565b005b6101e360048036038101906101de9190612bb7565b610643565b005b6101ed610786565b6040516101fa9190613514565b60405180910390f35b61020b6107ac565b6040516102189190613514565b60405180910390f35b61023b60048036038101906102369190612caf565b6107d2565b6040516102489190613558565b60405180910390f35b61026b60048036038101906102669190612c2f565b610a3d565b6040516102789190613558565b60405180910390f35b61029b60048036038101906102969190612e11565b610db6565b6040516102a89190613573565b60405180910390f35b6102cb60048036038101906102c69190612b8e565b610dc8565b6040516102d89190613927565b60405180910390f35b6102fb60048036038101906102f69190612bf3565b610de0565b6040516103089190613514565b60405180910390f35b61032b60048036038101906103269190612bb7565b610e12565b6040516103389190613558565b60405180910390f35b610349610e44565b6040516103569190613573565b60405180910390f35b61037960048036038101906103749190612e3a565b610e68565b6040516103869190613558565b60405180910390f35b610397610f03565b6040516103a49190613573565b60405180910390f35b6103c760048036038101906103c29190612a2b565b610f0a565b005b6103e360048036038101906103de9190612e8e565b6111e8565b6040516103f09190613558565b60405180910390f35b610413600480360381019061040e9190612b8e565b611208565b6040516104209190613927565b60405180910390f35b610443600480360381019061043e9190612bb7565b61122f565b005b60006002805414156104bf576040517f08c379a000000000000000000000000000000000000000000000000000000000815260040180806020018281038252601f8152602001807f5265656e7472616e637947756172643a207265656e7472616e742063616c6c0081525060200191505060405180910390fd5b60028081905550600083838101906104d79190612dd0565b90506104eb816000015182602001516112e9565b91505060016002819055509695505050505050565b600060036000838152602001908152602001600020600201549050919050565b610547600360008481526020019081526020016000206002015461054261169b565b610e12565b61059c576040517f08c379a000000000000000000000000000000000000000000000000000000000815260040180806020018281038252602f815260200180613dc8602f913960400191505060405180910390fd5b6105a682826116a3565b5050565b6105b261169b565b73ffffffffffffffffffffffffffffffffffffffff168173ffffffffffffffffffffffffffffffffffffffff1614610635576040517f08c379a000000000000000000000000000000000000000000000000000000000815260040180806020018281038252602f815260200180613e98602f913960400191505060405180910390fd5b61063f8282611737565b5050565b61066d7f62b337eaefec74dadf1a62e856bf9db4f14a0f27d4f48156a95a9f98e7d5e06633610e12565b8061068157506106806000801b33610e12565b5b6106c0576040517f08c379a00000000000000000000000000000000000000000000000000000000081526004016106b7906138c7565b60405180910390fd5b6000600560008481526020019081526020016000205490506000811161071b576040517f08c379a000000000000000000000000000000000000000000000000000000000815260040161071290613907565b60405180910390fd5b600060056000858152602001908152602001600020819055506107818282600660009054906101000a900473ffffffffffffffffffffffffffffffffffffffff1673ffffffffffffffffffffffffffffffffffffffff166117cb9092919063ffffffff16565b505050565b600660009054906101000a900473ffffffffffffffffffffffffffffffffffffffff1681565b600760009054906101000a900473ffffffffffffffffffffffffffffffffffffffff1681565b600060028054141561084c576040517f08c379a000000000000000000000000000000000000000000000000000000000815260040180806020018281038252601f8152602001807f5265656e7472616e637947756172643a207265656e7472616e742063616c6c0081525060200191505060405180910390fd5b60028081905550600760009054906101000a900473ffffffffffffffffffffffffffffffffffffffff1673ffffffffffffffffffffffffffffffffffffffff163373ffffffffffffffffffffffffffffffffffffffff16146108e3576040517f08c379a00000000000000000000000000000000000000000000000000000000081526004016108da906138a7565b60405180910390fd5b848803600560008e8152602001908152602001600020819055503073ffffffffffffffffffffffffffffffffffffffff166372c645098d8a8887876040518663ffffffff1660e01b815260040161093e959493929190613672565b602060405180830381600087803b15801561095857600080fd5b505af192505050801561098957506040513d601f19601f820116820180604052508101906109869190612b65565b60015b610a2157610995613c4e565b806109a057506109e2565b8c7f548eb1029b4a35323ec07af86cc4efa887532238db4c729b35c72ea93d734a30826040516109d09190613705565b60405180910390a26000915050610a26565b8b7f548eb1029b4a35323ec07af86cc4efa887532238db4c729b35c72ea93d734a30604051610a1090613747565b60405180910390a260009050610a26565b809150505b60016002819055509b9a5050505050505050505050565b60003073ffffffffffffffffffffffffffffffffffffffff163373ffffffffffffffffffffffffffffffffffffffff1614610aad576040517f08c379a0000000000000000000000000000000000000000000000000000000008152600401610aa4906138e7565b60405180910390fd5b60008383810190610abe9190612dd0565b905060046000826000015160800151815260200190815260200160002060009054906101000a900460ff1615610b29576040517f08c379a0000000000000000000000000000000000000000000000000000000008152600401610b2090613787565b60405180910390fd5b600160046000836000015160800151815260200190815260200160002060006101000a81548160ff0219169083151502179055506000610b6c826000015161186d565b9050610b858183600001516060015184602001516118bd565b8682600001516000015114610bcf576040517f08c379a0000000000000000000000000000000000000000000000000000000008152600401610bc690613807565b60405180910390fd5b600086880390506000610c0f612710610c01866000015160200151876000015160000151611b9690919063ffffffff16565b611c1c90919063ffffffff16565b905087811015610c54576040517f08c379a0000000000000000000000000000000000000000000000000000000008152600401610c4b90613867565b60405180910390fd5b60008185600001516000015103905060008184039050610cbf86600001516060015183600660009054906101000a900473ffffffffffffffffffffffffffffffffffffffff1673ffffffffffffffffffffffffffffffffffffffff166117cb9092919063ffffffff16565b6000811115610d1e57610d1d86600001516040015182600660009054906101000a900473ffffffffffffffffffffffffffffffffffffffff1673ffffffffffffffffffffffffffffffffffffffff166117cb9092919063ffffffff16565b5b85600001516060015173ffffffffffffffffffffffffffffffffffffffff168c7faae703bddaac8f8cf0d973a238676c6300b6347e7199e8eb25941c15781746408860000151600001518d8887878d60000151602001518e60000151604001518f6000015160800151604051610d9b9897969594939291906139c0565b60405180910390a36001965050505050505095945050505050565b6000610dc18261186d565b9050919050565b60056020528060005260406000206000915090505481565b6000610e0a8260036000868152602001908152602001600020600001611ca590919063ffffffff16565b905092915050565b6000610e3c8260036000868152602001908152602001600020600001611cbf90919063ffffffff16565b905092915050565b7f62b337eaefec74dadf1a62e856bf9db4f14a0f27d4f48156a95a9f98e7d5e06681565b6000600280541415610ee2576040517f08c379a000000000000000000000000000000000000000000000000000000000815260040180806020018281038252601f8152602001807f5265656e7472616e637947756172643a207265656e7472616e742063616c6c0081525060200191505060405180910390fd5b60028081905550610ef383836112e9565b9050600160028190555092915050565b6000801b81565b610f347f62b337eaefec74dadf1a62e856bf9db4f14a0f27d4f48156a95a9f98e7d5e06633610e12565b80610f485750610f476000801b33610e12565b5b610f87576040517f08c379a0000000000000000000000000000000000000000000000000000000008152600401610f7e906138c7565b60405180910390fd5b600280541415610fff576040517f08c379a000000000000000000000000000000000000000000000000000000000815260040180806020018281038252601f8152602001807f5265656e7472616e637947756172643a207265656e7472616e742063616c6c0081525060200191505060405180910390fd5b600280819055506000600660009054906101000a900473ffffffffffffffffffffffffffffffffffffffff1673ffffffffffffffffffffffffffffffffffffffff166370a08231306040518263ffffffff1660e01b81526004016110639190613514565b60206040518083038186803b15801561107b57600080fd5b505afa15801561108f573d6000803e3d6000fd5b505050506040513d601f19601f820116820180604052508101906110b39190612eb7565b9050600660009054906101000a900473ffffffffffffffffffffffffffffffffffffffff1673ffffffffffffffffffffffffffffffffffffffff1663a9059cbb83836040518363ffffffff1660e01b815260040161111292919061352f565b602060405180830381600087803b15801561112c57600080fd5b505af1158015611140573d6000803e3d6000fd5b505050506040513d601f19601f820116820180604052508101906111649190612b65565b6111a3576040517f08c379a000000000000000000000000000000000000000000000000000000000815260040161119a906137a7565b60405180910390fd5b7fa9364fb2836862098c2b593d2d3f46759b4c6d5b054300f96172b0394430008a82826040516111d492919061352f565b60405180910390a150600160028190555050565b60046020528060005260406000206000915054906101000a900460ff1681565b600061122860036000848152602001908152602001600020600001611cef565b9050919050565b611256600360008481526020019081526020016000206002015461125161169b565b610e12565b6112ab576040517f08c379a0000000000000000000000000000000000000000000000000000000008152600401808060200182810382526030815260200180613e1d6030913960400191505060405180910390fd5b6112b58282611737565b5050565b60006112e1836000018373ffffffffffffffffffffffffffffffffffffffff1660001b611d04565b905092915050565b6000600460008460800151815260200190815260200160002060009054906101000a900460ff1615611350576040517f08c379a000000000000000000000000000000000000000000000000000000000815260040161134790613787565b60405180910390fd5b6001600460008560800151815260200190815260200160002060006101000a81548160ff021916908315150217905550600061138b8461186d565b905061139c818560600151856118bd565b60008460000151116113e3576040517f08c379a00000000000000000000000000000000000000000000000000000000081526004016113da90613807565b60405180910390fd5b6127108460200151111561142c576040517f08c379a000000000000000000000000000000000000000000000000000000000815260040161142390613767565b60405180910390fd5b600073ffffffffffffffffffffffffffffffffffffffff16846060015173ffffffffffffffffffffffffffffffffffffffff1614156114a0576040517f08c379a000000000000000000000000000000000000000000000000000000000815260040161149790613887565b60405180910390fd5b60006114d16127106114c387602001518860000151611b9690919063ffffffff16565b611c1c90919063ffffffff16565b905084600001518110611519576040517f08c379a000000000000000000000000000000000000000000000000000000000815260040161151090613847565b60405180910390fd5b61157233866060015183886000015103600660009054906101000a900473ffffffffffffffffffffffffffffffffffffffff1673ffffffffffffffffffffffffffffffffffffffff16611d74909392919063ffffffff16565b6000811180156115b35750600073ffffffffffffffffffffffffffffffffffffffff16856040015173ffffffffffffffffffffffffffffffffffffffff1614155b1561160c5761160b33866040015183600660009054906101000a900473ffffffffffffffffffffffffffffffffffffffff1673ffffffffffffffffffffffffffffffffffffffff16611d74909392919063ffffffff16565b5b846060015173ffffffffffffffffffffffffffffffffffffffff16856080015160001b7faae703bddaac8f8cf0d973a238676c6300b6347e7199e8eb25941c1578174640876000015160008960000151868b6000015103878c602001518d604001518e60800151604051611687989796959493929190613942565b60405180910390a360019250505092915050565b600033905090565b6116cb81600360008581526020019081526020016000206000016112b990919063ffffffff16565b15611733576116d861169b565b73ffffffffffffffffffffffffffffffffffffffff168173ffffffffffffffffffffffffffffffffffffffff16837f2f8788117e7eff1d82e926ec794901d17c78024a50270940304540a733656f0d60405160405180910390a45b5050565b61175f8160036000858152602001908152602001600020600001611e3590919063ffffffff16565b156117c75761176c61169b565b73ffffffffffffffffffffffffffffffffffffffff168173ffffffffffffffffffffffffffffffffffffffff16837ff6391f5c32d9c69d2a47ea670b442974b53935d1edc7fd64eb21e047a839171b60405160405180910390a45b5050565b6118688363a9059cbb60e01b8484604051602401808373ffffffffffffffffffffffffffffffffffffffff16815260200182815260200192505050604051602081830303815290604052907bffffffffffffffffffffffffffffffffffffffffffffffffffffffff19166020820180517bffffffffffffffffffffffffffffffffffffffffffffffffffffffff8381831617835250505050611e65565b505050565b6000600154826000015183602001518460400151856060015186608001516040516020016118a096959493929190613611565b604051602081830303815290604052805190602001209050919050565b6000806000606060006118cf88611f54565b905060007f649264926492649264926492649264926492649264926492649264926492649260001b61190088612016565b1490508015611a2d576000606060006119188a61206f565b90508080602001905181019061192e9190612a54565b80985081945082955050505060006119458c612182565b5190506000811415611a24576000808573ffffffffffffffffffffffffffffffffffffffff168560405161197991906134db565b6000604051808303816000865af19150503d80600081146119b6576040519150601f19603f3d011682016040523d82523d6000602084013e6119bb565b606091505b509150915081611a2157806040516020016119d691906134f2565b6040516020818303038152906040526040517f08c379a0000000000000000000000000000000000000000000000000000000008152600401611a189190613705565b60405180910390fd5b50505b50505050611a31565b8692505b6000611a3c89612182565b511115611b655760008873ffffffffffffffffffffffffffffffffffffffff16631626ba7e84866040518363ffffffff1660e01b8152600401611a809291906135e1565b60206040518083038186803b158015611a9857600080fd5b505afa158015611aac573d6000803e3d6000fd5b505050506040513d601f19601f82011682018060405250810190611ad09190612da7565b9050631626ba7e60e01b7bffffffffffffffffffffffffffffffffffffffffffffffffffffffff1916817bffffffffffffffffffffffffffffffffffffffffffffffffffffffff191614611b59576040517f08c379a0000000000000000000000000000000000000000000000000000000008152600401611b50906137c7565b60405180910390fd5b50505050505050611b91565b6020870151955060408701519450606087015160001a9350611b8a88838689896121a6565b5050505050505b505050565b600080831415611ba95760009050611c16565b6000828402905082848281611bba57fe5b0414611c11576040517f08c379a0000000000000000000000000000000000000000000000000000000008152600401808060200182810382526021815260200180613e4d6021913960400191505060405180910390fd5b809150505b92915050565b6000808211611c93576040517f08c379a000000000000000000000000000000000000000000000000000000000815260040180806020018281038252601a8152602001807f536166654d6174683a206469766973696f6e206279207a65726f00000000000081525060200191505060405180910390fd5b818381611c9c57fe5b04905092915050565b6000611cb48360000183612300565b60001c905092915050565b6000611ce7836000018373ffffffffffffffffffffffffffffffffffffffff1660001b612383565b905092915050565b6000611cfd826000016123a6565b9050919050565b6000611d108383612383565b611d69578260000182908060018154018082558091505060019003906000526020600020016000909190919091505582600001805490508360010160008481526020019081526020016000208190555060019050611d6e565b600090505b92915050565b611e2f846323b872dd60e01b858585604051602401808473ffffffffffffffffffffffffffffffffffffffff1681526020018373ffffffffffffffffffffffffffffffffffffffff1681526020018281526020019350505050604051602081830303815290604052907bffffffffffffffffffffffffffffffffffffffffffffffffffffffff19166020820180517bffffffffffffffffffffffffffffffffffffffffffffffffffffffff8381831617835250505050611e65565b50505050565b6000611e5d836000018373ffffffffffffffffffffffffffffffffffffffff1660001b6123b7565b905092915050565b6000611ec7826040518060400160405280602081526020017f5361666545524332303a206c6f772d6c6576656c2063616c6c206661696c65648152508573ffffffffffffffffffffffffffffffffffffffff1661249f9092919063ffffffff16565b9050600081511115611f4f57808060200190516020811015611ee857600080fd5b8101908080519060200190929190505050611f4e576040517f08c379a000000000000000000000000000000000000000000000000000000000815260040180806020018281038252602a815260200180613e6e602a913960400191505060405180910390fd5b5b505050565b600080611fdc6000546040518060400160405280601681526020017f5061796d656e74496e74656e7448616e646c6572563100000000000000000000815250805190602001206040518060400160405280600181526020017f3100000000000000000000000000000000000000000000000000000000000000815250805190602001206124b7565b905061190160f01b8184604051602001611ff89392919061349e565b60405160208183030381529060405280519060200120915050919050565b600060208251101561205d576040517f08c379a000000000000000000000000000000000000000000000000000000000815260040161205490613827565b60405180910390fd5b60208251036020018201519050919050565b606060208251116120b5576040517f08c379a00000000000000000000000000000000000000000000000000000000081526004016120ac90613727565b60405180910390fd5b60006020835103905060008167ffffffffffffffff811180156120d757600080fd5b506040519080825280601f01601f19166020018201604052801561210a5781602001600182028036833780820191505090505b50905060005b828110156121775784818151811061212457fe5b602001015160f81c60f81b82828151811061213b57fe5b60200101907effffffffffffffffffffffffffffffffffffffffffffffffffffffffffffff1916908160001a9053508080600101915050612110565b508092505050919050565b6060813b604051915080825280600060208401853c60208101820160405250919050565b601b8360ff16141580156121be5750601c8360ff1614155b156121fe576040517f08c379a00000000000000000000000000000000000000000000000000000000081526004016121f5906137e7565b60405180910390fd5b60006001858585856040516000815260200160405260405161222394939291906136c0565b6020604051602081039080840390855afa158015612245573d6000803e3d6000fd5b505050602060405103519050600073ffffffffffffffffffffffffffffffffffffffff168173ffffffffffffffffffffffffffffffffffffffff1614806122b857508073ffffffffffffffffffffffffffffffffffffffff168673ffffffffffffffffffffffffffffffffffffffff1614155b156122f8576040517f08c379a00000000000000000000000000000000000000000000000000000000081526004016122ef906137c7565b60405180910390fd5b505050505050565b600081836000018054905011612361576040517f08c379a0000000000000000000000000000000000000000000000000000000008152600401808060200182810382526022815260200180613da66022913960400191505060405180910390fd5b82600001828154811061237057fe5b9060005260206000200154905092915050565b600080836001016000848152602001908152602001600020541415905092915050565b600081600001805490509050919050565b60008083600101600084815260200190815260200160002054905060008114612493576000600182039050600060018660000180549050039050600086600001828154811061240257fe5b906000526020600020015490508087600001848154811061241f57fe5b906000526020600020018190555060018301876001016000838152602001908152602001600020819055508660000180548061245757fe5b60019003818190600052602060002001600090559055866001016000878152602001908152602001600020600090556001945050505050612499565b60009150505b92915050565b60606124ae84846000856124f6565b90509392505050565b60008046905084848483306040516020016124d695949392919061358e565b604051602081830303815290604052805190602001209150509392505050565b606082471015612551576040517f08c379a0000000000000000000000000000000000000000000000000000000008152600401808060200182810382526026815260200180613df76026913960400191505060405180910390fd5b61255a8561269e565b6125cc576040517f08c379a000000000000000000000000000000000000000000000000000000000815260040180806020018281038252601d8152602001807f416464726573733a2063616c6c20746f206e6f6e2d636f6e747261637400000081525060200191505060405180910390fd5b6000808673ffffffffffffffffffffffffffffffffffffffff1685876040518082805190602001908083835b6020831061261b57805182526020820191506020810190506020830392506125f8565b6001836020036101000a03801982511681845116808217855250505050505090500191505060006040518083038185875af1925050503d806000811461267d576040519150601f19603f3d011682016040523d82523d6000602084013e612682565b606091505b50915091506126928282866126b1565b92505050949350505050565b600080823b905060008111915050919050565b606083156126c157829050612776565b6000835111156126d45782518084602001fd5b816040517f08c379a00000000000000000000000000000000000000000000000000000000081526004018080602001828103825283818151815260200191508051906020019080838360005b8381101561273b578082015181840152602081019050612720565b50505050905090810190601f1680156127685780820380516001836020036101000a031916815260200191505b509250505060405180910390fd5b9392505050565b600061279061278b84613a6f565b613a3e565b9050828152602081018484840111156127a857600080fd5b6127b3848285613bd8565b509392505050565b60006127ce6127c984613a6f565b613a3e565b9050828152602081018484840111156127e657600080fd5b6127f1848285613be7565b509392505050565b60008135905061280881613d04565b92915050565b60008151905061281d81613d1b565b92915050565b60008151905061283281613d32565b92915050565b60008135905061284781613d49565b92915050565b60008151905061285c81613d60565b92915050565b60008083601f84011261287457600080fd5b8235905067ffffffffffffffff81111561288d57600080fd5b6020830191508360018202830111156128a557600080fd5b9250929050565b600082601f8301126128bd57600080fd5b81356128cd84826020860161277d565b91505092915050565b600082601f8301126128e757600080fd5b81516128f78482602086016127bb565b91505092915050565b600060c0828403121561291257600080fd5b61291c6040613a3e565b9050600061292c84828501612964565b60008301525060a082013567ffffffffffffffff81111561294c57600080fd5b612958848285016128ac565b60208301525092915050565b600060a0828403121561297657600080fd5b61298060a0613a3e565b90506000612990848285016129ec565b60008301525060206129a4848285016129ec565b60208301525060406129b8848285016127f9565b60408301525060606129cc848285016127f9565b60608301525060806129e0848285016129ec565b60808301525092915050565b6000813590506129fb81613d77565b92915050565b600081519050612a1081613d77565b92915050565b600081359050612a2581613d8e565b92915050565b600060208284031215612a3d57600080fd5b6000612a4b848285016127f9565b91505092915050565b600080600060608486031215612a6957600080fd5b6000612a778682870161280e565b935050602084015167ffffffffffffffff811115612a9457600080fd5b612aa0868287016128d6565b925050604084015167ffffffffffffffff811115612abd57600080fd5b612ac9868287016128d6565b9150509250925092565b60008060008060008060a08789031215612aec57600080fd5b6000612afa89828a016127f9565b9650506020612b0b89828a016127f9565b9550506040612b1c89828a016129ec565b9450506060612b2d89828a016129ec565b935050608087013567ffffffffffffffff811115612b4a57600080fd5b612b5689828a01612862565b92509250509295509295509295565b600060208284031215612b7757600080fd5b6000612b8584828501612823565b91505092915050565b600060208284031215612ba057600080fd5b6000612bae84828501612838565b91505092915050565b60008060408385031215612bca57600080fd5b6000612bd885828601612838565b9250506020612be9858286016127f9565b9150509250929050565b60008060408385031215612c0657600080fd5b6000612c1485828601612838565b9250506020612c25858286016129ec565b9150509250929050565b600080600080600060808688031215612c4757600080fd5b6000612c5588828901612838565b9550506020612c66888289016129ec565b9450506040612c77888289016129ec565b935050606086013567ffffffffffffffff811115612c9457600080fd5b612ca088828901612862565b92509250509295509295909350565b60008060008060008060008060008060006101408c8e031215612cd157600080fd5b6000612cdf8e828f01612838565b9b50506020612cf08e828f01612a16565b9a50506040612d018e828f01612838565b9950506060612d128e828f01612838565b9850506080612d238e828f016129ec565b97505060a0612d348e828f01612838565b96505060c0612d458e828f016129ec565b95505060e0612d568e828f016129ec565b945050610100612d688e828f016129ec565b9350506101208c013567ffffffffffffffff811115612d8657600080fd5b612d928e828f01612862565b92509250509295989b509295989b9093969950565b600060208284031215612db957600080fd5b6000612dc78482850161284d565b91505092915050565b600060208284031215612de257600080fd5b600082013567ffffffffffffffff811115612dfc57600080fd5b612e0884828501612900565b91505092915050565b600060a08284031215612e2357600080fd5b6000612e3184828501612964565b91505092915050565b60008060c08385031215612e4d57600080fd5b6000612e5b85828601612964565b92505060a083013567ffffffffffffffff811115612e7857600080fd5b612e84858286016128ac565b9150509250929050565b600060208284031215612ea057600080fd5b6000612eae848285016129ec565b91505092915050565b600060208284031215612ec957600080fd5b6000612ed784828501612a01565b91505092915050565b612ee981613aed565b82525050565b612ef881613b11565b82525050565b612f0f612f0a82613b1d565b613c1a565b82525050565b612f1e81613b49565b82525050565b612f35612f3082613b49565b613c24565b82525050565b6000612f478385613ab5565b9350612f54838584613bd8565b612f5d83613c30565b840190509392505050565b6000612f7382613a9f565b612f7d8185613ab5565b9350612f8d818560208601613be7565b612f9681613c30565b840191505092915050565b6000612fac82613a9f565b612fb68185613ac6565b9350612fc6818560208601613be7565b80840191505092915050565b612fdb81613bc6565b82525050565b6000612fec82613aaa565b612ff68185613ad1565b9350613006818560208601613be7565b61300f81613c30565b840191505092915050565b6000613027602383613ad1565b91507f5369676e617475726520746f6f2073686f727420666f7220363439322073756660008301527f66697800000000000000000000000000000000000000000000000000000000006020830152604082019050919050565b600061308d600d83613ad1565b91507f556e6b6e6f776e206572726f72000000000000000000000000000000000000006000830152602082019050919050565b60006130cd600f83613ad1565b91507f496e76616c6964206665652062707300000000000000000000000000000000006000830152602082019050919050565b600061310d601183613ad1565b91507f53616c7420616c726561647920757365640000000000000000000000000000006000830152602082019050919050565b600061314d600f83613ad1565b91507f5472616e73666572206661696c656400000000000000000000000000000000006000830152602082019050919050565b600061318d601083613ad1565b91507f496e76616c69645369676e6174757265000000000000000000000000000000006000830152602082019050919050565b60006131cd601183613ad1565b91507f496e76616c696456506172616d657465720000000000000000000000000000006000830152602082019050919050565b600061320d600e83613ad1565b91507f496e76616c696420616d6f756e740000000000000000000000000000000000006000830152602082019050919050565b600061324d601383613ad1565b91507f5369676e617475726520746f6f2073686f7274000000000000000000000000006000830152602082019050919050565b600061328d600c83613ad1565b91507f46656520746f6f206869676800000000000000000000000000000000000000006000830152602082019050919050565b60006132cd601583613ae2565b91507f455243363439324465706c6f794661696c65643a2000000000000000000000006000830152601582019050919050565b600061330d601e83613ad1565b91507f46656520657865637574656420657863656564732067726f73732066656500006000830152602082019050919050565b600061334d601083613ad1565b91507f496e76616c6964206d65726368616e74000000000000000000000000000000006000830152602082019050919050565b600061338d601d83613ad1565b91507f4f6e6c792063616c6c61626c6520627920686f6f6b20777261707065720000006000830152602082019050919050565b60006133cd601583613ad1565b91507f4f6e6c79207265636f766572206f722061646d696e00000000000000000000006000830152602082019050919050565b600061340d601583613ad1565b91507f4f6e6c792063616c6c61626c652062792073656c6600000000000000000000006000830152602082019050919050565b600061344d601283613ad1565b91507f4e6f20616d6f756e7420726563656976656400000000000000000000000000006000830152602082019050919050565b61348981613b9f565b82525050565b61349881613bb9565b82525050565b60006134aa8286612efe565b6002820191506134ba8285612f24565b6020820191506134ca8284612f24565b602082019150819050949350505050565b60006134e78284612fa1565b915081905092915050565b60006134fd826132c0565b91506135098284612fa1565b915081905092915050565b60006020820190506135296000830184612ee0565b92915050565b60006040820190506135446000830185612ee0565b6135516020830184613480565b9392505050565b600060208201905061356d6000830184612eef565b92915050565b60006020820190506135886000830184612f15565b92915050565b600060a0820190506135a36000830188612f15565b6135b06020830187612f15565b6135bd6040830186612f15565b6135ca6060830185613480565b6135d76080830184612ee0565b9695505050505050565b60006040820190506135f66000830185612f15565b81810360208301526136088184612f68565b90509392505050565b600060c0820190506136266000830189612f15565b6136336020830188613480565b6136406040830187613480565b61364d6060830186612ee0565b61365a6080830185612ee0565b61366760a0830184613480565b979650505050505050565b60006080820190506136876000830188612f15565b6136946020830187613480565b6136a16040830186613480565b81810360608301526136b4818486612f3b565b90509695505050505050565b60006080820190506136d56000830187612f15565b6136e2602083018661348f565b6136ef6040830185612f15565b6136fc6060830184612f15565b95945050505050565b6000602082019050818103600083015261371f8184612fe1565b905092915050565b600060208201905081810360008301526137408161301a565b9050919050565b6000602082019050818103600083015261376081613080565b9050919050565b60006020820190508181036000830152613780816130c0565b9050919050565b600060208201905081810360008301526137a081613100565b9050919050565b600060208201905081810360008301526137c081613140565b9050919050565b600060208201905081810360008301526137e081613180565b9050919050565b60006020820190508181036000830152613800816131c0565b9050919050565b6000602082019050818103600083015261382081613200565b9050919050565b6000602082019050818103600083015261384081613240565b9050919050565b6000602082019050818103600083015261386081613280565b9050919050565b6000602082019050818103600083015261388081613300565b9050919050565b600060208201905081810360008301526138a081613340565b9050919050565b600060208201905081810360008301526138c081613380565b9050919050565b600060208201905081810360008301526138e0816133c0565b9050919050565b6000602082019050818103600083015261390081613400565b9050919050565b6000602082019050818103600083015261392081613440565b9050919050565b600060208201905061393c6000830184613480565b92915050565b600061010082019050613958600083018b613480565b613965602083018a612fd2565b6139726040830189613480565b61397f6060830188613480565b61398c6080830187613480565b61399960a0830186613480565b6139a660c0830185612ee0565b6139b360e0830184613480565b9998505050505050505050565b6000610100820190506139d6600083018b613480565b6139e3602083018a613480565b6139f06040830189613480565b6139fd6060830188613480565b613a0a6080830187613480565b613a1760a0830186613480565b613a2460c0830185612ee0565b613a3160e0830184613480565b9998505050505050505050565b6000604051905081810181811067ffffffffffffffff82111715613a6557613a64613c2e565b5b8060405250919050565b600067ffffffffffffffff821115613a8a57613a89613c2e565b5b601f19601f8301169050602081019050919050565b600081519050919050565b600081519050919050565b600082825260208201905092915050565b600081905092915050565b600082825260208201905092915050565b600081905092915050565b6000613af882613b7f565b9050919050565b6000613b0a82613b7f565b9050919050565b60008115159050919050565b60007fffff00000000000000000000000000000000000000000000000000000000000082169050919050565b6000819050919050565b60007fffffffff0000000000000000000000000000000000000000000000000000000082169050919050565b600073ffffffffffffffffffffffffffffffffffffffff82169050919050565b6000819050919050565b600063ffffffff82169050919050565b600060ff82169050919050565b6000613bd182613b9f565b9050919050565b82818337600083830152505050565b60005b83811015613c05578082015181840152602081019050613bea565b83811115613c14576000848401525b50505050565b6000819050919050565b6000819050919050565bfe5b6000601f19601f8301169050919050565b60008160e01c9050919050565b600060443d1015613c5e57613d01565b60046000803e613c6f600051613c41565b6308c379a08114613c805750613d01565b60405160043d036004823e80513d602482011167ffffffffffffffff82111715613cac57505050613d01565b808201805167ffffffffffffffff811115613ccb575050505050613d01565b8060208301013d8501811115613ce657505050505050613d01565b613cef82613c30565b60208401016040528296505050505050505b90565b613d0d81613aed565b8114613d1857600080fd5b50565b613d2481613aff565b8114613d2f57600080fd5b50565b613d3b81613b11565b8114613d4657600080fd5b50565b613d5281613b49565b8114613d5d57600080fd5b50565b613d6981613b53565b8114613d7457600080fd5b50565b613d8081613b9f565b8114613d8b57600080fd5b50565b613d9781613ba9565b8114613da257600080fd5b5056fe456e756d657261626c655365743a20696e646578206f7574206f6620626f756e6473416363657373436f6e74726f6c3a2073656e646572206d75737420626520616e2061646d696e20746f206772616e74416464726573733a20696e73756666696369656e742062616c616e636520666f722063616c6c416363657373436f6e74726f6c3a2073656e646572206d75737420626520616e2061646d696e20746f207265766f6b65536166654d6174683a206d756c7469706c69636174696f6e206f766572666c6f775361666545524332303a204552433230206f7065726174696f6e20646964206e6f742073756363656564416363657373436f6e74726f6c3a2063616e206f6e6c792072656e6f756e636520726f6c657320666f722073656c66a2646970667358221220980b4301ed09c75eb30ef09829b71c8da295a8c7c6989fb1c1629e1e2341d63664736f6c63430007060033",
  "linkReferences": {},
  "deployedLinkReferences": {}
}