{
  "_format": "hh-sol-artifact-1",
  "contractName": "PaymentIntentHandlerV4",
  "sourceName": "contracts/v4/PaymentIntentHandlerV4.sol",
  "abi": [
    {
      "inputs": [
        {
          "internalType": "address",
          "name": "_usdc",
          "type": "address"
        },
        {
          "internalType": "address",
          "name": "_hookWrapper",
          "type": "address"
        }
      ],
      "stateMutability": "nonpayable",
      "type": "constructor"
    },
    {
      "anonymous": false,
      "inputs": [
        {
          "indexed": false,
          "internalType": "uint256",
          "name": "amount",
          "type": "uint256"
        },
        {
          "indexed": false,
          "internalType": "uint32",
          "name": "destinationDomain",
          "type": "uint32"
        },
        {
          "indexed": false,
          "internalType": "bytes32",
          "name": "mintRecipient",
          "type": "bytes32"
        },
        {
          "indexed": false,
          "internalType": "address",
          "name": "burnToken",
          "type": "address"
        },
        {
          "indexed": false,
          "internalType": "bytes32",
          "name": "destinationCaller",
          "type": "bytes32"
        },
        {
          "indexed": false,
          "internalType": "uint256",
          "name": "maxFee",
          "type": "uint256"
        },
        {
          "indexed": false,
          "internalType": "uint32",
          "name": "minFinalityThreshold",
          "type": "uint32"
        },
        {
          "indexed": false,
          "internalType": "bytes",
          "name": "hookData",
          "type": "bytes"
        }
      ],
      "name": "BurnHookExecuted",
      "type": "event"
    },
    {
      "anonymous": false,
      "inputs": [
        {
          "indexed": false,
          "internalType": "address",
          "name": "to",
          "type": "address"
        },
        {
          "indexed": false,
          "internalType": "uint256",
          "name": "amount",
          "type": "uint256"
        }
      ],
      "name": "EmergencyRecovery",
      "type": "event"
    },
    {
      "anonymous": false,
      "inputs": [
        {
          "indexed": true,
          "internalType": "bytes32",
          "name": "nonce",
          "type": "bytes32"
        },
        {
          "indexed": true,
          "internalType": "bytes32",
          "name": "orderId",
          "type": "bytes32"
        },
        {
          "indexed": false,
          "internalType": "string",
          "name": "reason",
          "type": "string"
        }
      ],
      "name": "PaymentIntentFailed",
      "type": "event"
    },
    {
      "anonymous": false,
      "inputs": [
        {
          "indexed": true,
          "internalType": "uint256",
          "name": "salt",
          "type": "uint256"
        },
        {
          "indexed": false,
          "internalType": "uint256",
          "name": "nonce",
          "type": "uint256"
        }
      ],
      "name": "PaymentIntentNonceUpdated",
      "type": "event"
    },
    {
      "anonymous": false,
      "inputs": [
        {
          "indexed": true,
          "internalType": "bytes32",
          "name": "consumptionNonce",
          "type": "bytes32"
        },
        {
          "indexed": true,
          "internalType": "bytes32",
          "name": "orderId",
          "type": "bytes32"
        },
        {
          "components": [
            {
              "internalType": "uint256",
              "name": "amount",
              "type": "uint256"
            },
            {
              "internalType": "uint256",
              "name": "feeBps",
              "type": "uint256"
            },
            {
              "internalType": "address",
              "name": "feeRecipient",
              "type": "address"
            },
            {
              "internalType": "address",
              "name": "merchant",
              "type": "address"
            },
            {
              "internalType": "uint256",
              "name": "salt",
              "type": "uint256"
            },
            {
              "internalType": "enum QuantityType",
              "name": "quantityType",
              "type": "uint8"
            },
            {
              "internalType": "uint256",
              "name": "quantity",
              "type": "uint256"
            },
            {
              "internalType": "enum SignerType",
              "name": "signerType",
              "type": "uint8"
            },
            {
              "internalType": "address",
              "name": "signer",
              "type": "address"
            },
            {
              "internalType": "uint256",
              "name": "nonce",
              "type": "uint256"
            }
          ],
          "indexed": false,
          "internalType": "struct PaymentIntent",
          "name": "intent",
          "type": "tuple"
        },
        {
          "indexed": false,
          "internalType": "uint256",
          "name": "feeExecuted",
          "type": "uint256"
        },
        {
          "indexed": false,
          "internalType": "uint256",
          "name": "netMinted",
          "type": "uint256"
        },
        {
          "indexed": false,
          "internalType": "uint256",
          "name": "netPayable",
          "type": "uint256"
        },
        {
          "indexed": false,
          "internalType": "uint256",
          "name": "netFee",
          "type": "uint256"
        },
        {
          "indexed": false,
          "internalType": "uint256",
          "name": "quantityUsed",
          "type": "uint256"
        }
      ],
      "name": "PaymentIntentSuccess",
      "type": "event"
    },
    {
      "anonymous": false,
      "inputs": [
        {
          "indexed": true,
          "internalType": "bytes32",
          "name": "role",
          "type": "bytes32"
        },
        {
          "indexed": true,
          "internalType": "bytes32",
          "name": "previousAdminRole",
          "type": "bytes32"
        },
        {
          "indexed": true,
          "internalType": "bytes32",
          "name": "newAdminRole",
          "type": "bytes32"
        }
      ],
      "name": "RoleAdminChanged",
      "type": "event"
    },
    {
      "anonymous": false,
      "inputs": [
        {
          "indexed": true,
          "internalType": "bytes32",
          "name": "role",
          "type": "bytes32"
        },
        {
          "indexed": true,
          "internalType": "address",
          "name": "account",
          "type": "address"
        },
        {
          "indexed": true,
          "internalType": "address",
          "name": "sender",
          "type": "address"
        }
      ],
      "name": "RoleGranted",
      "type": "event"
    },
    {
      "anonymous": false,
      "inputs": [
        {
          "indexed": true,
          "internalType": "bytes32",
          "name": "role",
          "type": "bytes32"
        },
        {
          "indexed": true,
          "internalType": "address",
          "name": "account",
          "type": "address"
        },
        {
          "indexed": true,
          "internalType": "address",
          "name": "sender",
          "type": "address"
        }
      ],
      "name": "RoleRevoked",
      "type": "event"
    },
    {
      "inputs": [],
      "name": "DEFAULT_ADMIN_ROLE",
      "outputs": [
        {
          "internalType": "bytes32",
          "name": "",
          "type": "bytes32"
        }
      ],
      "stateMutability": "view",
      "type": "function"
    },
    {
      "inputs": [],
      "name": "OPERATOR_ROLE",
      "outputs": [
        {
          "internalType": "bytes32",
          "name": "",
          "type": "bytes32"
        }
      ],
      "stateMutability": "view",
      "type": "function"
    },
    {
      "inputs": [],
      "name": "RECOVER_ROLE",
      "outputs": [
        {
          "internalType": "bytes32",
          "name": "",
          "type": "bytes32"
        }
      ],
      "stateMutability": "view",
      "type": "function"
    },
    {
      "inputs": [
        {
          "internalType": "bytes32",
          "name": "_nonce",
          "type": "bytes32"
        },
        {
          "internalType": "uint256",
          "name": "_amount",
          "type": "uint256"
        },
        {
          "internalType": "uint256",
          "name": "_feeExecuted",
          "type": "uint256"
        },
        {
          "internalType": "bytes",
          "name": "_structData",
          "type": "bytes"
        }
      ],
      "name": "_executeHook",
      "outputs": [
        {
          "internalType": "bool",
          "name": "",
          "type": "bool"
        }
      ],
      "stateMutability": "nonpayable",
      "type": "function"
    },
    {
      "inputs": [
        {
          "internalType": "address",
          "name": "",
          "type": "address"
        },
        {
          "internalType": "uint256",
          "name": "",
          "type": "uint256"
        }
      ],
      "name": "deactivated",
      "outputs": [
        {
          "internalType": "bool",
          "name": "",
          "type": "bool"
        }
      ],
      "stateMutability": "view",
      "type": "function"
    },
    {
      "inputs": [
        {
          "internalType": "address",
          "name": "to",
          "type": "address"
        }
      ],
      "name": "emergencyRecover",
      "outputs": [],
      "stateMutability": "nonpayable",
      "type": "function"
    },
    {
      "inputs": [
        {
          "internalType": "bytes32",
          "name": "_nonce",
          "type": "bytes32"
        },
        {
          "internalType": "address",
          "name": "_to",
          "type": "address"
        }
      ],
      "name": "emergencyRecoverNonceMint",
      "outputs": [],
      "stateMutability": "nonpayable",
      "type": "function"
    },
    {
      "inputs": [
        {
          "internalType": "bytes32",
          "name": "_nonce",
          "type": "bytes32"
        },
        {
          "internalType": "uint32",
          "name": "",
          "type": "uint32"
        },
        {
          "internalType": "bytes32",
          "name": "",
          "type": "bytes32"
        },
        {
          "internalType": "bytes32",
          "name": "",
          "type": "bytes32"
        },
        {
          "internalType": "uint256",
          "name": "_amount",
          "type": "uint256"
        },
        {
          "internalType": "bytes32",
          "name": "",
          "type": "bytes32"
        },
        {
          "internalType": "uint256",
          "name": "",
          "type": "uint256"
        },
        {
          "internalType": "uint256",
          "name": "_feeExecuted",
          "type": "uint256"
        },
        {
          "internalType": "uint256",
          "name": "",
          "type": "uint256"
        },
        {
          "internalType": "bytes",
          "name": "_structData",
          "type": "bytes"
        }
      ],
      "name": "executePaymentHook",
      "outputs": [
        {
          "internalType": "bool",
          "name": "",
          "type": "bool"
        }
      ],
      "stateMutability": "nonpayable",
      "type": "function"
    },
    {
      "inputs": [
        {
          "internalType": "address",
          "name": "",
          "type": "address"
        },
        {
          "internalType": "address",
          "name": "",
          "type": "address"
        },
        {
          "internalType": "uint256",
          "name": "",
          "type": "uint256"
        },
        {
          "internalType": "uint256",
          "name": "",
          "type": "uint256"
        },
        {
          "internalType": "bytes",
          "name": "_structData",
          "type": "bytes"
        }
      ],
      "name": "executeSwapHook",
      "outputs": [
        {
          "internalType": "bool",
          "name": "",
          "type": "bool"
        }
      ],
      "stateMutability": "nonpayable",
      "type": "function"
    },
    {
      "inputs": [
        {
          "internalType": "bytes32",
          "name": "role",
          "type": "bytes32"
        }
      ],
      "name": "getRoleAdmin",
      "outputs": [
        {
          "internalType": "bytes32",
          "name": "",
          "type": "bytes32"
        }
      ],
      "stateMutability": "view",
      "type": "function"
    },
    {
      "inputs": [
        {
          "internalType": "bytes32",
          "name": "role",
          "type": "bytes32"
        },
        {
          "internalType": "uint256",
          "name": "index",
          "type": "uint256"
        }
      ],
      "name": "getRoleMember",
      "outputs": [
        {
          "internalType": "address",
          "name": "",
          "type": "address"
        }
      ],
      "stateMutability": "view",
      "type": "function"
    },
    {
      "inputs": [
        {
          "internalType": "bytes32",
          "name": "role",
          "type": "bytes32"
        }
      ],
      "name": "getRoleMemberCount",
      "outputs": [
        {
          "internalType": "uint256",
          "name": "",
          "type": "uint256"
        }
      ],
      "stateMutability": "view",
      "type": "function"
    },
    {
      "inputs": [
        {
          "internalType": "bytes32",
          "name": "role",
          "type": "bytes32"
        },
        {
          "internalType": "address",
          "name": "account",
          "type": "address"
        }
      ],
      "name": "grantRole",
      "outputs": [],
      "stateMutability": "nonpayable",
      "type": "function"
    },
    {
      "inputs": [
        {
          "internalType": "bytes32",
          "name": "role",
          "type": "bytes32"
        },
        {
          "internalType": "address",
          "name": "account",
          "type": "address"
        }
      ],
      "name": "hasRole",
      "outputs": [
        {
          "internalType": "bool",
          "name": "",
          "type": "bool"
        }
      ],
      "stateMutability": "view",
      "type": "function"
    },
    {
      "inputs": [
        {
          "components": [
            {
              "internalType": "uint256",
              "name": "amount",
              "type": "uint256"
            },
            {
              "internalType": "uint256",
              "name": "feeBps",
              "type": "uint256"
            },
            {
              "internalType": "address",
              "name": "feeRecipient",
              "type": "address"
            },
            {
              "internalType": "address",
              "name": "merchant",
              "type": "address"
            },
            {
              "internalType": "uint256",
              "name": "salt",
              "type": "uint256"
            },
            {
              "internalType": "enum QuantityType",
              "name": "quantityType",
              "type": "uint8"
            },
            {
              "internalType": "uint256",
              "name": "quantity",
              "type": "uint256"
            },
            {
              "internalType": "enum SignerType",
              "name": "signerType",
              "type": "uint8"
            },
            {
              "internalType": "address",
              "name": "signer",
              "type": "address"
            },
            {
              "internalType": "uint256",
              "name": "nonce",
              "type": "uint256"
            }
          ],
          "internalType": "struct PaymentIntent",
          "name": "intent",
          "type": "tuple"
        }
      ],
      "name": "hashPaymentIntent",
      "outputs": [
        {
          "internalType": "bytes32",
          "name": "",
          "type": "bytes32"
        }
      ],
      "stateMutability": "view",
      "type": "function"
    },
    {
      "inputs": [],
      "name": "hookWrapper",
      "outputs": [
        {
          "internalType": "address",
          "name": "",
          "type": "address"
        }
      ],
      "stateMutability": "view",
      "type": "function"
    },
    {
      "inputs": [
        {
          "internalType": "uint256",
          "name": "",
          "type": "uint256"
        }
      ],
      "name": "intentNonces",
      "outputs": [
        {
          "internalType": "uint256",
          "name": "",
          "type": "uint256"
        }
      ],
      "stateMutability": "view",
      "type": "function"
    },
    {
      "inputs": [
        {
          "components": [
            {
              "internalType": "uint256",
              "name": "amount",
              "type": "uint256"
            },
            {
              "internalType": "uint256",
              "name": "feeBps",
              "type": "uint256"
            },
            {
              "internalType": "address",
              "name": "feeRecipient",
              "type": "address"
            },
            {
              "internalType": "address",
              "name": "merchant",
              "type": "address"
            },
            {
              "internalType": "uint256",
              "name": "salt",
              "type": "uint256"
            },
            {
              "internalType": "enum QuantityType",
              "name": "quantityType",
              "type": "uint8"
            },
            {
              "internalType": "uint256",
              "name": "quantity",
              "type": "uint256"
            },
            {
              "internalType": "enum SignerType",
              "name": "signerType",
              "type": "uint8"
            },
            {
              "internalType": "address",
              "name": "signer",
              "type": "address"
            },
            {
              "internalType": "uint256",
              "name": "nonce",
              "type": "uint256"
            }
          ],
          "internalType": "struct PaymentIntent",
          "name": "_intent",
          "type": "tuple"
        },
        {
          "internalType": "bytes32",
          "name": "_orderId",
          "type": "bytes32"
        },
        {
          "internalType": "bytes",
          "name": "_signature",
          "type": "bytes"
        }
      ],
      "name": "localExecuteHook",
      "outputs": [
        {
          "internalType": "bool",
          "name": "",
          "type": "bool"
        }
      ],
      "stateMutability": "nonpayable",
      "type": "function"
    },
    {
      "inputs": [
        {
          "internalType": "bytes32",
          "name": "",
          "type": "bytes32"
        }
      ],
      "name": "orderIds",
      "outputs": [
        {
          "internalType": "bool",
          "name": "",
          "type": "bool"
        }
      ],
      "stateMutability": "view",
      "type": "function"
    },
    {
      "inputs": [
        {
          "internalType": "bytes32",
          "name": "",
          "type": "bytes32"
        }
      ],
      "name": "receivedMints",
      "outputs": [
        {
          "internalType": "uint256",
          "name": "",
          "type": "uint256"
        }
      ],
      "stateMutability": "view",
      "type": "function"
    },
    {
      "inputs": [
        {
          "internalType": "bytes32",
          "name": "role",
          "type": "bytes32"
        },
        {
          "internalType": "address",
          "name": "account",
          "type": "address"
        }
      ],
      "name": "renounceRole",
      "outputs": [],
      "stateMutability": "nonpayable",
      "type": "function"
    },
    {
      "inputs": [
        {
          "internalType": "bytes32",
          "name": "role",
          "type": "bytes32"
        },
        {
          "internalType": "address",
          "name": "account",
          "type": "address"
        }
      ],
      "name": "revokeRole",
      "outputs": [],
      "stateMutability": "nonpayable",
      "type": "function"
    },
    {
      "inputs": [
        {
          "internalType": "uint256",
          "name": "_salt",
          "type": "uint256"
        },
        {
          "internalType": "bool",
          "name": "_deactivate",
          "type": "bool"
        }
      ],
      "name": "toggleDeactivate",
      "outputs": [],
      "stateMutability": "nonpayable",
      "type": "function"
    },
    {
      "inputs": [
        {
          "internalType": "uint256",
          "name": "",
          "type": "uint256"
        }
      ],
      "name": "usages",
      "outputs": [
        {
          "internalType": "uint256",
          "name": "",
          "type": "uint256"
        }
      ],
      "stateMutability": "view",
      "type": "function"
    },
    {
      "inputs": [],
      "name": "usdc",
      "outputs": [
        {
          "internalType": "address",
          "name": "",
          "type": "address"
        }
      ],
      "stateMutability": "view",
      "type": "function"
    },
    {
      "inputs": [
        {
          "components": [
            {
              "internalType": "uint256",
              "name": "amount",
              "type": "uint256"
            },
            {
              "internalType": "uint256",
              "name": "feeBps",
              "type": "uint256"
            },
            {
              "internalType": "address",
              "name": "feeRecipient",
              "type": "address"
            },
            {
              "internalType": "address",
              "name": "merchant",
              "type": "address"
            },
            {
              "internalType": "uint256",
              "name": "salt",
              "type": "uint256"
            },
            {
              "internalType": "enum QuantityType",
              "name": "quantityType",
              "type": "uint8"
            },
            {
              "internalType": "uint256",
              "name": "quantity",
              "type": "uint256"
            },
            {
              "internalType": "enum SignerType",
              "name": "signerType",
              "type": "uint8"
            },
            {
              "internalType": "address",
              "name": "signer",
              "type": "address"
            },
            {
              "internalType": "uint256",
              "name": "nonce",
              "type": "uint256"
            }
          ],
          "internalType": "struct PaymentIntent",
          "name": "_intent",
          "type": "tuple"
        },
        {
          "internalType": "bytes",
          "name": "_signature",
          "type": "bytes"
        },
        {
          "internalType": "uint256",
          "name": "amount",
          "type": "uint256"
        }
      ],
      "name": "validateIntent",
      "outputs": [
        {
          "internalType": "bool",
          "name": "",
          "type": "bool"
        }
      ],
      "stateMutability": "nonpayable",
      "type": "function"
    }
  ],
  "bytecode": "0x60806040523480156200001157600080fd5b50604051620056e8380380620056e8833981810160405281019062000037919062000426565b620000476200021960201b60201c565b600080600160008491905055839190505550506001600281905550600073ffffffffffffffffffffffffffffffffffffffff168273ffffffffffffffffffffffffffffffffffffffff161415620000d5576040517f08c379a0000000000000000000000000000000000000000000000000000000008152600401620000cc9062000a6d565b60405180910390fd5b600073ffffffffffffffffffffffffffffffffffffffff168173ffffffffffffffffffffffffffffffffffffffff16141562000148576040517f08c379a00000000000000000000000000000000000000000000000000000000081526004016200013f9062000a4b565b60405180910390fd5b81600960006101000a81548173ffffffffffffffffffffffffffffffffffffffff021916908373ffffffffffffffffffffffffffffffffffffffff16021790555080600a60006101000a81548173ffffffffffffffffffffffffffffffffffffffff021916908373ffffffffffffffffffffffffffffffffffffffff160217905550620001df6000801b336200027860201b60201c565b620002117f62b337eaefec74dadf1a62e856bf9db4f14a0f27d4f48156a95a9f98e7d5e066336200027860201b60201c565b505062000af9565b6000806040516020016200022d90620009f3565b604051602081830303815290604052805190602001209150600060405160200162000258906200094d565b604051602081830303815290604052905080805190602001209150509091565b6200028a82826200028e60201b60201c565b5050565b620002bd81600360008581526020019081526020016000206000016200033260201b6200166f1790919060201c565b156200032e57620002d36200036a60201b60201c565b73ffffffffffffffffffffffffffffffffffffffff168173ffffffffffffffffffffffffffffffffffffffff16837f2f8788117e7eff1d82e926ec794901d17c78024a50270940304540a733656f0d60405160405180910390a45b5050565b600062000362836000018373ffffffffffffffffffffffffffffffffffffffff1660001b6200037260201b60201c565b905092915050565b600033905090565b6000620003868383620003ec60201b60201c565b620003e1578260000182908060018154018082558091505060019003906000526020600020016000909190919091505582600001805490508360010160008481526020019081526020016000208190555060019050620003e6565b600090505b92915050565b600080836001016000848152602001908152602001600020541415905092915050565b600081519050620004208162000adf565b92915050565b600080604083850312156200043a57600080fd5b60006200044a858286016200040f565b92505060206200045d858286016200040f565b9150509250929050565b600062000476600c8362000aa0565b91507f737472696e67206e616d652c00000000000000000000000000000000000000006000830152600c82019050919050565b6000620004b8600f8362000aa0565b91507f75696e7432353620616d6f756e742c00000000000000000000000000000000006000830152600f82019050919050565b6000620004fa60118362000aa0565b91507f75696e74323536207175616e746974792c0000000000000000000000000000006000830152601182019050919050565b60006200053c60198362000aa0565b91507f6164647265737320766572696679696e67436f6e7472616374000000000000006000830152601982019050919050565b60006200057e60108362000aa0565b91507f75696e7432353620636861696e49642c000000000000000000000000000000006000830152601082019050919050565b6000620005c0601c8362000a8f565b91507f496e76616c696420686f6f6b20777261707065722061646472657373000000006000830152602082019050919050565b60006200060260118362000aa0565b91507f61646472657373206d65726368616e742c0000000000000000000000000000006000830152601182019050919050565b600062000644600d8362000aa0565b91507f75696e74323536206e6f6e6365000000000000000000000000000000000000006000830152600d82019050919050565b60006200068660018362000aa0565b91507f29000000000000000000000000000000000000000000000000000000000000006000830152600182019050919050565b6000620006c8600f8362000aa0565b91507f737472696e672076657273696f6e2c00000000000000000000000000000000006000830152600f82019050919050565b60006200070a60148362000a8f565b91507f496e76616c6964205553444320616464726573730000000000000000000000006000830152602082019050919050565b60006200074c600d8362000aa0565b91507f75696e743235362073616c742c000000000000000000000000000000000000006000830152600d82019050919050565b60006200078e60138362000aa0565b91507f75696e7438207175616e74697479547970652c000000000000000000000000006000830152601382019050919050565b6000620007d0600f8362000aa0565b91507f75696e74323536206665654270732c00000000000000000000000000000000006000830152600f82019050919050565b600062000812600f8362000aa0565b91507f61646472657373207369676e65722c00000000000000000000000000000000006000830152600f82019050919050565b600062000854600e8362000aa0565b91507f5061796d656e74496e74656e74280000000000000000000000000000000000006000830152600e82019050919050565b600062000896600d8362000aa0565b91507f454950373132446f6d61696e28000000000000000000000000000000000000006000830152600d82019050919050565b6000620008d860158362000aa0565b91507f6164647265737320666565526563697069656e742c00000000000000000000006000830152601582019050919050565b60006200091a60118362000aa0565b91507f75696e7438207369676e6572547970652c0000000000000000000000000000006000830152601182019050919050565b60006200095a8262000845565b91506200096782620004a9565b91506200097482620007c1565b91506200098182620008c9565b91506200098e82620005f3565b91506200099b826200073d565b9150620009a8826200077f565b9150620009b582620004eb565b9150620009c2826200090b565b9150620009cf8262000803565b9150620009dc8262000635565b9150620009e98262000677565b9150819050919050565b600062000a008262000887565b915062000a0d8262000467565b915062000a1a82620006b9565b915062000a27826200056f565b915062000a34826200052d565b915062000a418262000677565b9150819050919050565b6000602082019050818103600083015262000a6681620005b1565b9050919050565b6000602082019050818103600083015262000a8881620006fb565b9050919050565b600082825260208201905092915050565b600081905092915050565b600062000ab88262000abf565b9050919050565b600073ffffffffffffffffffffffffffffffffffffffff82169050919050565b62000aea8162000aab565b811462000af657600080fd5b50565b614bdf8062000b096000396000f3fe608060405234801561001057600080fd5b506004361061018e5760003560e01c80637f202e24116100de578063b2b9d95011610097578063d547741f11610071578063d547741f1461051b578063f13886ec14610537578063f5b541a614610567578063f87f73bf146105855761018e565b8063b2b9d9501461048b578063c44b9b3e146104bb578063ca15c873146104eb5761018e565b80637f202e24146103a35780639010d07c146103d357806391d1485414610403578063939bcbc914610433578063a217fddf14610451578063aafafa9f1461046f5761018e565b80633c1cb25f1161014b5780635bb49b7e116101255780635bb49b7e146102e35780635d312af6146103135780636dd31f2e1461034357806372c64509146103735761018e565b80633c1cb25f1461028b5780633e413bee146102a75780635a316f7a146102c55761018e565b80630a262a92146101935780631e999dad146101c357806322a8f3f7146101f3578063248a9ca3146102235780632f2ff15d1461025357806336568abe1461026f575b600080fd5b6101ad60048036038101906101a8919061364d565b6105a1565b6040516101ba91906140cd565b60405180910390f35b6101dd60048036038101906101d891906132a9565b61063e565b6040516101ea91906140cd565b60405180910390f35b61020d6004803603810190610208919061333b565b6106fe565b60405161021a91906140cd565b60405180910390f35b61023d600480360381019061023891906133a0565b61072d565b60405161024a91906140e8565b60405180910390f35b61026d600480360381019061026891906133c9565b61074d565b005b610289600480360381019061028491906133c9565b6107d7565b005b6102a560048036038101906102a091906133c9565b610870565b005b6102af6109b3565b6040516102bc9190614089565b60405180910390f35b6102cd6109d9565b6040516102da9190614089565b60405180910390f35b6102fd60048036038101906102f891906136b7565b6109ff565b60405161030a91906140cd565b60405180910390f35b61032d60048036038101906103289190613721565b610c19565b60405161033a9190614674565b60405180910390f35b61035d600480360381019061035891906134c1565b610c31565b60405161036a91906140cd565b60405180910390f35b61038d60048036038101906103889190613441565b610eb9565b60405161039a91906140cd565b60405180910390f35b6103bd60048036038101906103b891906133a0565b61115f565b6040516103ca9190614674565b60405180910390f35b6103ed60048036038101906103e89190613405565b611177565b6040516103fa9190614089565b60405180910390f35b61041d600480360381019061041891906133c9565b6111a9565b60405161042a91906140cd565b60405180910390f35b61043b6111db565b60405161044891906140e8565b60405180910390f35b6104596111ff565b60405161046691906140e8565b60405180910390f35b61048960048036038101906104849190613201565b611206565b005b6104a560048036038101906104a09190613721565b6114e4565b6040516104b29190614674565b60405180910390f35b6104d560048036038101906104d09190613623565b6114fc565b6040516104e291906140e8565b60405180910390f35b610505600480360381019061050091906133a0565b61150e565b6040516105129190614674565b60405180910390f35b610535600480360381019061053091906133c9565b611535565b005b610551600480360381019061054c91906133a0565b6115bf565b60405161055e91906140cd565b60405180910390f35b61056f6115df565b60405161057c91906140e8565b60405180910390f35b61059f600480360381019061059a9190613773565b611603565b005b600060028054141561061b576040517f08c379a000000000000000000000000000000000000000000000000000000000815260040180806020018281038252601f8152602001807f5265656e7472616e637947756172643a207265656e7472616e742063616c6c0081525060200191505060405180910390fd5b6002808190555061062d84848461169f565b905060016002819055509392505050565b60006002805414156106b8576040517f08c379a000000000000000000000000000000000000000000000000000000000815260040180806020018281038252601f8152602001807f5265656e7472616e637947756172643a207265656e7472616e742063616c6c0081525060200191505060405180910390fd5b60028081905550600083838101906106d091906135e2565b90506106e981600001518260200151836040015161169f565b91505060016002819055509695505050505050565b60076020528160005260406000206020528060005260406000206000915091509054906101000a900460ff1681565b600060036000838152602001908152602001600020600201549050919050565b610774600360008481526020019081526020016000206002015461076f611994565b6111a9565b6107c9576040517f08c379a000000000000000000000000000000000000000000000000000000000815260040180806020018281038252602f815260200180614aab602f913960400191505060405180910390fd5b6107d3828261199c565b5050565b6107df611994565b73ffffffffffffffffffffffffffffffffffffffff168173ffffffffffffffffffffffffffffffffffffffff1614610862576040517f08c379a000000000000000000000000000000000000000000000000000000000815260040180806020018281038252602f815260200180614b7b602f913960400191505060405180910390fd5b61086c8282611a30565b5050565b61089a7f62b337eaefec74dadf1a62e856bf9db4f14a0f27d4f48156a95a9f98e7d5e066336111a9565b806108ae57506108ad6000801b336111a9565b5b6108ed576040517f08c379a00000000000000000000000000000000000000000000000000000000081526004016108e490614506565b60405180910390fd5b60006006600084815260200190815260200160002054905060008111610948576040517f08c379a000000000000000000000000000000000000000000000000000000000815260040161093f90614566565b60405180910390fd5b600060066000858152602001908152602001600020819055506109ae8282600960009054906101000a900473ffffffffffffffffffffffffffffffffffffffff1673ffffffffffffffffffffffffffffffffffffffff16611ac49092919063ffffffff16565b505050565b600960009054906101000a900473ffffffffffffffffffffffffffffffffffffffff1681565b600a60009054906101000a900473ffffffffffffffffffffffffffffffffffffffff1681565b600060076000856060015173ffffffffffffffffffffffffffffffffffffffff1673ffffffffffffffffffffffffffffffffffffffff16815260200190815260200160002060008560800151815260200190815260200160002060009054906101000a900460ff1615610aa7576040517f08c379a0000000000000000000000000000000000000000000000000000000008152600401610a9e906143e6565b60405180910390fd5b6000610ab285611b66565b90506000610abf86611bd6565b9050610acc828287611ce4565b60006005600088608001518152602001908152602001600020549050808761012001511480610aff575080876101200151115b610b3e576040517f08c379a0000000000000000000000000000000000000000000000000000000008152600401610b35906144a6565b60405180910390fd5b6000600460008960800151815260200190815260200160002054905060006001811115610b6757fe5b8860a001516001811115610b7757fe5b1415610bc4578760c001518110610bc3576040517f08c379a0000000000000000000000000000000000000000000000000000000008152600401610bba90614386565b60405180910390fd5b5b85886000015114610c0a576040517f08c379a0000000000000000000000000000000000000000000000000000000008152600401610c0190614446565b60405180910390fd5b60019450505050509392505050565b60056020528060005260406000206000915090505481565b6000600280541415610cab576040517f08c379a000000000000000000000000000000000000000000000000000000000815260040180806020018281038252601f8152602001807f5265656e7472616e637947756172643a207265656e7472616e742063616c6c0081525060200191505060405180910390fd5b60028081905550600a60009054906101000a900473ffffffffffffffffffffffffffffffffffffffff1673ffffffffffffffffffffffffffffffffffffffff163373ffffffffffffffffffffffffffffffffffffffff1614610d42576040517f08c379a0000000000000000000000000000000000000000000000000000000008152600401610d39906144e6565b60405180910390fd5b848803600660008e8152602001908152602001600020819055503073ffffffffffffffffffffffffffffffffffffffff166372c645098d8a8887876040518663ffffffff1660e01b8152600401610d9d959493929190614231565b602060405180830381600087803b158015610db757600080fd5b505af1925050508015610de857506040513d601f19601f82011682018060405250810190610de59190613377565b60015b610e9d57610df46148e9565b80610dff5750610e5a565b60008484810190610e1091906135e2565b905080602001518e7f1e48b242593882183bcaf82b7706a578134c39750bd1761bfa5be9f83ae48a4284604051610e4791906142c4565b60405180910390a3600092505050610ea2565b6000801b8c7f1e48b242593882183bcaf82b7706a578134c39750bd1761bfa5be9f83ae48a42604051610e8c90614306565b60405180910390a360009050610ea2565b809150505b60016002819055509b9a5050505050505050505050565b60003073ffffffffffffffffffffffffffffffffffffffff163373ffffffffffffffffffffffffffffffffffffffff1614610f29576040517f08c379a0000000000000000000000000000000000000000000000000000000008152600401610f2090614546565b60405180910390fd5b60008383810190610f3a91906135e2565b9050610f53816000015182602001518360400151611fbd565b8581600001516000015114610f9d576040517f08c379a0000000000000000000000000000000000000000000000000000000008152600401610f94906143c6565b60405180910390fd5b600085870390506000610fdd612710610fcf8560000151602001518660000151600001516122ac90919063ffffffff16565b61233290919063ffffffff16565b905086811015611022576040517f08c379a000000000000000000000000000000000000000000000000000000000815260040161101990614466565b60405180910390fd5b60008184600001516000015103905061108684600001516060015182600960009054906101000a900473ffffffffffffffffffffffffffffffffffffffff1673ffffffffffffffffffffffffffffffffffffffff16611ac49092919063ffffffff16565b808311156110e6576110e5846000015160400151828503600960009054906101000a900473ffffffffffffffffffffffffffffffffffffffff1673ffffffffffffffffffffffffffffffffffffffff16611ac49092919063ffffffff16565b5b83602001518a7f88dd4c94bc4d44dee25462a210af7cf41f078bddf13a7db5947807592c17eb9386600001518b8786878a03600460008d60000151608001518152602001908152602001600020546040516111469695949392919061460d565b60405180910390a3600194505050505095945050505050565b60066020528060005260406000206000915090505481565b60006111a182600360008681526020019081526020016000206000016123bb90919063ffffffff16565b905092915050565b60006111d382600360008681526020019081526020016000206000016123d590919063ffffffff16565b905092915050565b7f62b337eaefec74dadf1a62e856bf9db4f14a0f27d4f48156a95a9f98e7d5e06681565b6000801b81565b6112307f62b337eaefec74dadf1a62e856bf9db4f14a0f27d4f48156a95a9f98e7d5e066336111a9565b8061124457506112436000801b336111a9565b5b611283576040517f08c379a000000000000000000000000000000000000000000000000000000000815260040161127a90614506565b60405180910390fd5b6002805414156112fb576040517f08c379a000000000000000000000000000000000000000000000000000000000815260040180806020018281038252601f8152602001807f5265656e7472616e637947756172643a207265656e7472616e742063616c6c0081525060200191505060405180910390fd5b600280819055506000600960009054906101000a900473ffffffffffffffffffffffffffffffffffffffff1673ffffffffffffffffffffffffffffffffffffffff166370a08231306040518263ffffffff1660e01b815260040161135f9190614089565b60206040518083038186803b15801561137757600080fd5b505afa15801561138b573d6000803e3d6000fd5b505050506040513d601f19601f820116820180604052508101906113af919061374a565b9050600960009054906101000a900473ffffffffffffffffffffffffffffffffffffffff1673ffffffffffffffffffffffffffffffffffffffff1663a9059cbb83836040518363ffffffff1660e01b815260040161140e9291906140a4565b602060405180830381600087803b15801561142857600080fd5b505af115801561143c573d6000803e3d6000fd5b505050506040513d601f19601f820116820180604052508101906114609190613377565b61149f576040517f08c379a000000000000000000000000000000000000000000000000000000000815260040161149690614346565b60405180910390fd5b7fa9364fb2836862098c2b593d2d3f46759b4c6d5b054300f96172b0394430008a82826040516114d09291906140a4565b60405180910390a150600160028190555050565b60046020528060005260406000206000915090505481565b600061150782611b66565b9050919050565b600061152e60036000848152602001908152602001600020600001612405565b9050919050565b61155c6003600084815260200190815260200160002060020154611557611994565b6111a9565b6115b1576040517f08c379a0000000000000000000000000000000000000000000000000000000008152600401808060200182810382526030815260200180614b006030913960400191505060405180910390fd5b6115bb8282611a30565b5050565b60086020528060005260406000206000915054906101000a900460ff1681565b7f97667070c54ef182b0f5858b034beac1b6f3089aa2d3188bb1e8929f4fa9b92981565b80600760003373ffffffffffffffffffffffffffffffffffffffff1673ffffffffffffffffffffffffffffffffffffffff168152602001908152602001600020600084815260200190815260200160002060006101000a81548160ff0219169083151502179055505050565b6000611697836000018373ffffffffffffffffffffffffffffffffffffffff1660001b61241a565b905092915050565b60006116ac848484611fbd565b60008460000151116116f3576040517f08c379a00000000000000000000000000000000000000000000000000000000081526004016116ea906143c6565b60405180910390fd5b6127108460200151111561173c576040517f08c379a000000000000000000000000000000000000000000000000000000000815260040161173390614326565b60405180910390fd5b600073ffffffffffffffffffffffffffffffffffffffff16846060015173ffffffffffffffffffffffffffffffffffffffff1614156117b0576040517f08c379a00000000000000000000000000000000000000000000000000000000081526004016117a7906144c6565b60405180910390fd5b60006117e16127106117d3876020015188600001516122ac90919063ffffffff16565b61233290919063ffffffff16565b905084600001518110611829576040517f08c379a000000000000000000000000000000000000000000000000000000000815260040161182090614426565b60405180910390fd5b61188233866060015183886000015103600960009054906101000a900473ffffffffffffffffffffffffffffffffffffffff1673ffffffffffffffffffffffffffffffffffffffff1661248a909392919063ffffffff16565b6000811180156118c35750600073ffffffffffffffffffffffffffffffffffffffff16856040015173ffffffffffffffffffffffffffffffffffffffff1614155b1561191c5761191b33866040015183600960009054906101000a900473ffffffffffffffffffffffffffffffffffffffff1673ffffffffffffffffffffffffffffffffffffffff1661248a909392919063ffffffff16565b5b83856080015160001b7f88dd4c94bc4d44dee25462a210af7cf41f078bddf13a7db5947807592c17eb938760008960000151868b600001510387600460008e60800151815260200190815260200160002054604051611980969594939291906145a6565b60405180910390a360019150509392505050565b600033905090565b6119c4816003600085815260200190815260200160002060000161166f90919063ffffffff16565b15611a2c576119d1611994565b73ffffffffffffffffffffffffffffffffffffffff168173ffffffffffffffffffffffffffffffffffffffff16837f2f8788117e7eff1d82e926ec794901d17c78024a50270940304540a733656f0d60405160405180910390a45b5050565b611a58816003600085815260200190815260200160002060000161254b90919063ffffffff16565b15611ac057611a65611994565b73ffffffffffffffffffffffffffffffffffffffff168173ffffffffffffffffffffffffffffffffffffffff16837ff6391f5c32d9c69d2a47ea670b442974b53935d1edc7fd64eb21e047a839171b60405160405180910390a45b5050565b611b618363a9059cbb60e01b8484604051602401808373ffffffffffffffffffffffffffffffffffffffff16815260200182815260200192505050604051602081830303815290604052907bffffffffffffffffffffffffffffffffffffffffffffffffffffffff19166020820180517bffffffffffffffffffffffffffffffffffffffffffffffffffffffff838183161783525050505061257b565b505050565b6000600154826000015183602001518460400151856060015186608001518760a001518860c001518960e001518a61010001518b6101200151604051602001611bb99b9a99989796959493929190614186565b604051602081830303815290604052805190602001209050919050565b6000806001811115611be457fe5b8260e001516001811115611bf457fe5b1415611c065781606001519050611cdf565b600180811115611c1257fe5b8260e001516001811115611c2257fe5b1415611ca357611c577f97667070c54ef182b0f5858b034beac1b6f3089aa2d3188bb1e8929f4fa9b9298361010001516111a9565b611c96576040517f08c379a0000000000000000000000000000000000000000000000000000000008152600401611c8d90614526565b60405180910390fd5b8161010001519050611cde565b6040517f08c379a0000000000000000000000000000000000000000000000000000000008152600401611cd590614486565b60405180910390fd5b5b919050565b600080600060606000611cf68861266a565b905060007f649264926492649264926492649264926492649264926492649264926492649260001b611d278861272c565b1490508015611e5457600060606000611d3f8a612785565b905080806020019051810190611d55919061322a565b8098508194508295505050506000611d6c8c612898565b5190506000811415611e4b576000808573ffffffffffffffffffffffffffffffffffffffff1685604051611da09190614050565b6000604051808303816000865af19150503d8060008114611ddd576040519150601f19603f3d011682016040523d82523d6000602084013e611de2565b606091505b509150915081611e485780604051602001611dfd9190614067565b6040516020818303038152906040526040517f08c379a0000000000000000000000000000000000000000000000000000000008152600401611e3f91906142c4565b60405180910390fd5b50505b50505050611e58565b8692505b6000611e6389612898565b511115611f8c5760008873ffffffffffffffffffffffffffffffffffffffff16631626ba7e84866040518363ffffffff1660e01b8152600401611ea7929190614156565b60206040518083038186803b158015611ebf57600080fd5b505afa158015611ed3573d6000803e3d6000fd5b505050506040513d601f19601f82011682018060405250810190611ef791906135b9565b9050631626ba7e60e01b7bffffffffffffffffffffffffffffffffffffffffffffffffffffffff1916817bffffffffffffffffffffffffffffffffffffffffffffffffffffffff191614611f80576040517f08c379a0000000000000000000000000000000000000000000000000000000008152600401611f7790614366565b60405180910390fd5b50505050505050611fb8565b6020870151955060408701519450606087015160001a9350611fb188838689896128bc565b5050505050505b505050565b60076000846060015173ffffffffffffffffffffffffffffffffffffffff1673ffffffffffffffffffffffffffffffffffffffff16815260200190815260200160002060008460800151815260200190815260200160002060009054906101000a900460ff1615612063576040517f08c379a000000000000000000000000000000000000000000000000000000000815260040161205a906143e6565b60405180910390fd5b6008600083815260200190815260200160002060009054906101000a900460ff16156120c4576040517f08c379a00000000000000000000000000000000000000000000000000000000081526004016120bb90614586565b60405180910390fd5b60016008600084815260200190815260200160002060006101000a81548160ff021916908315150217905550600560008460800151815260200190815260200160002054836101200151111561217b5782610120015160056000856080015181526020019081526020016000208190555082608001517f619d9a2b252d58f1ddd737ee3190a3ae4697c1493db50a135d109f04c674f34f84610120015160405161216e9190614674565b60405180910390a26121da565b600560008460800151815260200190815260200160002054836101200151146121d9576040517f08c379a00000000000000000000000000000000000000000000000000000000081526004016121d0906144a6565b60405180910390fd5b5b600060046000856080015181526020019081526020016000205490506000600181111561220357fe5b8460a00151600181111561221357fe5b1415612260578360c00151811061225f576040517f08c379a000000000000000000000000000000000000000000000000000000000815260040161225690614386565b60405180910390fd5b5b60018101600460008660800151815260200190815260200160002081905550600061228a85611b66565b9050600061229786611bd6565b90506122a4828286611ce4565b505050505050565b6000808314156122bf576000905061232c565b60008284029050828482816122d057fe5b0414612327576040517f08c379a0000000000000000000000000000000000000000000000000000000008152600401808060200182810382526021815260200180614b306021913960400191505060405180910390fd5b809150505b92915050565b60008082116123a9576040517f08c379a000000000000000000000000000000000000000000000000000000000815260040180806020018281038252601a8152602001807f536166654d6174683a206469766973696f6e206279207a65726f00000000000081525060200191505060405180910390fd5b8183816123b257fe5b04905092915050565b60006123ca8360000183612a16565b60001c905092915050565b60006123fd836000018373ffffffffffffffffffffffffffffffffffffffff1660001b612a99565b905092915050565b600061241382600001612abc565b9050919050565b60006124268383612a99565b61247f578260000182908060018154018082558091505060019003906000526020600020016000909190919091505582600001805490508360010160008481526020019081526020016000208190555060019050612484565b600090505b92915050565b612545846323b872dd60e01b858585604051602401808473ffffffffffffffffffffffffffffffffffffffff1681526020018373ffffffffffffffffffffffffffffffffffffffff1681526020018281526020019350505050604051602081830303815290604052907bffffffffffffffffffffffffffffffffffffffffffffffffffffffff19166020820180517bffffffffffffffffffffffffffffffffffffffffffffffffffffffff838183161783525050505061257b565b50505050565b6000612573836000018373ffffffffffffffffffffffffffffffffffffffff1660001b612acd565b905092915050565b60006125dd826040518060400160405280602081526020017f5361666545524332303a206c6f772d6c6576656c2063616c6c206661696c65648152508573ffffffffffffffffffffffffffffffffffffffff16612bb59092919063ffffffff16565b9050600081511115612665578080602001905160208110156125fe57600080fd5b8101908080519060200190929190505050612664576040517f08c379a000000000000000000000000000000000000000000000000000000000815260040180806020018281038252602a815260200180614b51602a913960400191505060405180910390fd5b5b505050565b6000806126f26000546040518060400160405280601681526020017f5061796d656e74496e74656e7448616e646c6572563400000000000000000000815250805190602001206040518060400160405280600181526020017f310000000000000000000000000000000000000000000000000000000000000081525080519060200120612bcd565b905061190160f01b818460405160200161270e93929190614013565b60405160208183030381529060405280519060200120915050919050565b6000602082511015612773576040517f08c379a000000000000000000000000000000000000000000000000000000000815260040161276a90614406565b60405180910390fd5b60208251036020018201519050919050565b606060208251116127cb576040517f08c379a00000000000000000000000000000000000000000000000000000000081526004016127c2906142e6565b60405180910390fd5b60006020835103905060008167ffffffffffffffff811180156127ed57600080fd5b506040519080825280601f01601f1916602001820160405280156128205781602001600182028036833780820191505090505b50905060005b8281101561288d5784818151811061283a57fe5b602001015160f81c60f81b82828151811061285157fe5b60200101907effffffffffffffffffffffffffffffffffffffffffffffffffffffffffffff1916908160001a9053508080600101915050612826565b508092505050919050565b6060813b604051915080825280600060208401853c60208101820160405250919050565b601b8360ff16141580156128d45750601c8360ff1614155b15612914576040517f08c379a000000000000000000000000000000000000000000000000000000000815260040161290b906143a6565b60405180910390fd5b600060018585858560405160008152602001604052604051612939949392919061427f565b6020604051602081039080840390855afa15801561295b573d6000803e3d6000fd5b505050602060405103519050600073ffffffffffffffffffffffffffffffffffffffff168173ffffffffffffffffffffffffffffffffffffffff1614806129ce57508073ffffffffffffffffffffffffffffffffffffffff168673ffffffffffffffffffffffffffffffffffffffff1614155b15612a0e576040517f08c379a0000000000000000000000000000000000000000000000000000000008152600401612a0590614366565b60405180910390fd5b505050505050565b600081836000018054905011612a77576040517f08c379a0000000000000000000000000000000000000000000000000000000008152600401808060200182810382526022815260200180614a896022913960400191505060405180910390fd5b826000018281548110612a8657fe5b9060005260206000200154905092915050565b600080836001016000848152602001908152602001600020541415905092915050565b600081600001805490509050919050565b60008083600101600084815260200190815260200160002054905060008114612ba95760006001820390506000600186600001805490500390506000866000018281548110612b1857fe5b9060005260206000200154905080876000018481548110612b3557fe5b9060005260206000200181905550600183018760010160008381526020019081526020016000208190555086600001805480612b6d57fe5b60019003818190600052602060002001600090559055866001016000878152602001908152602001600020600090556001945050505050612baf565b60009150505b92915050565b6060612bc48484600085612c0c565b90509392505050565b6000804690508484848330604051602001612bec959493929190614103565b604051602081830303815290604052805190602001209150509392505050565b606082471015612c67576040517f08c379a0000000000000000000000000000000000000000000000000000000008152600401808060200182810382526026815260200180614ada6026913960400191505060405180910390fd5b612c7085612db4565b612ce2576040517f08c379a000000000000000000000000000000000000000000000000000000000815260040180806020018281038252601d8152602001807f416464726573733a2063616c6c20746f206e6f6e2d636f6e747261637400000081525060200191505060405180910390fd5b6000808673ffffffffffffffffffffffffffffffffffffffff1685876040518082805190602001908083835b60208310612d315780518252602082019150602081019050602083039250612d0e565b6001836020036101000a03801982511681845116808217855250505050505090500191505060006040518083038185875af1925050503d8060008114612d93576040519150601f19603f3d011682016040523d82523d6000602084013e612d98565b606091505b5091509150612da8828286612dc7565b92505050949350505050565b600080823b905060008111915050919050565b60608315612dd757829050612e8c565b600083511115612dea5782518084602001fd5b816040517f08c379a00000000000000000000000000000000000000000000000000000000081526004018080602001828103825283818151815260200191508051906020019080838360005b83811015612e51578082015181840152602081019050612e36565b50505050905090810190601f168015612e7e5780820380516001836020036101000a031916815260200191505b509250505060405180910390fd5b9392505050565b6000612ea6612ea1846146c0565b61468f565b905082815260208101848484011115612ebe57600080fd5b612ec9848285614873565b509392505050565b6000612ee4612edf846146c0565b61468f565b905082815260208101848484011115612efc57600080fd5b612f07848285614882565b509392505050565b600081359050612f1e816149c7565b92915050565b600081519050612f33816149de565b92915050565b600081359050612f48816149f5565b92915050565b600081519050612f5d816149f5565b92915050565b600081359050612f7281614a0c565b92915050565b600081519050612f8781614a23565b92915050565b60008083601f840112612f9f57600080fd5b8235905067ffffffffffffffff811115612fb857600080fd5b602083019150836001820283011115612fd057600080fd5b9250929050565b600082601f830112612fe857600080fd5b8135612ff8848260208601612e93565b91505092915050565b600082601f83011261301257600080fd5b8151613022848260208601612ed1565b91505092915050565b60008135905061303a81614a3a565b92915050565b60008135905061304f81614a4a565b92915050565b6000610180828403121561306857600080fd5b613072606061468f565b90506000613082848285016130d0565b60008301525061014061309784828501612f63565b60208301525061016082013567ffffffffffffffff8111156130b857600080fd5b6130c484828501612fd7565b60408301525092915050565b600061014082840312156130e357600080fd5b6130ee61014061468f565b905060006130fe848285016131c2565b6000830152506020613112848285016131c2565b602083015250604061312684828501612f0f565b604083015250606061313a84828501612f0f565b606083015250608061314e848285016131c2565b60808301525060a06131628482850161302b565b60a08301525060c0613176848285016131c2565b60c08301525060e061318a84828501613040565b60e08301525061010061319f84828501612f0f565b610100830152506101206131b5848285016131c2565b6101208301525092915050565b6000813590506131d181614a5a565b92915050565b6000815190506131e681614a5a565b92915050565b6000813590506131fb81614a71565b92915050565b60006020828403121561321357600080fd5b600061322184828501612f0f565b91505092915050565b60008060006060848603121561323f57600080fd5b600061324d86828701612f24565b935050602084015167ffffffffffffffff81111561326a57600080fd5b61327686828701613001565b925050604084015167ffffffffffffffff81111561329357600080fd5b61329f86828701613001565b9150509250925092565b60008060008060008060a087890312156132c257600080fd5b60006132d089828a01612f0f565b96505060206132e189828a01612f0f565b95505060406132f289828a016131c2565b945050606061330389828a016131c2565b935050608087013567ffffffffffffffff81111561332057600080fd5b61332c89828a01612f8d565b92509250509295509295509295565b6000806040838503121561334e57600080fd5b600061335c85828601612f0f565b925050602061336d858286016131c2565b9150509250929050565b60006020828403121561338957600080fd5b600061339784828501612f4e565b91505092915050565b6000602082840312156133b257600080fd5b60006133c084828501612f63565b91505092915050565b600080604083850312156133dc57600080fd5b60006133ea85828601612f63565b92505060206133fb85828601612f0f565b9150509250929050565b6000806040838503121561341857600080fd5b600061342685828601612f63565b9250506020613437858286016131c2565b9150509250929050565b60008060008060006080868803121561345957600080fd5b600061346788828901612f63565b9550506020613478888289016131c2565b9450506040613489888289016131c2565b935050606086013567ffffffffffffffff8111156134a657600080fd5b6134b288828901612f8d565b92509250509295509295909350565b60008060008060008060008060008060006101408c8e0312156134e357600080fd5b60006134f18e828f01612f63565b9b505060206135028e828f016131ec565b9a505060406135138e828f01612f63565b99505060606135248e828f01612f63565b98505060806135358e828f016131c2565b97505060a06135468e828f01612f63565b96505060c06135578e828f016131c2565b95505060e06135688e828f016131c2565b94505061010061357a8e828f016131c2565b9350506101208c013567ffffffffffffffff81111561359857600080fd5b6135a48e828f01612f8d565b92509250509295989b509295989b9093969950565b6000602082840312156135cb57600080fd5b60006135d984828501612f78565b91505092915050565b6000602082840312156135f457600080fd5b600082013567ffffffffffffffff81111561360e57600080fd5b61361a84828501613055565b91505092915050565b6000610140828403121561363657600080fd5b6000613644848285016130d0565b91505092915050565b6000806000610180848603121561366357600080fd5b6000613671868287016130d0565b93505061014061368386828701612f63565b92505061016084013567ffffffffffffffff8111156136a157600080fd5b6136ad86828701612fd7565b9150509250925092565b600080600061018084860312156136cd57600080fd5b60006136db868287016130d0565b93505061014084013567ffffffffffffffff8111156136f957600080fd5b61370586828701612fd7565b925050610160613717868287016131c2565b9150509250925092565b60006020828403121561373357600080fd5b6000613741848285016131c2565b91505092915050565b60006020828403121561375c57600080fd5b600061376a848285016131d7565b91505092915050565b6000806040838503121561378657600080fd5b6000613794858286016131c2565b92505060206137a585828601612f39565b9150509250929050565b6137b88161473e565b82525050565b6137c78161473e565b82525050565b6137d681614762565b82525050565b6137ed6137e88261476e565b6148b5565b82525050565b6137fc8161479a565b82525050565b61381361380e8261479a565b6148bf565b82525050565b60006138258385614706565b9350613832838584614873565b61383b836148cb565b840190509392505050565b6000613851826146f0565b61385b8185614706565b935061386b818560208601614882565b613874816148cb565b840191505092915050565b600061388a826146f0565b6138948185614717565b93506138a4818560208601614882565b80840191505092915050565b6138b98161483d565b82525050565b6138c88161483d565b82525050565b6138d78161484f565b82525050565b6138e68161484f565b82525050565b6138f581614861565b82525050565b6000613906826146fb565b6139108185614722565b9350613920818560208601614882565b613929816148cb565b840191505092915050565b6000613941602383614722565b91507f5369676e617475726520746f6f2073686f727420666f7220363439322073756660008301527f66697800000000000000000000000000000000000000000000000000000000006020830152604082019050919050565b60006139a7600d83614722565b91507f556e6b6e6f776e206572726f72000000000000000000000000000000000000006000830152602082019050919050565b60006139e7600f83614722565b91507f496e76616c6964206665652062707300000000000000000000000000000000006000830152602082019050919050565b6000613a27600f83614722565b91507f5472616e73666572206661696c656400000000000000000000000000000000006000830152602082019050919050565b6000613a67601083614722565b91507f496e76616c69645369676e6174757265000000000000000000000000000000006000830152602082019050919050565b6000613aa7601583614722565b91507f5175616e7469747920616c7265616479207573656400000000000000000000006000830152602082019050919050565b6000613ae7601183614722565b91507f496e76616c696456506172616d657465720000000000000000000000000000006000830152602082019050919050565b6000613b27600e83614722565b91507f496e76616c696420616d6f756e740000000000000000000000000000000000006000830152602082019050919050565b6000613b67601283614722565b91507f496e74656e7420646561637469766174656400000000000000000000000000006000830152602082019050919050565b6000613ba7601383614722565b91507f5369676e617475726520746f6f2073686f7274000000000000000000000000006000830152602082019050919050565b6000613be7600c83614722565b91507f46656520746f6f206869676800000000000000000000000000000000000000006000830152602082019050919050565b6000613c27601183614722565b91507f4d69736d61746368656420616d6f756e740000000000000000000000000000006000830152602082019050919050565b6000613c67601583614733565b91507f455243363439324465706c6f794661696c65643a2000000000000000000000006000830152601582019050919050565b6000613ca7601e83614722565b91507f46656520657865637574656420657863656564732067726f73732066656500006000830152602082019050919050565b6000613ce7601383614722565b91507f496e76616c6964207369676e65722074797065000000000000000000000000006000830152602082019050919050565b6000613d27601683614722565b91507f5573696e67206f6c6420696e74656e74206e6f6e6365000000000000000000006000830152602082019050919050565b6000613d67601083614722565b91507f496e76616c6964206d65726368616e74000000000000000000000000000000006000830152602082019050919050565b6000613da7601d83614722565b91507f4f6e6c792063616c6c61626c6520627920686f6f6b20777261707065720000006000830152602082019050919050565b6000613de7601583614722565b91507f4f6e6c79207265636f766572206f722061646d696e00000000000000000000006000830152602082019050919050565b6000613e27601083614722565b91507f496e76616c6964206f70657261746f72000000000000000000000000000000006000830152602082019050919050565b6000613e67601583614722565b91507f4f6e6c792063616c6c61626c652062792073656c6600000000000000000000006000830152602082019050919050565b6000613ea7601283614722565b91507f4e6f20616d6f756e7420726563656976656400000000000000000000000000006000830152602082019050919050565b6000613ee7601583614722565b91507f4f7264657220494420616c7265616479207573656400000000000000000000006000830152602082019050919050565b61014082016000820151613f316000850182613fe6565b506020820151613f446020850182613fe6565b506040820151613f5760408501826137af565b506060820151613f6a60608501826137af565b506080820151613f7d6080850182613fe6565b5060a0820151613f9060a08501826138b0565b5060c0820151613fa360c0850182613fe6565b5060e0820151613fb660e08501826138ce565b50610100820151613fcb6101008501826137af565b50610120820151613fe0610120850182613fe6565b50505050565b613fef81614816565b82525050565b613ffe81614816565b82525050565b61400d81614830565b82525050565b600061401f82866137dc565b60028201915061402f8285613802565b60208201915061403f8284613802565b602082019150819050949350505050565b600061405c828461387f565b915081905092915050565b600061407282613c5a565b915061407e828461387f565b915081905092915050565b600060208201905061409e60008301846137be565b92915050565b60006040820190506140b960008301856137be565b6140c66020830184613ff5565b9392505050565b60006020820190506140e260008301846137cd565b92915050565b60006020820190506140fd60008301846137f3565b92915050565b600060a08201905061411860008301886137f3565b61412560208301876137f3565b61413260408301866137f3565b61413f6060830185613ff5565b61414c60808301846137be565b9695505050505050565b600060408201905061416b60008301856137f3565b818103602083015261417d8184613846565b90509392505050565b60006101608201905061419c600083018e6137f3565b6141a9602083018d613ff5565b6141b6604083018c613ff5565b6141c3606083018b6137be565b6141d0608083018a6137be565b6141dd60a0830189613ff5565b6141ea60c08301886138bf565b6141f760e0830187613ff5565b6142056101008301866138dd565b6142136101208301856137be565b614221610140830184613ff5565b9c9b505050505050505050505050565b600060808201905061424660008301886137f3565b6142536020830187613ff5565b6142606040830186613ff5565b8181036060830152614273818486613819565b90509695505050505050565b600060808201905061429460008301876137f3565b6142a16020830186614004565b6142ae60408301856137f3565b6142bb60608301846137f3565b95945050505050565b600060208201905081810360008301526142de81846138fb565b905092915050565b600060208201905081810360008301526142ff81613934565b9050919050565b6000602082019050818103600083015261431f8161399a565b9050919050565b6000602082019050818103600083015261433f816139da565b9050919050565b6000602082019050818103600083015261435f81613a1a565b9050919050565b6000602082019050818103600083015261437f81613a5a565b9050919050565b6000602082019050818103600083015261439f81613a9a565b9050919050565b600060208201905081810360008301526143bf81613ada565b9050919050565b600060208201905081810360008301526143df81613b1a565b9050919050565b600060208201905081810360008301526143ff81613b5a565b9050919050565b6000602082019050818103600083015261441f81613b9a565b9050919050565b6000602082019050818103600083015261443f81613bda565b9050919050565b6000602082019050818103600083015261445f81613c1a565b9050919050565b6000602082019050818103600083015261447f81613c9a565b9050919050565b6000602082019050818103600083015261449f81613cda565b9050919050565b600060208201905081810360008301526144bf81613d1a565b9050919050565b600060208201905081810360008301526144df81613d5a565b9050919050565b600060208201905081810360008301526144ff81613d9a565b9050919050565b6000602082019050818103600083015261451f81613dda565b9050919050565b6000602082019050818103600083015261453f81613e1a565b9050919050565b6000602082019050818103600083015261455f81613e5a565b9050919050565b6000602082019050818103600083015261457f81613e9a565b9050919050565b6000602082019050818103600083015261459f81613eda565b9050919050565b60006101e0820190506145bc6000830189613f1a565b6145ca6101408301886138ec565b6145d8610160830187613ff5565b6145e6610180830186613ff5565b6145f46101a0830185613ff5565b6146026101c0830184613ff5565b979650505050505050565b60006101e0820190506146236000830189613f1a565b614631610140830188613ff5565b61463f610160830187613ff5565b61464d610180830186613ff5565b61465b6101a0830185613ff5565b6146696101c0830184613ff5565b979650505050505050565b60006020820190506146896000830184613ff5565b92915050565b6000604051905081810181811067ffffffffffffffff821117156146b6576146b56148c9565b5b8060405250919050565b600067ffffffffffffffff8211156146db576146da6148c9565b5b601f19601f8301169050602081019050919050565b600081519050919050565b600081519050919050565b600082825260208201905092915050565b600081905092915050565b600082825260208201905092915050565b600081905092915050565b6000614749826147f6565b9050919050565b600061475b826147f6565b9050919050565b60008115159050919050565b60007fffff00000000000000000000000000000000000000000000000000000000000082169050919050565b6000819050919050565b60007fffffffff0000000000000000000000000000000000000000000000000000000082169050919050565b60008190506147de8261499f565b919050565b60008190506147f1826149b3565b919050565b600073ffffffffffffffffffffffffffffffffffffffff82169050919050565b6000819050919050565b600063ffffffff82169050919050565b600060ff82169050919050565b6000614848826147d0565b9050919050565b600061485a826147e3565b9050919050565b600061486c82614816565b9050919050565b82818337600083830152505050565b60005b838110156148a0578082015181840152602081019050614885565b838111156148af576000848401525b50505050565b6000819050919050565b6000819050919050565bfe5b6000601f19601f8301169050919050565b60008160e01c9050919050565b600060443d10156148f95761499c565b60046000803e61490a6000516148dc565b6308c379a0811461491b575061499c565b60405160043d036004823e80513d602482011167ffffffffffffffff821117156149475750505061499c565b808201805167ffffffffffffffff81111561496657505050505061499c565b8060208301013d85018111156149815750505050505061499c565b61498a826148cb565b60208401016040528296505050505050505b90565b600281106149b0576149af6148c9565b5b50565b600281106149c4576149c36148c9565b5b50565b6149d08161473e565b81146149db57600080fd5b50565b6149e781614750565b81146149f257600080fd5b50565b6149fe81614762565b8114614a0957600080fd5b50565b614a158161479a565b8114614a2057600080fd5b50565b614a2c816147a4565b8114614a3757600080fd5b50565b60028110614a4757600080fd5b50565b60028110614a5757600080fd5b50565b614a6381614816565b8114614a6e57600080fd5b50565b614a7a81614820565b8114614a8557600080fd5b5056fe456e756d657261626c655365743a20696e646578206f7574206f6620626f756e6473416363657373436f6e74726f6c3a2073656e646572206d75737420626520616e2061646d696e20746f206772616e74416464726573733a20696e73756666696369656e742062616c616e636520666f722063616c6c416363657373436f6e74726f6c3a2073656e646572206d75737420626520616e2061646d696e20746f207265766f6b65536166654d6174683a206d756c7469706c69636174696f6e206f766572666c6f775361666545524332303a204552433230206f7065726174696f6e20646964206e6f742073756363656564416363657373436f6e74726f6c3a2063616e206f6e6c792072656e6f756e636520726f6c657320666f722073656c66a2646970667358221220b2ac0b2d69cdb128961cd114123e95424a8c0bd6c555069303278e90803e742564736f6c63430007060033",
  "linkReferences": {},
  "deployedLinkReferences": {}
}