{
  "_format": "hh-sol-artifact-1",
  "contractName": "PaymentIntentHandler",
  "sourceName": "contracts/PaymentIntentHandler.sol",
  "abi": [
    {
      "inputs": [
        {
          "internalType": "address",
          "name": "_usdc",
          "type": "address"
        },
        {
          "internalType": "address",
          "name": "_hookWrapper",
          "type": "address"
        }
      ],
      "stateMutability": "nonpayable",
      "type": "constructor"
    },
    {
      "anonymous": false,
      "inputs": [
        {
          "indexed": false,
          "internalType": "uint256",
          "name": "amount",
          "type": "uint256"
        },
        {
          "indexed": false,
          "internalType": "uint32",
          "name": "destinationDomain",
          "type": "uint32"
        },
        {
          "indexed": false,
          "internalType": "bytes32",
          "name": "mintRecipient",
          "type": "bytes32"
        },
        {
          "indexed": false,
          "internalType": "address",
          "name": "burnToken",
          "type": "address"
        },
        {
          "indexed": false,
          "internalType": "bytes32",
          "name": "destinationCaller",
          "type": "bytes32"
        },
        {
          "indexed": false,
          "internalType": "uint256",
          "name": "maxFee",
          "type": "uint256"
        },
        {
          "indexed": false,
          "internalType": "uint32",
          "name": "minFinalityThreshold",
          "type": "uint32"
        },
        {
          "indexed": false,
          "internalType": "bytes",
          "name": "hookData",
          "type": "bytes"
        }
      ],
      "name": "BurnHookExecuted",
      "type": "event"
    },
    {
      "anonymous": false,
      "inputs": [
        {
          "indexed": true,
          "internalType": "uint256",
          "name": "salt",
          "type": "uint256"
        },
        {
          "indexed": false,
          "internalType": "bool",
          "name": "deactivate",
          "type": "bool"
        }
      ],
      "name": "PaymentIntentDeactivated",
      "type": "event"
    },
    {
      "anonymous": false,
      "inputs": [
        {
          "indexed": true,
          "internalType": "uint256",
          "name": "salt",
          "type": "uint256"
        },
        {
          "indexed": false,
          "internalType": "uint256",
          "name": "nonce",
          "type": "uint256"
        }
      ],
      "name": "PaymentIntentNonceUpdated",
      "type": "event"
    },
    {
      "anonymous": false,
      "inputs": [
        {
          "indexed": true,
          "internalType": "bytes32",
          "name": "consumptionNonce",
          "type": "bytes32"
        },
        {
          "indexed": true,
          "internalType": "bytes32",
          "name": "orderId",
          "type": "bytes32"
        },
        {
          "components": [
            {
              "internalType": "uint256",
              "name": "amount",
              "type": "uint256"
            },
            {
              "internalType": "uint256",
              "name": "feeBps",
              "type": "uint256"
            },
            {
              "internalType": "address",
              "name": "feeRecipient",
              "type": "address"
            },
            {
              "internalType": "address",
              "name": "merchant",
              "type": "address"
            },
            {
              "internalType": "uint256",
              "name": "salt",
              "type": "uint256"
            },
            {
              "internalType": "enum QuantityType",
              "name": "quantityType",
              "type": "uint8"
            },
            {
              "internalType": "uint256",
              "name": "quantity",
              "type": "uint256"
            },
            {
              "internalType": "enum SignerType",
              "name": "signerType",
              "type": "uint8"
            },
            {
              "internalType": "address",
              "name": "signer",
              "type": "address"
            },
            {
              "internalType": "uint256",
              "name": "nonce",
              "type": "uint256"
            }
          ],
          "indexed": false,
          "internalType": "struct PaymentIntent",
          "name": "intent",
          "type": "tuple"
        },
        {
          "indexed": false,
          "internalType": "uint256",
          "name": "feeExecuted",
          "type": "uint256"
        },
        {
          "indexed": false,
          "internalType": "uint256",
          "name": "netMinted",
          "type": "uint256"
        },
        {
          "indexed": false,
          "internalType": "uint256",
          "name": "netPayable",
          "type": "uint256"
        },
        {
          "indexed": false,
          "internalType": "uint256",
          "name": "netFee",
          "type": "uint256"
        },
        {
          "indexed": false,
          "internalType": "uint256",
          "name": "quantityUsed",
          "type": "uint256"
        }
      ],
      "name": "PaymentIntentSuccess",
      "type": "event"
    },
    {
      "anonymous": false,
      "inputs": [
        {
          "indexed": true,
          "internalType": "bytes32",
          "name": "role",
          "type": "bytes32"
        },
        {
          "indexed": true,
          "internalType": "bytes32",
          "name": "previousAdminRole",
          "type": "bytes32"
        },
        {
          "indexed": true,
          "internalType": "bytes32",
          "name": "newAdminRole",
          "type": "bytes32"
        }
      ],
      "name": "RoleAdminChanged",
      "type": "event"
    },
    {
      "anonymous": false,
      "inputs": [
        {
          "indexed": true,
          "internalType": "bytes32",
          "name": "role",
          "type": "bytes32"
        },
        {
          "indexed": true,
          "internalType": "address",
          "name": "account",
          "type": "address"
        },
        {
          "indexed": true,
          "internalType": "address",
          "name": "sender",
          "type": "address"
        }
      ],
      "name": "RoleGranted",
      "type": "event"
    },
    {
      "anonymous": false,
      "inputs": [
        {
          "indexed": true,
          "internalType": "bytes32",
          "name": "role",
          "type": "bytes32"
        },
        {
          "indexed": true,
          "internalType": "address",
          "name": "account",
          "type": "address"
        },
        {
          "indexed": true,
          "internalType": "address",
          "name": "sender",
          "type": "address"
        }
      ],
      "name": "RoleRevoked",
      "type": "event"
    },
    {
      "inputs": [],
      "name": "DEFAULT_ADMIN_ROLE",
      "outputs": [
        {
          "internalType": "bytes32",
          "name": "",
          "type": "bytes32"
        }
      ],
      "stateMutability": "view",
      "type": "function"
    },
    {
      "inputs": [],
      "name": "OPERATOR_ROLE",
      "outputs": [
        {
          "internalType": "bytes32",
          "name": "",
          "type": "bytes32"
        }
      ],
      "stateMutability": "view",
      "type": "function"
    },
    {
      "inputs": [
        {
          "internalType": "address",
          "name": "",
          "type": "address"
        },
        {
          "internalType": "uint256",
          "name": "",
          "type": "uint256"
        }
      ],
      "name": "deactivated",
      "outputs": [
        {
          "internalType": "bool",
          "name": "",
          "type": "bool"
        }
      ],
      "stateMutability": "view",
      "type": "function"
    },
    {
      "inputs": [
        {
          "internalType": "bytes32",
          "name": "_nonce",
          "type": "bytes32"
        },
        {
          "internalType": "uint32",
          "name": "",
          "type": "uint32"
        },
        {
          "internalType": "bytes32",
          "name": "",
          "type": "bytes32"
        },
        {
          "internalType": "bytes32",
          "name": "",
          "type": "bytes32"
        },
        {
          "internalType": "uint256",
          "name": "",
          "type": "uint256"
        },
        {
          "internalType": "bytes32",
          "name": "",
          "type": "bytes32"
        },
        {
          "internalType": "uint256",
          "name": "",
          "type": "uint256"
        },
        {
          "internalType": "uint256",
          "name": "_feeExecuted",
          "type": "uint256"
        },
        {
          "internalType": "uint256",
          "name": "",
          "type": "uint256"
        },
        {
          "components": [
            {
              "internalType": "bytes32",
              "name": "orderId",
              "type": "bytes32"
            },
            {
              "components": [
                {
                  "internalType": "uint256",
                  "name": "amount",
                  "type": "uint256"
                },
                {
                  "internalType": "uint256",
                  "name": "feeBps",
                  "type": "uint256"
                },
                {
                  "internalType": "address",
                  "name": "feeRecipient",
                  "type": "address"
                },
                {
                  "internalType": "address",
                  "name": "merchant",
                  "type": "address"
                },
                {
                  "internalType": "uint256",
                  "name": "salt",
                  "type": "uint256"
                },
                {
                  "internalType": "enum QuantityType",
                  "name": "quantityType",
                  "type": "uint8"
                },
                {
                  "internalType": "uint256",
                  "name": "quantity",
                  "type": "uint256"
                },
                {
                  "internalType": "enum SignerType",
                  "name": "signerType",
                  "type": "uint8"
                },
                {
                  "internalType": "address",
                  "name": "signer",
                  "type": "address"
                },
                {
                  "internalType": "uint256",
                  "name": "nonce",
                  "type": "uint256"
                }
              ],
              "internalType": "struct PaymentIntent",
              "name": "intent",
              "type": "tuple"
            },
            {
              "internalType": "bytes",
              "name": "signature",
              "type": "bytes"
            }
          ],
          "internalType": "struct PaymentIntentHookData",
          "name": "_paymentData",
          "type": "tuple"
        }
      ],
      "name": "executePaymentHook",
      "outputs": [
        {
          "internalType": "bool",
          "name": "",
          "type": "bool"
        }
      ],
      "stateMutability": "nonpayable",
      "type": "function"
    },
    {
      "inputs": [
        {
          "internalType": "address",
          "name": "",
          "type": "address"
        },
        {
          "internalType": "address",
          "name": "",
          "type": "address"
        },
        {
          "internalType": "uint256",
          "name": "",
          "type": "uint256"
        },
        {
          "internalType": "uint256",
          "name": "",
          "type": "uint256"
        },
        {
          "internalType": "bytes",
          "name": "_structData",
          "type": "bytes"
        }
      ],
      "name": "executeSwapHook",
      "outputs": [
        {
          "internalType": "bool",
          "name": "",
          "type": "bool"
        }
      ],
      "stateMutability": "nonpayable",
      "type": "function"
    },
    {
      "inputs": [
        {
          "internalType": "bytes32",
          "name": "_orderId",
          "type": "bytes32"
        },
        {
          "components": [
            {
              "internalType": "uint256",
              "name": "amount",
              "type": "uint256"
            },
            {
              "internalType": "uint256",
              "name": "feeBps",
              "type": "uint256"
            },
            {
              "internalType": "address",
              "name": "feeRecipient",
              "type": "address"
            },
            {
              "internalType": "address",
              "name": "merchant",
              "type": "address"
            },
            {
              "internalType": "uint256",
              "name": "salt",
              "type": "uint256"
            },
            {
              "internalType": "enum QuantityType",
              "name": "quantityType",
              "type": "uint8"
            },
            {
              "internalType": "uint256",
              "name": "quantity",
              "type": "uint256"
            },
            {
              "internalType": "enum SignerType",
              "name": "signerType",
              "type": "uint8"
            },
            {
              "internalType": "address",
              "name": "signer",
              "type": "address"
            },
            {
              "internalType": "uint256",
              "name": "nonce",
              "type": "uint256"
            }
          ],
          "internalType": "struct PaymentIntent",
          "name": "_intent",
          "type": "tuple"
        },
        {
          "internalType": "bytes",
          "name": "_signature",
          "type": "bytes"
        }
      ],
      "name": "fulfillIntent",
      "outputs": [
        {
          "internalType": "bool",
          "name": "",
          "type": "bool"
        }
      ],
      "stateMutability": "nonpayable",
      "type": "function"
    },
    {
      "inputs": [
        {
          "internalType": "bytes32",
          "name": "role",
          "type": "bytes32"
        }
      ],
      "name": "getRoleAdmin",
      "outputs": [
        {
          "internalType": "bytes32",
          "name": "",
          "type": "bytes32"
        }
      ],
      "stateMutability": "view",
      "type": "function"
    },
    {
      "inputs": [
        {
          "internalType": "bytes32",
          "name": "role",
          "type": "bytes32"
        },
        {
          "internalType": "uint256",
          "name": "index",
          "type": "uint256"
        }
      ],
      "name": "getRoleMember",
      "outputs": [
        {
          "internalType": "address",
          "name": "",
          "type": "address"
        }
      ],
      "stateMutability": "view",
      "type": "function"
    },
    {
      "inputs": [
        {
          "internalType": "bytes32",
          "name": "role",
          "type": "bytes32"
        }
      ],
      "name": "getRoleMemberCount",
      "outputs": [
        {
          "internalType": "uint256",
          "name": "",
          "type": "uint256"
        }
      ],
      "stateMutability": "view",
      "type": "function"
    },
    {
      "inputs": [
        {
          "internalType": "bytes32",
          "name": "role",
          "type": "bytes32"
        },
        {
          "internalType": "address",
          "name": "account",
          "type": "address"
        }
      ],
      "name": "grantRole",
      "outputs": [],
      "stateMutability": "nonpayable",
      "type": "function"
    },
    {
      "inputs": [
        {
          "internalType": "bytes32",
          "name": "role",
          "type": "bytes32"
        },
        {
          "internalType": "address",
          "name": "account",
          "type": "address"
        }
      ],
      "name": "hasRole",
      "outputs": [
        {
          "internalType": "bool",
          "name": "",
          "type": "bool"
        }
      ],
      "stateMutability": "view",
      "type": "function"
    },
    {
      "inputs": [
        {
          "components": [
            {
              "internalType": "uint256",
              "name": "amount",
              "type": "uint256"
            },
            {
              "internalType": "uint256",
              "name": "feeBps",
              "type": "uint256"
            },
            {
              "internalType": "address",
              "name": "feeRecipient",
              "type": "address"
            },
            {
              "internalType": "address",
              "name": "merchant",
              "type": "address"
            },
            {
              "internalType": "uint256",
              "name": "salt",
              "type": "uint256"
            },
            {
              "internalType": "enum QuantityType",
              "name": "quantityType",
              "type": "uint8"
            },
            {
              "internalType": "uint256",
              "name": "quantity",
              "type": "uint256"
            },
            {
              "internalType": "enum SignerType",
              "name": "signerType",
              "type": "uint8"
            },
            {
              "internalType": "address",
              "name": "signer",
              "type": "address"
            },
            {
              "internalType": "uint256",
              "name": "nonce",
              "type": "uint256"
            }
          ],
          "internalType": "struct PaymentIntent",
          "name": "intent",
          "type": "tuple"
        }
      ],
      "name": "hashPaymentIntent",
      "outputs": [
        {
          "internalType": "bytes32",
          "name": "",
          "type": "bytes32"
        }
      ],
      "stateMutability": "view",
      "type": "function"
    },
    {
      "inputs": [],
      "name": "hookWrapper",
      "outputs": [
        {
          "internalType": "address",
          "name": "",
          "type": "address"
        }
      ],
      "stateMutability": "view",
      "type": "function"
    },
    {
      "inputs": [
        {
          "internalType": "uint256",
          "name": "",
          "type": "uint256"
        }
      ],
      "name": "nonces",
      "outputs": [
        {
          "internalType": "uint256",
          "name": "",
          "type": "uint256"
        }
      ],
      "stateMutability": "view",
      "type": "function"
    },
    {
      "inputs": [
        {
          "internalType": "bytes32",
          "name": "",
          "type": "bytes32"
        }
      ],
      "name": "orderIds",
      "outputs": [
        {
          "internalType": "bool",
          "name": "",
          "type": "bool"
        }
      ],
      "stateMutability": "view",
      "type": "function"
    },
    {
      "inputs": [
        {
          "internalType": "bytes32",
          "name": "role",
          "type": "bytes32"
        },
        {
          "internalType": "address",
          "name": "account",
          "type": "address"
        }
      ],
      "name": "renounceRole",
      "outputs": [],
      "stateMutability": "nonpayable",
      "type": "function"
    },
    {
      "inputs": [
        {
          "internalType": "bytes32",
          "name": "role",
          "type": "bytes32"
        },
        {
          "internalType": "address",
          "name": "account",
          "type": "address"
        }
      ],
      "name": "revokeRole",
      "outputs": [],
      "stateMutability": "nonpayable",
      "type": "function"
    },
    {
      "inputs": [
        {
          "internalType": "uint256",
          "name": "_salt",
          "type": "uint256"
        },
        {
          "internalType": "bool",
          "name": "_deactivate",
          "type": "bool"
        }
      ],
      "name": "toggleDeactivate",
      "outputs": [],
      "stateMutability": "nonpayable",
      "type": "function"
    },
    {
      "inputs": [
        {
          "internalType": "uint256",
          "name": "",
          "type": "uint256"
        }
      ],
      "name": "usages",
      "outputs": [
        {
          "internalType": "uint256",
          "name": "",
          "type": "uint256"
        }
      ],
      "stateMutability": "view",
      "type": "function"
    },
    {
      "inputs": [],
      "name": "usdc",
      "outputs": [
        {
          "internalType": "address",
          "name": "",
          "type": "address"
        }
      ],
      "stateMutability": "view",
      "type": "function"
    },
    {
      "inputs": [
        {
          "internalType": "bytes32",
          "name": "_orderId",
          "type": "bytes32"
        },
        {
          "components": [
            {
              "internalType": "uint256",
              "name": "amount",
              "type": "uint256"
            },
            {
              "internalType": "uint256",
              "name": "feeBps",
              "type": "uint256"
            },
            {
              "internalType": "address",
              "name": "feeRecipient",
              "type": "address"
            },
            {
              "internalType": "address",
              "name": "merchant",
              "type": "address"
            },
            {
              "internalType": "uint256",
              "name": "salt",
              "type": "uint256"
            },
            {
              "internalType": "enum QuantityType",
              "name": "quantityType",
              "type": "uint8"
            },
            {
              "internalType": "uint256",
              "name": "quantity",
              "type": "uint256"
            },
            {
              "internalType": "enum SignerType",
              "name": "signerType",
              "type": "uint8"
            },
            {
              "internalType": "address",
              "name": "signer",
              "type": "address"
            },
            {
              "internalType": "uint256",
              "name": "nonce",
              "type": "uint256"
            }
          ],
          "internalType": "struct PaymentIntent",
          "name": "_intent",
          "type": "tuple"
        },
        {
          "internalType": "bytes",
          "name": "_signature",
          "type": "bytes"
        }
      ],
      "name": "validateIntent",
      "outputs": [],
      "stateMutability": "nonpayable",
      "type": "function"
    }
  ],
  "bytecode": "0x60806040523480156200001157600080fd5b5060405162004295380380620042958339818101604052810190620000379190620003f4565b62000047620001e760201b60201c565b600080600160008491905055839190505550506001600281905550600073ffffffffffffffffffffffffffffffffffffffff168273ffffffffffffffffffffffffffffffffffffffff161415620000d5576040517f08c379a0000000000000000000000000000000000000000000000000000000008152600401620000cc9062000a3b565b60405180910390fd5b600073ffffffffffffffffffffffffffffffffffffffff168173ffffffffffffffffffffffffffffffffffffffff16141562000148576040517f08c379a00000000000000000000000000000000000000000000000000000000081526004016200013f9062000a19565b60405180910390fd5b81600860006101000a81548173ffffffffffffffffffffffffffffffffffffffff021916908373ffffffffffffffffffffffffffffffffffffffff16021790555080600960006101000a81548173ffffffffffffffffffffffffffffffffffffffff021916908373ffffffffffffffffffffffffffffffffffffffff160217905550620001df6000801b336200024660201b60201c565b505062000ac7565b600080604051602001620001fb90620009c1565b604051602081830303815290604052805190602001209150600060405160200162000226906200091b565b604051602081830303815290604052905080805190602001209150509091565b6200025882826200025c60201b60201c565b5050565b6200028b81600360008581526020019081526020016000206000016200030060201b62000b3f1790919060201c565b15620002fc57620002a16200033860201b60201c565b73ffffffffffffffffffffffffffffffffffffffff168173ffffffffffffffffffffffffffffffffffffffff16837f2f8788117e7eff1d82e926ec794901d17c78024a50270940304540a733656f0d60405160405180910390a45b5050565b600062000330836000018373ffffffffffffffffffffffffffffffffffffffff1660001b6200034060201b60201c565b905092915050565b600033905090565b6000620003548383620003ba60201b60201c565b620003af578260000182908060018154018082558091505060019003906000526020600020016000909190919091505582600001805490508360010160008481526020019081526020016000208190555060019050620003b4565b600090505b92915050565b600080836001016000848152602001908152602001600020541415905092915050565b600081519050620003ee8162000aad565b92915050565b600080604083850312156200040857600080fd5b60006200041885828601620003dd565b92505060206200042b85828601620003dd565b9150509250929050565b600062000444600c8362000a6e565b91507f737472696e67206e616d652c00000000000000000000000000000000000000006000830152600c82019050919050565b600062000486600f8362000a6e565b91507f75696e7432353620616d6f756e742c00000000000000000000000000000000006000830152600f82019050919050565b6000620004c860118362000a6e565b91507f75696e74323536207175616e746974792c0000000000000000000000000000006000830152601182019050919050565b60006200050a60198362000a6e565b91507f6164647265737320766572696679696e67436f6e7472616374000000000000006000830152601982019050919050565b60006200054c60108362000a6e565b91507f75696e7432353620636861696e49642c000000000000000000000000000000006000830152601082019050919050565b60006200058e601c8362000a5d565b91507f496e76616c696420686f6f6b20777261707065722061646472657373000000006000830152602082019050919050565b6000620005d060118362000a6e565b91507f61646472657373206d65726368616e742c0000000000000000000000000000006000830152601182019050919050565b600062000612600d8362000a6e565b91507f75696e74323536206e6f6e6365000000000000000000000000000000000000006000830152600d82019050919050565b60006200065460018362000a6e565b91507f29000000000000000000000000000000000000000000000000000000000000006000830152600182019050919050565b600062000696600f8362000a6e565b91507f737472696e672076657273696f6e2c00000000000000000000000000000000006000830152600f82019050919050565b6000620006d860148362000a5d565b91507f496e76616c6964205553444320616464726573730000000000000000000000006000830152602082019050919050565b60006200071a600d8362000a6e565b91507f75696e743235362073616c742c000000000000000000000000000000000000006000830152600d82019050919050565b60006200075c60138362000a6e565b91507f75696e7438207175616e74697479547970652c000000000000000000000000006000830152601382019050919050565b60006200079e600f8362000a6e565b91507f75696e74323536206665654270732c00000000000000000000000000000000006000830152600f82019050919050565b6000620007e0600f8362000a6e565b91507f61646472657373207369676e65722c00000000000000000000000000000000006000830152600f82019050919050565b600062000822600e8362000a6e565b91507f5061796d656e74496e74656e74280000000000000000000000000000000000006000830152600e82019050919050565b600062000864600d8362000a6e565b91507f454950373132446f6d61696e28000000000000000000000000000000000000006000830152600d82019050919050565b6000620008a660158362000a6e565b91507f6164647265737320666565526563697069656e742c00000000000000000000006000830152601582019050919050565b6000620008e860118362000a6e565b91507f75696e7438207369676e6572547970652c0000000000000000000000000000006000830152601182019050919050565b6000620009288262000813565b9150620009358262000477565b915062000942826200078f565b91506200094f8262000897565b91506200095c82620005c1565b915062000969826200070b565b915062000976826200074d565b91506200098382620004b9565b91506200099082620008d9565b91506200099d82620007d1565b9150620009aa8262000603565b9150620009b78262000645565b9150819050919050565b6000620009ce8262000855565b9150620009db8262000435565b9150620009e88262000687565b9150620009f5826200053d565b915062000a0282620004fb565b915062000a0f8262000645565b9150819050919050565b6000602082019050818103600083015262000a34816200057f565b9050919050565b6000602082019050818103600083015262000a5681620006c9565b9050919050565b600082825260208201905092915050565b600081905092915050565b600062000a868262000a8d565b9050919050565b600073ffffffffffffffffffffffffffffffffffffffff82169050919050565b62000ab88162000a79565b811462000ac457600080fd5b50565b6137be8062000ad76000396000f3fe608060405234801561001057600080fd5b50600436106101375760003560e01c806391d14854116100b8578063ca15c8731161007c578063ca15c873146103ae578063ca94ba2d146103de578063d547741f146103fa578063f13886ec14610416578063f5b541a614610446578063f87f73bf1461046457610137565b806391d14854146102d0578063a217fddf14610300578063afc3a63e1461031e578063b2b9d9501461034e578063c44b9b3e1461037e57610137565b806336568abe116100ff57806336568abe146102185780633e413bee146102345780635a316f7a1461025257806386beff84146102705780639010d07c146102a057610137565b8063141a468c1461013c5780631e999dad1461016c57806322a8f3f71461019c578063248a9ca3146101cc5780632f2ff15d146101fc575b600080fd5b610156600480360381019061015191906128d8565b610480565b6040516101639190613328565b60405180910390f35b61018660048036038101906101819190612579565b610498565b6040516101939190612f76565b60405180910390f35b6101b660048036038101906101b1919061260b565b61055e565b6040516101c39190612f76565b60405180910390f35b6101e660048036038101906101e19190612647565b61058d565b6040516101f39190612f91565b60405180910390f35b61021660048036038101906102119190612670565b6105ad565b005b610232600480360381019061022d9190612670565b610637565b005b61023c6106d0565b6040516102499190612f5b565b60405180910390f35b61025a6106f6565b6040516102679190612f5b565b60405180910390f35b61028a60048036038101906102859190612751565b61071c565b6040516102979190612f76565b60405180910390f35b6102ba60048036038101906102b59190612715565b61085e565b6040516102c79190612f5b565b60405180910390f35b6102ea60048036038101906102e59190612670565b610890565b6040516102f79190612f76565b60405180910390f35b6103086108c2565b6040516103159190612f91565b60405180910390f35b610338600480360381019061033391906126ac565b6108c9565b6040516103459190612f76565b60405180910390f35b610368600480360381019061036391906128d8565b61096c565b6040516103759190613328565b60405180910390f35b610398600480360381019061039391906128ae565b610984565b6040516103a59190612f91565b60405180910390f35b6103c860048036038101906103c39190612647565b610996565b6040516103d59190613328565b60405180910390f35b6103f860048036038101906103f391906126ac565b6109bd565b005b610414600480360381019061040f9190612670565b6109cd565b005b610430600480360381019061042b9190612647565b610a57565b60405161043d9190612f76565b60405180910390f35b61044e610a77565b60405161045b9190612f91565b60405180910390f35b61047e60048036038101906104799190612901565b610a9b565b005b60066020528060005260406000206000915090505481565b6000600280541415610512576040517f08c379a000000000000000000000000000000000000000000000000000000000815260040180806020018281038252601f8152602001807f5265656e7472616e637947756172643a207265656e7472616e742063616c6c0081525060200191505060405180910390fd5b600280819055506000838381019061052a919061286d565b90506105496000801b6000836000015184602001518560400151610b6f565b91505060016002819055509695505050505050565b60076020528160005260406000206020528060005260406000206000915091509054906101000a900460ff1681565b600060036000838152602001908152602001600020600201549050919050565b6105d460036000848152602001908152602001600020600201546105cf610d24565b610890565b610629576040517f08c379a000000000000000000000000000000000000000000000000000000000815260040180806020018281038252602f81526020018061368a602f913960400191505060405180910390fd5b6106338282610d2c565b5050565b61063f610d24565b73ffffffffffffffffffffffffffffffffffffffff168173ffffffffffffffffffffffffffffffffffffffff16146106c2576040517f08c379a000000000000000000000000000000000000000000000000000000000815260040180806020018281038252602f81526020018061375a602f913960400191505060405180910390fd5b6106cc8282610dc0565b5050565b600860009054906101000a900473ffffffffffffffffffffffffffffffffffffffff1681565b600960009054906101000a900473ffffffffffffffffffffffffffffffffffffffff1681565b6000600280541415610796576040517f08c379a000000000000000000000000000000000000000000000000000000000815260040180806020018281038252601f8152602001807f5265656e7472616e637947756172643a207265656e7472616e742063616c6c0081525060200191505060405180910390fd5b60028081905550600960009054906101000a900473ffffffffffffffffffffffffffffffffffffffff1673ffffffffffffffffffffffffffffffffffffffff163373ffffffffffffffffffffffffffffffffffffffff161461082d576040517f08c379a000000000000000000000000000000000000000000000000000000000815260040161082490613241565b60405180910390fd5b6108468b85846000015185602001518660400151610b6f565b905060016002819055509a9950505050505050505050565b60006108888260036000868152602001908152602001600020600001610e5490919063ffffffff16565b905092915050565b60006108ba8260036000868152602001908152602001600020600001610e6e90919063ffffffff16565b905092915050565b6000801b81565b6000600280541415610943576040517f08c379a000000000000000000000000000000000000000000000000000000000815260040180806020018281038252601f8152602001807f5265656e7472616e637947756172643a207265656e7472616e742063616c6c0081525060200191505060405180910390fd5b6002808190555061095b6000801b6000868686610b6f565b905060016002819055509392505050565b60056020528060005260406000206000915090505481565b600061098f82610e9e565b9050919050565b60006109b660036000848152602001908152602001600020600001610f0e565b9050919050565b6109c8838383610f23565b505050565b6109f460036000848152602001908152602001600020600201546109ef610d24565b610890565b610a49576040517f08c379a00000000000000000000000000000000000000000000000000000000081526004018080602001828103825260308152602001806136df6030913960400191505060405180910390fd5b610a538282610dc0565b5050565b60046020528060005260406000206000915054906101000a900460ff1681565b7f97667070c54ef182b0f5858b034beac1b6f3089aa2d3188bb1e8929f4fa9b92981565b80600760003373ffffffffffffffffffffffffffffffffffffffff1673ffffffffffffffffffffffffffffffffffffffff168152602001908152602001600020600084815260200190815260200160002060006101000a81548160ff021916908315150217905550817f989d275c729b06b9b59c941bcbfa7a97c938bcd10a838e44de01e8afc448e41c82604051610b339190612f76565b60405180910390a25050565b6000610b67836000018373ffffffffffffffffffffffffffffffffffffffff1660001b611150565b905092915050565b6000610b7c8484846111c0565b60008584600001510390506000610bb8612710610baa876020015188600001516112b990919063ffffffff16565b61133f90919063ffffffff16565b90506000818660000151039050808311610c07576040517f08c379a0000000000000000000000000000000000000000000000000000000008152600401610bfe90613281565b60405180910390fd5b610c5a33876060015183600860009054906101000a900473ffffffffffffffffffffffffffffffffffffffff1673ffffffffffffffffffffffffffffffffffffffff166113c8909392919063ffffffff16565b80831115610cb857610cb7338760400151838603600860009054906101000a900473ffffffffffffffffffffffffffffffffffffffff1673ffffffffffffffffffffffffffffffffffffffff166113c8909392919063ffffffff16565b5b86897f88dd4c94bc4d44dee25462a210af7cf41f078bddf13a7db5947807592c17eb93888b8786878a03600560008f60800151815260200190815260200160002054604051610d0c969594939291906132c1565b60405180910390a36001935050505095945050505050565b600033905090565b610d548160036000858152602001908152602001600020600001610b3f90919063ffffffff16565b15610dbc57610d61610d24565b73ffffffffffffffffffffffffffffffffffffffff168173ffffffffffffffffffffffffffffffffffffffff16837f2f8788117e7eff1d82e926ec794901d17c78024a50270940304540a733656f0d60405160405180910390a45b5050565b610de8816003600085815260200190815260200160002060000161148990919063ffffffff16565b15610e5057610df5610d24565b73ffffffffffffffffffffffffffffffffffffffff168173ffffffffffffffffffffffffffffffffffffffff16837ff6391f5c32d9c69d2a47ea670b442974b53935d1edc7fd64eb21e047a839171b60405160405180910390a45b5050565b6000610e6383600001836114b9565b60001c905092915050565b6000610e96836000018373ffffffffffffffffffffffffffffffffffffffff1660001b61153c565b905092915050565b6000600154826000015183602001518460400151856060015186608001518760a001518860c001518960e001518a61010001518b6101200151604051602001610ef19b9a9998979695949392919061302f565b604051602081830303815290604052805190602001209050919050565b6000610f1c8260000161155f565b9050919050565b60076000836060015173ffffffffffffffffffffffffffffffffffffffff1673ffffffffffffffffffffffffffffffffffffffff16815260200190815260200160002060008360800151815260200190815260200160002060009054906101000a900460ff1615610fc9576040517f08c379a0000000000000000000000000000000000000000000000000000000008152600401610fc0906131c1565b60405180910390fd5b6004600084815260200190815260200160002060009054906101000a900460ff161561102a576040517f08c379a0000000000000000000000000000000000000000000000000000000008152600401611021906132a1565b60405180910390fd5b6000600660008460800151815260200190815260200160002054905080836101200151148061105d575080836101200151115b61109c576040517f08c379a000000000000000000000000000000000000000000000000000000000815260040161109390613221565b60405180910390fd5b60006005600085608001518152602001908152602001600020549050600060018111156110c557fe5b8460a0015160018111156110d557fe5b1415611122578360c001518110611121576040517f08c379a000000000000000000000000000000000000000000000000000000000815260040161111890613181565b60405180910390fd5b5b600061112d85610e9e565b9050600061113a86611570565b905061114782828761167d565b50505050505050565b600061115c838361153c565b6111b55782600001829080600181540180825580915050600190039060005260206000200160009091909190915055826000018054905083600101600084815260200190815260200160002081905550600190506111ba565b600090505b92915050565b6111cb838383610f23565b60016004600085815260200190815260200160002060006101000a81548160ff021916908315150217905550600660008360800151815260200190815260200160002054826101200151111561127e5781610120015160066000846080015181526020019081526020016000208190555081608001517f619d9a2b252d58f1ddd737ee3190a3ae4697c1493db50a135d109f04c674f34f8361012001516040516112759190613328565b60405180910390a25b600160056000846080015181526020019081526020016000205401600560008460800151815260200190815260200160002081905550505050565b6000808314156112cc5760009050611339565b60008284029050828482816112dd57fe5b0414611334576040517f08c379a000000000000000000000000000000000000000000000000000000000815260040180806020018281038252602181526020018061370f6021913960400191505060405180910390fd5b809150505b92915050565b60008082116113b6576040517f08c379a000000000000000000000000000000000000000000000000000000000815260040180806020018281038252601a8152602001807f536166654d6174683a206469766973696f6e206279207a65726f00000000000081525060200191505060405180910390fd5b8183816113bf57fe5b04905092915050565b611483846323b872dd60e01b858585604051602401808473ffffffffffffffffffffffffffffffffffffffff1681526020018373ffffffffffffffffffffffffffffffffffffffff1681526020018281526020019350505050604051602081830303815290604052907bffffffffffffffffffffffffffffffffffffffffffffffffffffffff19166020820180517bffffffffffffffffffffffffffffffffffffffffffffffffffffffff8381831617835250505050611956565b50505050565b60006114b1836000018373ffffffffffffffffffffffffffffffffffffffff1660001b611a45565b905092915050565b60008183600001805490501161151a576040517f08c379a00000000000000000000000000000000000000000000000000000000081526004018080602001828103825260228152602001806136686022913960400191505060405180910390fd5b82600001828154811061152957fe5b9060005260206000200154905092915050565b600080836001016000848152602001908152602001600020541415905092915050565b600081600001805490509050919050565b600080600181111561157e57fe5b8260e00151600181111561158e57fe5b14156115a05781606001519050611678565b6001808111156115ac57fe5b8260e0015160018111156115bc57fe5b141561163d576115f17f97667070c54ef182b0f5858b034beac1b6f3089aa2d3188bb1e8929f4fa9b929836101000151610890565b611630576040517f08c379a000000000000000000000000000000000000000000000000000000000815260040161162790613261565b60405180910390fd5b8161010001519050611678565b6040517f08c379a000000000000000000000000000000000000000000000000000000000815260040161166f90613201565b60405180910390fd5b919050565b60008060006060600061168f88611b2d565b905060007f649264926492649264926492649264926492649264926492649264926492649260001b6116c088611bef565b14905080156117ed576000606060006116d88a611c48565b9050808060200190518101906116ee91906124fa565b80985081945082955050505060006117058c611d5b565b51905060008114156117e4576000808573ffffffffffffffffffffffffffffffffffffffff16856040516117399190612f22565b6000604051808303816000865af19150503d8060008114611776576040519150601f19603f3d011682016040523d82523d6000602084013e61177b565b606091505b5091509150816117e157806040516020016117969190612f39565b6040516020818303038152906040526040517f08c379a00000000000000000000000000000000000000000000000000000000081526004016117d8919061311f565b60405180910390fd5b50505b505050506117f1565b8692505b60006117fc89611d5b565b5111156119255760008873ffffffffffffffffffffffffffffffffffffffff16631626ba7e84866040518363ffffffff1660e01b8152600401611840929190612fff565b60206040518083038186803b15801561185857600080fd5b505afa15801561186c573d6000803e3d6000fd5b505050506040513d601f19601f820116820180604052508101906118909190612844565b9050631626ba7e60e01b7bffffffffffffffffffffffffffffffffffffffffffffffffffffffff1916817bffffffffffffffffffffffffffffffffffffffffffffffffffffffff191614611919576040517f08c379a000000000000000000000000000000000000000000000000000000000815260040161191090613161565b60405180910390fd5b50505050505050611951565b6020870151955060408701519450606087015160001a935061194a8883868989611d7f565b5050505050505b505050565b60006119b8826040518060400160405280602081526020017f5361666545524332303a206c6f772d6c6576656c2063616c6c206661696c65648152508573ffffffffffffffffffffffffffffffffffffffff16611ed99092919063ffffffff16565b9050600081511115611a40578080602001905160208110156119d957600080fd5b8101908080519060200190929190505050611a3f576040517f08c379a000000000000000000000000000000000000000000000000000000000815260040180806020018281038252602a815260200180613730602a913960400191505060405180910390fd5b5b505050565b60008083600101600084815260200190815260200160002054905060008114611b215760006001820390506000600186600001805490500390506000866000018281548110611a9057fe5b9060005260206000200154905080876000018481548110611aad57fe5b9060005260206000200181905550600183018760010160008381526020019081526020016000208190555086600001805480611ae557fe5b60019003818190600052602060002001600090559055866001016000878152602001908152602001600020600090556001945050505050611b27565b60009150505b92915050565b600080611bb56000546040518060400160405280601481526020017f5061796d656e74496e74656e7448616e646c6572000000000000000000000000815250805190602001206040518060400160405280600181526020017f310000000000000000000000000000000000000000000000000000000000000081525080519060200120611ef1565b905061190160f01b8184604051602001611bd193929190612ee5565b60405160208183030381529060405280519060200120915050919050565b6000602082511015611c36576040517f08c379a0000000000000000000000000000000000000000000000000000000008152600401611c2d906131e1565b60405180910390fd5b60208251036020018201519050919050565b60606020825111611c8e576040517f08c379a0000000000000000000000000000000000000000000000000000000008152600401611c8590613141565b60405180910390fd5b60006020835103905060008167ffffffffffffffff81118015611cb057600080fd5b506040519080825280601f01601f191660200182016040528015611ce35781602001600182028036833780820191505090505b50905060005b82811015611d5057848181518110611cfd57fe5b602001015160f81c60f81b828281518110611d1457fe5b60200101907effffffffffffffffffffffffffffffffffffffffffffffffffffffffffffff1916908160001a9053508080600101915050611ce9565b508092505050919050565b6060813b604051915080825280600060208401853c60208101820160405250919050565b601b8360ff1614158015611d975750601c8360ff1614155b15611dd7576040517f08c379a0000000000000000000000000000000000000000000000000000000008152600401611dce906131a1565b60405180910390fd5b600060018585858560405160008152602001604052604051611dfc94939291906130da565b6020604051602081039080840390855afa158015611e1e573d6000803e3d6000fd5b505050602060405103519050600073ffffffffffffffffffffffffffffffffffffffff168173ffffffffffffffffffffffffffffffffffffffff161480611e9157508073ffffffffffffffffffffffffffffffffffffffff168673ffffffffffffffffffffffffffffffffffffffff1614155b15611ed1576040517f08c379a0000000000000000000000000000000000000000000000000000000008152600401611ec890613161565b60405180910390fd5b505050505050565b6060611ee88484600085611f30565b90509392505050565b6000804690508484848330604051602001611f10959493929190612fac565b604051602081830303815290604052805190602001209150509392505050565b606082471015611f8b576040517f08c379a00000000000000000000000000000000000000000000000000000000081526004018080602001828103825260268152602001806136b96026913960400191505060405180910390fd5b611f94856120d8565b612006576040517f08c379a000000000000000000000000000000000000000000000000000000000815260040180806020018281038252601d8152602001807f416464726573733a2063616c6c20746f206e6f6e2d636f6e747261637400000081525060200191505060405180910390fd5b6000808673ffffffffffffffffffffffffffffffffffffffff1685876040518082805190602001908083835b602083106120555780518252602082019150602081019050602083039250612032565b6001836020036101000a03801982511681845116808217855250505050505090500191505060006040518083038185875af1925050503d80600081146120b7576040519150601f19603f3d011682016040523d82523d6000602084013e6120bc565b606091505b50915091506120cc8282866120eb565b92505050949350505050565b600080823b905060008111915050919050565b606083156120fb578290506121b0565b60008351111561210e5782518084602001fd5b816040517f08c379a00000000000000000000000000000000000000000000000000000000081526004018080602001828103825283818151815260200191508051906020019080838360005b8381101561217557808201518184015260208101905061215a565b50505050905090810190601f1680156121a25780820380516001836020036101000a031916815260200191505b509250505060405180910390fd5b9392505050565b60006121ca6121c584613374565b613343565b9050828152602081018484840111156121e257600080fd5b6121ed848285613515565b509392505050565b600061220861220384613374565b613343565b90508281526020810184848401111561222057600080fd5b61222b848285613524565b509392505050565b600081359050612242816135a6565b92915050565b600081519050612257816135bd565b92915050565b60008135905061226c816135d4565b92915050565b600081359050612281816135eb565b92915050565b60008151905061229681613602565b92915050565b60008083601f8401126122ae57600080fd5b8235905067ffffffffffffffff8111156122c757600080fd5b6020830191508360018202830111156122df57600080fd5b9250929050565b600082601f8301126122f757600080fd5b81356123078482602086016121b7565b91505092915050565b600082601f83011261232157600080fd5b81516123318482602086016121f5565b91505092915050565b60008135905061234981613619565b92915050565b60008135905061235e81613629565b92915050565b6000610180828403121561237757600080fd5b6123816060613343565b9050600061239184828501612272565b60008301525060206123a5848285016123de565b60208301525061016082013567ffffffffffffffff8111156123c657600080fd5b6123d2848285016122e6565b60408301525092915050565b600061014082840312156123f157600080fd5b6123fc610140613343565b9050600061240c848285016124d0565b6000830152506020612420848285016124d0565b602083015250604061243484828501612233565b604083015250606061244884828501612233565b606083015250608061245c848285016124d0565b60808301525060a06124708482850161233a565b60a08301525060c0612484848285016124d0565b60c08301525060e06124988482850161234f565b60e0830152506101006124ad84828501612233565b610100830152506101206124c3848285016124d0565b6101208301525092915050565b6000813590506124df81613639565b92915050565b6000813590506124f481613650565b92915050565b60008060006060848603121561250f57600080fd5b600061251d86828701612248565b935050602084015167ffffffffffffffff81111561253a57600080fd5b61254686828701612310565b925050604084015167ffffffffffffffff81111561256357600080fd5b61256f86828701612310565b9150509250925092565b60008060008060008060a0878903121561259257600080fd5b60006125a089828a01612233565b96505060206125b189828a01612233565b95505060406125c289828a016124d0565b94505060606125d389828a016124d0565b935050608087013567ffffffffffffffff8111156125f057600080fd5b6125fc89828a0161229c565b92509250509295509295509295565b6000806040838503121561261e57600080fd5b600061262c85828601612233565b925050602061263d858286016124d0565b9150509250929050565b60006020828403121561265957600080fd5b600061266784828501612272565b91505092915050565b6000806040838503121561268357600080fd5b600061269185828601612272565b92505060206126a285828601612233565b9150509250929050565b600080600061018084860312156126c257600080fd5b60006126d086828701612272565b93505060206126e1868287016123de565b92505061016084013567ffffffffffffffff8111156126ff57600080fd5b61270b868287016122e6565b9150509250925092565b6000806040838503121561272857600080fd5b600061273685828601612272565b9250506020612747858286016124d0565b9150509250929050565b6000806000806000806000806000806101408b8d03121561277157600080fd5b600061277f8d828e01612272565b9a505060206127908d828e016124e5565b99505060406127a18d828e01612272565b98505060606127b28d828e01612272565b97505060806127c38d828e016124d0565b96505060a06127d48d828e01612272565b95505060c06127e58d828e016124d0565b94505060e06127f68d828e016124d0565b9350506101006128088d828e016124d0565b9250506101208b013567ffffffffffffffff81111561282657600080fd5b6128328d828e01612364565b9150509295989b9194979a5092959850565b60006020828403121561285657600080fd5b600061286484828501612287565b91505092915050565b60006020828403121561287f57600080fd5b600082013567ffffffffffffffff81111561289957600080fd5b6128a584828501612364565b91505092915050565b600061014082840312156128c157600080fd5b60006128cf848285016123de565b91505092915050565b6000602082840312156128ea57600080fd5b60006128f8848285016124d0565b91505092915050565b6000806040838503121561291457600080fd5b6000612922858286016124d0565b92505060206129338582860161225d565b9150509250929050565b612946816133f2565b82525050565b612955816133f2565b82525050565b61296481613416565b82525050565b61297b61297682613422565b613557565b82525050565b61298a8161344e565b82525050565b6129a161299c8261344e565b613561565b82525050565b60006129b2826133a4565b6129bc81856133ba565b93506129cc818560208601613524565b6129d58161356d565b840191505092915050565b60006129eb826133a4565b6129f581856133cb565b9350612a05818560208601613524565b80840191505092915050565b612a1a816134f1565b82525050565b612a29816134f1565b82525050565b612a3881613503565b82525050565b612a4781613503565b82525050565b6000612a58826133af565b612a6281856133d6565b9350612a72818560208601613524565b612a7b8161356d565b840191505092915050565b6000612a936023836133d6565b91507f5369676e617475726520746f6f2073686f727420666f7220363439322073756660008301527f66697800000000000000000000000000000000000000000000000000000000006020830152604082019050919050565b6000612af96010836133d6565b91507f496e76616c69645369676e6174757265000000000000000000000000000000006000830152602082019050919050565b6000612b396015836133d6565b91507f5175616e7469747920616c7265616479207573656400000000000000000000006000830152602082019050919050565b6000612b796011836133d6565b91507f496e76616c696456506172616d657465720000000000000000000000000000006000830152602082019050919050565b6000612bb96012836133d6565b91507f496e74656e7420646561637469766174656400000000000000000000000000006000830152602082019050919050565b6000612bf96013836133d6565b91507f5369676e617475726520746f6f2073686f7274000000000000000000000000006000830152602082019050919050565b6000612c396015836133e7565b91507f455243363439324465706c6f794661696c65643a2000000000000000000000006000830152601582019050919050565b6000612c796013836133d6565b91507f496e76616c6964207369676e65722074797065000000000000000000000000006000830152602082019050919050565b6000612cb96016836133d6565b91507f5573696e67206f6c6420696e74656e74206e6f6e6365000000000000000000006000830152602082019050919050565b6000612cf9601d836133d6565b91507f4f6e6c792063616c6c61626c6520627920686f6f6b20777261707065720000006000830152602082019050919050565b6000612d396010836133d6565b91507f496e76616c6964206f70657261746f72000000000000000000000000000000006000830152602082019050919050565b6000612d796012836133d6565b91507f556e64657266756e64656420696e74656e7400000000000000000000000000006000830152602082019050919050565b6000612db96015836133d6565b91507f4f7264657220494420616c7265616479207573656400000000000000000000006000830152602082019050919050565b61014082016000820151612e036000850182612eb8565b506020820151612e166020850182612eb8565b506040820151612e29604085018261293d565b506060820151612e3c606085018261293d565b506080820151612e4f6080850182612eb8565b5060a0820151612e6260a0850182612a11565b5060c0820151612e7560c0850182612eb8565b5060e0820151612e8860e0850182612a2f565b50610100820151612e9d61010085018261293d565b50610120820151612eb2610120850182612eb8565b50505050565b612ec1816134ca565b82525050565b612ed0816134ca565b82525050565b612edf816134e4565b82525050565b6000612ef1828661296a565b600282019150612f018285612990565b602082019150612f118284612990565b602082019150819050949350505050565b6000612f2e82846129e0565b915081905092915050565b6000612f4482612c2c565b9150612f5082846129e0565b915081905092915050565b6000602082019050612f70600083018461294c565b92915050565b6000602082019050612f8b600083018461295b565b92915050565b6000602082019050612fa66000830184612981565b92915050565b600060a082019050612fc16000830188612981565b612fce6020830187612981565b612fdb6040830186612981565b612fe86060830185612ec7565b612ff5608083018461294c565b9695505050505050565b60006040820190506130146000830185612981565b818103602083015261302681846129a7565b90509392505050565b600061016082019050613045600083018e612981565b613052602083018d612ec7565b61305f604083018c612ec7565b61306c606083018b61294c565b613079608083018a61294c565b61308660a0830189612ec7565b61309360c0830188612a20565b6130a060e0830187612ec7565b6130ae610100830186612a3e565b6130bc61012083018561294c565b6130ca610140830184612ec7565b9c9b505050505050505050505050565b60006080820190506130ef6000830187612981565b6130fc6020830186612ed6565b6131096040830185612981565b6131166060830184612981565b95945050505050565b600060208201905081810360008301526131398184612a4d565b905092915050565b6000602082019050818103600083015261315a81612a86565b9050919050565b6000602082019050818103600083015261317a81612aec565b9050919050565b6000602082019050818103600083015261319a81612b2c565b9050919050565b600060208201905081810360008301526131ba81612b6c565b9050919050565b600060208201905081810360008301526131da81612bac565b9050919050565b600060208201905081810360008301526131fa81612bec565b9050919050565b6000602082019050818103600083015261321a81612c6c565b9050919050565b6000602082019050818103600083015261323a81612cac565b9050919050565b6000602082019050818103600083015261325a81612cec565b9050919050565b6000602082019050818103600083015261327a81612d2c565b9050919050565b6000602082019050818103600083015261329a81612d6c565b9050919050565b600060208201905081810360008301526132ba81612dac565b9050919050565b60006101e0820190506132d76000830189612dec565b6132e5610140830188612ec7565b6132f3610160830187612ec7565b613301610180830186612ec7565b61330f6101a0830185612ec7565b61331d6101c0830184612ec7565b979650505050505050565b600060208201905061333d6000830184612ec7565b92915050565b6000604051905081810181811067ffffffffffffffff8211171561336a5761336961356b565b5b8060405250919050565b600067ffffffffffffffff82111561338f5761338e61356b565b5b601f19601f8301169050602081019050919050565b600081519050919050565b600081519050919050565b600082825260208201905092915050565b600081905092915050565b600082825260208201905092915050565b600081905092915050565b60006133fd826134aa565b9050919050565b600061340f826134aa565b9050919050565b60008115159050919050565b60007fffff00000000000000000000000000000000000000000000000000000000000082169050919050565b6000819050919050565b60007fffffffff0000000000000000000000000000000000000000000000000000000082169050919050565b60008190506134928261357e565b919050565b60008190506134a582613592565b919050565b600073ffffffffffffffffffffffffffffffffffffffff82169050919050565b6000819050919050565b600063ffffffff82169050919050565b600060ff82169050919050565b60006134fc82613484565b9050919050565b600061350e82613497565b9050919050565b82818337600083830152505050565b60005b83811015613542578082015181840152602081019050613527565b83811115613551576000848401525b50505050565b6000819050919050565b6000819050919050565bfe5b6000601f19601f8301169050919050565b6002811061358f5761358e61356b565b5b50565b600281106135a3576135a261356b565b5b50565b6135af816133f2565b81146135ba57600080fd5b50565b6135c681613404565b81146135d157600080fd5b50565b6135dd81613416565b81146135e857600080fd5b50565b6135f48161344e565b81146135ff57600080fd5b50565b61360b81613458565b811461361657600080fd5b50565b6002811061362657600080fd5b50565b6002811061363657600080fd5b50565b613642816134ca565b811461364d57600080fd5b50565b613659816134d4565b811461366457600080fd5b5056fe456e756d657261626c655365743a20696e646578206f7574206f6620626f756e6473416363657373436f6e74726f6c3a2073656e646572206d75737420626520616e2061646d696e20746f206772616e74416464726573733a20696e73756666696369656e742062616c616e636520666f722063616c6c416363657373436f6e74726f6c3a2073656e646572206d75737420626520616e2061646d696e20746f207265766f6b65536166654d6174683a206d756c7469706c69636174696f6e206f766572666c6f775361666545524332303a204552433230206f7065726174696f6e20646964206e6f742073756363656564416363657373436f6e74726f6c3a2063616e206f6e6c792072656e6f756e636520726f6c657320666f722073656c66a2646970667358221220b100b6184133f2f7fb05f0cbfb38b0d17b8b0b7e84baf96798c750145287426064736f6c63430007060033",
  "linkReferences": {},
  "deployedLinkReferences": {}
}