{
  "_format": "hh-sol-artifact-1",
  "contractName": "PaymentIntentHandlerV3",
  "sourceName": "contracts/v3/PaymentIntentHandlerV3.sol",
  "abi": [
    {
      "inputs": [
        {
          "internalType": "address",
          "name": "_usdc",
          "type": "address"
        },
        {
          "internalType": "address",
          "name": "_hookWrapper",
          "type": "address"
        }
      ],
      "stateMutability": "nonpayable",
      "type": "constructor"
    },
    {
      "anonymous": false,
      "inputs": [
        {
          "indexed": false,
          "internalType": "uint256",
          "name": "amount",
          "type": "uint256"
        },
        {
          "indexed": false,
          "internalType": "uint32",
          "name": "destinationDomain",
          "type": "uint32"
        },
        {
          "indexed": false,
          "internalType": "bytes32",
          "name": "mintRecipient",
          "type": "bytes32"
        },
        {
          "indexed": false,
          "internalType": "address",
          "name": "burnToken",
          "type": "address"
        },
        {
          "indexed": false,
          "internalType": "bytes32",
          "name": "destinationCaller",
          "type": "bytes32"
        },
        {
          "indexed": false,
          "internalType": "uint256",
          "name": "maxFee",
          "type": "uint256"
        },
        {
          "indexed": false,
          "internalType": "uint32",
          "name": "minFinalityThreshold",
          "type": "uint32"
        },
        {
          "indexed": false,
          "internalType": "bytes",
          "name": "hookData",
          "type": "bytes"
        }
      ],
      "name": "BurnHookExecuted",
      "type": "event"
    },
    {
      "anonymous": false,
      "inputs": [
        {
          "indexed": false,
          "internalType": "address",
          "name": "to",
          "type": "address"
        },
        {
          "indexed": false,
          "internalType": "uint256",
          "name": "amount",
          "type": "uint256"
        }
      ],
      "name": "EmergencyRecovery",
      "type": "event"
    },
    {
      "anonymous": false,
      "inputs": [
        {
          "indexed": true,
          "internalType": "bytes32",
          "name": "nonce",
          "type": "bytes32"
        },
        {
          "indexed": false,
          "internalType": "string",
          "name": "reason",
          "type": "string"
        }
      ],
      "name": "PaymentIntentFailed",
      "type": "event"
    },
    {
      "anonymous": false,
      "inputs": [
        {
          "indexed": true,
          "internalType": "uint256",
          "name": "salt",
          "type": "uint256"
        },
        {
          "indexed": false,
          "internalType": "uint256",
          "name": "nonce",
          "type": "uint256"
        }
      ],
      "name": "PaymentIntentNonceUpdated",
      "type": "event"
    },
    {
      "anonymous": false,
      "inputs": [
        {
          "indexed": true,
          "internalType": "bytes32",
          "name": "consumptionNonce",
          "type": "bytes32"
        },
        {
          "components": [
            {
              "internalType": "uint256",
              "name": "amount",
              "type": "uint256"
            },
            {
              "internalType": "uint256",
              "name": "feeBps",
              "type": "uint256"
            },
            {
              "internalType": "address",
              "name": "feeRecipient",
              "type": "address"
            },
            {
              "internalType": "address",
              "name": "merchant",
              "type": "address"
            },
            {
              "internalType": "uint256",
              "name": "salt",
              "type": "uint256"
            },
            {
              "internalType": "enum QuantityType",
              "name": "quantityType",
              "type": "uint8"
            },
            {
              "internalType": "uint256",
              "name": "quantity",
              "type": "uint256"
            },
            {
              "internalType": "uint256",
              "name": "nonce",
              "type": "uint256"
            },
            {
              "internalType": "enum SignerType",
              "name": "signerType",
              "type": "uint8"
            },
            {
              "internalType": "address",
              "name": "signer",
              "type": "address"
            }
          ],
          "indexed": false,
          "internalType": "struct PaymentIntent",
          "name": "intent",
          "type": "tuple"
        },
        {
          "indexed": false,
          "internalType": "uint256",
          "name": "feeExecuted",
          "type": "uint256"
        },
        {
          "indexed": false,
          "internalType": "uint256",
          "name": "netMinted",
          "type": "uint256"
        },
        {
          "indexed": false,
          "internalType": "uint256",
          "name": "netPayable",
          "type": "uint256"
        },
        {
          "indexed": false,
          "internalType": "uint256",
          "name": "netFee",
          "type": "uint256"
        },
        {
          "indexed": false,
          "internalType": "uint256",
          "name": "quantityUsed",
          "type": "uint256"
        }
      ],
      "name": "PaymentIntentSuccess",
      "type": "event"
    },
    {
      "anonymous": false,
      "inputs": [
        {
          "indexed": true,
          "internalType": "bytes32",
          "name": "role",
          "type": "bytes32"
        },
        {
          "indexed": true,
          "internalType": "bytes32",
          "name": "previousAdminRole",
          "type": "bytes32"
        },
        {
          "indexed": true,
          "internalType": "bytes32",
          "name": "newAdminRole",
          "type": "bytes32"
        }
      ],
      "name": "RoleAdminChanged",
      "type": "event"
    },
    {
      "anonymous": false,
      "inputs": [
        {
          "indexed": true,
          "internalType": "bytes32",
          "name": "role",
          "type": "bytes32"
        },
        {
          "indexed": true,
          "internalType": "address",
          "name": "account",
          "type": "address"
        },
        {
          "indexed": true,
          "internalType": "address",
          "name": "sender",
          "type": "address"
        }
      ],
      "name": "RoleGranted",
      "type": "event"
    },
    {
      "anonymous": false,
      "inputs": [
        {
          "indexed": true,
          "internalType": "bytes32",
          "name": "role",
          "type": "bytes32"
        },
        {
          "indexed": true,
          "internalType": "address",
          "name": "account",
          "type": "address"
        },
        {
          "indexed": true,
          "internalType": "address",
          "name": "sender",
          "type": "address"
        }
      ],
      "name": "RoleRevoked",
      "type": "event"
    },
    {
      "inputs": [],
      "name": "DEFAULT_ADMIN_ROLE",
      "outputs": [
        {
          "internalType": "bytes32",
          "name": "",
          "type": "bytes32"
        }
      ],
      "stateMutability": "view",
      "type": "function"
    },
    {
      "inputs": [],
      "name": "OPERATOR_ROLE",
      "outputs": [
        {
          "internalType": "bytes32",
          "name": "",
          "type": "bytes32"
        }
      ],
      "stateMutability": "view",
      "type": "function"
    },
    {
      "inputs": [],
      "name": "RECOVER_ROLE",
      "outputs": [
        {
          "internalType": "bytes32",
          "name": "",
          "type": "bytes32"
        }
      ],
      "stateMutability": "view",
      "type": "function"
    },
    {
      "inputs": [
        {
          "internalType": "bytes32",
          "name": "_nonce",
          "type": "bytes32"
        },
        {
          "internalType": "uint256",
          "name": "_amount",
          "type": "uint256"
        },
        {
          "internalType": "uint256",
          "name": "_feeExecuted",
          "type": "uint256"
        },
        {
          "internalType": "bytes",
          "name": "_structData",
          "type": "bytes"
        }
      ],
      "name": "_executeHook",
      "outputs": [
        {
          "internalType": "bool",
          "name": "",
          "type": "bool"
        }
      ],
      "stateMutability": "nonpayable",
      "type": "function"
    },
    {
      "inputs": [
        {
          "internalType": "address",
          "name": "",
          "type": "address"
        },
        {
          "internalType": "uint256",
          "name": "",
          "type": "uint256"
        }
      ],
      "name": "deactivated",
      "outputs": [
        {
          "internalType": "bool",
          "name": "",
          "type": "bool"
        }
      ],
      "stateMutability": "view",
      "type": "function"
    },
    {
      "inputs": [
        {
          "internalType": "address",
          "name": "to",
          "type": "address"
        }
      ],
      "name": "emergencyRecover",
      "outputs": [],
      "stateMutability": "nonpayable",
      "type": "function"
    },
    {
      "inputs": [
        {
          "internalType": "bytes32",
          "name": "_nonce",
          "type": "bytes32"
        },
        {
          "internalType": "address",
          "name": "_to",
          "type": "address"
        }
      ],
      "name": "emergencyRecoverNonceMint",
      "outputs": [],
      "stateMutability": "nonpayable",
      "type": "function"
    },
    {
      "inputs": [
        {
          "internalType": "bytes32",
          "name": "_nonce",
          "type": "bytes32"
        },
        {
          "internalType": "uint32",
          "name": "",
          "type": "uint32"
        },
        {
          "internalType": "bytes32",
          "name": "",
          "type": "bytes32"
        },
        {
          "internalType": "bytes32",
          "name": "",
          "type": "bytes32"
        },
        {
          "internalType": "uint256",
          "name": "_amount",
          "type": "uint256"
        },
        {
          "internalType": "bytes32",
          "name": "",
          "type": "bytes32"
        },
        {
          "internalType": "uint256",
          "name": "",
          "type": "uint256"
        },
        {
          "internalType": "uint256",
          "name": "_feeExecuted",
          "type": "uint256"
        },
        {
          "internalType": "uint256",
          "name": "",
          "type": "uint256"
        },
        {
          "internalType": "bytes",
          "name": "_structData",
          "type": "bytes"
        }
      ],
      "name": "executePaymentHook",
      "outputs": [
        {
          "internalType": "bool",
          "name": "",
          "type": "bool"
        }
      ],
      "stateMutability": "nonpayable",
      "type": "function"
    },
    {
      "inputs": [
        {
          "internalType": "address",
          "name": "",
          "type": "address"
        },
        {
          "internalType": "address",
          "name": "",
          "type": "address"
        },
        {
          "internalType": "uint256",
          "name": "",
          "type": "uint256"
        },
        {
          "internalType": "uint256",
          "name": "",
          "type": "uint256"
        },
        {
          "internalType": "bytes",
          "name": "_structData",
          "type": "bytes"
        }
      ],
      "name": "executeSwapHook",
      "outputs": [
        {
          "internalType": "bool",
          "name": "",
          "type": "bool"
        }
      ],
      "stateMutability": "nonpayable",
      "type": "function"
    },
    {
      "inputs": [
        {
          "internalType": "bytes32",
          "name": "role",
          "type": "bytes32"
        }
      ],
      "name": "getRoleAdmin",
      "outputs": [
        {
          "internalType": "bytes32",
          "name": "",
          "type": "bytes32"
        }
      ],
      "stateMutability": "view",
      "type": "function"
    },
    {
      "inputs": [
        {
          "internalType": "bytes32",
          "name": "role",
          "type": "bytes32"
        },
        {
          "internalType": "uint256",
          "name": "index",
          "type": "uint256"
        }
      ],
      "name": "getRoleMember",
      "outputs": [
        {
          "internalType": "address",
          "name": "",
          "type": "address"
        }
      ],
      "stateMutability": "view",
      "type": "function"
    },
    {
      "inputs": [
        {
          "internalType": "bytes32",
          "name": "role",
          "type": "bytes32"
        }
      ],
      "name": "getRoleMemberCount",
      "outputs": [
        {
          "internalType": "uint256",
          "name": "",
          "type": "uint256"
        }
      ],
      "stateMutability": "view",
      "type": "function"
    },
    {
      "inputs": [
        {
          "internalType": "bytes32",
          "name": "role",
          "type": "bytes32"
        },
        {
          "internalType": "address",
          "name": "account",
          "type": "address"
        }
      ],
      "name": "grantRole",
      "outputs": [],
      "stateMutability": "nonpayable",
      "type": "function"
    },
    {
      "inputs": [
        {
          "internalType": "bytes32",
          "name": "role",
          "type": "bytes32"
        },
        {
          "internalType": "address",
          "name": "account",
          "type": "address"
        }
      ],
      "name": "hasRole",
      "outputs": [
        {
          "internalType": "bool",
          "name": "",
          "type": "bool"
        }
      ],
      "stateMutability": "view",
      "type": "function"
    },
    {
      "inputs": [
        {
          "components": [
            {
              "internalType": "uint256",
              "name": "amount",
              "type": "uint256"
            },
            {
              "internalType": "uint256",
              "name": "feeBps",
              "type": "uint256"
            },
            {
              "internalType": "address",
              "name": "feeRecipient",
              "type": "address"
            },
            {
              "internalType": "address",
              "name": "merchant",
              "type": "address"
            },
            {
              "internalType": "uint256",
              "name": "salt",
              "type": "uint256"
            },
            {
              "internalType": "enum QuantityType",
              "name": "quantityType",
              "type": "uint8"
            },
            {
              "internalType": "uint256",
              "name": "quantity",
              "type": "uint256"
            },
            {
              "internalType": "uint256",
              "name": "nonce",
              "type": "uint256"
            },
            {
              "internalType": "enum SignerType",
              "name": "signerType",
              "type": "uint8"
            },
            {
              "internalType": "address",
              "name": "signer",
              "type": "address"
            }
          ],
          "internalType": "struct PaymentIntent",
          "name": "intent",
          "type": "tuple"
        }
      ],
      "name": "hashPaymentIntent",
      "outputs": [
        {
          "internalType": "bytes32",
          "name": "",
          "type": "bytes32"
        }
      ],
      "stateMutability": "view",
      "type": "function"
    },
    {
      "inputs": [],
      "name": "hookWrapper",
      "outputs": [
        {
          "internalType": "address",
          "name": "",
          "type": "address"
        }
      ],
      "stateMutability": "view",
      "type": "function"
    },
    {
      "inputs": [
        {
          "internalType": "uint256",
          "name": "",
          "type": "uint256"
        }
      ],
      "name": "intentNonces",
      "outputs": [
        {
          "internalType": "uint256",
          "name": "",
          "type": "uint256"
        }
      ],
      "stateMutability": "view",
      "type": "function"
    },
    {
      "inputs": [
        {
          "components": [
            {
              "internalType": "uint256",
              "name": "amount",
              "type": "uint256"
            },
            {
              "internalType": "uint256",
              "name": "feeBps",
              "type": "uint256"
            },
            {
              "internalType": "address",
              "name": "feeRecipient",
              "type": "address"
            },
            {
              "internalType": "address",
              "name": "merchant",
              "type": "address"
            },
            {
              "internalType": "uint256",
              "name": "salt",
              "type": "uint256"
            },
            {
              "internalType": "enum QuantityType",
              "name": "quantityType",
              "type": "uint8"
            },
            {
              "internalType": "uint256",
              "name": "quantity",
              "type": "uint256"
            },
            {
              "internalType": "uint256",
              "name": "nonce",
              "type": "uint256"
            },
            {
              "internalType": "enum SignerType",
              "name": "signerType",
              "type": "uint8"
            },
            {
              "internalType": "address",
              "name": "signer",
              "type": "address"
            }
          ],
          "internalType": "struct PaymentIntent",
          "name": "_intent",
          "type": "tuple"
        },
        {
          "internalType": "bytes",
          "name": "_signature",
          "type": "bytes"
        }
      ],
      "name": "localExecuteHook",
      "outputs": [
        {
          "internalType": "bool",
          "name": "",
          "type": "bool"
        }
      ],
      "stateMutability": "nonpayable",
      "type": "function"
    },
    {
      "inputs": [
        {
          "internalType": "bytes32",
          "name": "",
          "type": "bytes32"
        }
      ],
      "name": "receivedMints",
      "outputs": [
        {
          "internalType": "uint256",
          "name": "",
          "type": "uint256"
        }
      ],
      "stateMutability": "view",
      "type": "function"
    },
    {
      "inputs": [
        {
          "internalType": "bytes32",
          "name": "role",
          "type": "bytes32"
        },
        {
          "internalType": "address",
          "name": "account",
          "type": "address"
        }
      ],
      "name": "renounceRole",
      "outputs": [],
      "stateMutability": "nonpayable",
      "type": "function"
    },
    {
      "inputs": [
        {
          "internalType": "bytes32",
          "name": "role",
          "type": "bytes32"
        },
        {
          "internalType": "address",
          "name": "account",
          "type": "address"
        }
      ],
      "name": "revokeRole",
      "outputs": [],
      "stateMutability": "nonpayable",
      "type": "function"
    },
    {
      "inputs": [
        {
          "internalType": "uint256",
          "name": "_salt",
          "type": "uint256"
        },
        {
          "internalType": "bool",
          "name": "_deactivate",
          "type": "bool"
        }
      ],
      "name": "toggleDeactivate",
      "outputs": [],
      "stateMutability": "nonpayable",
      "type": "function"
    },
    {
      "inputs": [
        {
          "internalType": "uint256",
          "name": "",
          "type": "uint256"
        }
      ],
      "name": "usages",
      "outputs": [
        {
          "internalType": "uint256",
          "name": "",
          "type": "uint256"
        }
      ],
      "stateMutability": "view",
      "type": "function"
    },
    {
      "inputs": [],
      "name": "usdc",
      "outputs": [
        {
          "internalType": "address",
          "name": "",
          "type": "address"
        }
      ],
      "stateMutability": "view",
      "type": "function"
    },
    {
      "inputs": [
        {
          "components": [
            {
              "internalType": "uint256",
              "name": "amount",
              "type": "uint256"
            },
            {
              "internalType": "uint256",
              "name": "feeBps",
              "type": "uint256"
            },
            {
              "internalType": "address",
              "name": "feeRecipient",
              "type": "address"
            },
            {
              "internalType": "address",
              "name": "merchant",
              "type": "address"
            },
            {
              "internalType": "uint256",
              "name": "salt",
              "type": "uint256"
            },
            {
              "internalType": "enum QuantityType",
              "name": "quantityType",
              "type": "uint8"
            },
            {
              "internalType": "uint256",
              "name": "quantity",
              "type": "uint256"
            },
            {
              "internalType": "uint256",
              "name": "nonce",
              "type": "uint256"
            },
            {
              "internalType": "enum SignerType",
              "name": "signerType",
              "type": "uint8"
            },
            {
              "internalType": "address",
              "name": "signer",
              "type": "address"
            }
          ],
          "internalType": "struct PaymentIntent",
          "name": "_intent",
          "type": "tuple"
        },
        {
          "internalType": "bytes",
          "name": "_signature",
          "type": "bytes"
        },
        {
          "internalType": "uint256",
          "name": "amount",
          "type": "uint256"
        }
      ],
      "name": "validateIntent",
      "outputs": [
        {
          "internalType": "bool",
          "name": "",
          "type": "bool"
        }
      ],
      "stateMutability": "nonpayable",
      "type": "function"
    }
  ],
  "bytecode": "0x60806040523480156200001157600080fd5b506040516200553138038062005531833981810160405281019062000037919062000426565b620000476200021960201b60201c565b600080600160008491905055839190505550506001600281905550600073ffffffffffffffffffffffffffffffffffffffff168273ffffffffffffffffffffffffffffffffffffffff161415620000d5576040517f08c379a0000000000000000000000000000000000000000000000000000000008152600401620000cc9062000a6d565b60405180910390fd5b600073ffffffffffffffffffffffffffffffffffffffff168173ffffffffffffffffffffffffffffffffffffffff16141562000148576040517f08c379a00000000000000000000000000000000000000000000000000000000081526004016200013f9062000a4b565b60405180910390fd5b81600860006101000a81548173ffffffffffffffffffffffffffffffffffffffff021916908373ffffffffffffffffffffffffffffffffffffffff16021790555080600960006101000a81548173ffffffffffffffffffffffffffffffffffffffff021916908373ffffffffffffffffffffffffffffffffffffffff160217905550620001df6000801b336200027860201b60201c565b620002117f62b337eaefec74dadf1a62e856bf9db4f14a0f27d4f48156a95a9f98e7d5e066336200027860201b60201c565b505062000af9565b6000806040516020016200022d90620009f3565b604051602081830303815290604052805190602001209150600060405160200162000258906200094d565b604051602081830303815290604052905080805190602001209150509091565b6200028a82826200028e60201b60201c565b5050565b620002bd81600360008581526020019081526020016000206000016200033260201b620015d41790919060201c565b156200032e57620002d36200036a60201b60201c565b73ffffffffffffffffffffffffffffffffffffffff168173ffffffffffffffffffffffffffffffffffffffff16837f2f8788117e7eff1d82e926ec794901d17c78024a50270940304540a733656f0d60405160405180910390a45b5050565b600062000362836000018373ffffffffffffffffffffffffffffffffffffffff1660001b6200037260201b60201c565b905092915050565b600033905090565b6000620003868383620003ec60201b60201c565b620003e1578260000182908060018154018082558091505060019003906000526020600020016000909190919091505582600001805490508360010160008481526020019081526020016000208190555060019050620003e6565b600090505b92915050565b600080836001016000848152602001908152602001600020541415905092915050565b600081519050620004208162000adf565b92915050565b600080604083850312156200043a57600080fd5b60006200044a858286016200040f565b92505060206200045d858286016200040f565b9150509250929050565b600062000476600c8362000aa0565b91507f737472696e67206e616d652c00000000000000000000000000000000000000006000830152600c82019050919050565b6000620004b8600f8362000aa0565b91507f75696e7432353620616d6f756e742c00000000000000000000000000000000006000830152600f82019050919050565b6000620004fa60118362000aa0565b91507f75696e74323536207175616e746974792c0000000000000000000000000000006000830152601182019050919050565b60006200053c60198362000aa0565b91507f6164647265737320766572696679696e67436f6e7472616374000000000000006000830152601982019050919050565b60006200057e60108362000aa0565b91507f75696e7432353620636861696e49642c000000000000000000000000000000006000830152601082019050919050565b6000620005c0601c8362000a8f565b91507f496e76616c696420686f6f6b20777261707065722061646472657373000000006000830152602082019050919050565b60006200060260118362000aa0565b91507f61646472657373206d65726368616e742c0000000000000000000000000000006000830152601182019050919050565b600062000644600d8362000aa0565b91507f75696e74323536206e6f6e6365000000000000000000000000000000000000006000830152600d82019050919050565b60006200068660018362000aa0565b91507f29000000000000000000000000000000000000000000000000000000000000006000830152600182019050919050565b6000620006c8600f8362000aa0565b91507f737472696e672076657273696f6e2c00000000000000000000000000000000006000830152600f82019050919050565b60006200070a60148362000a8f565b91507f496e76616c6964205553444320616464726573730000000000000000000000006000830152602082019050919050565b60006200074c600d8362000aa0565b91507f75696e743235362073616c742c000000000000000000000000000000000000006000830152600d82019050919050565b60006200078e60138362000aa0565b91507f75696e7438207175616e74697479547970652c000000000000000000000000006000830152601382019050919050565b6000620007d0600f8362000aa0565b91507f75696e74323536206665654270732c00000000000000000000000000000000006000830152600f82019050919050565b600062000812600f8362000aa0565b91507f61646472657373207369676e65722c00000000000000000000000000000000006000830152600f82019050919050565b600062000854600e8362000aa0565b91507f5061796d656e74496e74656e74280000000000000000000000000000000000006000830152600e82019050919050565b600062000896600d8362000aa0565b91507f454950373132446f6d61696e28000000000000000000000000000000000000006000830152600d82019050919050565b6000620008d860158362000aa0565b91507f6164647265737320666565526563697069656e742c00000000000000000000006000830152601582019050919050565b60006200091a60118362000aa0565b91507f75696e7438207369676e6572547970652c0000000000000000000000000000006000830152601182019050919050565b60006200095a8262000845565b91506200096782620004a9565b91506200097482620007c1565b91506200098182620008c9565b91506200098e82620005f3565b91506200099b826200073d565b9150620009a8826200077f565b9150620009b582620004eb565b9150620009c2826200090b565b9150620009cf8262000803565b9150620009dc8262000635565b9150620009e98262000677565b9150819050919050565b600062000a008262000887565b915062000a0d8262000467565b915062000a1a82620006b9565b915062000a27826200056f565b915062000a34826200052d565b915062000a418262000677565b9150819050919050565b6000602082019050818103600083015262000a6681620005b1565b9050919050565b6000602082019050818103600083015262000a8881620006fb565b9050919050565b600082825260208201905092915050565b600081905092915050565b600062000ab88262000abf565b9050919050565b600073ffffffffffffffffffffffffffffffffffffffff82169050919050565b62000aea8162000aab565b811462000af657600080fd5b50565b614a288062000b096000396000f3fe608060405234801561001057600080fd5b50600436106101735760003560e01c806372c64509116100de578063aafafa9f11610097578063cec6e22711610071578063cec6e227146104d0578063d547741f14610500578063f5b541a61461051c578063f87f73bf1461053a57610173565b8063aafafa9f14610454578063b2b9d95014610470578063ca15c873146104a057610173565b806372c64509146103585780637f202e24146103885780639010d07c146103b857806391d14854146103e8578063939bcbc914610418578063a217fddf1461043657610173565b80633c1cb25f116101305780633c1cb25f146102705780633e413bee1461028c5780635a316f7a146102aa5780635d312af6146102c85780636640bac5146102f85780636dd31f2e1461032857610173565b80631e999dad1461017857806322a8f3f7146101a8578063248a9ca3146101d857806328c26a6a146102085780632f2ff15d1461023857806336568abe14610254575b600080fd5b610192600480360381019061018d9190613166565b610556565b60405161019f9190613f36565b60405180910390f35b6101c260048036038101906101bd91906131f8565b610611565b6040516101cf9190613f36565b60405180910390f35b6101f260048036038101906101ed919061325d565b610640565b6040516101ff9190613f51565b60405180910390f35b610222600480360381019061021d91906134e0565b610660565b60405161022f9190613f51565b60405180910390f35b610252600480360381019061024d9190613286565b610672565b005b61026e60048036038101906102699190613286565b6106fc565b005b61028a60048036038101906102859190613286565b610795565b005b6102946108d8565b6040516102a19190613ef2565b60405180910390f35b6102b26108fe565b6040516102bf9190613ef2565b60405180910390f35b6102e260048036038101906102dd91906135ca565b610924565b6040516102ef91906144bd565b60405180910390f35b610312600480360381019061030d919061350a565b61093c565b60405161031f9190613f36565b60405180910390f35b610342600480360381019061033d919061337e565b6109d7565b60405161034f9190613f36565b60405180910390f35b610372600480360381019061036d91906132fe565b610c42565b60405161037f9190613f36565b60405180910390f35b6103a2600480360381019061039d919061325d565b610ede565b6040516103af91906144bd565b60405180910390f35b6103d260048036038101906103cd91906132c2565b610ef6565b6040516103df9190613ef2565b60405180910390f35b61040260048036038101906103fd9190613286565b610f28565b60405161040f9190613f36565b60405180910390f35b610420610f5a565b60405161042d9190613f51565b60405180910390f35b61043e610f7e565b60405161044b9190613f51565b60405180910390f35b61046e600480360381019061046991906130be565b610f85565b005b61048a600480360381019061048591906135ca565b611263565b60405161049791906144bd565b60405180910390f35b6104ba60048036038101906104b5919061325d565b61127b565b6040516104c791906144bd565b60405180910390f35b6104ea60048036038101906104e59190613560565b6112a2565b6040516104f79190613f36565b60405180910390f35b61051a60048036038101906105159190613286565b6114ba565b005b610524611544565b6040516105319190613f51565b60405180910390f35b610554600480360381019061054f919061361c565b611568565b005b60006002805414156105d0576040517f08c379a000000000000000000000000000000000000000000000000000000000815260040180806020018281038252601f8152602001807f5265656e7472616e637947756172643a207265656e7472616e742063616c6c0081525060200191505060405180910390fd5b60028081905550600083838101906105e8919061349f565b90506105fc81600001518260200151611604565b91505060016002819055509695505050505050565b60076020528160005260406000206020528060005260406000206000915091509054906101000a900460ff1681565b600060036000838152602001908152602001600020600201549050919050565b600061066b826118f6565b9050919050565b6106996003600084815260200190815260200160002060020154610694611966565b610f28565b6106ee576040517f08c379a000000000000000000000000000000000000000000000000000000000815260040180806020018281038252602f8152602001806148f4602f913960400191505060405180910390fd5b6106f8828261196e565b5050565b610704611966565b73ffffffffffffffffffffffffffffffffffffffff168173ffffffffffffffffffffffffffffffffffffffff1614610787576040517f08c379a000000000000000000000000000000000000000000000000000000000815260040180806020018281038252602f8152602001806149c4602f913960400191505060405180910390fd5b6107918282611a02565b5050565b6107bf7f62b337eaefec74dadf1a62e856bf9db4f14a0f27d4f48156a95a9f98e7d5e06633610f28565b806107d357506107d26000801b33610f28565b5b610812576040517f08c379a00000000000000000000000000000000000000000000000000000000081526004016108099061436f565b60405180910390fd5b6000600660008481526020019081526020016000205490506000811161086d576040517f08c379a0000000000000000000000000000000000000000000000000000000008152600401610864906143cf565b60405180910390fd5b600060066000858152602001908152602001600020819055506108d38282600860009054906101000a900473ffffffffffffffffffffffffffffffffffffffff1673ffffffffffffffffffffffffffffffffffffffff16611a969092919063ffffffff16565b505050565b600860009054906101000a900473ffffffffffffffffffffffffffffffffffffffff1681565b600960009054906101000a900473ffffffffffffffffffffffffffffffffffffffff1681565b60056020528060005260406000206000915090505481565b60006002805414156109b6576040517f08c379a000000000000000000000000000000000000000000000000000000000815260040180806020018281038252601f8152602001807f5265656e7472616e637947756172643a207265656e7472616e742063616c6c0081525060200191505060405180910390fd5b600280819055506109c78383611604565b9050600160028190555092915050565b6000600280541415610a51576040517f08c379a000000000000000000000000000000000000000000000000000000000815260040180806020018281038252601f8152602001807f5265656e7472616e637947756172643a207265656e7472616e742063616c6c0081525060200191505060405180910390fd5b60028081905550600960009054906101000a900473ffffffffffffffffffffffffffffffffffffffff1673ffffffffffffffffffffffffffffffffffffffff163373ffffffffffffffffffffffffffffffffffffffff1614610ae8576040517f08c379a0000000000000000000000000000000000000000000000000000000008152600401610adf9061434f565b60405180910390fd5b848803600660008e8152602001908152602001600020819055503073ffffffffffffffffffffffffffffffffffffffff166372c645098d8a8887876040518663ffffffff1660e01b8152600401610b4395949392919061409a565b602060405180830381600087803b158015610b5d57600080fd5b505af1925050508015610b8e57506040513d601f19601f82011682018060405250810190610b8b9190613234565b60015b610c2657610b9a614732565b80610ba55750610be7565b8c7f548eb1029b4a35323ec07af86cc4efa887532238db4c729b35c72ea93d734a3082604051610bd5919061412d565b60405180910390a26000915050610c2b565b8b7f548eb1029b4a35323ec07af86cc4efa887532238db4c729b35c72ea93d734a30604051610c159061416f565b60405180910390a260009050610c2b565b809150505b60016002819055509b9a5050505050505050505050565b60003073ffffffffffffffffffffffffffffffffffffffff163373ffffffffffffffffffffffffffffffffffffffff1614610cb2576040517f08c379a0000000000000000000000000000000000000000000000000000000008152600401610ca9906143af565b60405180910390fd5b60008383810190610cc3919061349f565b9050610cd781600001518260200151611b38565b8581600001516000015114610d21576040517f08c379a0000000000000000000000000000000000000000000000000000000008152600401610d189061422f565b60405180910390fd5b600085870390506000610d61612710610d53856000015160200151866000015160000151611d9590919063ffffffff16565b611e1b90919063ffffffff16565b905086811015610da6576040517f08c379a0000000000000000000000000000000000000000000000000000000008152600401610d9d906142cf565b60405180910390fd5b600081846000015160000151039050610e0a84600001516060015182600860009054906101000a900473ffffffffffffffffffffffffffffffffffffffff1673ffffffffffffffffffffffffffffffffffffffff16611a969092919063ffffffff16565b80831115610e6a57610e69846000015160400151828503600860009054906101000a900473ffffffffffffffffffffffffffffffffffffffff1673ffffffffffffffffffffffffffffffffffffffff16611a969092919063ffffffff16565b5b897f2d268365b46f9a27fa5f67bd5ddee675fd76068ab7eea3e7b82ccfbba8a2209a85600001518a8685868903600460008c6000015160800151815260200190815260200160002054604051610ec596959493929190614456565b60405180910390a2600194505050505095945050505050565b60066020528060005260406000206000915090505481565b6000610f208260036000868152602001908152602001600020600001611ea490919063ffffffff16565b905092915050565b6000610f528260036000868152602001908152602001600020600001611ebe90919063ffffffff16565b905092915050565b7f62b337eaefec74dadf1a62e856bf9db4f14a0f27d4f48156a95a9f98e7d5e06681565b6000801b81565b610faf7f62b337eaefec74dadf1a62e856bf9db4f14a0f27d4f48156a95a9f98e7d5e06633610f28565b80610fc35750610fc26000801b33610f28565b5b611002576040517f08c379a0000000000000000000000000000000000000000000000000000000008152600401610ff99061436f565b60405180910390fd5b60028054141561107a576040517f08c379a000000000000000000000000000000000000000000000000000000000815260040180806020018281038252601f8152602001807f5265656e7472616e637947756172643a207265656e7472616e742063616c6c0081525060200191505060405180910390fd5b600280819055506000600860009054906101000a900473ffffffffffffffffffffffffffffffffffffffff1673ffffffffffffffffffffffffffffffffffffffff166370a08231306040518263ffffffff1660e01b81526004016110de9190613ef2565b60206040518083038186803b1580156110f657600080fd5b505afa15801561110a573d6000803e3d6000fd5b505050506040513d601f19601f8201168201806040525081019061112e91906135f3565b9050600860009054906101000a900473ffffffffffffffffffffffffffffffffffffffff1673ffffffffffffffffffffffffffffffffffffffff1663a9059cbb83836040518363ffffffff1660e01b815260040161118d929190613f0d565b602060405180830381600087803b1580156111a757600080fd5b505af11580156111bb573d6000803e3d6000fd5b505050506040513d601f19601f820116820180604052508101906111df9190613234565b61121e576040517f08c379a0000000000000000000000000000000000000000000000000000000008152600401611215906141af565b60405180910390fd5b7fa9364fb2836862098c2b593d2d3f46759b4c6d5b054300f96172b0394430008a828260405161124f929190613f0d565b60405180910390a150600160028190555050565b60046020528060005260406000206000915090505481565b600061129b60036000848152602001908152602001600020600001611eee565b9050919050565b600060076000856060015173ffffffffffffffffffffffffffffffffffffffff1673ffffffffffffffffffffffffffffffffffffffff16815260200190815260200160002060008560800151815260200190815260200160002060009054906101000a900460ff161561134a576040517f08c379a00000000000000000000000000000000000000000000000000000000081526004016113419061424f565b60405180910390fd5b6000611355856118f6565b9050600061136286611f03565b905061136f828287612013565b60006005600088608001518152602001908152602001600020549050808760e0015114806113a05750808760e00151115b6113df576040517f08c379a00000000000000000000000000000000000000000000000000000000081526004016113d69061430f565b60405180910390fd5b600060046000896080015181526020019081526020016000205490506000600181111561140857fe5b8860a00151600181111561141857fe5b1415611465578760c001518110611464576040517f08c379a000000000000000000000000000000000000000000000000000000000815260040161145b906141ef565b60405180910390fd5b5b858860000151146114ab576040517f08c379a00000000000000000000000000000000000000000000000000000000081526004016114a2906142af565b60405180910390fd5b60019450505050509392505050565b6114e160036000848152602001908152602001600020600201546114dc611966565b610f28565b611536576040517f08c379a00000000000000000000000000000000000000000000000000000000081526004018080602001828103825260308152602001806149496030913960400191505060405180910390fd5b6115408282611a02565b5050565b7f97667070c54ef182b0f5858b034beac1b6f3089aa2d3188bb1e8929f4fa9b92981565b80600760003373ffffffffffffffffffffffffffffffffffffffff1673ffffffffffffffffffffffffffffffffffffffff168152602001908152602001600020600084815260200190815260200160002060006101000a81548160ff0219169083151502179055505050565b60006115fc836000018373ffffffffffffffffffffffffffffffffffffffff1660001b6122ec565b905092915050565b60006116108383611b38565b6000836000015111611657576040517f08c379a000000000000000000000000000000000000000000000000000000000815260040161164e9061422f565b60405180910390fd5b612710836020015111156116a0576040517f08c379a00000000000000000000000000000000000000000000000000000000081526004016116979061418f565b60405180910390fd5b600073ffffffffffffffffffffffffffffffffffffffff16836060015173ffffffffffffffffffffffffffffffffffffffff161415611714576040517f08c379a000000000000000000000000000000000000000000000000000000000815260040161170b9061432f565b60405180910390fd5b600061174561271061173786602001518760000151611d9590919063ffffffff16565b611e1b90919063ffffffff16565b90508360000151811061178d576040517f08c379a00000000000000000000000000000000000000000000000000000000081526004016117849061428f565b60405180910390fd5b6117e633856060015183876000015103600860009054906101000a900473ffffffffffffffffffffffffffffffffffffffff1673ffffffffffffffffffffffffffffffffffffffff1661235c909392919063ffffffff16565b6000811180156118275750600073ffffffffffffffffffffffffffffffffffffffff16846040015173ffffffffffffffffffffffffffffffffffffffff1614155b156118805761187f33856040015183600860009054906101000a900473ffffffffffffffffffffffffffffffffffffffff1673ffffffffffffffffffffffffffffffffffffffff1661235c909392919063ffffffff16565b5b836080015160001b7f2d268365b46f9a27fa5f67bd5ddee675fd76068ab7eea3e7b82ccfbba8a2209a85600087600001518589600001510386600460008c608001518152602001908152602001600020546040516118e3969594939291906143ef565b60405180910390a2600191505092915050565b6000600154826000015183602001518460400151856060015186608001518760a001518860c001518961010001518a61012001518b60e001516040516020016119499b9a99989796959493929190613fef565b604051602081830303815290604052805190602001209050919050565b600033905090565b61199681600360008581526020019081526020016000206000016115d490919063ffffffff16565b156119fe576119a3611966565b73ffffffffffffffffffffffffffffffffffffffff168173ffffffffffffffffffffffffffffffffffffffff16837f2f8788117e7eff1d82e926ec794901d17c78024a50270940304540a733656f0d60405160405180910390a45b5050565b611a2a816003600085815260200190815260200160002060000161241d90919063ffffffff16565b15611a9257611a37611966565b73ffffffffffffffffffffffffffffffffffffffff168173ffffffffffffffffffffffffffffffffffffffff16837ff6391f5c32d9c69d2a47ea670b442974b53935d1edc7fd64eb21e047a839171b60405160405180910390a45b5050565b611b338363a9059cbb60e01b8484604051602401808373ffffffffffffffffffffffffffffffffffffffff16815260200182815260200192505050604051602081830303815290604052907bffffffffffffffffffffffffffffffffffffffffffffffffffffffff19166020820180517bffffffffffffffffffffffffffffffffffffffffffffffffffffffff838183161783525050505061244d565b505050565b60076000836060015173ffffffffffffffffffffffffffffffffffffffff1673ffffffffffffffffffffffffffffffffffffffff16815260200190815260200160002060008360800151815260200190815260200160002060009054906101000a900460ff1615611bde576040517f08c379a0000000000000000000000000000000000000000000000000000000008152600401611bd59061424f565b60405180910390fd5b6005600083608001518152602001908152602001600020548260e001511115611c66578160e0015160056000846080015181526020019081526020016000208190555081608001517f619d9a2b252d58f1ddd737ee3190a3ae4697c1493db50a135d109f04c674f34f8360e00151604051611c5991906144bd565b60405180910390a2611cc4565b6005600083608001518152602001908152602001600020548260e0015114611cc3576040517f08c379a0000000000000000000000000000000000000000000000000000000008152600401611cba9061430f565b60405180910390fd5b5b6000600460008460800151815260200190815260200160002054905060006001811115611ced57fe5b8360a001516001811115611cfd57fe5b1415611d4a578260c001518110611d49576040517f08c379a0000000000000000000000000000000000000000000000000000000008152600401611d40906141ef565b60405180910390fd5b5b600181016004600085608001518152602001908152602001600020819055506000611d74846118f6565b90506000611d8185611f03565b9050611d8e828286612013565b5050505050565b600080831415611da85760009050611e15565b6000828402905082848281611db957fe5b0414611e10576040517f08c379a00000000000000000000000000000000000000000000000000000000081526004018080602001828103825260218152602001806149796021913960400191505060405180910390fd5b809150505b92915050565b6000808211611e92576040517f08c379a000000000000000000000000000000000000000000000000000000000815260040180806020018281038252601a8152602001807f536166654d6174683a206469766973696f6e206279207a65726f00000000000081525060200191505060405180910390fd5b818381611e9b57fe5b04905092915050565b6000611eb3836000018361253c565b60001c905092915050565b6000611ee6836000018373ffffffffffffffffffffffffffffffffffffffff1660001b6125bf565b905092915050565b6000611efc826000016125e2565b9050919050565b6000806001811115611f1157fe5b8261010001516001811115611f2257fe5b1415611f34578160600151905061200e565b600180811115611f4057fe5b8261010001516001811115611f5157fe5b1415611fd257611f867f97667070c54ef182b0f5858b034beac1b6f3089aa2d3188bb1e8929f4fa9b929836101200151610f28565b611fc5576040517f08c379a0000000000000000000000000000000000000000000000000000000008152600401611fbc9061438f565b60405180910390fd5b816101200151905061200d565b6040517f08c379a0000000000000000000000000000000000000000000000000000000008152600401612004906142ef565b60405180910390fd5b5b919050565b600080600060606000612025886125f3565b905060007f649264926492649264926492649264926492649264926492649264926492649260001b612056886126b5565b14905080156121835760006060600061206e8a61270e565b90508080602001905181019061208491906130e7565b809850819450829550505050600061209b8c612821565b519050600081141561217a576000808573ffffffffffffffffffffffffffffffffffffffff16856040516120cf9190613eb9565b6000604051808303816000865af19150503d806000811461210c576040519150601f19603f3d011682016040523d82523d6000602084013e612111565b606091505b509150915081612177578060405160200161212c9190613ed0565b6040516020818303038152906040526040517f08c379a000000000000000000000000000000000000000000000000000000000815260040161216e919061412d565b60405180910390fd5b50505b50505050612187565b8692505b600061219289612821565b5111156122bb5760008873ffffffffffffffffffffffffffffffffffffffff16631626ba7e84866040518363ffffffff1660e01b81526004016121d6929190613fbf565b60206040518083038186803b1580156121ee57600080fd5b505afa158015612202573d6000803e3d6000fd5b505050506040513d601f19601f820116820180604052508101906122269190613476565b9050631626ba7e60e01b7bffffffffffffffffffffffffffffffffffffffffffffffffffffffff1916817bffffffffffffffffffffffffffffffffffffffffffffffffffffffff1916146122af576040517f08c379a00000000000000000000000000000000000000000000000000000000081526004016122a6906141cf565b60405180910390fd5b505050505050506122e7565b6020870151955060408701519450606087015160001a93506122e08883868989612845565b5050505050505b505050565b60006122f883836125bf565b612351578260000182908060018154018082558091505060019003906000526020600020016000909190919091505582600001805490508360010160008481526020019081526020016000208190555060019050612356565b600090505b92915050565b612417846323b872dd60e01b858585604051602401808473ffffffffffffffffffffffffffffffffffffffff1681526020018373ffffffffffffffffffffffffffffffffffffffff1681526020018281526020019350505050604051602081830303815290604052907bffffffffffffffffffffffffffffffffffffffffffffffffffffffff19166020820180517bffffffffffffffffffffffffffffffffffffffffffffffffffffffff838183161783525050505061244d565b50505050565b6000612445836000018373ffffffffffffffffffffffffffffffffffffffff1660001b61299f565b905092915050565b60006124af826040518060400160405280602081526020017f5361666545524332303a206c6f772d6c6576656c2063616c6c206661696c65648152508573ffffffffffffffffffffffffffffffffffffffff16612a879092919063ffffffff16565b9050600081511115612537578080602001905160208110156124d057600080fd5b8101908080519060200190929190505050612536576040517f08c379a000000000000000000000000000000000000000000000000000000000815260040180806020018281038252602a81526020018061499a602a913960400191505060405180910390fd5b5b505050565b60008183600001805490501161259d576040517f08c379a00000000000000000000000000000000000000000000000000000000081526004018080602001828103825260228152602001806148d26022913960400191505060405180910390fd5b8260000182815481106125ac57fe5b9060005260206000200154905092915050565b600080836001016000848152602001908152602001600020541415905092915050565b600081600001805490509050919050565b60008061267b6000546040518060400160405280601681526020017f5061796d656e74496e74656e7448616e646c6572563300000000000000000000815250805190602001206040518060400160405280600181526020017f310000000000000000000000000000000000000000000000000000000000000081525080519060200120612a9f565b905061190160f01b818460405160200161269793929190613e7c565b60405160208183030381529060405280519060200120915050919050565b60006020825110156126fc576040517f08c379a00000000000000000000000000000000000000000000000000000000081526004016126f39061426f565b60405180910390fd5b60208251036020018201519050919050565b60606020825111612754576040517f08c379a000000000000000000000000000000000000000000000000000000000815260040161274b9061414f565b60405180910390fd5b60006020835103905060008167ffffffffffffffff8111801561277657600080fd5b506040519080825280601f01601f1916602001820160405280156127a95781602001600182028036833780820191505090505b50905060005b82811015612816578481815181106127c357fe5b602001015160f81c60f81b8282815181106127da57fe5b60200101907effffffffffffffffffffffffffffffffffffffffffffffffffffffffffffff1916908160001a90535080806001019150506127af565b508092505050919050565b6060813b604051915080825280600060208401853c60208101820160405250919050565b601b8360ff161415801561285d5750601c8360ff1614155b1561289d576040517f08c379a00000000000000000000000000000000000000000000000000000000081526004016128949061420f565b60405180910390fd5b6000600185858585604051600081526020016040526040516128c294939291906140e8565b6020604051602081039080840390855afa1580156128e4573d6000803e3d6000fd5b505050602060405103519050600073ffffffffffffffffffffffffffffffffffffffff168173ffffffffffffffffffffffffffffffffffffffff16148061295757508073ffffffffffffffffffffffffffffffffffffffff168673ffffffffffffffffffffffffffffffffffffffff1614155b15612997576040517f08c379a000000000000000000000000000000000000000000000000000000000815260040161298e906141cf565b60405180910390fd5b505050505050565b60008083600101600084815260200190815260200160002054905060008114612a7b57600060018203905060006001866000018054905003905060008660000182815481106129ea57fe5b9060005260206000200154905080876000018481548110612a0757fe5b9060005260206000200181905550600183018760010160008381526020019081526020016000208190555086600001805480612a3f57fe5b60019003818190600052602060002001600090559055866001016000878152602001908152602001600020600090556001945050505050612a81565b60009150505b92915050565b6060612a968484600085612ade565b90509392505050565b6000804690508484848330604051602001612abe959493929190613f6c565b604051602081830303815290604052805190602001209150509392505050565b606082471015612b39576040517f08c379a00000000000000000000000000000000000000000000000000000000081526004018080602001828103825260268152602001806149236026913960400191505060405180910390fd5b612b4285612c86565b612bb4576040517f08c379a000000000000000000000000000000000000000000000000000000000815260040180806020018281038252601d8152602001807f416464726573733a2063616c6c20746f206e6f6e2d636f6e747261637400000081525060200191505060405180910390fd5b6000808673ffffffffffffffffffffffffffffffffffffffff1685876040518082805190602001908083835b60208310612c035780518252602082019150602081019050602083039250612be0565b6001836020036101000a03801982511681845116808217855250505050505090500191505060006040518083038185875af1925050503d8060008114612c65576040519150601f19603f3d011682016040523d82523d6000602084013e612c6a565b606091505b5091509150612c7a828286612c99565b92505050949350505050565b600080823b905060008111915050919050565b60608315612ca957829050612d5e565b600083511115612cbc5782518084602001fd5b816040517f08c379a00000000000000000000000000000000000000000000000000000000081526004018080602001828103825283818151815260200191508051906020019080838360005b83811015612d23578082015181840152602081019050612d08565b50505050905090810190601f168015612d505780820380516001836020036101000a031916815260200191505b509250505060405180910390fd5b9392505050565b6000612d78612d7384614509565b6144d8565b905082815260208101848484011115612d9057600080fd5b612d9b8482856146bc565b509392505050565b6000612db6612db184614509565b6144d8565b905082815260208101848484011115612dce57600080fd5b612dd98482856146cb565b509392505050565b600081359050612df081614810565b92915050565b600081519050612e0581614827565b92915050565b600081359050612e1a8161483e565b92915050565b600081519050612e2f8161483e565b92915050565b600081359050612e4481614855565b92915050565b600081519050612e598161486c565b92915050565b60008083601f840112612e7157600080fd5b8235905067ffffffffffffffff811115612e8a57600080fd5b602083019150836001820283011115612ea257600080fd5b9250929050565b600082601f830112612eba57600080fd5b8135612eca848260208601612d65565b91505092915050565b600082601f830112612ee457600080fd5b8151612ef4848260208601612da3565b91505092915050565b600081359050612f0c81614883565b92915050565b600081359050612f2181614893565b92915050565b60006101608284031215612f3a57600080fd5b612f4460406144d8565b90506000612f5484828501612f8d565b60008301525061014082013567ffffffffffffffff811115612f7557600080fd5b612f8184828501612ea9565b60208301525092915050565b60006101408284031215612fa057600080fd5b612fab6101406144d8565b90506000612fbb8482850161307f565b6000830152506020612fcf8482850161307f565b6020830152506040612fe384828501612de1565b6040830152506060612ff784828501612de1565b606083015250608061300b8482850161307f565b60808301525060a061301f84828501612efd565b60a08301525060c06130338482850161307f565b60c08301525060e06130478482850161307f565b60e08301525061010061305c84828501612f12565b6101008301525061012061307284828501612de1565b6101208301525092915050565b60008135905061308e816148a3565b92915050565b6000815190506130a3816148a3565b92915050565b6000813590506130b8816148ba565b92915050565b6000602082840312156130d057600080fd5b60006130de84828501612de1565b91505092915050565b6000806000606084860312156130fc57600080fd5b600061310a86828701612df6565b935050602084015167ffffffffffffffff81111561312757600080fd5b61313386828701612ed3565b925050604084015167ffffffffffffffff81111561315057600080fd5b61315c86828701612ed3565b9150509250925092565b60008060008060008060a0878903121561317f57600080fd5b600061318d89828a01612de1565b965050602061319e89828a01612de1565b95505060406131af89828a0161307f565b94505060606131c089828a0161307f565b935050608087013567ffffffffffffffff8111156131dd57600080fd5b6131e989828a01612e5f565b92509250509295509295509295565b6000806040838503121561320b57600080fd5b600061321985828601612de1565b925050602061322a8582860161307f565b9150509250929050565b60006020828403121561324657600080fd5b600061325484828501612e20565b91505092915050565b60006020828403121561326f57600080fd5b600061327d84828501612e35565b91505092915050565b6000806040838503121561329957600080fd5b60006132a785828601612e35565b92505060206132b885828601612de1565b9150509250929050565b600080604083850312156132d557600080fd5b60006132e385828601612e35565b92505060206132f48582860161307f565b9150509250929050565b60008060008060006080868803121561331657600080fd5b600061332488828901612e35565b95505060206133358882890161307f565b94505060406133468882890161307f565b935050606086013567ffffffffffffffff81111561336357600080fd5b61336f88828901612e5f565b92509250509295509295909350565b60008060008060008060008060008060006101408c8e0312156133a057600080fd5b60006133ae8e828f01612e35565b9b505060206133bf8e828f016130a9565b9a505060406133d08e828f01612e35565b99505060606133e18e828f01612e35565b98505060806133f28e828f0161307f565b97505060a06134038e828f01612e35565b96505060c06134148e828f0161307f565b95505060e06134258e828f0161307f565b9450506101006134378e828f0161307f565b9350506101208c013567ffffffffffffffff81111561345557600080fd5b6134618e828f01612e5f565b92509250509295989b509295989b9093969950565b60006020828403121561348857600080fd5b600061349684828501612e4a565b91505092915050565b6000602082840312156134b157600080fd5b600082013567ffffffffffffffff8111156134cb57600080fd5b6134d784828501612f27565b91505092915050565b600061014082840312156134f357600080fd5b600061350184828501612f8d565b91505092915050565b600080610160838503121561351e57600080fd5b600061352c85828601612f8d565b92505061014083013567ffffffffffffffff81111561354a57600080fd5b61355685828601612ea9565b9150509250929050565b6000806000610180848603121561357657600080fd5b600061358486828701612f8d565b93505061014084013567ffffffffffffffff8111156135a257600080fd5b6135ae86828701612ea9565b9250506101606135c08682870161307f565b9150509250925092565b6000602082840312156135dc57600080fd5b60006135ea8482850161307f565b91505092915050565b60006020828403121561360557600080fd5b600061361384828501613094565b91505092915050565b6000806040838503121561362f57600080fd5b600061363d8582860161307f565b925050602061364e85828601612e0b565b9150509250929050565b61366181614587565b82525050565b61367081614587565b82525050565b61367f816145ab565b82525050565b613696613691826145b7565b6146fe565b82525050565b6136a5816145e3565b82525050565b6136bc6136b7826145e3565b614708565b82525050565b60006136ce838561454f565b93506136db8385846146bc565b6136e483614714565b840190509392505050565b60006136fa82614539565b613704818561454f565b93506137148185602086016146cb565b61371d81614714565b840191505092915050565b600061373382614539565b61373d8185614560565b935061374d8185602086016146cb565b80840191505092915050565b61376281614686565b82525050565b61377181614686565b82525050565b61378081614698565b82525050565b61378f81614698565b82525050565b61379e816146aa565b82525050565b60006137af82614544565b6137b9818561456b565b93506137c98185602086016146cb565b6137d281614714565b840191505092915050565b60006137ea60238361456b565b91507f5369676e617475726520746f6f2073686f727420666f7220363439322073756660008301527f66697800000000000000000000000000000000000000000000000000000000006020830152604082019050919050565b6000613850600d8361456b565b91507f556e6b6e6f776e206572726f72000000000000000000000000000000000000006000830152602082019050919050565b6000613890600f8361456b565b91507f496e76616c6964206665652062707300000000000000000000000000000000006000830152602082019050919050565b60006138d0600f8361456b565b91507f5472616e73666572206661696c656400000000000000000000000000000000006000830152602082019050919050565b600061391060108361456b565b91507f496e76616c69645369676e6174757265000000000000000000000000000000006000830152602082019050919050565b600061395060158361456b565b91507f5175616e7469747920616c7265616479207573656400000000000000000000006000830152602082019050919050565b600061399060118361456b565b91507f496e76616c696456506172616d657465720000000000000000000000000000006000830152602082019050919050565b60006139d0600e8361456b565b91507f496e76616c696420616d6f756e740000000000000000000000000000000000006000830152602082019050919050565b6000613a1060128361456b565b91507f496e74656e7420646561637469766174656400000000000000000000000000006000830152602082019050919050565b6000613a5060138361456b565b91507f5369676e617475726520746f6f2073686f7274000000000000000000000000006000830152602082019050919050565b6000613a90600c8361456b565b91507f46656520746f6f206869676800000000000000000000000000000000000000006000830152602082019050919050565b6000613ad060118361456b565b91507f4d69736d61746368656420616d6f756e740000000000000000000000000000006000830152602082019050919050565b6000613b1060158361457c565b91507f455243363439324465706c6f794661696c65643a2000000000000000000000006000830152601582019050919050565b6000613b50601e8361456b565b91507f46656520657865637574656420657863656564732067726f73732066656500006000830152602082019050919050565b6000613b9060138361456b565b91507f496e76616c6964207369676e65722074797065000000000000000000000000006000830152602082019050919050565b6000613bd060168361456b565b91507f5573696e67206f6c6420696e74656e74206e6f6e6365000000000000000000006000830152602082019050919050565b6000613c1060108361456b565b91507f496e76616c6964206d65726368616e74000000000000000000000000000000006000830152602082019050919050565b6000613c50601d8361456b565b91507f4f6e6c792063616c6c61626c6520627920686f6f6b20777261707065720000006000830152602082019050919050565b6000613c9060158361456b565b91507f4f6e6c79207265636f766572206f722061646d696e00000000000000000000006000830152602082019050919050565b6000613cd060108361456b565b91507f496e76616c6964206f70657261746f72000000000000000000000000000000006000830152602082019050919050565b6000613d1060158361456b565b91507f4f6e6c792063616c6c61626c652062792073656c6600000000000000000000006000830152602082019050919050565b6000613d5060128361456b565b91507f4e6f20616d6f756e7420726563656976656400000000000000000000000000006000830152602082019050919050565b61014082016000820151613d9a6000850182613e4f565b506020820151613dad6020850182613e4f565b506040820151613dc06040850182613658565b506060820151613dd36060850182613658565b506080820151613de66080850182613e4f565b5060a0820151613df960a0850182613759565b5060c0820151613e0c60c0850182613e4f565b5060e0820151613e1f60e0850182613e4f565b50610100820151613e34610100850182613777565b50610120820151613e49610120850182613658565b50505050565b613e588161465f565b82525050565b613e678161465f565b82525050565b613e7681614679565b82525050565b6000613e888286613685565b600282019150613e9882856136ab565b602082019150613ea882846136ab565b602082019150819050949350505050565b6000613ec58284613728565b915081905092915050565b6000613edb82613b03565b9150613ee78284613728565b915081905092915050565b6000602082019050613f076000830184613667565b92915050565b6000604082019050613f226000830185613667565b613f2f6020830184613e5e565b9392505050565b6000602082019050613f4b6000830184613676565b92915050565b6000602082019050613f66600083018461369c565b92915050565b600060a082019050613f81600083018861369c565b613f8e602083018761369c565b613f9b604083018661369c565b613fa86060830185613e5e565b613fb56080830184613667565b9695505050505050565b6000604082019050613fd4600083018561369c565b8181036020830152613fe681846136ef565b90509392505050565b600061016082019050614005600083018e61369c565b614012602083018d613e5e565b61401f604083018c613e5e565b61402c606083018b613667565b614039608083018a613667565b61404660a0830189613e5e565b61405360c0830188613768565b61406060e0830187613e5e565b61406e610100830186613786565b61407c610120830185613667565b61408a610140830184613e5e565b9c9b505050505050505050505050565b60006080820190506140af600083018861369c565b6140bc6020830187613e5e565b6140c96040830186613e5e565b81810360608301526140dc8184866136c2565b90509695505050505050565b60006080820190506140fd600083018761369c565b61410a6020830186613e6d565b614117604083018561369c565b614124606083018461369c565b95945050505050565b6000602082019050818103600083015261414781846137a4565b905092915050565b60006020820190508181036000830152614168816137dd565b9050919050565b6000602082019050818103600083015261418881613843565b9050919050565b600060208201905081810360008301526141a881613883565b9050919050565b600060208201905081810360008301526141c8816138c3565b9050919050565b600060208201905081810360008301526141e881613903565b9050919050565b6000602082019050818103600083015261420881613943565b9050919050565b6000602082019050818103600083015261422881613983565b9050919050565b60006020820190508181036000830152614248816139c3565b9050919050565b6000602082019050818103600083015261426881613a03565b9050919050565b6000602082019050818103600083015261428881613a43565b9050919050565b600060208201905081810360008301526142a881613a83565b9050919050565b600060208201905081810360008301526142c881613ac3565b9050919050565b600060208201905081810360008301526142e881613b43565b9050919050565b6000602082019050818103600083015261430881613b83565b9050919050565b6000602082019050818103600083015261432881613bc3565b9050919050565b6000602082019050818103600083015261434881613c03565b9050919050565b6000602082019050818103600083015261436881613c43565b9050919050565b6000602082019050818103600083015261438881613c83565b9050919050565b600060208201905081810360008301526143a881613cc3565b9050919050565b600060208201905081810360008301526143c881613d03565b9050919050565b600060208201905081810360008301526143e881613d43565b9050919050565b60006101e0820190506144056000830189613d83565b614413610140830188613795565b614421610160830187613e5e565b61442f610180830186613e5e565b61443d6101a0830185613e5e565b61444b6101c0830184613e5e565b979650505050505050565b60006101e08201905061446c6000830189613d83565b61447a610140830188613e5e565b614488610160830187613e5e565b614496610180830186613e5e565b6144a46101a0830185613e5e565b6144b26101c0830184613e5e565b979650505050505050565b60006020820190506144d26000830184613e5e565b92915050565b6000604051905081810181811067ffffffffffffffff821117156144ff576144fe614712565b5b8060405250919050565b600067ffffffffffffffff82111561452457614523614712565b5b601f19601f8301169050602081019050919050565b600081519050919050565b600081519050919050565b600082825260208201905092915050565b600081905092915050565b600082825260208201905092915050565b600081905092915050565b60006145928261463f565b9050919050565b60006145a48261463f565b9050919050565b60008115159050919050565b60007fffff00000000000000000000000000000000000000000000000000000000000082169050919050565b6000819050919050565b60007fffffffff0000000000000000000000000000000000000000000000000000000082169050919050565b6000819050614627826147e8565b919050565b600081905061463a826147fc565b919050565b600073ffffffffffffffffffffffffffffffffffffffff82169050919050565b6000819050919050565b600063ffffffff82169050919050565b600060ff82169050919050565b600061469182614619565b9050919050565b60006146a38261462c565b9050919050565b60006146b58261465f565b9050919050565b82818337600083830152505050565b60005b838110156146e95780820151818401526020810190506146ce565b838111156146f8576000848401525b50505050565b6000819050919050565b6000819050919050565bfe5b6000601f19601f8301169050919050565b60008160e01c9050919050565b600060443d1015614742576147e5565b60046000803e614753600051614725565b6308c379a0811461476457506147e5565b60405160043d036004823e80513d602482011167ffffffffffffffff82111715614790575050506147e5565b808201805167ffffffffffffffff8111156147af5750505050506147e5565b8060208301013d85018111156147ca575050505050506147e5565b6147d382614714565b60208401016040528296505050505050505b90565b600281106147f9576147f8614712565b5b50565b6002811061480d5761480c614712565b5b50565b61481981614587565b811461482457600080fd5b50565b61483081614599565b811461483b57600080fd5b50565b614847816145ab565b811461485257600080fd5b50565b61485e816145e3565b811461486957600080fd5b50565b614875816145ed565b811461488057600080fd5b50565b6002811061489057600080fd5b50565b600281106148a057600080fd5b50565b6148ac8161465f565b81146148b757600080fd5b50565b6148c381614669565b81146148ce57600080fd5b5056fe456e756d657261626c655365743a20696e646578206f7574206f6620626f756e6473416363657373436f6e74726f6c3a2073656e646572206d75737420626520616e2061646d696e20746f206772616e74416464726573733a20696e73756666696369656e742062616c616e636520666f722063616c6c416363657373436f6e74726f6c3a2073656e646572206d75737420626520616e2061646d696e20746f207265766f6b65536166654d6174683a206d756c7469706c69636174696f6e206f766572666c6f775361666545524332303a204552433230206f7065726174696f6e20646964206e6f742073756363656564416363657373436f6e74726f6c3a2063616e206f6e6c792072656e6f756e636520726f6c657320666f722073656c66a264697066735822122040f0ef2f3ecec2a924456dbd7cf1f6244fce1b1ce522269be5ee48d26a60bd4664736f6c63430007060033",
  "linkReferences": {},
  "deployedLinkReferences": {}
}