{
  "_format": "hh-sol-artifact-1",
  "contractName": "PaymentIntentHandlerV1",
  "sourceName": "contracts/v1/PaymentIntentHandler.sol",
  "abi": [
    {
      "inputs": [
        {
          "internalType": "address",
          "name": "_usdc",
          "type": "address"
        },
        {
          "internalType": "address",
          "name": "_hookWrapper",
          "type": "address"
        }
      ],
      "stateMutability": "nonpayable",
      "type": "constructor"
    },
    {
      "anonymous": false,
      "inputs": [
        {
          "indexed": false,
          "internalType": "address",
          "name": "to",
          "type": "address"
        },
        {
          "indexed": false,
          "internalType": "uint256",
          "name": "amount",
          "type": "uint256"
        }
      ],
      "name": "EmergencyRecovery",
      "type": "event"
    },
    {
      "anonymous": false,
      "inputs": [
        {
          "indexed": true,
          "internalType": "bytes32",
          "name": "nonce",
          "type": "bytes32"
        },
        {
          "indexed": false,
          "internalType": "string",
          "name": "reason",
          "type": "string"
        }
      ],
      "name": "PaymentIntentFailed",
      "type": "event"
    },
    {
      "anonymous": false,
      "inputs": [
        {
          "indexed": true,
          "internalType": "bytes32",
          "name": "nonce",
          "type": "bytes32"
        },
        {
          "indexed": true,
          "internalType": "address",
          "name": "merchant",
          "type": "address"
        },
        {
          "indexed": false,
          "internalType": "uint256",
          "name": "amount",
          "type": "uint256"
        },
        {
          "indexed": false,
          "internalType": "uint256",
          "name": "feeExecuted",
          "type": "uint256"
        },
        {
          "indexed": false,
          "internalType": "uint256",
          "name": "netMinted",
          "type": "uint256"
        },
        {
          "indexed": false,
          "internalType": "uint256",
          "name": "netPayable",
          "type": "uint256"
        },
        {
          "indexed": false,
          "internalType": "uint256",
          "name": "netFee",
          "type": "uint256"
        },
        {
          "indexed": false,
          "internalType": "uint256",
          "name": "feeBps",
          "type": "uint256"
        },
        {
          "indexed": false,
          "internalType": "address",
          "name": "feeRecipient",
          "type": "address"
        },
        {
          "indexed": false,
          "internalType": "uint256",
          "name": "salt",
          "type": "uint256"
        }
      ],
      "name": "PaymentIntentSuccess",
      "type": "event"
    },
    {
      "anonymous": false,
      "inputs": [
        {
          "indexed": true,
          "internalType": "bytes32",
          "name": "role",
          "type": "bytes32"
        },
        {
          "indexed": true,
          "internalType": "bytes32",
          "name": "previousAdminRole",
          "type": "bytes32"
        },
        {
          "indexed": true,
          "internalType": "bytes32",
          "name": "newAdminRole",
          "type": "bytes32"
        }
      ],
      "name": "RoleAdminChanged",
      "type": "event"
    },
    {
      "anonymous": false,
      "inputs": [
        {
          "indexed": true,
          "internalType": "bytes32",
          "name": "role",
          "type": "bytes32"
        },
        {
          "indexed": true,
          "internalType": "address",
          "name": "account",
          "type": "address"
        },
        {
          "indexed": true,
          "internalType": "address",
          "name": "sender",
          "type": "address"
        }
      ],
      "name": "RoleGranted",
      "type": "event"
    },
    {
      "anonymous": false,
      "inputs": [
        {
          "indexed": true,
          "internalType": "bytes32",
          "name": "role",
          "type": "bytes32"
        },
        {
          "indexed": true,
          "internalType": "address",
          "name": "account",
          "type": "address"
        },
        {
          "indexed": true,
          "internalType": "address",
          "name": "sender",
          "type": "address"
        }
      ],
      "name": "RoleRevoked",
      "type": "event"
    },
    {
      "inputs": [],
      "name": "DEFAULT_ADMIN_ROLE",
      "outputs": [
        {
          "internalType": "bytes32",
          "name": "",
          "type": "bytes32"
        }
      ],
      "stateMutability": "view",
      "type": "function"
    },
    {
      "inputs": [],
      "name": "RECOVER_ROLE",
      "outputs": [
        {
          "internalType": "bytes32",
          "name": "",
          "type": "bytes32"
        }
      ],
      "stateMutability": "view",
      "type": "function"
    },
    {
      "inputs": [
        {
          "internalType": "bytes32",
          "name": "_nonce",
          "type": "bytes32"
        },
        {
          "internalType": "uint256",
          "name": "_amount",
          "type": "uint256"
        },
        {
          "internalType": "uint256",
          "name": "_feeExecuted",
          "type": "uint256"
        },
        {
          "internalType": "bytes",
          "name": "_structData",
          "type": "bytes"
        }
      ],
      "name": "_executeHook",
      "outputs": [
        {
          "internalType": "bool",
          "name": "",
          "type": "bool"
        }
      ],
      "stateMutability": "nonpayable",
      "type": "function"
    },
    {
      "inputs": [
        {
          "internalType": "address",
          "name": "to",
          "type": "address"
        }
      ],
      "name": "emergencyRecover",
      "outputs": [],
      "stateMutability": "nonpayable",
      "type": "function"
    },
    {
      "inputs": [
        {
          "internalType": "bytes32",
          "name": "_nonce",
          "type": "bytes32"
        },
        {
          "internalType": "address",
          "name": "_to",
          "type": "address"
        }
      ],
      "name": "emergencyRecoverNonceMint",
      "outputs": [],
      "stateMutability": "nonpayable",
      "type": "function"
    },
    {
      "inputs": [
        {
          "internalType": "bytes32",
          "name": "_nonce",
          "type": "bytes32"
        },
        {
          "internalType": "uint32",
          "name": "",
          "type": "uint32"
        },
        {
          "internalType": "bytes32",
          "name": "",
          "type": "bytes32"
        },
        {
          "internalType": "bytes32",
          "name": "",
          "type": "bytes32"
        },
        {
          "internalType": "uint256",
          "name": "_amount",
          "type": "uint256"
        },
        {
          "internalType": "bytes32",
          "name": "",
          "type": "bytes32"
        },
        {
          "internalType": "uint256",
          "name": "",
          "type": "uint256"
        },
        {
          "internalType": "uint256",
          "name": "_feeExecuted",
          "type": "uint256"
        },
        {
          "internalType": "uint256",
          "name": "",
          "type": "uint256"
        },
        {
          "internalType": "bytes",
          "name": "_structData",
          "type": "bytes"
        }
      ],
      "name": "executeHook",
      "outputs": [
        {
          "internalType": "bool",
          "name": "",
          "type": "bool"
        }
      ],
      "stateMutability": "nonpayable",
      "type": "function"
    },
    {
      "inputs": [
        {
          "internalType": "bytes32",
          "name": "role",
          "type": "bytes32"
        }
      ],
      "name": "getRoleAdmin",
      "outputs": [
        {
          "internalType": "bytes32",
          "name": "",
          "type": "bytes32"
        }
      ],
      "stateMutability": "view",
      "type": "function"
    },
    {
      "inputs": [
        {
          "internalType": "bytes32",
          "name": "role",
          "type": "bytes32"
        },
        {
          "internalType": "uint256",
          "name": "index",
          "type": "uint256"
        }
      ],
      "name": "getRoleMember",
      "outputs": [
        {
          "internalType": "address",
          "name": "",
          "type": "address"
        }
      ],
      "stateMutability": "view",
      "type": "function"
    },
    {
      "inputs": [
        {
          "internalType": "bytes32",
          "name": "role",
          "type": "bytes32"
        }
      ],
      "name": "getRoleMemberCount",
      "outputs": [
        {
          "internalType": "uint256",
          "name": "",
          "type": "uint256"
        }
      ],
      "stateMutability": "view",
      "type": "function"
    },
    {
      "inputs": [
        {
          "internalType": "bytes32",
          "name": "role",
          "type": "bytes32"
        },
        {
          "internalType": "address",
          "name": "account",
          "type": "address"
        }
      ],
      "name": "grantRole",
      "outputs": [],
      "stateMutability": "nonpayable",
      "type": "function"
    },
    {
      "inputs": [
        {
          "internalType": "bytes32",
          "name": "role",
          "type": "bytes32"
        },
        {
          "internalType": "address",
          "name": "account",
          "type": "address"
        }
      ],
      "name": "hasRole",
      "outputs": [
        {
          "internalType": "bool",
          "name": "",
          "type": "bool"
        }
      ],
      "stateMutability": "view",
      "type": "function"
    },
    {
      "inputs": [
        {
          "components": [
            {
              "internalType": "uint256",
              "name": "amount",
              "type": "uint256"
            },
            {
              "internalType": "uint256",
              "name": "feeBps",
              "type": "uint256"
            },
            {
              "internalType": "address",
              "name": "feeRecipient",
              "type": "address"
            },
            {
              "internalType": "address",
              "name": "merchant",
              "type": "address"
            },
            {
              "internalType": "uint256",
              "name": "salt",
              "type": "uint256"
            }
          ],
          "internalType": "struct PaymentIntent",
          "name": "intent",
          "type": "tuple"
        }
      ],
      "name": "hashPaymentIntent",
      "outputs": [
        {
          "internalType": "bytes32",
          "name": "",
          "type": "bytes32"
        }
      ],
      "stateMutability": "view",
      "type": "function"
    },
    {
      "inputs": [],
      "name": "hookWrapper",
      "outputs": [
        {
          "internalType": "address",
          "name": "",
          "type": "address"
        }
      ],
      "stateMutability": "view",
      "type": "function"
    },
    {
      "inputs": [
        {
          "components": [
            {
              "internalType": "uint256",
              "name": "amount",
              "type": "uint256"
            },
            {
              "internalType": "uint256",
              "name": "feeBps",
              "type": "uint256"
            },
            {
              "internalType": "address",
              "name": "feeRecipient",
              "type": "address"
            },
            {
              "internalType": "address",
              "name": "merchant",
              "type": "address"
            },
            {
              "internalType": "uint256",
              "name": "salt",
              "type": "uint256"
            }
          ],
          "internalType": "struct PaymentIntent",
          "name": "_intent",
          "type": "tuple"
        },
        {
          "internalType": "bytes",
          "name": "_signature",
          "type": "bytes"
        }
      ],
      "name": "localExecuteHook",
      "outputs": [
        {
          "internalType": "bool",
          "name": "",
          "type": "bool"
        }
      ],
      "stateMutability": "nonpayable",
      "type": "function"
    },
    {
      "inputs": [
        {
          "internalType": "bytes32",
          "name": "",
          "type": "bytes32"
        }
      ],
      "name": "receivedMints",
      "outputs": [
        {
          "internalType": "uint256",
          "name": "",
          "type": "uint256"
        }
      ],
      "stateMutability": "view",
      "type": "function"
    },
    {
      "inputs": [
        {
          "internalType": "bytes32",
          "name": "role",
          "type": "bytes32"
        },
        {
          "internalType": "address",
          "name": "account",
          "type": "address"
        }
      ],
      "name": "renounceRole",
      "outputs": [],
      "stateMutability": "nonpayable",
      "type": "function"
    },
    {
      "inputs": [
        {
          "internalType": "bytes32",
          "name": "role",
          "type": "bytes32"
        },
        {
          "internalType": "address",
          "name": "account",
          "type": "address"
        }
      ],
      "name": "revokeRole",
      "outputs": [],
      "stateMutability": "nonpayable",
      "type": "function"
    },
    {
      "inputs": [
        {
          "internalType": "uint256",
          "name": "",
          "type": "uint256"
        }
      ],
      "name": "salts",
      "outputs": [
        {
          "internalType": "bool",
          "name": "",
          "type": "bool"
        }
      ],
      "stateMutability": "view",
      "type": "function"
    },
    {
      "inputs": [],
      "name": "usdc",
      "outputs": [
        {
          "internalType": "address",
          "name": "",
          "type": "address"
        }
      ],
      "stateMutability": "view",
      "type": "function"
    }
  ],
  "bytecode": "0x60806040523480156200001157600080fd5b50604051620046de380380620046de833981810160405281019062000037919062000426565b620000476200021960201b60201c565b600080600160008491905055839190505550506001600281905550600073ffffffffffffffffffffffffffffffffffffffff168273ffffffffffffffffffffffffffffffffffffffff161415620000d5576040517f08c379a0000000000000000000000000000000000000000000000000000000008152600401620000cc90620008e2565b60405180910390fd5b600073ffffffffffffffffffffffffffffffffffffffff168173ffffffffffffffffffffffffffffffffffffffff16141562000148576040517f08c379a00000000000000000000000000000000000000000000000000000000081526004016200013f90620008c0565b60405180910390fd5b81600660006101000a81548173ffffffffffffffffffffffffffffffffffffffff021916908373ffffffffffffffffffffffffffffffffffffffff16021790555080600760006101000a81548173ffffffffffffffffffffffffffffffffffffffff021916908373ffffffffffffffffffffffffffffffffffffffff160217905550620001df6000801b336200027860201b60201c565b620002117f62b337eaefec74dadf1a62e856bf9db4f14a0f27d4f48156a95a9f98e7d5e066336200027860201b60201c565b50506200096e565b6000806040516020016200022d9062000868565b6040516020818303038152906040528051906020012091506000604051602001620002589062000803565b604051602081830303815290604052905080805190602001209150509091565b6200028a82826200028e60201b60201c565b5050565b620002bd81600360008581526020019081526020016000206000016200033260201b620015611790919060201c565b156200032e57620002d36200036a60201b60201c565b73ffffffffffffffffffffffffffffffffffffffff168173ffffffffffffffffffffffffffffffffffffffff16837f2f8788117e7eff1d82e926ec794901d17c78024a50270940304540a733656f0d60405160405180910390a45b5050565b600062000362836000018373ffffffffffffffffffffffffffffffffffffffff1660001b6200037260201b60201c565b905092915050565b600033905090565b6000620003868383620003ec60201b60201c565b620003e1578260000182908060018154018082558091505060019003906000526020600020016000909190919091505582600001805490508360010160008481526020019081526020016000208190555060019050620003e6565b600090505b92915050565b600080836001016000848152602001908152602001600020541415905092915050565b600081519050620004208162000954565b92915050565b600080604083850312156200043a57600080fd5b60006200044a858286016200040f565b92505060206200045d858286016200040f565b9150509250929050565b600062000476600c8362000915565b91507f737472696e67206e616d652c00000000000000000000000000000000000000006000830152600c82019050919050565b6000620004b8600f8362000915565b91507f75696e7432353620616d6f756e742c00000000000000000000000000000000006000830152600f82019050919050565b6000620004fa60198362000915565b91507f6164647265737320766572696679696e67436f6e7472616374000000000000006000830152601982019050919050565b60006200053c60108362000915565b91507f75696e7432353620636861696e49642c000000000000000000000000000000006000830152601082019050919050565b60006200057e601c8362000904565b91507f496e76616c696420686f6f6b20777261707065722061646472657373000000006000830152602082019050919050565b6000620005c060118362000915565b91507f61646472657373206d65726368616e742c0000000000000000000000000000006000830152601182019050919050565b60006200060260018362000915565b91507f29000000000000000000000000000000000000000000000000000000000000006000830152600182019050919050565b600062000644600f8362000915565b91507f737472696e672076657273696f6e2c00000000000000000000000000000000006000830152600f82019050919050565b60006200068660148362000904565b91507f496e76616c6964205553444320616464726573730000000000000000000000006000830152602082019050919050565b6000620006c8600f8362000915565b91507f75696e74323536206665654270732c00000000000000000000000000000000006000830152600f82019050919050565b60006200070a600e8362000915565b91507f5061796d656e74496e74656e74280000000000000000000000000000000000006000830152600e82019050919050565b60006200074c600c8362000915565b91507f75696e743235362073616c7400000000000000000000000000000000000000006000830152600c82019050919050565b60006200078e600d8362000915565b91507f454950373132446f6d61696e28000000000000000000000000000000000000006000830152600d82019050919050565b6000620007d060158362000915565b91507f6164647265737320666565526563697069656e742c00000000000000000000006000830152601582019050919050565b60006200081082620006fb565b91506200081d82620004a9565b91506200082a82620006b9565b91506200083782620007c1565b91506200084482620005b1565b915062000851826200073d565b91506200085e82620005f3565b9150819050919050565b600062000875826200077f565b9150620008828262000467565b91506200088f8262000635565b91506200089c826200052d565b9150620008a982620004eb565b9150620008b682620005f3565b9150819050919050565b60006020820190508181036000830152620008db816200056f565b9050919050565b60006020820190508181036000830152620008fd8162000677565b9050919050565b600082825260208201905092915050565b600081905092915050565b60006200092d8262000934565b9050919050565b600073ffffffffffffffffffffffffffffffffffffffff82169050919050565b6200095f8162000920565b81146200096b57600080fd5b50565b613d60806200097e6000396000f3fe608060405234801561001057600080fd5b50600436106101215760003560e01c80638df8663c116100ad578063a217fddf11610071578063a217fddf14610354578063aafafa9f14610372578063ac1d45c51461038e578063ca15c873146103be578063d547741f146103ee57610121565b80638df8663c146102765780639010d07c146102a657806391d14854146102d6578063939bcbc914610306578063959c43c81461032457610121565b80633e413bee116100f45780633e413bee146101aa5780635a316f7a146101c857806372c64509146101e65780637d0c8b77146102165780637f202e241461024657610121565b8063248a9ca3146101265780632f2ff15d1461015657806336568abe146101725780633c1cb25f1461018e575b600080fd5b610140600480360381019061013b91906129f2565b61040a565b60405161014d91906133d7565b60405180910390f35b610170600480360381019061016b9190612a1b565b61042a565b005b61018c60048036038101906101879190612a1b565b6104b4565b005b6101a860048036038101906101a39190612a1b565b61054d565b005b6101b2610690565b6040516101bf9190613378565b60405180910390f35b6101d06106b6565b6040516101dd9190613378565b60405180910390f35b61020060048036038101906101fb9190612a93565b6106dc565b60405161020d91906133bc565b60405180910390f35b610230600480360381019061022b9190612c75565b610a55565b60405161023d91906133d7565b60405180910390f35b610260600480360381019061025b91906129f2565b610a67565b60405161026d919061378b565b60405180910390f35b610290600480360381019061028b9190612b13565b610a7f565b60405161029d91906133bc565b60405180910390f35b6102c060048036038101906102bb9190612a57565b610cea565b6040516102cd9190613378565b60405180910390f35b6102f060048036038101906102eb9190612a1b565b610d1c565b6040516102fd91906133bc565b60405180910390f35b61030e610d4e565b60405161031b91906133d7565b60405180910390f35b61033e60048036038101906103399190612c9e565b610d72565b60405161034b91906133bc565b60405180910390f35b61035c6111ab565b60405161036991906133d7565b60405180910390f35b61038c60048036038101906103879190612921565b6111b2565b005b6103a860048036038101906103a39190612cf2565b611490565b6040516103b591906133bc565b60405180910390f35b6103d860048036038101906103d391906129f2565b6114b0565b6040516103e5919061378b565b60405180910390f35b61040860048036038101906104039190612a1b565b6114d7565b005b600060036000838152602001908152602001600020600201549050919050565b610451600360008481526020019081526020016000206002015461044c611591565b610d1c565b6104a6576040517f08c379a000000000000000000000000000000000000000000000000000000000815260040180806020018281038252602f815260200180613c2c602f913960400191505060405180910390fd5b6104b08282611599565b5050565b6104bc611591565b73ffffffffffffffffffffffffffffffffffffffff168173ffffffffffffffffffffffffffffffffffffffff161461053f576040517f08c379a000000000000000000000000000000000000000000000000000000000815260040180806020018281038252602f815260200180613cfc602f913960400191505060405180910390fd5b610549828261162d565b5050565b6105777f62b337eaefec74dadf1a62e856bf9db4f14a0f27d4f48156a95a9f98e7d5e06633610d1c565b8061058b575061058a6000801b33610d1c565b5b6105ca576040517f08c379a00000000000000000000000000000000000000000000000000000000081526004016105c19061372b565b60405180910390fd5b60006005600084815260200190815260200160002054905060008111610625576040517f08c379a000000000000000000000000000000000000000000000000000000000815260040161061c9061376b565b60405180910390fd5b6000600560008581526020019081526020016000208190555061068b8282600660009054906101000a900473ffffffffffffffffffffffffffffffffffffffff1673ffffffffffffffffffffffffffffffffffffffff166116c19092919063ffffffff16565b505050565b600660009054906101000a900473ffffffffffffffffffffffffffffffffffffffff1681565b600760009054906101000a900473ffffffffffffffffffffffffffffffffffffffff1681565b60003073ffffffffffffffffffffffffffffffffffffffff163373ffffffffffffffffffffffffffffffffffffffff161461074c576040517f08c379a00000000000000000000000000000000000000000000000000000000081526004016107439061374b565b60405180910390fd5b6000838381019061075d9190612c34565b905060046000826000015160800151815260200190815260200160002060009054906101000a900460ff16156107c8576040517f08c379a00000000000000000000000000000000000000000000000000000000081526004016107bf906135eb565b60405180910390fd5b600160046000836000015160800151815260200190815260200160002060006101000a81548160ff021916908315150217905550600061080b8260000151611763565b90506108248183600001516060015184602001516117b3565b868260000151600001511461086e576040517f08c379a00000000000000000000000000000000000000000000000000000000081526004016108659061366b565b60405180910390fd5b6000868803905060006108ae6127106108a0866000015160200151876000015160000151611a8c90919063ffffffff16565b611b1290919063ffffffff16565b9050878110156108f3576040517f08c379a00000000000000000000000000000000000000000000000000000000081526004016108ea906136cb565b60405180910390fd5b6000818560000151600001510390506000818403905061095e86600001516060015183600660009054906101000a900473ffffffffffffffffffffffffffffffffffffffff1673ffffffffffffffffffffffffffffffffffffffff166116c19092919063ffffffff16565b60008111156109bd576109bc86600001516040015182600660009054906101000a900473ffffffffffffffffffffffffffffffffffffffff1673ffffffffffffffffffffffffffffffffffffffff166116c19092919063ffffffff16565b5b85600001516060015173ffffffffffffffffffffffffffffffffffffffff168c7faae703bddaac8f8cf0d973a238676c6300b6347e7199e8eb25941c15781746408860000151600001518d8887878d60000151602001518e60000151604001518f6000015160800151604051610a3a989796959493929190613824565b60405180910390a36001965050505050505095945050505050565b6000610a6082611763565b9050919050565b60056020528060005260406000206000915090505481565b6000600280541415610af9576040517f08c379a000000000000000000000000000000000000000000000000000000000815260040180806020018281038252601f8152602001807f5265656e7472616e637947756172643a207265656e7472616e742063616c6c0081525060200191505060405180910390fd5b60028081905550600760009054906101000a900473ffffffffffffffffffffffffffffffffffffffff1673ffffffffffffffffffffffffffffffffffffffff163373ffffffffffffffffffffffffffffffffffffffff1614610b90576040517f08c379a0000000000000000000000000000000000000000000000000000000008152600401610b879061370b565b60405180910390fd5b848803600560008e8152602001908152602001600020819055503073ffffffffffffffffffffffffffffffffffffffff166372c645098d8a8887876040518663ffffffff1660e01b8152600401610beb9594939291906134d6565b602060405180830381600087803b158015610c0557600080fd5b505af1925050508015610c3657506040513d601f19601f82011682018060405250810190610c3391906129c9565b60015b610cce57610c42613ab2565b80610c4d5750610c8f565b8c7f548eb1029b4a35323ec07af86cc4efa887532238db4c729b35c72ea93d734a3082604051610c7d9190613569565b60405180910390a26000915050610cd3565b8b7f548eb1029b4a35323ec07af86cc4efa887532238db4c729b35c72ea93d734a30604051610cbd906135ab565b60405180910390a260009050610cd3565b809150505b60016002819055509b9a5050505050505050505050565b6000610d148260036000868152602001908152602001600020600001611b9b90919063ffffffff16565b905092915050565b6000610d468260036000868152602001908152602001600020600001611bb590919063ffffffff16565b905092915050565b7f62b337eaefec74dadf1a62e856bf9db4f14a0f27d4f48156a95a9f98e7d5e06681565b6000600280541415610dec576040517f08c379a000000000000000000000000000000000000000000000000000000000815260040180806020018281038252601f8152602001807f5265656e7472616e637947756172643a207265656e7472616e742063616c6c0081525060200191505060405180910390fd5b60028081905550600460008460800151815260200190815260200160002060009054906101000a900460ff1615610e58576040517f08c379a0000000000000000000000000000000000000000000000000000000008152600401610e4f906135eb565b60405180910390fd5b6001600460008560800151815260200190815260200160002060006101000a81548160ff0219169083151502179055506000610e9384611763565b9050610ea4818560600151856117b3565b6000846000015111610eeb576040517f08c379a0000000000000000000000000000000000000000000000000000000008152600401610ee29061366b565b60405180910390fd5b61271084602001511115610f34576040517f08c379a0000000000000000000000000000000000000000000000000000000008152600401610f2b906135cb565b60405180910390fd5b600073ffffffffffffffffffffffffffffffffffffffff16846060015173ffffffffffffffffffffffffffffffffffffffff161415610fa8576040517f08c379a0000000000000000000000000000000000000000000000000000000008152600401610f9f906136eb565b60405180910390fd5b6000610fd9612710610fcb87602001518860000151611a8c90919063ffffffff16565b611b1290919063ffffffff16565b905084600001518110611021576040517f08c379a0000000000000000000000000000000000000000000000000000000008152600401611018906136ab565b60405180910390fd5b61107a33866060015183886000015103600660009054906101000a900473ffffffffffffffffffffffffffffffffffffffff1673ffffffffffffffffffffffffffffffffffffffff16611be5909392919063ffffffff16565b6000811180156110bb5750600073ffffffffffffffffffffffffffffffffffffffff16856040015173ffffffffffffffffffffffffffffffffffffffff1614155b156111145761111333866040015183600660009054906101000a900473ffffffffffffffffffffffffffffffffffffffff1673ffffffffffffffffffffffffffffffffffffffff16611be5909392919063ffffffff16565b5b846060015173ffffffffffffffffffffffffffffffffffffffff16856080015160001b7faae703bddaac8f8cf0d973a238676c6300b6347e7199e8eb25941c1578174640876000015160008960000151868b6000015103878c602001518d604001518e6080015160405161118f9897969594939291906137a6565b60405180910390a3600192505050600160028190555092915050565b6000801b81565b6111dc7f62b337eaefec74dadf1a62e856bf9db4f14a0f27d4f48156a95a9f98e7d5e06633610d1c565b806111f057506111ef6000801b33610d1c565b5b61122f576040517f08c379a00000000000000000000000000000000000000000000000000000000081526004016112269061372b565b60405180910390fd5b6002805414156112a7576040517f08c379a000000000000000000000000000000000000000000000000000000000815260040180806020018281038252601f8152602001807f5265656e7472616e637947756172643a207265656e7472616e742063616c6c0081525060200191505060405180910390fd5b600280819055506000600660009054906101000a900473ffffffffffffffffffffffffffffffffffffffff1673ffffffffffffffffffffffffffffffffffffffff166370a08231306040518263ffffffff1660e01b815260040161130b9190613378565b60206040518083038186803b15801561132357600080fd5b505afa158015611337573d6000803e3d6000fd5b505050506040513d601f19601f8201168201806040525081019061135b9190612d1b565b9050600660009054906101000a900473ffffffffffffffffffffffffffffffffffffffff1673ffffffffffffffffffffffffffffffffffffffff1663a9059cbb83836040518363ffffffff1660e01b81526004016113ba929190613393565b602060405180830381600087803b1580156113d457600080fd5b505af11580156113e8573d6000803e3d6000fd5b505050506040513d601f19601f8201168201806040525081019061140c91906129c9565b61144b576040517f08c379a00000000000000000000000000000000000000000000000000000000081526004016114429061360b565b60405180910390fd5b7fa9364fb2836862098c2b593d2d3f46759b4c6d5b054300f96172b0394430008a828260405161147c929190613393565b60405180910390a150600160028190555050565b60046020528060005260406000206000915054906101000a900460ff1681565b60006114d060036000848152602001908152602001600020600001611ca6565b9050919050565b6114fe60036000848152602001908152602001600020600201546114f9611591565b610d1c565b611553576040517f08c379a0000000000000000000000000000000000000000000000000000000008152600401808060200182810382526030815260200180613c816030913960400191505060405180910390fd5b61155d828261162d565b5050565b6000611589836000018373ffffffffffffffffffffffffffffffffffffffff1660001b611cbb565b905092915050565b600033905090565b6115c1816003600085815260200190815260200160002060000161156190919063ffffffff16565b15611629576115ce611591565b73ffffffffffffffffffffffffffffffffffffffff168173ffffffffffffffffffffffffffffffffffffffff16837f2f8788117e7eff1d82e926ec794901d17c78024a50270940304540a733656f0d60405160405180910390a45b5050565b6116558160036000858152602001908152602001600020600001611d2b90919063ffffffff16565b156116bd57611662611591565b73ffffffffffffffffffffffffffffffffffffffff168173ffffffffffffffffffffffffffffffffffffffff16837ff6391f5c32d9c69d2a47ea670b442974b53935d1edc7fd64eb21e047a839171b60405160405180910390a45b5050565b61175e8363a9059cbb60e01b8484604051602401808373ffffffffffffffffffffffffffffffffffffffff16815260200182815260200192505050604051602081830303815290604052907bffffffffffffffffffffffffffffffffffffffffffffffffffffffff19166020820180517bffffffffffffffffffffffffffffffffffffffffffffffffffffffff8381831617835250505050611d5b565b505050565b60006001548260000151836020015184604001518560600151866080015160405160200161179696959493929190613475565b604051602081830303815290604052805190602001209050919050565b6000806000606060006117c588611e4a565b905060007f649264926492649264926492649264926492649264926492649264926492649260001b6117f688611f0c565b14905080156119235760006060600061180e8a611f65565b905080806020019051810190611824919061294a565b809850819450829550505050600061183b8c612078565b519050600081141561191a576000808573ffffffffffffffffffffffffffffffffffffffff168560405161186f919061333f565b6000604051808303816000865af19150503d80600081146118ac576040519150601f19603f3d011682016040523d82523d6000602084013e6118b1565b606091505b50915091508161191757806040516020016118cc9190613356565b6040516020818303038152906040526040517f08c379a000000000000000000000000000000000000000000000000000000000815260040161190e9190613569565b60405180910390fd5b50505b50505050611927565b8692505b600061193289612078565b511115611a5b5760008873ffffffffffffffffffffffffffffffffffffffff16631626ba7e84866040518363ffffffff1660e01b8152600401611976929190613445565b60206040518083038186803b15801561198e57600080fd5b505afa1580156119a2573d6000803e3d6000fd5b505050506040513d601f19601f820116820180604052508101906119c69190612c0b565b9050631626ba7e60e01b7bffffffffffffffffffffffffffffffffffffffffffffffffffffffff1916817bffffffffffffffffffffffffffffffffffffffffffffffffffffffff191614611a4f576040517f08c379a0000000000000000000000000000000000000000000000000000000008152600401611a469061362b565b60405180910390fd5b50505050505050611a87565b6020870151955060408701519450606087015160001a9350611a80888386898961209c565b5050505050505b505050565b600080831415611a9f5760009050611b0c565b6000828402905082848281611ab057fe5b0414611b07576040517f08c379a0000000000000000000000000000000000000000000000000000000008152600401808060200182810382526021815260200180613cb16021913960400191505060405180910390fd5b809150505b92915050565b6000808211611b89576040517f08c379a000000000000000000000000000000000000000000000000000000000815260040180806020018281038252601a8152602001807f536166654d6174683a206469766973696f6e206279207a65726f00000000000081525060200191505060405180910390fd5b818381611b9257fe5b04905092915050565b6000611baa83600001836121f6565b60001c905092915050565b6000611bdd836000018373ffffffffffffffffffffffffffffffffffffffff1660001b612279565b905092915050565b611ca0846323b872dd60e01b858585604051602401808473ffffffffffffffffffffffffffffffffffffffff1681526020018373ffffffffffffffffffffffffffffffffffffffff1681526020018281526020019350505050604051602081830303815290604052907bffffffffffffffffffffffffffffffffffffffffffffffffffffffff19166020820180517bffffffffffffffffffffffffffffffffffffffffffffffffffffffff8381831617835250505050611d5b565b50505050565b6000611cb48260000161229c565b9050919050565b6000611cc78383612279565b611d20578260000182908060018154018082558091505060019003906000526020600020016000909190919091505582600001805490508360010160008481526020019081526020016000208190555060019050611d25565b600090505b92915050565b6000611d53836000018373ffffffffffffffffffffffffffffffffffffffff1660001b6122ad565b905092915050565b6000611dbd826040518060400160405280602081526020017f5361666545524332303a206c6f772d6c6576656c2063616c6c206661696c65648152508573ffffffffffffffffffffffffffffffffffffffff166123959092919063ffffffff16565b9050600081511115611e4557808060200190516020811015611dde57600080fd5b8101908080519060200190929190505050611e44576040517f08c379a000000000000000000000000000000000000000000000000000000000815260040180806020018281038252602a815260200180613cd2602a913960400191505060405180910390fd5b5b505050565b600080611ed26000546040518060400160405280601681526020017f5061796d656e74496e74656e7448616e646c6572563100000000000000000000815250805190602001206040518060400160405280600181526020017f3100000000000000000000000000000000000000000000000000000000000000815250805190602001206123ad565b905061190160f01b8184604051602001611eee93929190613302565b60405160208183030381529060405280519060200120915050919050565b6000602082511015611f53576040517f08c379a0000000000000000000000000000000000000000000000000000000008152600401611f4a9061368b565b60405180910390fd5b60208251036020018201519050919050565b60606020825111611fab576040517f08c379a0000000000000000000000000000000000000000000000000000000008152600401611fa29061358b565b60405180910390fd5b60006020835103905060008167ffffffffffffffff81118015611fcd57600080fd5b506040519080825280601f01601f1916602001820160405280156120005781602001600182028036833780820191505090505b50905060005b8281101561206d5784818151811061201a57fe5b602001015160f81c60f81b82828151811061203157fe5b60200101907effffffffffffffffffffffffffffffffffffffffffffffffffffffffffffff1916908160001a9053508080600101915050612006565b508092505050919050565b6060813b604051915080825280600060208401853c60208101820160405250919050565b601b8360ff16141580156120b45750601c8360ff1614155b156120f4576040517f08c379a00000000000000000000000000000000000000000000000000000000081526004016120eb9061364b565b60405180910390fd5b6000600185858585604051600081526020016040526040516121199493929190613524565b6020604051602081039080840390855afa15801561213b573d6000803e3d6000fd5b505050602060405103519050600073ffffffffffffffffffffffffffffffffffffffff168173ffffffffffffffffffffffffffffffffffffffff1614806121ae57508073ffffffffffffffffffffffffffffffffffffffff168673ffffffffffffffffffffffffffffffffffffffff1614155b156121ee576040517f08c379a00000000000000000000000000000000000000000000000000000000081526004016121e59061362b565b60405180910390fd5b505050505050565b600081836000018054905011612257576040517f08c379a0000000000000000000000000000000000000000000000000000000008152600401808060200182810382526022815260200180613c0a6022913960400191505060405180910390fd5b82600001828154811061226657fe5b9060005260206000200154905092915050565b600080836001016000848152602001908152602001600020541415905092915050565b600081600001805490509050919050565b6000808360010160008481526020019081526020016000205490506000811461238957600060018203905060006001866000018054905003905060008660000182815481106122f857fe5b906000526020600020015490508087600001848154811061231557fe5b906000526020600020018190555060018301876001016000838152602001908152602001600020819055508660000180548061234d57fe5b6001900381819060005260206000200160009055905586600101600087815260200190815260200160002060009055600194505050505061238f565b60009150505b92915050565b60606123a484846000856123ec565b90509392505050565b60008046905084848483306040516020016123cc9594939291906133f2565b604051602081830303815290604052805190602001209150509392505050565b606082471015612447576040517f08c379a0000000000000000000000000000000000000000000000000000000008152600401808060200182810382526026815260200180613c5b6026913960400191505060405180910390fd5b61245085612594565b6124c2576040517f08c379a000000000000000000000000000000000000000000000000000000000815260040180806020018281038252601d8152602001807f416464726573733a2063616c6c20746f206e6f6e2d636f6e747261637400000081525060200191505060405180910390fd5b6000808673ffffffffffffffffffffffffffffffffffffffff1685876040518082805190602001908083835b6020831061251157805182526020820191506020810190506020830392506124ee565b6001836020036101000a03801982511681845116808217855250505050505090500191505060006040518083038185875af1925050503d8060008114612573576040519150601f19603f3d011682016040523d82523d6000602084013e612578565b606091505b50915091506125888282866125a7565b92505050949350505050565b600080823b905060008111915050919050565b606083156125b75782905061266c565b6000835111156125ca5782518084602001fd5b816040517f08c379a00000000000000000000000000000000000000000000000000000000081526004018080602001828103825283818151815260200191508051906020019080838360005b83811015612631578082015181840152602081019050612616565b50505050905090810190601f16801561265e5780820380516001836020036101000a031916815260200191505b509250505060405180910390fd5b9392505050565b6000612686612681846138d3565b6138a2565b90508281526020810184848401111561269e57600080fd5b6126a9848285613a3c565b509392505050565b60006126c46126bf846138d3565b6138a2565b9050828152602081018484840111156126dc57600080fd5b6126e7848285613a4b565b509392505050565b6000813590506126fe81613b68565b92915050565b60008151905061271381613b7f565b92915050565b60008151905061272881613b96565b92915050565b60008135905061273d81613bad565b92915050565b60008151905061275281613bc4565b92915050565b60008083601f84011261276a57600080fd5b8235905067ffffffffffffffff81111561278357600080fd5b60208301915083600182028301111561279b57600080fd5b9250929050565b600082601f8301126127b357600080fd5b81356127c3848260208601612673565b91505092915050565b600082601f8301126127dd57600080fd5b81516127ed8482602086016126b1565b91505092915050565b600060c0828403121561280857600080fd5b61281260406138a2565b905060006128228482850161285a565b60008301525060a082013567ffffffffffffffff81111561284257600080fd5b61284e848285016127a2565b60208301525092915050565b600060a0828403121561286c57600080fd5b61287660a06138a2565b90506000612886848285016128e2565b600083015250602061289a848285016128e2565b60208301525060406128ae848285016126ef565b60408301525060606128c2848285016126ef565b60608301525060806128d6848285016128e2565b60808301525092915050565b6000813590506128f181613bdb565b92915050565b60008151905061290681613bdb565b92915050565b60008135905061291b81613bf2565b92915050565b60006020828403121561293357600080fd5b6000612941848285016126ef565b91505092915050565b60008060006060848603121561295f57600080fd5b600061296d86828701612704565b935050602084015167ffffffffffffffff81111561298a57600080fd5b612996868287016127cc565b925050604084015167ffffffffffffffff8111156129b357600080fd5b6129bf868287016127cc565b9150509250925092565b6000602082840312156129db57600080fd5b60006129e984828501612719565b91505092915050565b600060208284031215612a0457600080fd5b6000612a128482850161272e565b91505092915050565b60008060408385031215612a2e57600080fd5b6000612a3c8582860161272e565b9250506020612a4d858286016126ef565b9150509250929050565b60008060408385031215612a6a57600080fd5b6000612a788582860161272e565b9250506020612a89858286016128e2565b9150509250929050565b600080600080600060808688031215612aab57600080fd5b6000612ab98882890161272e565b9550506020612aca888289016128e2565b9450506040612adb888289016128e2565b935050606086013567ffffffffffffffff811115612af857600080fd5b612b0488828901612758565b92509250509295509295909350565b60008060008060008060008060008060006101408c8e031215612b3557600080fd5b6000612b438e828f0161272e565b9b50506020612b548e828f0161290c565b9a50506040612b658e828f0161272e565b9950506060612b768e828f0161272e565b9850506080612b878e828f016128e2565b97505060a0612b988e828f0161272e565b96505060c0612ba98e828f016128e2565b95505060e0612bba8e828f016128e2565b945050610100612bcc8e828f016128e2565b9350506101208c013567ffffffffffffffff811115612bea57600080fd5b612bf68e828f01612758565b92509250509295989b509295989b9093969950565b600060208284031215612c1d57600080fd5b6000612c2b84828501612743565b91505092915050565b600060208284031215612c4657600080fd5b600082013567ffffffffffffffff811115612c6057600080fd5b612c6c848285016127f6565b91505092915050565b600060a08284031215612c8757600080fd5b6000612c958482850161285a565b91505092915050565b60008060c08385031215612cb157600080fd5b6000612cbf8582860161285a565b92505060a083013567ffffffffffffffff811115612cdc57600080fd5b612ce8858286016127a2565b9150509250929050565b600060208284031215612d0457600080fd5b6000612d12848285016128e2565b91505092915050565b600060208284031215612d2d57600080fd5b6000612d3b848285016128f7565b91505092915050565b612d4d81613951565b82525050565b612d5c81613975565b82525050565b612d73612d6e82613981565b613a7e565b82525050565b612d82816139ad565b82525050565b612d99612d94826139ad565b613a88565b82525050565b6000612dab8385613919565b9350612db8838584613a3c565b612dc183613a94565b840190509392505050565b6000612dd782613903565b612de18185613919565b9350612df1818560208601613a4b565b612dfa81613a94565b840191505092915050565b6000612e1082613903565b612e1a818561392a565b9350612e2a818560208601613a4b565b80840191505092915050565b612e3f81613a2a565b82525050565b6000612e508261390e565b612e5a8185613935565b9350612e6a818560208601613a4b565b612e7381613a94565b840191505092915050565b6000612e8b602383613935565b91507f5369676e617475726520746f6f2073686f727420666f7220363439322073756660008301527f66697800000000000000000000000000000000000000000000000000000000006020830152604082019050919050565b6000612ef1600d83613935565b91507f556e6b6e6f776e206572726f72000000000000000000000000000000000000006000830152602082019050919050565b6000612f31600f83613935565b91507f496e76616c6964206665652062707300000000000000000000000000000000006000830152602082019050919050565b6000612f71601183613935565b91507f53616c7420616c726561647920757365640000000000000000000000000000006000830152602082019050919050565b6000612fb1600f83613935565b91507f5472616e73666572206661696c656400000000000000000000000000000000006000830152602082019050919050565b6000612ff1601083613935565b91507f496e76616c69645369676e6174757265000000000000000000000000000000006000830152602082019050919050565b6000613031601183613935565b91507f496e76616c696456506172616d657465720000000000000000000000000000006000830152602082019050919050565b6000613071600e83613935565b91507f496e76616c696420616d6f756e740000000000000000000000000000000000006000830152602082019050919050565b60006130b1601383613935565b91507f5369676e617475726520746f6f2073686f7274000000000000000000000000006000830152602082019050919050565b60006130f1600c83613935565b91507f46656520746f6f206869676800000000000000000000000000000000000000006000830152602082019050919050565b6000613131601583613946565b91507f455243363439324465706c6f794661696c65643a2000000000000000000000006000830152601582019050919050565b6000613171601e83613935565b91507f46656520657865637574656420657863656564732067726f73732066656500006000830152602082019050919050565b60006131b1601083613935565b91507f496e76616c6964206d65726368616e74000000000000000000000000000000006000830152602082019050919050565b60006131f1601d83613935565b91507f4f6e6c792063616c6c61626c6520627920686f6f6b20777261707065720000006000830152602082019050919050565b6000613231601583613935565b91507f4f6e6c79207265636f766572206f722061646d696e00000000000000000000006000830152602082019050919050565b6000613271601583613935565b91507f4f6e6c792063616c6c61626c652062792073656c6600000000000000000000006000830152602082019050919050565b60006132b1601283613935565b91507f4e6f20616d6f756e7420726563656976656400000000000000000000000000006000830152602082019050919050565b6132ed81613a03565b82525050565b6132fc81613a1d565b82525050565b600061330e8286612d62565b60028201915061331e8285612d88565b60208201915061332e8284612d88565b602082019150819050949350505050565b600061334b8284612e05565b915081905092915050565b600061336182613124565b915061336d8284612e05565b915081905092915050565b600060208201905061338d6000830184612d44565b92915050565b60006040820190506133a86000830185612d44565b6133b560208301846132e4565b9392505050565b60006020820190506133d16000830184612d53565b92915050565b60006020820190506133ec6000830184612d79565b92915050565b600060a0820190506134076000830188612d79565b6134146020830187612d79565b6134216040830186612d79565b61342e60608301856132e4565b61343b6080830184612d44565b9695505050505050565b600060408201905061345a6000830185612d79565b818103602083015261346c8184612dcc565b90509392505050565b600060c08201905061348a6000830189612d79565b61349760208301886132e4565b6134a460408301876132e4565b6134b16060830186612d44565b6134be6080830185612d44565b6134cb60a08301846132e4565b979650505050505050565b60006080820190506134eb6000830188612d79565b6134f860208301876132e4565b61350560408301866132e4565b8181036060830152613518818486612d9f565b90509695505050505050565b60006080820190506135396000830187612d79565b61354660208301866132f3565b6135536040830185612d79565b6135606060830184612d79565b95945050505050565b600060208201905081810360008301526135838184612e45565b905092915050565b600060208201905081810360008301526135a481612e7e565b9050919050565b600060208201905081810360008301526135c481612ee4565b9050919050565b600060208201905081810360008301526135e481612f24565b9050919050565b6000602082019050818103600083015261360481612f64565b9050919050565b6000602082019050818103600083015261362481612fa4565b9050919050565b6000602082019050818103600083015261364481612fe4565b9050919050565b6000602082019050818103600083015261366481613024565b9050919050565b6000602082019050818103600083015261368481613064565b9050919050565b600060208201905081810360008301526136a4816130a4565b9050919050565b600060208201905081810360008301526136c4816130e4565b9050919050565b600060208201905081810360008301526136e481613164565b9050919050565b60006020820190508181036000830152613704816131a4565b9050919050565b60006020820190508181036000830152613724816131e4565b9050919050565b6000602082019050818103600083015261374481613224565b9050919050565b6000602082019050818103600083015261376481613264565b9050919050565b60006020820190508181036000830152613784816132a4565b9050919050565b60006020820190506137a060008301846132e4565b92915050565b6000610100820190506137bc600083018b6132e4565b6137c9602083018a612e36565b6137d660408301896132e4565b6137e360608301886132e4565b6137f060808301876132e4565b6137fd60a08301866132e4565b61380a60c0830185612d44565b61381760e08301846132e4565b9998505050505050505050565b60006101008201905061383a600083018b6132e4565b613847602083018a6132e4565b61385460408301896132e4565b61386160608301886132e4565b61386e60808301876132e4565b61387b60a08301866132e4565b61388860c0830185612d44565b61389560e08301846132e4565b9998505050505050505050565b6000604051905081810181811067ffffffffffffffff821117156138c9576138c8613a92565b5b8060405250919050565b600067ffffffffffffffff8211156138ee576138ed613a92565b5b601f19601f8301169050602081019050919050565b600081519050919050565b600081519050919050565b600082825260208201905092915050565b600081905092915050565b600082825260208201905092915050565b600081905092915050565b600061395c826139e3565b9050919050565b600061396e826139e3565b9050919050565b60008115159050919050565b60007fffff00000000000000000000000000000000000000000000000000000000000082169050919050565b6000819050919050565b60007fffffffff0000000000000000000000000000000000000000000000000000000082169050919050565b600073ffffffffffffffffffffffffffffffffffffffff82169050919050565b6000819050919050565b600063ffffffff82169050919050565b600060ff82169050919050565b6000613a3582613a03565b9050919050565b82818337600083830152505050565b60005b83811015613a69578082015181840152602081019050613a4e565b83811115613a78576000848401525b50505050565b6000819050919050565b6000819050919050565bfe5b6000601f19601f8301169050919050565b60008160e01c9050919050565b600060443d1015613ac257613b65565b60046000803e613ad3600051613aa5565b6308c379a08114613ae45750613b65565b60405160043d036004823e80513d602482011167ffffffffffffffff82111715613b1057505050613b65565b808201805167ffffffffffffffff811115613b2f575050505050613b65565b8060208301013d8501811115613b4a57505050505050613b65565b613b5382613a94565b60208401016040528296505050505050505b90565b613b7181613951565b8114613b7c57600080fd5b50565b613b8881613963565b8114613b9357600080fd5b50565b613b9f81613975565b8114613baa57600080fd5b50565b613bb6816139ad565b8114613bc157600080fd5b50565b613bcd816139b7565b8114613bd857600080fd5b50565b613be481613a03565b8114613bef57600080fd5b50565b613bfb81613a0d565b8114613c0657600080fd5b5056fe456e756d657261626c655365743a20696e646578206f7574206f6620626f756e6473416363657373436f6e74726f6c3a2073656e646572206d75737420626520616e2061646d696e20746f206772616e74416464726573733a20696e73756666696369656e742062616c616e636520666f722063616c6c416363657373436f6e74726f6c3a2073656e646572206d75737420626520616e2061646d696e20746f207265766f6b65536166654d6174683a206d756c7469706c69636174696f6e206f766572666c6f775361666545524332303a204552433230206f7065726174696f6e20646964206e6f742073756363656564416363657373436f6e74726f6c3a2063616e206f6e6c792072656e6f756e636520726f6c657320666f722073656c66a2646970667358221220ee473b985de34afb8add5df84e92ad3ecf02f93db67502c305cc5216023e5b9264736f6c63430007060033",
  "linkReferences": {},
  "deployedLinkReferences": {}
}