{
  "_format": "hh-sol-artifact-1",
  "contractName": "PaymentIntentHandler",
  "sourceName": "contracts/PaymentIntentHandler.sol",
  "abi": [
    {
      "inputs": [
        {
          "internalType": "address",
          "name": "_usdc",
          "type": "address"
        },
        {
          "internalType": "address",
          "name": "_owner",
          "type": "address"
        }
      ],
      "stateMutability": "nonpayable",
      "type": "constructor"
    },
    {
      "anonymous": false,
      "inputs": [
        {
          "indexed": false,
          "internalType": "address",
          "name": "to",
          "type": "address"
        },
        {
          "indexed": false,
          "internalType": "uint256",
          "name": "amount",
          "type": "uint256"
        }
      ],
      "name": "EmergencyRecovery",
      "type": "event"
    },
    {
      "anonymous": false,
      "inputs": [
        {
          "indexed": true,
          "internalType": "address",
          "name": "previousOwner",
          "type": "address"
        },
        {
          "indexed": true,
          "internalType": "address",
          "name": "newOwner",
          "type": "address"
        }
      ],
      "name": "OwnershipTransferred",
      "type": "event"
    },
    {
      "anonymous": false,
      "inputs": [
        {
          "indexed": true,
          "internalType": "address",
          "name": "merchant",
          "type": "address"
        },
        {
          "indexed": false,
          "internalType": "uint256",
          "name": "amount",
          "type": "uint256"
        },
        {
          "indexed": false,
          "internalType": "uint256",
          "name": "feeBps",
          "type": "uint256"
        },
        {
          "indexed": false,
          "internalType": "address",
          "name": "feeRecipient",
          "type": "address"
        },
        {
          "indexed": false,
          "internalType": "uint256",
          "name": "salt",
          "type": "uint256"
        }
      ],
      "name": "PaymentIntentExecuted",
      "type": "event"
    },
    {
      "inputs": [
        {
          "internalType": "address",
          "name": "to",
          "type": "address"
        }
      ],
      "name": "emergencyRecover",
      "outputs": [],
      "stateMutability": "nonpayable",
      "type": "function"
    },
    {
      "inputs": [
        {
          "internalType": "uint256",
          "name": "_burnAmount",
          "type": "uint256"
        },
        {
          "internalType": "uint256",
          "name": "_feeExecuted",
          "type": "uint256"
        },
        {
          "internalType": "address",
          "name": "_messageSender",
          "type": "address"
        },
        {
          "internalType": "bytes",
          "name": "_structData",
          "type": "bytes"
        }
      ],
      "name": "executeHook",
      "outputs": [
        {
          "internalType": "bool",
          "name": "",
          "type": "bool"
        }
      ],
      "stateMutability": "nonpayable",
      "type": "function"
    },
    {
      "inputs": [],
      "name": "owner",
      "outputs": [
        {
          "internalType": "address",
          "name": "",
          "type": "address"
        }
      ],
      "stateMutability": "view",
      "type": "function"
    },
    {
      "inputs": [
        {
          "internalType": "address",
          "name": "newOwner",
          "type": "address"
        }
      ],
      "name": "transferOwnership",
      "outputs": [],
      "stateMutability": "nonpayable",
      "type": "function"
    },
    {
      "inputs": [],
      "name": "usdc",
      "outputs": [
        {
          "internalType": "address",
          "name": "",
          "type": "address"
        }
      ],
      "stateMutability": "view",
      "type": "function"
    },
    {
      "inputs": [
        {
          "internalType": "uint256",
          "name": "",
          "type": "uint256"
        }
      ],
      "name": "usedSalts",
      "outputs": [
        {
          "internalType": "bool",
          "name": "",
          "type": "bool"
        }
      ],
      "stateMutability": "view",
      "type": "function"
    }
  ],
  "bytecode": "0x60806040523480156200001157600080fd5b5060405162000e2338038062000e23833981810160405281019062000037919062000194565b620000576200004b620000b160201b60201c565b620000b960201b60201c565b81600260006101000a81548173ffffffffffffffffffffffffffffffffffffffff021916908373ffffffffffffffffffffffffffffffffffffffff160217905550620000a981620000b960201b60201c565b505062000223565b600033905090565b60008060009054906101000a900473ffffffffffffffffffffffffffffffffffffffff169050816000806101000a81548173ffffffffffffffffffffffffffffffffffffffff021916908373ffffffffffffffffffffffffffffffffffffffff1602179055508173ffffffffffffffffffffffffffffffffffffffff168173ffffffffffffffffffffffffffffffffffffffff167f8be0079c531659141344cd1fd0a4f28419497f9722a3daafe3b4186f6b6457e060405160405180910390a35050565b6000815190506200018e8162000209565b92915050565b60008060408385031215620001a857600080fd5b6000620001b8858286016200017d565b9250506020620001cb858286016200017d565b9150509250929050565b6000620001e282620001e9565b9050919050565b600073ffffffffffffffffffffffffffffffffffffffff82169050919050565b6200021481620001d5565b81146200022057600080fd5b50565b610bf080620002336000396000f3fe608060405234801561001057600080fd5b50600436106100625760003560e01c80633e413bee14610067578063520ee0d0146100855780638da5cb5b146100b5578063aafafa9f146100d3578063c775a2e4146100ef578063f2fde38b1461011f575b600080fd5b61006f61013b565b60405161007c9190610a44565b60405180910390f35b61009f600480360381019061009a9190610957565b610161565b6040516100ac9190610a88565b60405180910390f35b6100bd610322565b6040516100ca9190610a44565b60405180910390f35b6100ed60048036038101906100e8919061088a565b61034b565b005b61010960048036038101906101049190610905565b61052d565b6040516101169190610a88565b60405180910390f35b6101396004803603810190610134919061088a565b61054d565b005b600260009054906101000a900473ffffffffffffffffffffffffffffffffffffffff1681565b600080838381019061017391906108dc565b905060008688039050600061271083602001518460000151028161019357fe5b049050600081846000015103905060008184039050600260009054906101000a900473ffffffffffffffffffffffffffffffffffffffff1673ffffffffffffffffffffffffffffffffffffffff1663a9059cbb8660600151846040518363ffffffff1660e01b8152600401610209929190610a5f565b602060405180830381600087803b15801561022357600080fd5b505af1158015610237573d6000803e3d6000fd5b505050506040513d601f19601f8201168201806040525081019061025b91906108b3565b50600260009054906101000a900473ffffffffffffffffffffffffffffffffffffffff1673ffffffffffffffffffffffffffffffffffffffff1663a9059cbb8660400151836040518363ffffffff1660e01b81526004016102bd929190610a5f565b602060405180830381600087803b1580156102d757600080fd5b505af11580156102eb573d6000803e3d6000fd5b505050506040513d601f19601f8201168201806040525081019061030f91906108b3565b5060019550505050505095945050505050565b60008060009054906101000a900473ffffffffffffffffffffffffffffffffffffffff16905090565b6103536105e7565b6000600260009054906101000a900473ffffffffffffffffffffffffffffffffffffffff1673ffffffffffffffffffffffffffffffffffffffff166370a08231306040518263ffffffff1660e01b81526004016103b09190610a44565b60206040518083038186803b1580156103c857600080fd5b505afa1580156103dc573d6000803e3d6000fd5b505050506040513d601f19601f82011682018060405250810190610400919061092e565b9050600260009054906101000a900473ffffffffffffffffffffffffffffffffffffffff1673ffffffffffffffffffffffffffffffffffffffff1663a9059cbb83836040518363ffffffff1660e01b815260040161045f929190610a5f565b602060405180830381600087803b15801561047957600080fd5b505af115801561048d573d6000803e3d6000fd5b505050506040513d601f19601f820116820180604052508101906104b191906108b3565b6104f0576040517f08c379a00000000000000000000000000000000000000000000000000000000081526004016104e790610aa3565b60405180910390fd5b7fa9364fb2836862098c2b593d2d3f46759b4c6d5b054300f96172b0394430008a8282604051610521929190610a5f565b60405180910390a15050565b60016020528060005260406000206000915054906101000a900460ff1681565b6105556105e7565b600073ffffffffffffffffffffffffffffffffffffffff168173ffffffffffffffffffffffffffffffffffffffff1614156105db576040517f08c379a0000000000000000000000000000000000000000000000000000000008152600401808060200182810382526026815260200180610b956026913960400191505060405180910390fd5b6105e481610698565b50565b6105ef61075c565b73ffffffffffffffffffffffffffffffffffffffff1661060d610322565b73ffffffffffffffffffffffffffffffffffffffff1614610696576040517f08c379a00000000000000000000000000000000000000000000000000000000081526004018080602001828103825260208152602001807f4f776e61626c653a2063616c6c6572206973206e6f7420746865206f776e657281525060200191505060405180910390fd5b565b60008060009054906101000a900473ffffffffffffffffffffffffffffffffffffffff169050816000806101000a81548173ffffffffffffffffffffffffffffffffffffffff021916908373ffffffffffffffffffffffffffffffffffffffff1602179055508173ffffffffffffffffffffffffffffffffffffffff168173ffffffffffffffffffffffffffffffffffffffff167f8be0079c531659141344cd1fd0a4f28419497f9722a3daafe3b4186f6b6457e060405160405180910390a35050565b600033905090565b60008135905061077381610b4f565b92915050565b60008151905061078881610b66565b92915050565b60008083601f8401126107a057600080fd5b8235905067ffffffffffffffff8111156107b957600080fd5b6020830191508360018202830111156107d157600080fd5b9250929050565b600060a082840312156107ea57600080fd5b6107f460a0610ac3565b9050600061080484828501610860565b600083015250602061081884828501610860565b602083015250604061082c84828501610764565b604083015250606061084084828501610764565b606083015250608061085484828501610860565b60808301525092915050565b60008135905061086f81610b7d565b92915050565b60008151905061088481610b7d565b92915050565b60006020828403121561089c57600080fd5b60006108aa84828501610764565b91505092915050565b6000602082840312156108c557600080fd5b60006108d384828501610779565b91505092915050565b600060a082840312156108ee57600080fd5b60006108fc848285016107d8565b91505092915050565b60006020828403121561091757600080fd5b600061092584828501610860565b91505092915050565b60006020828403121561094057600080fd5b600061094e84828501610875565b91505092915050565b60008060008060006080868803121561096f57600080fd5b600061097d88828901610860565b955050602061098e88828901610860565b945050604061099f88828901610764565b935050606086013567ffffffffffffffff8111156109bc57600080fd5b6109c88882890161078e565b92509250509295509295909350565b6109e081610b05565b82525050565b6109ef81610b17565b82525050565b6000610a02600f83610af4565b91507f5472616e73666572206661696c656400000000000000000000000000000000006000830152602082019050919050565b610a3e81610b43565b82525050565b6000602082019050610a5960008301846109d7565b92915050565b6000604082019050610a7460008301856109d7565b610a816020830184610a35565b9392505050565b6000602082019050610a9d60008301846109e6565b92915050565b60006020820190508181036000830152610abc816109f5565b9050919050565b6000604051905081810181811067ffffffffffffffff82111715610aea57610ae9610b4d565b5b8060405250919050565b600082825260208201905092915050565b6000610b1082610b23565b9050919050565b60008115159050919050565b600073ffffffffffffffffffffffffffffffffffffffff82169050919050565b6000819050919050565bfe5b610b5881610b05565b8114610b6357600080fd5b50565b610b6f81610b17565b8114610b7a57600080fd5b50565b610b8681610b43565b8114610b9157600080fd5b5056fe4f776e61626c653a206e6577206f776e657220697320746865207a65726f2061646472657373a2646970667358221220405dfb2eeeda6cbce48426368e26c2bda0e1908c48f40f0510739b0c3c8a39eb64736f6c63430007060033",
  "linkReferences": {},
  "deployedLinkReferences": {}
}