{
  "_format": "hh-sol-artifact-1",
  "contractName": "CCTPHookWrapper",
  "sourceName": "contracts/CCTPHookWrapper.sol",
  "abi": [
    {
      "inputs": [
        {
          "internalType": "address",
          "name": "_messageTransmitter",
          "type": "address"
        }
      ],
      "stateMutability": "nonpayable",
      "type": "constructor"
    },
    {
      "anonymous": false,
      "inputs": [
        {
          "indexed": true,
          "internalType": "address",
          "name": "previousOwner",
          "type": "address"
        },
        {
          "indexed": true,
          "internalType": "address",
          "name": "newOwner",
          "type": "address"
        }
      ],
      "name": "OwnershipTransferStarted",
      "type": "event"
    },
    {
      "anonymous": false,
      "inputs": [
        {
          "indexed": true,
          "internalType": "address",
          "name": "previousOwner",
          "type": "address"
        },
        {
          "indexed": true,
          "internalType": "address",
          "name": "newOwner",
          "type": "address"
        }
      ],
      "name": "OwnershipTransferred",
      "type": "event"
    },
    {
      "inputs": [],
      "name": "acceptOwnership",
      "outputs": [],
      "stateMutability": "nonpayable",
      "type": "function"
    },
    {
      "inputs": [],
      "name": "messageTransmitter",
      "outputs": [
        {
          "internalType": "contract IReceiverV2",
          "name": "",
          "type": "address"
        }
      ],
      "stateMutability": "view",
      "type": "function"
    },
    {
      "inputs": [],
      "name": "owner",
      "outputs": [
        {
          "internalType": "address",
          "name": "",
          "type": "address"
        }
      ],
      "stateMutability": "view",
      "type": "function"
    },
    {
      "inputs": [],
      "name": "pendingOwner",
      "outputs": [
        {
          "internalType": "address",
          "name": "",
          "type": "address"
        }
      ],
      "stateMutability": "view",
      "type": "function"
    },
    {
      "inputs": [
        {
          "internalType": "bytes",
          "name": "message",
          "type": "bytes"
        },
        {
          "internalType": "bytes",
          "name": "attestation",
          "type": "bytes"
        }
      ],
      "name": "relay",
      "outputs": [
        {
          "internalType": "bool",
          "name": "relaySuccess",
          "type": "bool"
        },
        {
          "internalType": "bool",
          "name": "hookSuccess",
          "type": "bool"
        },
        {
          "internalType": "bytes",
          "name": "hookReturnData",
          "type": "bytes"
        }
      ],
      "stateMutability": "nonpayable",
      "type": "function"
    },
    {
      "inputs": [],
      "name": "supportedMessageBodyVersion",
      "outputs": [
        {
          "internalType": "uint32",
          "name": "",
          "type": "uint32"
        }
      ],
      "stateMutability": "view",
      "type": "function"
    },
    {
      "inputs": [],
      "name": "supportedMessageVersion",
      "outputs": [
        {
          "internalType": "uint32",
          "name": "",
          "type": "uint32"
        }
      ],
      "stateMutability": "view",
      "type": "function"
    },
    {
      "inputs": [
        {
          "internalType": "address",
          "name": "newOwner",
          "type": "address"
        }
      ],
      "name": "transferOwnership",
      "outputs": [],
      "stateMutability": "nonpayable",
      "type": "function"
    }
  ],
  "bytecode": "0x60a06040523480156200001157600080fd5b5060405162001d9338038062001d93833981810160405260208110156200003757600080fd5b8101908080519060200190929190505050620000686200005c6200014a60201b60201c565b6200015260201b60201c565b600073ffffffffffffffffffffffffffffffffffffffff168173ffffffffffffffffffffffffffffffffffffffff1614156200010c576040517f08c379a000000000000000000000000000000000000000000000000000000000815260040180806020018281038252601f8152602001807f4d657373616765207472616e736d697474657220697320746865207a65726f0081525060200191505060405180910390fd5b8073ffffffffffffffffffffffffffffffffffffffff1660808173ffffffffffffffffffffffffffffffffffffffff1660601b815250505062000254565b600033905090565b600160006101000a81549073ffffffffffffffffffffffffffffffffffffffff02191690556200018d816200019060201b620009a11760201c565b50565b60008060009054906101000a900473ffffffffffffffffffffffffffffffffffffffff169050816000806101000a81548173ffffffffffffffffffffffffffffffffffffffff021916908373ffffffffffffffffffffffffffffffffffffffff1602179055508173ffffffffffffffffffffffffffffffffffffffff168173ffffffffffffffffffffffffffffffffffffffff167f8be0079c531659141344cd1fd0a4f28419497f9722a3daafe3b4186f6b6457e060405160405180910390a35050565b60805160601c611b1c62000277600039806104b3528061087a5250611b1c6000f3fe608060405234801561001057600080fd5b50600436106100885760003560e01c8063875c7ecf1161005b578063875c7ecf146102485780638da5cb5b1461026c578063e30c3978146102a0578063f2fde38b146102d457610088565b806301358f9e1461008d578063564a5158146100b157806379ba50971461020a5780637b04c18114610214575b600080fd5b610095610318565b604051808263ffffffff16815260200191505060405180910390f35b61017d600480360360408110156100c757600080fd5b81019080803590602001906401000000008111156100e457600080fd5b8201836020820111156100f657600080fd5b8035906020019184600183028401116401000000008311171561011857600080fd5b90919293919293908035906020019064010000000081111561013957600080fd5b82018360208201111561014b57600080fd5b8035906020019184600183028401116401000000008311171561016d57600080fd5b909192939192939050505061031d565b604051808415158152602001831515815260200180602001828103825283818151815260200191508051906020019080838360005b838110156101cd5780820151818401526020810190506101b2565b50505050905090810190601f1680156101fa5780820380516001836020036101000a031916815260200191505b5094505050505060405180910390f35b6102126107d5565b005b61021c610878565b604051808273ffffffffffffffffffffffffffffffffffffffff16815260200191505060405180910390f35b61025061089c565b604051808263ffffffff16815260200191505060405180910390f35b6102746108a1565b604051808273ffffffffffffffffffffffffffffffffffffffff16815260200191505060405180910390f35b6102a86108ca565b604051808273ffffffffffffffffffffffffffffffffffffffff16815260200191505060405180910390f35b610316600480360360208110156102ea57600080fd5b81019080803573ffffffffffffffffffffffffffffffffffffffff1690602001909291905050506108f4565b005b600181565b6000806060600061037c600089898080601f016020809104026020016040519081016040528093929190818152602001838380828437600081840152601f19601f82011690508083019250505050505050610a6590919063ffffffff16565b905061038781610a90565b600163ffffffff1661039882610baa565b63ffffffff1614610411576040517f08c379a00000000000000000000000000000000000000000000000000000000081526004018080602001828103825260178152602001807f496e76616c6964206d6573736167652076657273696f6e00000000000000000081525060200191505060405180910390fd5b600061041c82610bd3565b905061042781610c20565b600163ffffffff1661043882610d3a565b63ffffffff16146104b1576040517f08c379a000000000000000000000000000000000000000000000000000000000815260040180806020018281038252601c8152602001807f496e76616c6964206d65737361676520626f64792076657273696f6e0000000081525060200191505060405180910390fd5b7f000000000000000000000000000000000000000000000000000000000000000073ffffffffffffffffffffffffffffffffffffffff166357ecfd288a8a8a8a6040518563ffffffff1660e01b81526004018080602001806020018381038352878782818152602001925080828437600081840152601f19601f8201169050808301925050508381038252858582818152602001925080828437600081840152601f19601f8201169050808301925050509650505050505050602060405180830381600087803b15801561058457600080fd5b505af1158015610598573d6000803e3d6000fd5b505050506040513d60208110156105ae57600080fd5b8101908080519060200190929190505050945084610634576040517f08c379a00000000000000000000000000000000000000000000000000000000081526004018080602001828103825260168152602001807f52656365697665206d657373616765206661696c65640000000000000000000081525060200191505060405180910390fd5b600061063f82610d52565b90506106508162ffffff1916610d9f565b156107c85760006106668262ffffff1916610de2565b9050600061067384610e29565b9050600061068085610e41565b9050600061068d86610e6a565b60001c9050600061069d87610e82565b60001c9050600063520ee0d060e01b85858589604051602401808581526020018481526020018373ffffffffffffffffffffffffffffffffffffffff16815260200180602001828103825283818151815260200191508051906020019080838360005b8381101561071b578082015181840152602081019050610700565b50505050905090810190601f1680156107485780820380516001836020036101000a031916815260200191505b5095505050505050604051602081830303815290604052907bffffffffffffffffffffffffffffffffffffffffffffffffffffffff19166020820180517bffffffffffffffffffffffffffffffffffffffffffffffffffffffff838183161783525050505090506107b98282610e9a565b809b50819c5050505050505050505b5050509450945094915050565b60006107df610f60565b90508073ffffffffffffffffffffffffffffffffffffffff166108006108ca565b73ffffffffffffffffffffffffffffffffffffffff161461086c576040517f08c379a00000000000000000000000000000000000000000000000000000000081526004018080602001828103825260298152602001806119db6029913960400191505060405180910390fd5b61087581610f68565b50565b7f000000000000000000000000000000000000000000000000000000000000000081565b600181565b60008060009054906101000a900473ffffffffffffffffffffffffffffffffffffffff16905090565b6000600160009054906101000a900473ffffffffffffffffffffffffffffffffffffffff16905090565b6108fc610f99565b80600160006101000a81548173ffffffffffffffffffffffffffffffffffffffff021916908373ffffffffffffffffffffffffffffffffffffffff1602179055508073ffffffffffffffffffffffffffffffffffffffff1661095c6108a1565b73ffffffffffffffffffffffffffffffffffffffff167f38d16b8cac22d99fc7c124b9cd0de2d3fa1faef420bfe791d8c362d765e2270060405160405180910390a350565b60008060009054906101000a900473ffffffffffffffffffffffffffffffffffffffff169050816000806101000a81548173ffffffffffffffffffffffffffffffffffffffff021916908373ffffffffffffffffffffffffffffffffffffffff1602179055508173ffffffffffffffffffffffffffffffffffffffff168173ffffffffffffffffffffffffffffffffffffffff167f8be0079c531659141344cd1fd0a4f28419497f9722a3daafe3b4186f6b6457e060405160405180910390a35050565b600080835190506000602085019050610a868464ffffffffff16828461104a565b9250505092915050565b610a9f8162ffffff1916610d9f565b610b11576040517f08c379a00000000000000000000000000000000000000000000000000000000081526004018080602001828103825260118152602001807f4d616c666f726d6564206d65737361676500000000000000000000000000000081525060200191505060405180910390fd5b609460ff16610b258262ffffff19166110b9565b6bffffffffffffffffffffffff161015610ba7576040517f08c379a000000000000000000000000000000000000000000000000000000000815260040180806020018281038252601a8152602001807f496e76616c6964206d6573736167653a20746f6f2073686f727400000000000081525060200191505060405180910390fd5b50565b6000610bcc600060ff1660048462ffffff19166110df9092919063ffffffff16565b9050919050565b6000610c19609460ff16609460ff16610bf18562ffffff19166110b9565b036bffffffffffffffffffffffff1660008562ffffff1916611104909392919063ffffffff16565b9050919050565b610c2f8162ffffff1916610d9f565b610ca1576040517f08c379a00000000000000000000000000000000000000000000000000000000081526004018080602001828103825260118152602001807f4d616c666f726d6564206d65737361676500000000000000000000000000000081525060200191505060405180910390fd5b60e460ff16610cb58262ffffff19166110b9565b6bffffffffffffffffffffffff161015610d37576040517f08c379a000000000000000000000000000000000000000000000000000000000815260040180806020018281038252601f8152602001807f496e76616c6964206275726e206d6573736167653a20746f6f2073686f72740081525060200191505060405180910390fd5b50565b6000610d4b8262ffffff19166111b0565b9050919050565b6000610d9860e460ff1660e460ff16610d708562ffffff19166110b9565b036bffffffffffffffffffffffff1660008562ffffff1916611104909392919063ffffffff16565b9050919050565b600064ffffffffff610db0836111d9565b64ffffffffff161415610dc65760009050610ddd565b6000610dd1836111ee565b90506040518111159150505b919050565b6060600080610df0846110b9565b6bffffffffffffffffffffffff1690506040519150819250610e158460208401611218565b506020818301016040528082525050919050565b6000610e3a8262ffffff19166113c5565b9050919050565b6000610e6360a460ff1660208462ffffff19166110df9092919063ffffffff16565b9050919050565b6000610e7b8262ffffff19166113ee565b9050919050565b6000610e938262ffffff1916611417565b9050919050565b600060608373ffffffffffffffffffffffffffffffffffffffff16836040518082805190602001908083835b60208310610ee95780518252602082019150602081019050602083039250610ec6565b6001836020036101000a0380198251168184511680821785525050505050509050019150506000604051808303816000865af19150503d8060008114610f4b576040519150601f19603f3d011682016040523d82523d6000602084013e610f50565b606091505b5080925081935050509250929050565b600033905090565b600160006101000a81549073ffffffffffffffffffffffffffffffffffffffff0219169055610f96816109a1565b50565b610fa1610f60565b73ffffffffffffffffffffffffffffffffffffffff16610fbf6108a1565b73ffffffffffffffffffffffffffffffffffffffff1614611048576040517f08c379a00000000000000000000000000000000000000000000000000000000081526004018080602001828103825260208152602001807f4f776e61626c653a2063616c6c6572206973206e6f7420746865206f776e657281525060200191505060405180910390fd5b565b600080611060838561144090919063ffffffff16565b905060405181111561107157600090505b60008114156110a3577fffffffffffffffffffffffffffffffffffffffffffffffffffffffffff0000009150506110b2565b6110ae8585856114c3565b9150505b9392505050565b6000806bffffffffffffffffffffffff90506000601890508184821c1692505050919050565b60006008826020030260ff166110f68585856114ee565b60001c901c90509392505050565b600080611110866116b5565b6bffffffffffffffffffffffff169050611129866111ee565b61114e85611140888561144090919063ffffffff16565b61144090919063ffffffff16565b111561117d577fffffffffffffffffffffffffffffffffffffffffffffffffffffffffff0000009150506111a8565b611190858261144090919063ffffffff16565b90506111a48364ffffffffff16828661104a565b9150505b949350505050565b60006111d2600060ff1660048462ffffff19166110df9092919063ffffffff16565b9050919050565b60008060d860ff16905082811c915050919050565b60006111f9826110b9565b611202836116b5565b016bffffffffffffffffffffffff169050919050565b6000611223836116de565b611278576040517f08c379a0000000000000000000000000000000000000000000000000000000008152600401808060200182810382526028815260200180611a5f6028913960400191505060405180910390fd5b61128183610d9f565b6112d6576040517f08c379a000000000000000000000000000000000000000000000000000000000815260040180806020018281038252602b815260200180611a87602b913960400191505060405180910390fd5b60006112e1846110b9565b6bffffffffffffffffffffffff16905060006112fc856116b5565b6bffffffffffffffffffffffff1690506000806040519150858211156113225760206060fd5b8386858560045afa90508061139f576040517f08c379a000000000000000000000000000000000000000000000000000000000815260040180806020018281038252600c8152602001807f6964656e74697479204f4f47000000000000000000000000000000000000000081525060200191505060405180910390fd5b6113b96113ab886111d9565b64ffffffffff1687866114c3565b94505050505092915050565b60006113e7604460ff1660208462ffffff19166110df9092919063ffffffff16565b9050919050565b6000611410606460ff1660208462ffffff19166114ee9092919063ffffffff16565b9050919050565b6000611439602460ff1660208462ffffff19166114ee9092919063ffffffff16565b9050919050565b60008183019050828110156114bd576040517f08c379a00000000000000000000000000000000000000000000000000000000081526004018080602001828103825260198152602001807f4f766572666c6f7720647572696e67206164646974696f6e2e0000000000000081525060200191505060405180910390fd5b92915050565b60008060609050600060189050858317821b9250848317821b9250838317811b925050509392505050565b6000808260ff161415611506576000801b90506116ae565b61150f846110b9565b6bffffffffffffffffffffffff166115338360ff168561144090919063ffffffff16565b111561161557611574611545856116b5565b6bffffffffffffffffffffffff1661155c866110b9565b6bffffffffffffffffffffffff16858560ff166116f1565b6040517f08c379a00000000000000000000000000000000000000000000000000000000081526004018080602001828103825283818151815260200191508051906020019080838360005b838110156115da5780820151818401526020810190506115bf565b50505050905090810190601f1680156116075780820380516001836020036101000a031916815260200191505b509250505060405180910390fd5b60208260ff161115611672576040517f08c379a000000000000000000000000000000000000000000000000000000000815260040180806020018281038252603a815260200180611a25603a913960400191505060405180910390fd5b60006008830290506000611685866116b5565b6bffffffffffffffffffffffff16905060006116a08361182b565b905080868301511693505050505b9392505050565b6000806bffffffffffffffffffffffff90506000607860ff1690508184821c1692505050919050565b60006116e98261185a565b159050919050565b606060006116fe86611892565b915050600061170c86611892565b915050600061171a86611892565b915050600061172886611892565b915050838383836040516020018080611ab2603591396035018565ffffffffffff1660d01b8152600601807f2077697468206c656e6774682030780000000000000000000000000000000000815250600f018465ffffffffffff1660d01b815260060180611a04602191396021018365ffffffffffff1660d01b8152600601807f2077697468206c656e6774682030780000000000000000000000000000000000815250600f018265ffffffffffff1660d01b8152600601807f2e00000000000000000000000000000000000000000000000000000000000000815250600101945050505050604051602081830303815290604052945050505050949350505050565b60007f8000000000000000000000000000000000000000000000000000000000000000600183031d9050919050565b60007fffffffffffffffffffffffffffffffffffffffffffffffffffffffffff00000062ffffff19168262ffffff1916149050919050565b6000806000601f90505b600f8160ff1611156118e65760006008820260ff1685901c90506118bf8161193e565b61ffff168417935060108260ff16146118da57601084901b93505b5060018103905061189c565b506000600f90505b60ff8160ff1610156119385760006008820260ff1685901c90506119118161193e565b61ffff168317925060008260ff161461192c57601083901b92505b506001810390506118ee565b50915091565b600061195060048360ff16901c611977565b60ff168117905060088161ffff16901b905061196b82611977565b60ff1681179050919050565b600080600f831690506040518060400160405280601081526020017f30313233343536373839616263646566000000000000000000000000000000008152508160ff16815181106119c457fe5b602001015160f81c60f81b60f81c91505091905056fe4f776e61626c6532537465703a2063616c6c6572206973206e6f7420746865206e6577206f776e65722e20417474656d7074656420746f20696e646578206174206f666673657420307854797065644d656d566965772f696e646578202d20417474656d7074656420746f20696e646578206d6f7265207468616e20333220627974657354797065644d656d566965772f636f7079546f202d204e756c6c20706f696e74657220646572656654797065644d656d566965772f636f7079546f202d20496e76616c696420706f696e74657220646572656654797065644d656d566965772f696e646578202d204f76657272616e2074686520766965772e20536c696365206973206174203078a2646970667358221220c420798008246654acf800340d02a5324b9ecbd98e827a3566d1896b0631619864736f6c63430007060033",
  "linkReferences": {},
  "deployedLinkReferences": {}
}