{
  "_format": "hh-sol-artifact-1",
  "contractName": "CCTPBurnHookWrapper",
  "sourceName": "contracts/cctp/CCTPBurnHookWrapper.sol",
  "abi": [
    {
      "inputs": [
        {
          "internalType": "address",
          "name": "_tokenMessenger",
          "type": "address"
        }
      ],
      "stateMutability": "nonpayable",
      "type": "constructor"
    },
    {
      "anonymous": false,
      "inputs": [
        {
          "indexed": false,
          "internalType": "uint256",
          "name": "amount",
          "type": "uint256"
        },
        {
          "indexed": false,
          "internalType": "uint32",
          "name": "destinationDomain",
          "type": "uint32"
        },
        {
          "indexed": false,
          "internalType": "bytes32",
          "name": "mintRecipient",
          "type": "bytes32"
        },
        {
          "indexed": false,
          "internalType": "address",
          "name": "burnToken",
          "type": "address"
        },
        {
          "indexed": false,
          "internalType": "bytes32",
          "name": "destinationCaller",
          "type": "bytes32"
        },
        {
          "indexed": false,
          "internalType": "uint256",
          "name": "maxFee",
          "type": "uint256"
        },
        {
          "indexed": false,
          "internalType": "uint32",
          "name": "minFinalityThreshold",
          "type": "uint32"
        },
        {
          "indexed": false,
          "internalType": "bytes",
          "name": "hookData",
          "type": "bytes"
        }
      ],
      "name": "BurnHookExecuted",
      "type": "event"
    },
    {
      "inputs": [],
      "name": "TOKEN_MESSENGER",
      "outputs": [
        {
          "internalType": "address",
          "name": "",
          "type": "address"
        }
      ],
      "stateMutability": "view",
      "type": "function"
    },
    {
      "inputs": [
        {
          "internalType": "address",
          "name": "",
          "type": "address"
        },
        {
          "internalType": "address",
          "name": "",
          "type": "address"
        },
        {
          "internalType": "uint256",
          "name": "",
          "type": "uint256"
        },
        {
          "internalType": "uint256",
          "name": "",
          "type": "uint256"
        },
        {
          "internalType": "bytes",
          "name": "_structData",
          "type": "bytes"
        }
      ],
      "name": "executeSwapHook",
      "outputs": [
        {
          "internalType": "bool",
          "name": "",
          "type": "bool"
        }
      ],
      "stateMutability": "nonpayable",
      "type": "function"
    }
  ],
  "bytecode": "0x60a060405234801561001057600080fd5b506040516110f53803806110f583398181016040528101906100329190610084565b8073ffffffffffffffffffffffffffffffffffffffff1660808173ffffffffffffffffffffffffffffffffffffffff1660601b81525050506100f6565b60008151905061007e816100df565b92915050565b60006020828403121561009657600080fd5b60006100a48482850161006f565b91505092915050565b60006100b8826100bf565b9050919050565b600073ffffffffffffffffffffffffffffffffffffffff82169050919050565b6100e8816100ad565b81146100f357600080fd5b50565b60805160601c610fd36101226000398061011d528061016d528061022952806102ea5250610fd36000f3fe608060405234801561001057600080fd5b50600436106100365760003560e01c80631e999dad1461003b578063b8b32ff71461006b575b600080fd5b61005560048036038101906100509190610b04565b610089565b6040516100629190610cb6565b60405180910390f35b6100736102e8565b6040516100809190610c9b565b60405180910390f35b60008083839050116100d0576040517f08c379a00000000000000000000000000000000000000000000000000000000081526004016100c790610cd1565b60405180910390fd5b600083838101906100e19190610b96565b905061011833308360000151846060015173ffffffffffffffffffffffffffffffffffffffff1661030c909392919063ffffffff16565b61016b7f00000000000000000000000000000000000000000000000000000000000000008260000151836060015173ffffffffffffffffffffffffffffffffffffffff166103cd9092919063ffffffff16565b7f000000000000000000000000000000000000000000000000000000000000000073ffffffffffffffffffffffffffffffffffffffff1663779b432d826000015183602001518460400151856060015186608001518760a001518860c001518960e001516040518963ffffffff1660e01b81526004016101f2989796959493929190610cf1565b600060405180830381600087803b15801561020c57600080fd5b505af1158015610220573d6000803e3d6000fd5b505050506102747f00000000000000000000000000000000000000000000000000000000000000006000836060015173ffffffffffffffffffffffffffffffffffffffff166103cd9092919063ffffffff16565b7f4e564d5e06ddf79da8c652a4e0f7d162ecfc76be87a500bea324c8784ae910c5816000015182602001518360400151846060015185608001518660a001518760c001518860e001516040516102d1989796959493929190610cf1565b60405180910390a160019150509695505050505050565b7f000000000000000000000000000000000000000000000000000000000000000081565b6103c7846323b872dd60e01b858585604051602401808473ffffffffffffffffffffffffffffffffffffffff1681526020018373ffffffffffffffffffffffffffffffffffffffff1681526020018281526020019350505050604051602081830303815290604052907bffffffffffffffffffffffffffffffffffffffffffffffffffffffff19166020820180517bffffffffffffffffffffffffffffffffffffffffffffffffffffffff8381831617835250505050610592565b50505050565b600081148061049b575060008373ffffffffffffffffffffffffffffffffffffffff1663dd62ed3e30856040518363ffffffff1660e01b8152600401808373ffffffffffffffffffffffffffffffffffffffff1681526020018273ffffffffffffffffffffffffffffffffffffffff1681526020019250505060206040518083038186803b15801561045e57600080fd5b505afa158015610472573d6000803e3d6000fd5b505050506040513d602081101561048857600080fd5b8101908080519060200190929190505050145b6104f0576040517f08c379a0000000000000000000000000000000000000000000000000000000008152600401808060200182810382526036815260200180610f686036913960400191505060405180910390fd5b61058d8363095ea7b360e01b8484604051602401808373ffffffffffffffffffffffffffffffffffffffff16815260200182815260200192505050604051602081830303815290604052907bffffffffffffffffffffffffffffffffffffffffffffffffffffffff19166020820180517bffffffffffffffffffffffffffffffffffffffffffffffffffffffff8381831617835250505050610592565b505050565b60006105f4826040518060400160405280602081526020017f5361666545524332303a206c6f772d6c6576656c2063616c6c206661696c65648152508573ffffffffffffffffffffffffffffffffffffffff166106819092919063ffffffff16565b905060008151111561067c5780806020019051602081101561061557600080fd5b810190808051906020019092919050505061067b576040517f08c379a000000000000000000000000000000000000000000000000000000000815260040180806020018281038252602a815260200180610f3e602a913960400191505060405180910390fd5b5b505050565b60606106908484600085610699565b90509392505050565b6060824710156106f4576040517f08c379a0000000000000000000000000000000000000000000000000000000008152600401808060200182810382526026815260200180610f186026913960400191505060405180910390fd5b6106fd85610841565b61076f576040517f08c379a000000000000000000000000000000000000000000000000000000000815260040180806020018281038252601d8152602001807f416464726573733a2063616c6c20746f206e6f6e2d636f6e747261637400000081525060200191505060405180910390fd5b6000808673ffffffffffffffffffffffffffffffffffffffff1685876040518082805190602001908083835b602083106107be578051825260208201915060208101905060208303925061079b565b6001836020036101000a03801982511681845116808217855250505050505090500191505060006040518083038185875af1925050503d8060008114610820576040519150601f19603f3d011682016040523d82523d6000602084013e610825565b606091505b5091509150610835828286610854565b92505050949350505050565b600080823b905060008111915050919050565b6060831561086457829050610919565b6000835111156108775782518084602001fd5b816040517f08c379a00000000000000000000000000000000000000000000000000000000081526004018080602001828103825283818151815260200191508051906020019080838360005b838110156108de5780820151818401526020810190506108c3565b50505050905090810190601f16801561090b5780820380516001836020036101000a031916815260200191505b509250505060405180910390fd5b9392505050565b600061093361092e84610da7565b610d76565b90508281526020810184848401111561094b57600080fd5b610956848285610e66565b509392505050565b60008135905061096d81610ebb565b92915050565b60008135905061098281610ed2565b92915050565b60008083601f84011261099a57600080fd5b8235905067ffffffffffffffff8111156109b357600080fd5b6020830191508360018202830111156109cb57600080fd5b9250929050565b600082601f8301126109e357600080fd5b81356109f3848260208601610920565b91505092915050565b60006101008284031215610a0f57600080fd5b610a1a610100610d76565b90506000610a2a84828501610ada565b6000830152506020610a3e84828501610aef565b6020830152506040610a5284828501610973565b6040830152506060610a668482850161095e565b6060830152506080610a7a84828501610973565b60808301525060a0610a8e84828501610ada565b60a08301525060c0610aa284828501610aef565b60c08301525060e082013567ffffffffffffffff811115610ac257600080fd5b610ace848285016109d2565b60e08301525092915050565b600081359050610ae981610ee9565b92915050565b600081359050610afe81610f00565b92915050565b60008060008060008060a08789031215610b1d57600080fd5b6000610b2b89828a0161095e565b9650506020610b3c89828a0161095e565b9550506040610b4d89828a01610ada565b9450506060610b5e89828a01610ada565b935050608087013567ffffffffffffffff811115610b7b57600080fd5b610b8789828a01610988565b92509250509295509295509295565b600060208284031215610ba857600080fd5b600082013567ffffffffffffffff811115610bc257600080fd5b610bce848285016109fc565b91505092915050565b610be081610e04565b82525050565b610bef81610e16565b82525050565b610bfe81610e22565b82525050565b6000610c0f82610dd7565b610c198185610de2565b9350610c29818560208601610e75565b610c3281610eaa565b840191505092915050565b6000610c4a601383610df3565b91507f496e76616c6964207374727563742064617461000000000000000000000000006000830152602082019050919050565b610c8681610e4c565b82525050565b610c9581610e56565b82525050565b6000602082019050610cb06000830184610bd7565b92915050565b6000602082019050610ccb6000830184610be6565b92915050565b60006020820190508181036000830152610cea81610c3d565b9050919050565b600061010082019050610d07600083018b610c7d565b610d14602083018a610c8c565b610d216040830189610bf5565b610d2e6060830188610bd7565b610d3b6080830187610bf5565b610d4860a0830186610c7d565b610d5560c0830185610c8c565b81810360e0830152610d678184610c04565b90509998505050505050505050565b6000604051905081810181811067ffffffffffffffff82111715610d9d57610d9c610ea8565b5b8060405250919050565b600067ffffffffffffffff821115610dc257610dc1610ea8565b5b601f19601f8301169050602081019050919050565b600081519050919050565b600082825260208201905092915050565b600082825260208201905092915050565b6000610e0f82610e2c565b9050919050565b60008115159050919050565b6000819050919050565b600073ffffffffffffffffffffffffffffffffffffffff82169050919050565b6000819050919050565b600063ffffffff82169050919050565b82818337600083830152505050565b60005b83811015610e93578082015181840152602081019050610e78565b83811115610ea2576000848401525b50505050565bfe5b6000601f19601f8301169050919050565b610ec481610e04565b8114610ecf57600080fd5b50565b610edb81610e22565b8114610ee657600080fd5b50565b610ef281610e4c565b8114610efd57600080fd5b50565b610f0981610e56565b8114610f1457600080fd5b5056fe416464726573733a20696e73756666696369656e742062616c616e636520666f722063616c6c5361666545524332303a204552433230206f7065726174696f6e20646964206e6f7420737563636565645361666545524332303a20617070726f76652066726f6d206e6f6e2d7a65726f20746f206e6f6e2d7a65726f20616c6c6f77616e6365a2646970667358221220bcb425dd3a541c02e37ca97c74f4d842fa25b086ccd0b7c4b3cf5f87d41b659664736f6c63430007060033",
  "linkReferences": {},
  "deployedLinkReferences": {}
}