{
  "_format": "hh-sol-artifact-1",
  "contractName": "SwapRouter02Wrapper",
  "sourceName": "contracts/SwapRouter02Wrapper.sol",
  "abi": [
    {
      "inputs": [
        {
          "internalType": "address",
          "name": "_swapRouter",
          "type": "address"
        },
        {
          "internalType": "address",
          "name": "_burnHook",
          "type": "address"
        },
        {
          "internalType": "address",
          "name": "_paymentHandler",
          "type": "address"
        }
      ],
      "stateMutability": "nonpayable",
      "type": "constructor"
    },
    {
      "anonymous": false,
      "inputs": [
        {
          "indexed": true,
          "internalType": "address",
          "name": "user",
          "type": "address"
        },
        {
          "indexed": true,
          "internalType": "address",
          "name": "tokenIn",
          "type": "address"
        },
        {
          "indexed": true,
          "internalType": "address",
          "name": "tokenOut",
          "type": "address"
        },
        {
          "indexed": false,
          "internalType": "uint256",
          "name": "amountInUsed",
          "type": "uint256"
        },
        {
          "indexed": false,
          "internalType": "uint256",
          "name": "amountOut",
          "type": "uint256"
        },
        {
          "indexed": false,
          "internalType": "uint256",
          "name": "tokenInRefund",
          "type": "uint256"
        },
        {
          "indexed": false,
          "internalType": "uint256",
          "name": "tokenOutLeftover",
          "type": "uint256"
        }
      ],
      "name": "SwapExecuted",
      "type": "event"
    },
    {
      "inputs": [],
      "name": "BURN_HOOK",
      "outputs": [
        {
          "internalType": "address",
          "name": "",
          "type": "address"
        }
      ],
      "stateMutability": "view",
      "type": "function"
    },
    {
      "inputs": [],
      "name": "PAYMENT_HANDLER",
      "outputs": [
        {
          "internalType": "address",
          "name": "",
          "type": "address"
        }
      ],
      "stateMutability": "view",
      "type": "function"
    },
    {
      "inputs": [],
      "name": "SWAP_ROUTER_02",
      "outputs": [
        {
          "internalType": "contract ISwapRouter02",
          "name": "",
          "type": "address"
        }
      ],
      "stateMutability": "view",
      "type": "function"
    },
    {
      "inputs": [
        {
          "components": [
            {
              "internalType": "address",
              "name": "tokenIn",
              "type": "address"
            },
            {
              "internalType": "address",
              "name": "tokenOut",
              "type": "address"
            },
            {
              "internalType": "uint256",
              "name": "amountInMax",
              "type": "uint256"
            },
            {
              "internalType": "uint256",
              "name": "amountOut",
              "type": "uint256"
            },
            {
              "internalType": "uint256",
              "name": "deadline",
              "type": "uint256"
            },
            {
              "internalType": "bytes[]",
              "name": "swapCalls",
              "type": "bytes[]"
            },
            {
              "internalType": "enum SwapRouter02Wrapper.Hook",
              "name": "hook",
              "type": "uint8"
            },
            {
              "internalType": "bytes",
              "name": "structData",
              "type": "bytes"
            }
          ],
          "internalType": "struct SwapRouter02Wrapper.RouteParams",
          "name": "p",
          "type": "tuple"
        }
      ],
      "name": "executeSwap",
      "outputs": [],
      "stateMutability": "payable",
      "type": "function"
    },
    {
      "stateMutability": "payable",
      "type": "receive"
    }
  ],
  "bytecode": "0x60e06040523480156200001157600080fd5b506040516200242138038062002421833981810160405281019062000037919062000104565b60016000819055508273ffffffffffffffffffffffffffffffffffffffff1660808173ffffffffffffffffffffffffffffffffffffffff1660601b815250508173ffffffffffffffffffffffffffffffffffffffff1660a08173ffffffffffffffffffffffffffffffffffffffff1660601b815250508073ffffffffffffffffffffffffffffffffffffffff1660c08173ffffffffffffffffffffffffffffffffffffffff1660601b81525050505050620001a8565b600081519050620000fe816200018e565b92915050565b6000806000606084860312156200011a57600080fd5b60006200012a86828701620000ed565b93505060206200013d86828701620000ed565b92505060406200015086828701620000ed565b9150509250925092565b600062000167826200016e565b9050919050565b600073ffffffffffffffffffffffffffffffffffffffff82169050919050565b62000199816200015a565b8114620001a557600080fd5b50565b60805160601c60a05160601c60c05160601c61221b6200020660003980610c685280611113528061118b525080610c44528061103d52806110b55250806103ef528061044d52806104ac528061060f5280610c8c525061221b6000f3fe6080604052600436106100435760003560e01c80638acfa3c01461004f578063d3c722761461006b578063d9bc1fc714610096578063feb29494146100c15761004a565b3661004a57005b600080fd5b6100696004803603810190610064919061183c565b6100ec565b005b34801561007757600080fd5b50610080610c42565b60405161008d9190611bf7565b60405180910390f35b3480156100a257600080fd5b506100ab610c66565b6040516100b89190611bf7565b60405180910390f35b3480156100cd57600080fd5b506100d6610c8a565b6040516100e39190611c89565b60405180910390f35b60026000541415610165576040517f08c379a000000000000000000000000000000000000000000000000000000000815260040180806020018281038252601f8152602001807f5265656e7472616e637947756172643a207265656e7472616e742063616c6c0081525060200191505060405180910390fd5b60026000819055508060200160208101906101809190611780565b73ffffffffffffffffffffffffffffffffffffffff168160000160208101906101a99190611780565b73ffffffffffffffffffffffffffffffffffffffff161415610200576040517f08c379a00000000000000000000000000000000000000000000000000000000081526004016101f790611ca4565b60405180910390fd5b600073ffffffffffffffffffffffffffffffffffffffff1681602001602081019061022b9190611780565b73ffffffffffffffffffffffffffffffffffffffff161415610282576040517f08c379a000000000000000000000000000000000000000000000000000000000815260040161027990611ce4565b60405180910390fd5b600073ffffffffffffffffffffffffffffffffffffffff168160000160208101906102ad9190611780565b73ffffffffffffffffffffffffffffffffffffffff161415610314578060400135341461030f576040517f08c379a000000000000000000000000000000000000000000000000000000000815260040161030690611d64565b60405180910390fd5b610358565b610357333083604001358460000160208101906103319190611780565b73ffffffffffffffffffffffffffffffffffffffff16610cae909392919063ffffffff16565b5b60006103646000610d6f565b9050600061038383600001602081019061037e9190611780565b610d6f565b905060006103a284602001602081019061039d9190611780565b610d6f565b9050600073ffffffffffffffffffffffffffffffffffffffff168460000160208101906103cf9190611780565b73ffffffffffffffffffffffffffffffffffffffff16146104aa576104487f000000000000000000000000000000000000000000000000000000000000000060008660000160208101906104239190611780565b73ffffffffffffffffffffffffffffffffffffffff16610e3e9092919063ffffffff16565b6104a97f000000000000000000000000000000000000000000000000000000000000000085604001358660000160208101906104849190611780565b73ffffffffffffffffffffffffffffffffffffffff16610e3e9092919063ffffffff16565b5b7f000000000000000000000000000000000000000000000000000000000000000073ffffffffffffffffffffffffffffffffffffffff16635ae401dc600073ffffffffffffffffffffffffffffffffffffffff168660000160208101906105119190611780565b73ffffffffffffffffffffffffffffffffffffffff1614610533576000610539565b85604001355b8660800135878060a0019061054e9190611e1b565b6040518563ffffffff1660e01b815260040161056c93929190611da4565b6000604051808303818588803b15801561058557600080fd5b505af1158015610599573d6000803e3d6000fd5b50505050506040513d6000823e3d601f19601f820116820180604052508101906105c391906117a9565b50600073ffffffffffffffffffffffffffffffffffffffff168460000160208101906105ef9190611780565b73ffffffffffffffffffffffffffffffffffffffff1614610669576106687f000000000000000000000000000000000000000000000000000000000000000060008660000160208101906106439190611780565b73ffffffffffffffffffffffffffffffffffffffff16610e3e9092919063ffffffff16565b5b60006106868560c00160208101906106819190611813565b611003565b90506106c98186606001358760200160208101906106a49190611780565b73ffffffffffffffffffffffffffffffffffffffff16610e3e9092919063ffffffff16565b8073ffffffffffffffffffffffffffffffffffffffff16631e999dad8660000160208101906106f89190611780565b87602001602081019061070b9190611780565b886040013589606001358a8060e001906107259190611e72565b6040518763ffffffff1660e01b815260040161074696959493929190611c2d565b602060405180830381600087803b15801561076057600080fd5b505af1158015610774573d6000803e3d6000fd5b505050506040513d601f19601f8201168201806040525081019061079891906117ea565b506107d78160008760200160208101906107b29190611780565b73ffffffffffffffffffffffffffffffffffffffff16610e3e9092919063ffffffff16565b60006107f48660000160208101906107ef9190611780565b610d6f565b8403905060008187604001351161080c576000610814565b818760400135035b9050600081111561095757600073ffffffffffffffffffffffffffffffffffffffff1687600001602081019061084a9190611780565b73ffffffffffffffffffffffffffffffffffffffff1614156109185760003373ffffffffffffffffffffffffffffffffffffffff168260405161088c90611be2565b60006040518083038185875af1925050503d80600081146108c9576040519150601f19603f3d011682016040523d82523d6000602084013e6108ce565b606091505b5050905080610912576040517f08c379a000000000000000000000000000000000000000000000000000000000815260040161090990611d24565b60405180910390fd5b50610956565b61095533828960000160208101906109309190611780565b73ffffffffffffffffffffffffffffffffffffffff166111f19092919063ffffffff16565b5b5b6000846109758960200160208101906109709190611780565b610d6f565b0390506000811115610ab957600073ffffffffffffffffffffffffffffffffffffffff168860200160208101906109ac9190611780565b73ffffffffffffffffffffffffffffffffffffffff161415610a7a5760003373ffffffffffffffffffffffffffffffffffffffff16826040516109ee90611be2565b60006040518083038185875af1925050503d8060008114610a2b576040519150601f19603f3d011682016040523d82523d6000602084013e610a30565b606091505b5050905080610a74576040517f08c379a0000000000000000000000000000000000000000000000000000000008152600401610a6b90611d24565b60405180910390fd5b50610ab8565b610ab733828a6020016020810190610a929190611780565b73ffffffffffffffffffffffffffffffffffffffff166111f19092919063ffffffff16565b5b5b6000610ac56000610d6f565b905087811115610b85576000888203905060003373ffffffffffffffffffffffffffffffffffffffff1682604051610afc90611be2565b60006040518083038185875af1925050503d8060008114610b39576040519150601f19603f3d011682016040523d82523d6000602084013e610b3e565b606091505b5050905080610b82576040517f08c379a0000000000000000000000000000000000000000000000000000000008152600401610b7990611d44565b60405180910390fd5b50505b886020016020810190610b989190611780565b73ffffffffffffffffffffffffffffffffffffffff16896000016020810190610bc19190611780565b73ffffffffffffffffffffffffffffffffffffffff163373ffffffffffffffffffffffffffffffffffffffff167f43415e25edb52db0638ec44209302ce9df6ab6fa46a2233aee34f9c75471ea26878d606001358888604051610c279493929190611dd6565b60405180910390a45050505050505050600160008190555050565b7f000000000000000000000000000000000000000000000000000000000000000081565b7f000000000000000000000000000000000000000000000000000000000000000081565b7f000000000000000000000000000000000000000000000000000000000000000081565b610d69846323b872dd60e01b858585604051602401808473ffffffffffffffffffffffffffffffffffffffff1681526020018373ffffffffffffffffffffffffffffffffffffffff1681526020018281526020019350505050604051602081830303815290604052907bffffffffffffffffffffffffffffffffffffffffffffffffffffffff19166020820180517bffffffffffffffffffffffffffffffffffffffffffffffffffffffff8381831617835250505050611293565b50505050565b60008073ffffffffffffffffffffffffffffffffffffffff168273ffffffffffffffffffffffffffffffffffffffff161415610dad57479050610e39565b8173ffffffffffffffffffffffffffffffffffffffff166370a08231306040518263ffffffff1660e01b8152600401610de69190611c12565b60206040518083038186803b158015610dfe57600080fd5b505afa158015610e12573d6000803e3d6000fd5b505050506040513d601f19601f82011682018060405250810190610e36919061187d565b90505b919050565b6000811480610f0c575060008373ffffffffffffffffffffffffffffffffffffffff1663dd62ed3e30856040518363ffffffff1660e01b8152600401808373ffffffffffffffffffffffffffffffffffffffff1681526020018273ffffffffffffffffffffffffffffffffffffffff1681526020019250505060206040518083038186803b158015610ecf57600080fd5b505afa158015610ee3573d6000803e3d6000fd5b505050506040513d6020811015610ef957600080fd5b8101908080519060200190929190505050145b610f61576040517f08c379a00000000000000000000000000000000000000000000000000000000081526004018080602001828103825260368152602001806121b06036913960400191505060405180910390fd5b610ffe8363095ea7b360e01b8484604051602401808373ffffffffffffffffffffffffffffffffffffffff16815260200182815260200192505050604051602081830303815290604052907bffffffffffffffffffffffffffffffffffffffffffffffffffffffff19166020820180517bffffffffffffffffffffffffffffffffffffffffffffffffffffffff8381831617835250505050611293565b505050565b600080600181111561101157fe5b82600181111561101d57fe5b14156110db57600073ffffffffffffffffffffffffffffffffffffffff167f000000000000000000000000000000000000000000000000000000000000000073ffffffffffffffffffffffffffffffffffffffff1614156110b3576040517f08c379a00000000000000000000000000000000000000000000000000000000081526004016110aa90611d84565b60405180910390fd5b7f000000000000000000000000000000000000000000000000000000000000000090506111ec565b6001808111156110e757fe5b8260018111156110f357fe5b14156111b157600073ffffffffffffffffffffffffffffffffffffffff167f000000000000000000000000000000000000000000000000000000000000000073ffffffffffffffffffffffffffffffffffffffff161415611189576040517f08c379a000000000000000000000000000000000000000000000000000000000815260040161118090611d04565b60405180910390fd5b7f000000000000000000000000000000000000000000000000000000000000000090506111ec565b6040517f08c379a00000000000000000000000000000000000000000000000000000000081526004016111e390611cc4565b60405180910390fd5b919050565b61128e8363a9059cbb60e01b8484604051602401808373ffffffffffffffffffffffffffffffffffffffff16815260200182815260200192505050604051602081830303815290604052907bffffffffffffffffffffffffffffffffffffffffffffffffffffffff19166020820180517bffffffffffffffffffffffffffffffffffffffffffffffffffffffff8381831617835250505050611293565b505050565b60006112f5826040518060400160405280602081526020017f5361666545524332303a206c6f772d6c6576656c2063616c6c206661696c65648152508573ffffffffffffffffffffffffffffffffffffffff166113829092919063ffffffff16565b905060008151111561137d5780806020019051602081101561131657600080fd5b810190808051906020019092919050505061137c576040517f08c379a000000000000000000000000000000000000000000000000000000000815260040180806020018281038252602a815260200180612186602a913960400191505060405180910390fd5b5b505050565b6060611391848460008561139a565b90509392505050565b6060824710156113f5576040517f08c379a00000000000000000000000000000000000000000000000000000000081526004018080602001828103825260268152602001806121606026913960400191505060405180910390fd5b6113fe85611542565b611470576040517f08c379a000000000000000000000000000000000000000000000000000000000815260040180806020018281038252601d8152602001807f416464726573733a2063616c6c20746f206e6f6e2d636f6e747261637400000081525060200191505060405180910390fd5b6000808673ffffffffffffffffffffffffffffffffffffffff1685876040518082805190602001908083835b602083106114bf578051825260208201915060208101905060208303925061149c565b6001836020036101000a03801982511681845116808217855250505050505090500191505060006040518083038185875af1925050503d8060008114611521576040519150601f19603f3d011682016040523d82523d6000602084013e611526565b606091505b5091509150611536828286611555565b92505050949350505050565b600080823b905060008111915050919050565b606083156115655782905061161a565b6000835111156115785782518084602001fd5b816040517f08c379a00000000000000000000000000000000000000000000000000000000081526004018080602001828103825283818151815260200191508051906020019080838360005b838110156115df5780820151818401526020810190506115c4565b50505050905090810190601f16801561160c5780820380516001836020036101000a031916815260200191505b509250505060405180910390fd5b9392505050565b600061163461162f84611efa565b611ec9565b9050808382526020820190508260005b85811015611674578151850161165a8882611710565b845260208401935060208301925050600181019050611644565b5050509392505050565b600061169161168c84611f26565b611ec9565b9050828152602081018484840111156116a957600080fd5b6116b48482856120c4565b509392505050565b6000813590506116cb8161210a565b92915050565b600082601f8301126116e257600080fd5b81516116f2848260208601611621565b91505092915050565b60008151905061170a81612121565b92915050565b600082601f83011261172157600080fd5b815161173184826020860161167e565b91505092915050565b60008135905061174981612138565b92915050565b6000610100828403121561176257600080fd5b81905092915050565b60008151905061177a81612148565b92915050565b60006020828403121561179257600080fd5b60006117a0848285016116bc565b91505092915050565b6000602082840312156117bb57600080fd5b600082015167ffffffffffffffff8111156117d557600080fd5b6117e1848285016116d1565b91505092915050565b6000602082840312156117fc57600080fd5b600061180a848285016116fb565b91505092915050565b60006020828403121561182557600080fd5b60006118338482850161173a565b91505092915050565b60006020828403121561184e57600080fd5b600082013567ffffffffffffffff81111561186857600080fd5b6118748482850161174f565b91505092915050565b60006020828403121561188f57600080fd5b600061189d8482850161176b565b91505092915050565b60006118b3848484611950565b90509392505050565b6118c58161205b565b82525050565b6118d481612013565b82525050565b60006118e68385611f6d565b9350836020840285016118f884611f56565b8060005b8781101561193e5784840389526119138284611fbc565b61191e8682846118a6565b955061192984611f60565b935060208b019a5050506001810190506118fc565b50829750879450505050509392505050565b600061195c8385611f7e565b93506119698385846120b5565b611972836120f9565b840190509392505050565b60006119898385611f8f565b93506119968385846120b5565b61199f836120f9565b840190509392505050565b6119b38161206d565b82525050565b60006119c6601283611fab565b91507f496e76616c696420746f6b656e207061697200000000000000000000000000006000830152602082019050919050565b6000611a06600c83611fab565b91507f496e76616c696420686f6f6b00000000000000000000000000000000000000006000830152602082019050919050565b6000611a46601683611fab565b91507f746f6b656e4f75742063616e6e6f7420626520455448000000000000000000006000830152602082019050919050565b6000611a86601783611fab565b91507f5061796d656e742068616e646c6572206e6f74207365740000000000000000006000830152602082019050919050565b6000611ac6601183611fab565b91507f45544820726566756e64206661696c65640000000000000000000000000000006000830152602082019050919050565b6000611b06601983611fab565b91507f4e6174697665206475737420726566756e64206661696c6564000000000000006000830152602082019050919050565b6000611b46601283611fab565b91507f496e76616c69642045544820616d6f756e7400000000000000000000000000006000830152602082019050919050565b6000611b86600083611fa0565b9150600082019050919050565b6000611ba0601183611fab565b91507f4275726e20686f6f6b206e6f74207365740000000000000000000000000000006000830152602082019050919050565b611bdc81612051565b82525050565b6000611bed82611b79565b9150819050919050565b6000602082019050611c0c60008301846118cb565b92915050565b6000602082019050611c2760008301846118bc565b92915050565b600060a082019050611c4260008301896118cb565b611c4f60208301886118cb565b611c5c6040830187611bd3565b611c696060830186611bd3565b8181036080830152611c7c81848661197d565b9050979650505050505050565b6000602082019050611c9e60008301846119aa565b92915050565b60006020820190508181036000830152611cbd816119b9565b9050919050565b60006020820190508181036000830152611cdd816119f9565b9050919050565b60006020820190508181036000830152611cfd81611a39565b9050919050565b60006020820190508181036000830152611d1d81611a79565b9050919050565b60006020820190508181036000830152611d3d81611ab9565b9050919050565b60006020820190508181036000830152611d5d81611af9565b9050919050565b60006020820190508181036000830152611d7d81611b39565b9050919050565b60006020820190508181036000830152611d9d81611b93565b9050919050565b6000604082019050611db96000830186611bd3565b8181036020830152611dcc8184866118da565b9050949350505050565b6000608082019050611deb6000830187611bd3565b611df86020830186611bd3565b611e056040830185611bd3565b611e126060830184611bd3565b95945050505050565b60008083356001602003843603038112611e3457600080fd5b80840192508235915067ffffffffffffffff821115611e5257600080fd5b602083019250602082023603831315611e6a57600080fd5b509250929050565b60008083356001602003843603038112611e8b57600080fd5b80840192508235915067ffffffffffffffff821115611ea957600080fd5b602083019250600182023603831315611ec157600080fd5b509250929050565b6000604051905081810181811067ffffffffffffffff82111715611ef057611eef6120f7565b5b8060405250919050565b600067ffffffffffffffff821115611f1557611f146120f7565b5b602082029050602081019050919050565b600067ffffffffffffffff821115611f4157611f406120f7565b5b601f19601f8301169050602081019050919050565b6000819050919050565b6000602082019050919050565b600082825260208201905092915050565b600082825260208201905092915050565b600082825260208201905092915050565b600081905092915050565b600082825260208201905092915050565b60008083356001602003843603038112611fd557600080fd5b83810192508235915060208301925067ffffffffffffffff821115611ff957600080fd5b60018202360384131561200b57600080fd5b509250929050565b600061201e82612031565b9050919050565b60008115159050919050565b600073ffffffffffffffffffffffffffffffffffffffff82169050919050565b6000819050919050565b600061206682612091565b9050919050565b60006120788261207f565b9050919050565b600061208a82612031565b9050919050565b600061209c826120a3565b9050919050565b60006120ae82612031565b9050919050565b82818337600083830152505050565b60005b838110156120e25780820151818401526020810190506120c7565b838111156120f1576000848401525b50505050565bfe5b6000601f19601f8301169050919050565b61211381612013565b811461211e57600080fd5b50565b61212a81612025565b811461213557600080fd5b50565b6002811061214557600080fd5b50565b61215181612051565b811461215c57600080fd5b5056fe416464726573733a20696e73756666696369656e742062616c616e636520666f722063616c6c5361666545524332303a204552433230206f7065726174696f6e20646964206e6f7420737563636565645361666545524332303a20617070726f76652066726f6d206e6f6e2d7a65726f20746f206e6f6e2d7a65726f20616c6c6f77616e6365a26469706673582212204a3a3751cc3e6377380bda296d2d49fd9c4bc86b08d83d59fe7768edad5eb4d664736f6c63430007060033",
  "linkReferences": {},
  "deployedLinkReferences": {}
}