{
  "_format": "hh-sol-artifact-1",
  "contractName": "CCTPBurnHookWrapper",
  "sourceName": "contracts/CCTPBurnHookWrapper.sol",
  "abi": [
    {
      "inputs": [
        {
          "internalType": "address",
          "name": "_tokenMessenger",
          "type": "address"
        }
      ],
      "stateMutability": "nonpayable",
      "type": "constructor"
    },
    {
      "inputs": [],
      "name": "TOKEN_MESSENGER",
      "outputs": [
        {
          "internalType": "address",
          "name": "",
          "type": "address"
        }
      ],
      "stateMutability": "view",
      "type": "function"
    },
    {
      "inputs": [
        {
          "internalType": "address",
          "name": "",
          "type": "address"
        },
        {
          "internalType": "address",
          "name": "",
          "type": "address"
        },
        {
          "internalType": "uint256",
          "name": "",
          "type": "uint256"
        },
        {
          "internalType": "uint256",
          "name": "",
          "type": "uint256"
        },
        {
          "internalType": "bytes",
          "name": "_structData",
          "type": "bytes"
        }
      ],
      "name": "executeHook",
      "outputs": [
        {
          "internalType": "bool",
          "name": "",
          "type": "bool"
        }
      ],
      "stateMutability": "nonpayable",
      "type": "function"
    }
  ],
  "bytecode": "0x60a060405234801561001057600080fd5b5060405161108f38038061108f83398181016040528101906100329190610084565b8073ffffffffffffffffffffffffffffffffffffffff1660808173ffffffffffffffffffffffffffffffffffffffff1660601b81525050506100f6565b60008151905061007e816100df565b92915050565b60006020828403121561009657600080fd5b60006100a48482850161006f565b91505092915050565b60006100b8826100bf565b9050919050565b600073ffffffffffffffffffffffffffffffffffffffff82169050919050565b6100e8816100ad565b81146100f357600080fd5b50565b60805160601c610f6e61012160003980608b52806101415280610191528061024d5250610f6e6000f3fe608060405234801561001057600080fd5b50600436106100365760003560e01c8063b8b32ff71461003b578063fc4e5a3614610059575b600080fd5b610043610089565b6040516100509190610c36565b60405180910390f35b610073600480360381019061006e9190610a9f565b6100ad565b6040516100809190610c51565b60405180910390f35b7f000000000000000000000000000000000000000000000000000000000000000081565b60008083839050116100f4576040517f08c379a00000000000000000000000000000000000000000000000000000000081526004016100eb90610c6c565b60405180910390fd5b600083838101906101059190610b31565b905061013c33308360000151846060015173ffffffffffffffffffffffffffffffffffffffff166102a7909392919063ffffffff16565b61018f7f00000000000000000000000000000000000000000000000000000000000000008260000151836060015173ffffffffffffffffffffffffffffffffffffffff166103689092919063ffffffff16565b7f000000000000000000000000000000000000000000000000000000000000000073ffffffffffffffffffffffffffffffffffffffff1663779b432d826000015183602001518460400151856060015186608001518760a001518860c001518960e001516040518963ffffffff1660e01b8152600401610216989796959493929190610c8c565b600060405180830381600087803b15801561023057600080fd5b505af1158015610244573d6000803e3d6000fd5b505050506102987f00000000000000000000000000000000000000000000000000000000000000006000836060015173ffffffffffffffffffffffffffffffffffffffff166103689092919063ffffffff16565b60019150509695505050505050565b610362846323b872dd60e01b858585604051602401808473ffffffffffffffffffffffffffffffffffffffff1681526020018373ffffffffffffffffffffffffffffffffffffffff1681526020018281526020019350505050604051602081830303815290604052907bffffffffffffffffffffffffffffffffffffffffffffffffffffffff19166020820180517bffffffffffffffffffffffffffffffffffffffffffffffffffffffff838183161783525050505061052d565b50505050565b6000811480610436575060008373ffffffffffffffffffffffffffffffffffffffff1663dd62ed3e30856040518363ffffffff1660e01b8152600401808373ffffffffffffffffffffffffffffffffffffffff1681526020018273ffffffffffffffffffffffffffffffffffffffff1681526020019250505060206040518083038186803b1580156103f957600080fd5b505afa15801561040d573d6000803e3d6000fd5b505050506040513d602081101561042357600080fd5b8101908080519060200190929190505050145b61048b576040517f08c379a0000000000000000000000000000000000000000000000000000000008152600401808060200182810382526036815260200180610f036036913960400191505060405180910390fd5b6105288363095ea7b360e01b8484604051602401808373ffffffffffffffffffffffffffffffffffffffff16815260200182815260200192505050604051602081830303815290604052907bffffffffffffffffffffffffffffffffffffffffffffffffffffffff19166020820180517bffffffffffffffffffffffffffffffffffffffffffffffffffffffff838183161783525050505061052d565b505050565b600061058f826040518060400160405280602081526020017f5361666545524332303a206c6f772d6c6576656c2063616c6c206661696c65648152508573ffffffffffffffffffffffffffffffffffffffff1661061c9092919063ffffffff16565b9050600081511115610617578080602001905160208110156105b057600080fd5b8101908080519060200190929190505050610616576040517f08c379a000000000000000000000000000000000000000000000000000000000815260040180806020018281038252602a815260200180610ed9602a913960400191505060405180910390fd5b5b505050565b606061062b8484600085610634565b90509392505050565b60608247101561068f576040517f08c379a0000000000000000000000000000000000000000000000000000000008152600401808060200182810382526026815260200180610eb36026913960400191505060405180910390fd5b610698856107dc565b61070a576040517f08c379a000000000000000000000000000000000000000000000000000000000815260040180806020018281038252601d8152602001807f416464726573733a2063616c6c20746f206e6f6e2d636f6e747261637400000081525060200191505060405180910390fd5b6000808673ffffffffffffffffffffffffffffffffffffffff1685876040518082805190602001908083835b602083106107595780518252602082019150602081019050602083039250610736565b6001836020036101000a03801982511681845116808217855250505050505090500191505060006040518083038185875af1925050503d80600081146107bb576040519150601f19603f3d011682016040523d82523d6000602084013e6107c0565b606091505b50915091506107d08282866107ef565b92505050949350505050565b600080823b905060008111915050919050565b606083156107ff578290506108b4565b6000835111156108125782518084602001fd5b816040517f08c379a00000000000000000000000000000000000000000000000000000000081526004018080602001828103825283818151815260200191508051906020019080838360005b8381101561087957808201518184015260208101905061085e565b50505050905090810190601f1680156108a65780820380516001836020036101000a031916815260200191505b509250505060405180910390fd5b9392505050565b60006108ce6108c984610d42565b610d11565b9050828152602081018484840111156108e657600080fd5b6108f1848285610e01565b509392505050565b60008135905061090881610e56565b92915050565b60008135905061091d81610e6d565b92915050565b60008083601f84011261093557600080fd5b8235905067ffffffffffffffff81111561094e57600080fd5b60208301915083600182028301111561096657600080fd5b9250929050565b600082601f83011261097e57600080fd5b813561098e8482602086016108bb565b91505092915050565b600061010082840312156109aa57600080fd5b6109b5610100610d11565b905060006109c584828501610a75565b60008301525060206109d984828501610a8a565b60208301525060406109ed8482850161090e565b6040830152506060610a01848285016108f9565b6060830152506080610a158482850161090e565b60808301525060a0610a2984828501610a75565b60a08301525060c0610a3d84828501610a8a565b60c08301525060e082013567ffffffffffffffff811115610a5d57600080fd5b610a698482850161096d565b60e08301525092915050565b600081359050610a8481610e84565b92915050565b600081359050610a9981610e9b565b92915050565b60008060008060008060a08789031215610ab857600080fd5b6000610ac689828a016108f9565b9650506020610ad789828a016108f9565b9550506040610ae889828a01610a75565b9450506060610af989828a01610a75565b935050608087013567ffffffffffffffff811115610b1657600080fd5b610b2289828a01610923565b92509250509295509295509295565b600060208284031215610b4357600080fd5b600082013567ffffffffffffffff811115610b5d57600080fd5b610b6984828501610997565b91505092915050565b610b7b81610d9f565b82525050565b610b8a81610db1565b82525050565b610b9981610dbd565b82525050565b6000610baa82610d72565b610bb48185610d7d565b9350610bc4818560208601610e10565b610bcd81610e45565b840191505092915050565b6000610be5601383610d8e565b91507f496e76616c6964207374727563742064617461000000000000000000000000006000830152602082019050919050565b610c2181610de7565b82525050565b610c3081610df1565b82525050565b6000602082019050610c4b6000830184610b72565b92915050565b6000602082019050610c666000830184610b81565b92915050565b60006020820190508181036000830152610c8581610bd8565b9050919050565b600061010082019050610ca2600083018b610c18565b610caf602083018a610c27565b610cbc6040830189610b90565b610cc96060830188610b72565b610cd66080830187610b90565b610ce360a0830186610c18565b610cf060c0830185610c27565b81810360e0830152610d028184610b9f565b90509998505050505050505050565b6000604051905081810181811067ffffffffffffffff82111715610d3857610d37610e43565b5b8060405250919050565b600067ffffffffffffffff821115610d5d57610d5c610e43565b5b601f19601f8301169050602081019050919050565b600081519050919050565b600082825260208201905092915050565b600082825260208201905092915050565b6000610daa82610dc7565b9050919050565b60008115159050919050565b6000819050919050565b600073ffffffffffffffffffffffffffffffffffffffff82169050919050565b6000819050919050565b600063ffffffff82169050919050565b82818337600083830152505050565b60005b83811015610e2e578082015181840152602081019050610e13565b83811115610e3d576000848401525b50505050565bfe5b6000601f19601f8301169050919050565b610e5f81610d9f565b8114610e6a57600080fd5b50565b610e7681610dbd565b8114610e8157600080fd5b50565b610e8d81610de7565b8114610e9857600080fd5b50565b610ea481610df1565b8114610eaf57600080fd5b5056fe416464726573733a20696e73756666696369656e742062616c616e636520666f722063616c6c5361666545524332303a204552433230206f7065726174696f6e20646964206e6f7420737563636565645361666545524332303a20617070726f76652066726f6d206e6f6e2d7a65726f20746f206e6f6e2d7a65726f20616c6c6f77616e6365a2646970667358221220a4973cc1afabe81124d4dc56e079efbe0696c5fda18c88f1f81520d9100d8d2064736f6c63430007060033",
  "linkReferences": {},
  "deployedLinkReferences": {}
}