{
  "lib/evm-cctp-contracts/lib/memview-sol/contracts/TypedMemView.sol": {
    "TypedMemView": {
      "abi": [
        {
          "inputs": [],
          "name": "NULL",
          "outputs": [
            {
              "internalType": "bytes29",
              "name": "",
              "type": "bytes29"
            }
          ],
          "stateMutability": "view",
          "type": "function"
        }
      ],
      "evm": {
        "bytecode": {
          "linkReferences": {},
          "object": "60b4610024600b82828239805160001a607314601757fe5b30600052607381538281f3fe730000000000000000000000000000000000000000301460806040526004361060335760003560e01c8063f26be3fc146038575b600080fd5b603e605a565b604051808262ffffff1916815260200191505060405180910390f35b7fffffffffffffffffffffffffffffffffffffffffffffffffffffffffff0000008156fea2646970667358221220c9bdc03d9c99795a798b8826f1dacca368132332d4d31749d0675e692506760f64736f6c63430007060033",
          "opcodes": "PUSH1 0xB4 PUSH2 0x24 PUSH1 0xB DUP3 DUP3 DUP3 CODECOPY DUP1 MLOAD PUSH1 0x0 BYTE PUSH1 0x73 EQ PUSH1 0x17 JUMPI INVALID JUMPDEST ADDRESS PUSH1 0x0 MSTORE PUSH1 0x73 DUP2 MSTORE8 DUP3 DUP2 RETURN INVALID PUSH20 0x0 ADDRESS EQ PUSH1 0x80 PUSH1 0x40 MSTORE PUSH1 0x4 CALLDATASIZE LT PUSH1 0x33 JUMPI PUSH1 0x0 CALLDATALOAD PUSH1 0xE0 SHR DUP1 PUSH4 0xF26BE3FC EQ PUSH1 0x38 JUMPI JUMPDEST PUSH1 0x0 DUP1 REVERT JUMPDEST PUSH1 0x3E PUSH1 0x5A JUMP JUMPDEST PUSH1 0x40 MLOAD DUP1 DUP3 PUSH3 0xFFFFFF NOT AND DUP2 MSTORE PUSH1 0x20 ADD SWAP2 POP POP PUSH1 0x40 MLOAD DUP1 SWAP2 SUB SWAP1 RETURN JUMPDEST PUSH32 0xFFFFFFFFFFFFFFFFFFFFFFFFFFFFFFFFFFFFFFFFFFFFFFFFFFFFFFFFFF000000 DUP2 JUMP INVALID LOG2 PUSH5 0x6970667358 0x22 SLT KECCAK256 0xC9 0xBD 0xC0 RETURNDATASIZE SWAP13 SWAP10 PUSH26 0x5A798B8826F1DACCA368132332D4D31749D0675E692506760F64 PUSH20 0x6F6C634300070600330000000000000000000000 "
        },
        "methodIdentifiers": {
          "NULL()": "f26be3fc"
        }
      }
    }
  }
}