{
  "contracts/v1/Signatures.sol": {
    "Signatures": {
      "abi": [
        {
          "inputs": [],
          "stateMutability": "nonpayable",
          "type": "constructor"
        },
        {
          "inputs": [
            {
              "components": [
                {
                  "internalType": "uint256",
                  "name": "amount",
                  "type": "uint256"
                },
                {
                  "internalType": "uint256",
                  "name": "feeBps",
                  "type": "uint256"
                },
                {
                  "internalType": "address",
                  "name": "feeRecipient",
                  "type": "address"
                },
                {
                  "internalType": "address",
                  "name": "merchant",
                  "type": "address"
                },
                {
                  "internalType": "uint256",
                  "name": "salt",
                  "type": "uint256"
                }
              ],
              "internalType": "struct PaymentIntent",
              "name": "intent",
              "type": "tuple"
            }
          ],
          "name": "hashPaymentIntent",
          "outputs": [
            {
              "internalType": "bytes32",
              "name": "",
              "type": "bytes32"
            }
          ],
          "stateMutability": "view",
          "type": "function"
        }
      ],
      "evm": {
        "bytecode": {
          "linkReferences": {},
          "object": "608060405234801561001057600080fd5b5061001f61003760201b60201c565b60008060016000849190505583919050555050610440565b600080604051602001610049906103e9565b604051602081830303815290604052805190602001209150600060405160200161007290610392565b604051602081830303815290604052905080805190602001209150509091565b600061009f600c83610435565b91507f737472696e67206e616d652c00000000000000000000000000000000000000006000830152600c82019050919050565b60006100df600f83610435565b91507f75696e7432353620616d6f756e742c00000000000000000000000000000000006000830152600f82019050919050565b600061011f601983610435565b91507f6164647265737320766572696679696e67436f6e7472616374000000000000006000830152601982019050919050565b600061015f601083610435565b91507f75696e7432353620636861696e49642c000000000000000000000000000000006000830152601082019050919050565b600061019f601183610435565b91507f61646472657373206d65726368616e742c0000000000000000000000000000006000830152601182019050919050565b60006101df600183610435565b91507f29000000000000000000000000000000000000000000000000000000000000006000830152600182019050919050565b600061021f600f83610435565b91507f737472696e672076657273696f6e2c00000000000000000000000000000000006000830152600f82019050919050565b600061025f600f83610435565b91507f75696e74323536206665654270732c00000000000000000000000000000000006000830152600f82019050919050565b600061029f600e83610435565b91507f5061796d656e74496e74656e74280000000000000000000000000000000000006000830152600e82019050919050565b60006102df600c83610435565b91507f75696e743235362073616c7400000000000000000000000000000000000000006000830152600c82019050919050565b600061031f600d83610435565b91507f454950373132446f6d61696e28000000000000000000000000000000000000006000830152600d82019050919050565b600061035f601583610435565b91507f6164647265737320666565526563697069656e742c00000000000000000000006000830152601582019050919050565b600061039d82610292565b91506103a8826100d2565b91506103b382610252565b91506103be82610352565b91506103c982610192565b91506103d4826102d2565b91506103df826101d2565b9150819050919050565b60006103f482610312565b91506103ff82610092565b915061040a82610212565b915061041582610152565b915061042082610112565b915061042b826101d2565b9150819050919050565b600081905092915050565b6103238061044f6000396000f3fe608060405234801561001057600080fd5b506004361061002b5760003560e01c80637d0c8b7714610030575b600080fd5b61004a60048036038101906100459190610174565b610060565b60405161005791906101ca565b60405180910390f35b600061006b82610072565b9050919050565b6000600154826000015183602001518460400151856060015186608001516040516020016100a5969594939291906101e5565b604051602081830303815290604052805190602001209050919050565b6000813590506100d1816102bf565b92915050565b600060a082840312156100e957600080fd5b6100f360a0610246565b905060006101038482850161015f565b60008301525060206101178482850161015f565b602083015250604061012b848285016100c2565b604083015250606061013f848285016100c2565b60608301525060806101538482850161015f565b60808301525092915050565b60008135905061016e816102d6565b92915050565b600060a0828403121561018657600080fd5b6000610194848285016100d7565b91505092915050565b6101a681610277565b82525050565b6101b581610289565b82525050565b6101c4816102b3565b82525050565b60006020820190506101df60008301846101ac565b92915050565b600060c0820190506101fa60008301896101ac565b61020760208301886101bb565b61021460408301876101bb565b610221606083018661019d565b61022e608083018561019d565b61023b60a08301846101bb565b979650505050505050565b6000604051905081810181811067ffffffffffffffff8211171561026d5761026c6102bd565b5b8060405250919050565b600061028282610293565b9050919050565b6000819050919050565b600073ffffffffffffffffffffffffffffffffffffffff82169050919050565b6000819050919050565bfe5b6102c881610277565b81146102d357600080fd5b50565b6102df816102b3565b81146102ea57600080fd5b5056fea2646970667358221220672ed108f4288c6e31335ca7811f07aae48344c106cf05c8d050e7364ab4e24b64736f6c63430007060033",
          "opcodes": "PUSH1 0x80 PUSH1 0x40 MSTORE CALLVALUE DUP1 ISZERO PUSH2 0x10 JUMPI PUSH1 0x0 DUP1 REVERT JUMPDEST POP PUSH2 0x1F PUSH2 0x37 PUSH1 0x20 SHL PUSH1 0x20 SHR JUMP JUMPDEST PUSH1 0x0 DUP1 PUSH1 0x1 PUSH1 0x0 DUP5 SWAP2 SWAP1 POP SSTORE DUP4 SWAP2 SWAP1 POP SSTORE POP POP PUSH2 0x440 JUMP JUMPDEST PUSH1 0x0 DUP1 PUSH1 0x40 MLOAD PUSH1 0x20 ADD PUSH2 0x49 SWAP1 PUSH2 0x3E9 JUMP JUMPDEST PUSH1 0x40 MLOAD PUSH1 0x20 DUP2 DUP4 SUB SUB DUP2 MSTORE SWAP1 PUSH1 0x40 MSTORE DUP1 MLOAD SWAP1 PUSH1 0x20 ADD KECCAK256 SWAP2 POP PUSH1 0x0 PUSH1 0x40 MLOAD PUSH1 0x20 ADD PUSH2 0x72 SWAP1 PUSH2 0x392 JUMP JUMPDEST PUSH1 0x40 MLOAD PUSH1 0x20 DUP2 DUP4 SUB SUB DUP2 MSTORE SWAP1 PUSH1 0x40 MSTORE SWAP1 POP DUP1 DUP1 MLOAD SWAP1 PUSH1 0x20 ADD KECCAK256 SWAP2 POP POP SWAP1 SWAP2 JUMP JUMPDEST PUSH1 0x0 PUSH2 0x9F PUSH1 0xC DUP4 PUSH2 0x435 JUMP JUMPDEST SWAP2 POP PUSH32 0x737472696E67206E616D652C0000000000000000000000000000000000000000 PUSH1 0x0 DUP4 ADD MSTORE PUSH1 0xC DUP3 ADD SWAP1 POP SWAP2 SWAP1 POP JUMP JUMPDEST PUSH1 0x0 PUSH2 0xDF PUSH1 0xF DUP4 PUSH2 0x435 JUMP JUMPDEST SWAP2 POP PUSH32 0x75696E7432353620616D6F756E742C0000000000000000000000000000000000 PUSH1 0x0 DUP4 ADD MSTORE PUSH1 0xF DUP3 ADD SWAP1 POP SWAP2 SWAP1 POP JUMP JUMPDEST PUSH1 0x0 PUSH2 0x11F PUSH1 0x19 DUP4 PUSH2 0x435 JUMP JUMPDEST SWAP2 POP PUSH32 0x6164647265737320766572696679696E67436F6E747261637400000000000000 PUSH1 0x0 DUP4 ADD MSTORE PUSH1 0x19 DUP3 ADD SWAP1 POP SWAP2 SWAP1 POP JUMP JUMPDEST PUSH1 0x0 PUSH2 0x15F PUSH1 0x10 DUP4 PUSH2 0x435 JUMP JUMPDEST SWAP2 POP PUSH32 0x75696E7432353620636861696E49642C00000000000000000000000000000000 PUSH1 0x0 DUP4 ADD MSTORE PUSH1 0x10 DUP3 ADD SWAP1 POP SWAP2 SWAP1 POP JUMP JUMPDEST PUSH1 0x0 PUSH2 0x19F PUSH1 0x11 DUP4 PUSH2 0x435 JUMP JUMPDEST SWAP2 POP PUSH32 0x61646472657373206D65726368616E742C000000000000000000000000000000 PUSH1 0x0 DUP4 ADD MSTORE PUSH1 0x11 DUP3 ADD SWAP1 POP SWAP2 SWAP1 POP JUMP JUMPDEST PUSH1 0x0 PUSH2 0x1DF PUSH1 0x1 DUP4 PUSH2 0x435 JUMP JUMPDEST SWAP2 POP PUSH32 0x2900000000000000000000000000000000000000000000000000000000000000 PUSH1 0x0 DUP4 ADD MSTORE PUSH1 0x1 DUP3 ADD SWAP1 POP SWAP2 SWAP1 POP JUMP JUMPDEST PUSH1 0x0 PUSH2 0x21F PUSH1 0xF DUP4 PUSH2 0x435 JUMP JUMPDEST SWAP2 POP PUSH32 0x737472696E672076657273696F6E2C0000000000000000000000000000000000 PUSH1 0x0 DUP4 ADD MSTORE PUSH1 0xF DUP3 ADD SWAP1 POP SWAP2 SWAP1 POP JUMP JUMPDEST PUSH1 0x0 PUSH2 0x25F PUSH1 0xF DUP4 PUSH2 0x435 JUMP JUMPDEST SWAP2 POP PUSH32 0x75696E74323536206665654270732C0000000000000000000000000000000000 PUSH1 0x0 DUP4 ADD MSTORE PUSH1 0xF DUP3 ADD SWAP1 POP SWAP2 SWAP1 POP JUMP JUMPDEST PUSH1 0x0 PUSH2 0x29F PUSH1 0xE DUP4 PUSH2 0x435 JUMP JUMPDEST SWAP2 POP PUSH32 0x5061796D656E74496E74656E7428000000000000000000000000000000000000 PUSH1 0x0 DUP4 ADD MSTORE PUSH1 0xE DUP3 ADD SWAP1 POP SWAP2 SWAP1 POP JUMP JUMPDEST PUSH1 0x0 PUSH2 0x2DF PUSH1 0xC DUP4 PUSH2 0x435 JUMP JUMPDEST SWAP2 POP PUSH32 0x75696E743235362073616C740000000000000000000000000000000000000000 PUSH1 0x0 DUP4 ADD MSTORE PUSH1 0xC DUP3 ADD SWAP1 POP SWAP2 SWAP1 POP JUMP JUMPDEST PUSH1 0x0 PUSH2 0x31F PUSH1 0xD DUP4 PUSH2 0x435 JUMP JUMPDEST SWAP2 POP PUSH32 0x454950373132446F6D61696E2800000000000000000000000000000000000000 PUSH1 0x0 DUP4 ADD MSTORE PUSH1 0xD DUP3 ADD SWAP1 POP SWAP2 SWAP1 POP JUMP JUMPDEST PUSH1 0x0 PUSH2 0x35F PUSH1 0x15 DUP4 PUSH2 0x435 JUMP JUMPDEST SWAP2 POP PUSH32 0x6164647265737320666565526563697069656E742C0000000000000000000000 PUSH1 0x0 DUP4 ADD MSTORE PUSH1 0x15 DUP3 ADD SWAP1 POP SWAP2 SWAP1 POP JUMP JUMPDEST PUSH1 0x0 PUSH2 0x39D DUP3 PUSH2 0x292 JUMP JUMPDEST SWAP2 POP PUSH2 0x3A8 DUP3 PUSH2 0xD2 JUMP JUMPDEST SWAP2 POP PUSH2 0x3B3 DUP3 PUSH2 0x252 JUMP JUMPDEST SWAP2 POP PUSH2 0x3BE DUP3 PUSH2 0x352 JUMP JUMPDEST SWAP2 POP PUSH2 0x3C9 DUP3 PUSH2 0x192 JUMP JUMPDEST SWAP2 POP PUSH2 0x3D4 DUP3 PUSH2 0x2D2 JUMP JUMPDEST SWAP2 POP PUSH2 0x3DF DUP3 PUSH2 0x1D2 JUMP JUMPDEST SWAP2 POP DUP2 SWAP1 POP SWAP2 SWAP1 POP JUMP JUMPDEST PUSH1 0x0 PUSH2 0x3F4 DUP3 PUSH2 0x312 JUMP JUMPDEST SWAP2 POP PUSH2 0x3FF DUP3 PUSH2 0x92 JUMP JUMPDEST SWAP2 POP PUSH2 0x40A DUP3 PUSH2 0x212 JUMP JUMPDEST SWAP2 POP PUSH2 0x415 DUP3 PUSH2 0x152 JUMP JUMPDEST SWAP2 POP PUSH2 0x420 DUP3 PUSH2 0x112 JUMP JUMPDEST SWAP2 POP PUSH2 0x42B DUP3 PUSH2 0x1D2 JUMP JUMPDEST SWAP2 POP DUP2 SWAP1 POP SWAP2 SWAP1 POP JUMP JUMPDEST PUSH1 0x0 DUP2 SWAP1 POP SWAP3 SWAP2 POP POP JUMP JUMPDEST PUSH2 0x323 DUP1 PUSH2 0x44F PUSH1 0x0 CODECOPY PUSH1 0x0 RETURN INVALID PUSH1 0x80 PUSH1 0x40 MSTORE CALLVALUE DUP1 ISZERO PUSH2 0x10 JUMPI PUSH1 0x0 DUP1 REVERT JUMPDEST POP PUSH1 0x4 CALLDATASIZE LT PUSH2 0x2B JUMPI PUSH1 0x0 CALLDATALOAD PUSH1 0xE0 SHR DUP1 PUSH4 0x7D0C8B77 EQ PUSH2 0x30 JUMPI JUMPDEST PUSH1 0x0 DUP1 REVERT JUMPDEST PUSH2 0x4A PUSH1 0x4 DUP1 CALLDATASIZE SUB DUP2 ADD SWAP1 PUSH2 0x45 SWAP2 SWAP1 PUSH2 0x174 JUMP JUMPDEST PUSH2 0x60 JUMP JUMPDEST PUSH1 0x40 MLOAD PUSH2 0x57 SWAP2 SWAP1 PUSH2 0x1CA JUMP JUMPDEST PUSH1 0x40 MLOAD DUP1 SWAP2 SUB SWAP1 RETURN JUMPDEST PUSH1 0x0 PUSH2 0x6B DUP3 PUSH2 0x72 JUMP JUMPDEST SWAP1 POP SWAP2 SWAP1 POP JUMP JUMPDEST PUSH1 0x0 PUSH1 0x1 SLOAD DUP3 PUSH1 0x0 ADD MLOAD DUP4 PUSH1 0x20 ADD MLOAD DUP5 PUSH1 0x40 ADD MLOAD DUP6 PUSH1 0x60 ADD MLOAD DUP7 PUSH1 0x80 ADD MLOAD PUSH1 0x40 MLOAD PUSH1 0x20 ADD PUSH2 0xA5 SWAP7 SWAP6 SWAP5 SWAP4 SWAP3 SWAP2 SWAP1 PUSH2 0x1E5 JUMP JUMPDEST PUSH1 0x40 MLOAD PUSH1 0x20 DUP2 DUP4 SUB SUB DUP2 MSTORE SWAP1 PUSH1 0x40 MSTORE DUP1 MLOAD SWAP1 PUSH1 0x20 ADD KECCAK256 SWAP1 POP SWAP2 SWAP1 POP JUMP JUMPDEST PUSH1 0x0 DUP2 CALLDATALOAD SWAP1 POP PUSH2 0xD1 DUP2 PUSH2 0x2BF JUMP JUMPDEST SWAP3 SWAP2 POP POP JUMP JUMPDEST PUSH1 0x0 PUSH1 0xA0 DUP3 DUP5 SUB SLT ISZERO PUSH2 0xE9 JUMPI PUSH1 0x0 DUP1 REVERT JUMPDEST PUSH2 0xF3 PUSH1 0xA0 PUSH2 0x246 JUMP JUMPDEST SWAP1 POP PUSH1 0x0 PUSH2 0x103 DUP5 DUP3 DUP6 ADD PUSH2 0x15F JUMP JUMPDEST PUSH1 0x0 DUP4 ADD MSTORE POP PUSH1 0x20 PUSH2 0x117 DUP5 DUP3 DUP6 ADD PUSH2 0x15F JUMP JUMPDEST PUSH1 0x20 DUP4 ADD MSTORE POP PUSH1 0x40 PUSH2 0x12B DUP5 DUP3 DUP6 ADD PUSH2 0xC2 JUMP JUMPDEST PUSH1 0x40 DUP4 ADD MSTORE POP PUSH1 0x60 PUSH2 0x13F DUP5 DUP3 DUP6 ADD PUSH2 0xC2 JUMP JUMPDEST PUSH1 0x60 DUP4 ADD MSTORE POP PUSH1 0x80 PUSH2 0x153 DUP5 DUP3 DUP6 ADD PUSH2 0x15F JUMP JUMPDEST PUSH1 0x80 DUP4 ADD MSTORE POP SWAP3 SWAP2 POP POP JUMP JUMPDEST PUSH1 0x0 DUP2 CALLDATALOAD SWAP1 POP PUSH2 0x16E DUP2 PUSH2 0x2D6 JUMP JUMPDEST SWAP3 SWAP2 POP POP JUMP JUMPDEST PUSH1 0x0 PUSH1 0xA0 DUP3 DUP5 SUB SLT ISZERO PUSH2 0x186 JUMPI PUSH1 0x0 DUP1 REVERT JUMPDEST PUSH1 0x0 PUSH2 0x194 DUP5 DUP3 DUP6 ADD PUSH2 0xD7 JUMP JUMPDEST SWAP2 POP POP SWAP3 SWAP2 POP POP JUMP JUMPDEST PUSH2 0x1A6 DUP2 PUSH2 0x277 JUMP JUMPDEST DUP3 MSTORE POP POP JUMP JUMPDEST PUSH2 0x1B5 DUP2 PUSH2 0x289 JUMP JUMPDEST DUP3 MSTORE POP POP JUMP JUMPDEST PUSH2 0x1C4 DUP2 PUSH2 0x2B3 JUMP JUMPDEST DUP3 MSTORE POP POP JUMP JUMPDEST PUSH1 0x0 PUSH1 0x20 DUP3 ADD SWAP1 POP PUSH2 0x1DF PUSH1 0x0 DUP4 ADD DUP5 PUSH2 0x1AC JUMP JUMPDEST SWAP3 SWAP2 POP POP JUMP JUMPDEST PUSH1 0x0 PUSH1 0xC0 DUP3 ADD SWAP1 POP PUSH2 0x1FA PUSH1 0x0 DUP4 ADD DUP10 PUSH2 0x1AC JUMP JUMPDEST PUSH2 0x207 PUSH1 0x20 DUP4 ADD DUP9 PUSH2 0x1BB JUMP JUMPDEST PUSH2 0x214 PUSH1 0x40 DUP4 ADD DUP8 PUSH2 0x1BB JUMP JUMPDEST PUSH2 0x221 PUSH1 0x60 DUP4 ADD DUP7 PUSH2 0x19D JUMP JUMPDEST PUSH2 0x22E PUSH1 0x80 DUP4 ADD DUP6 PUSH2 0x19D JUMP JUMPDEST PUSH2 0x23B PUSH1 0xA0 DUP4 ADD DUP5 PUSH2 0x1BB JUMP JUMPDEST SWAP8 SWAP7 POP POP POP POP POP POP POP JUMP JUMPDEST PUSH1 0x0 PUSH1 0x40 MLOAD SWAP1 POP DUP2 DUP2 ADD DUP2 DUP2 LT PUSH8 0xFFFFFFFFFFFFFFFF DUP3 GT OR ISZERO PUSH2 0x26D JUMPI PUSH2 0x26C PUSH2 0x2BD JUMP JUMPDEST JUMPDEST DUP1 PUSH1 0x40 MSTORE POP SWAP2 SWAP1 POP JUMP JUMPDEST PUSH1 0x0 PUSH2 0x282 DUP3 PUSH2 0x293 JUMP JUMPDEST SWAP1 POP SWAP2 SWAP1 POP JUMP JUMPDEST PUSH1 0x0 DUP2 SWAP1 POP SWAP2 SWAP1 POP JUMP JUMPDEST PUSH1 0x0 PUSH20 0xFFFFFFFFFFFFFFFFFFFFFFFFFFFFFFFFFFFFFFFF DUP3 AND SWAP1 POP SWAP2 SWAP1 POP JUMP JUMPDEST PUSH1 0x0 DUP2 SWAP1 POP SWAP2 SWAP1 POP JUMP JUMPDEST INVALID JUMPDEST PUSH2 0x2C8 DUP2 PUSH2 0x277 JUMP JUMPDEST DUP2 EQ PUSH2 0x2D3 JUMPI PUSH1 0x0 DUP1 REVERT JUMPDEST POP JUMP JUMPDEST PUSH2 0x2DF DUP2 PUSH2 0x2B3 JUMP JUMPDEST DUP2 EQ PUSH2 0x2EA JUMPI PUSH1 0x0 DUP1 REVERT JUMPDEST POP JUMP INVALID LOG2 PUSH5 0x6970667358 0x22 SLT KECCAK256 PUSH8 0x2ED108F4288C6E31 CALLER 0x5C 0xA7 DUP2 0x1F SMOD 0xAA 0xE4 DUP4 DIFFICULTY 0xC1 MOD 0xCF SDIV 0xC8 0xD0 POP 0xE7 CALLDATASIZE 0x4A 0xB4 0xE2 0x4B PUSH5 0x736F6C6343 STOP SMOD MOD STOP CALLER "
        },
        "methodIdentifiers": {
          "hashPaymentIntent((uint256,uint256,address,address,uint256))": "7d0c8b77"
        }
      }
    }
  }
}