{
  "_format": "hh-sol-artifact-1",
  "contractName": "SwapWrapper",
  "sourceName": "contracts/wrapper/SwapWrapper.sol",
  "abi": [
    {
      "inputs": [
        {
          "internalType": "address",
          "name": "_weth",
          "type": "address"
        }
      ],
      "stateMutability": "nonpayable",
      "type": "constructor"
    },
    {
      "anonymous": false,
      "inputs": [
        {
          "indexed": true,
          "internalType": "address",
          "name": "user",
          "type": "address"
        },
        {
          "indexed": true,
          "internalType": "address",
          "name": "tokenIn",
          "type": "address"
        },
        {
          "indexed": true,
          "internalType": "address",
          "name": "tokenOut",
          "type": "address"
        },
        {
          "indexed": false,
          "internalType": "uint256",
          "name": "amountInUsed",
          "type": "uint256"
        },
        {
          "indexed": false,
          "internalType": "uint256",
          "name": "amountOut",
          "type": "uint256"
        },
        {
          "indexed": false,
          "internalType": "uint256",
          "name": "tokenInRefund",
          "type": "uint256"
        },
        {
          "indexed": false,
          "internalType": "uint256",
          "name": "tokenOutLeftover",
          "type": "uint256"
        }
      ],
      "name": "SwapExecuted",
      "type": "event"
    },
    {
      "inputs": [],
      "name": "WETH",
      "outputs": [
        {
          "internalType": "address",
          "name": "",
          "type": "address"
        }
      ],
      "stateMutability": "view",
      "type": "function"
    },
    {
      "inputs": [
        {
          "components": [
            {
              "internalType": "address",
              "name": "tokenIn",
              "type": "address"
            },
            {
              "internalType": "address",
              "name": "tokenOut",
              "type": "address"
            },
            {
              "internalType": "uint256",
              "name": "amountInMax",
              "type": "uint256"
            },
            {
              "internalType": "uint256",
              "name": "amountOut",
              "type": "uint256"
            },
            {
              "internalType": "address",
              "name": "liquidityTarget",
              "type": "address"
            },
            {
              "internalType": "bytes",
              "name": "liquidityCalldata",
              "type": "bytes"
            },
            {
              "internalType": "address",
              "name": "target",
              "type": "address"
            },
            {
              "internalType": "bytes",
              "name": "structData",
              "type": "bytes"
            }
          ],
          "internalType": "struct SwapWrapper.RouteParams",
          "name": "params",
          "type": "tuple"
        }
      ],
      "name": "executeSwap",
      "outputs": [],
      "stateMutability": "payable",
      "type": "function"
    },
    {
      "stateMutability": "payable",
      "type": "receive"
    }
  ],
  "bytecode": "0x60a06040523480156200001157600080fd5b5060405162001df338038062001df3833981810160405281019062000037919062000094565b60016000819055508073ffffffffffffffffffffffffffffffffffffffff1660808173ffffffffffffffffffffffffffffffffffffffff1660601b81525050506200010e565b6000815190506200008e81620000f4565b92915050565b600060208284031215620000a757600080fd5b6000620000b7848285016200007d565b91505092915050565b6000620000cd82620000d4565b9050919050565b600073ffffffffffffffffffffffffffffffffffffffff82169050919050565b620000ff81620000c0565b81146200010b57600080fd5b50565b60805160601c611ca56200014e60003980608252806101b452806103aa52806105d9528061097a5280610b675280610e965280610eeb5250611ca56000f3fe60806040526004361061002d5760003560e01c8063ad5c464814610039578063b9ab5c031461006457610034565b3661003457005b600080fd5b34801561004557600080fd5b5061004e610080565b60405161005b91906118cc565b60405180910390f35b61007e600480360381019061007991906116cc565b6100a4565b005b7f000000000000000000000000000000000000000000000000000000000000000081565b6002600054141561011d576040517f08c379a000000000000000000000000000000000000000000000000000000000815260040180806020018281038252601f8152602001807f5265656e7472616e637947756172643a207265656e7472616e742063616c6c0081525060200191505060405180910390fd5b6002600081905550600073ffffffffffffffffffffffffffffffffffffffff16816000016020810190610150919061167a565b73ffffffffffffffffffffffffffffffffffffffff16141561023857806040013534146101b2576040517f08c379a00000000000000000000000000000000000000000000000000000000081526004016101a9906119d0565b60405180910390fd5b7f000000000000000000000000000000000000000000000000000000000000000073ffffffffffffffffffffffffffffffffffffffff1663d0e30db0346040518263ffffffff1660e01b81526004016000604051808303818588803b15801561021a57600080fd5b505af115801561022e573d6000803e3d6000fd5b505050505061027c565b61027b33308360400135846000016020810190610255919061167a565b73ffffffffffffffffffffffffffffffffffffffff16610d9c909392919063ffffffff16565b5b6000610299826000016020810190610294919061167a565b610e5d565b905060006102b88360200160208101906102b3919061167a565b610e5d565b9050600073ffffffffffffffffffffffffffffffffffffffff168360000160208101906102e5919061167a565b73ffffffffffffffffffffffffffffffffffffffff16146103a857610350836080016020810190610316919061167a565b600085600001602081019061032b919061167a565b73ffffffffffffffffffffffffffffffffffffffff1661102a9092919063ffffffff16565b6103a3836080016020810190610366919061167a565b846040013585600001602081019061037e919061167a565b73ffffffffffffffffffffffffffffffffffffffff1661102a9092919063ffffffff16565b61046d565b7f000000000000000000000000000000000000000000000000000000000000000073ffffffffffffffffffffffffffffffffffffffff1663095ea7b38460800160208101906103f7919061167a565b85604001356040518363ffffffff1660e01b8152600401610419929190611987565b602060405180830381600087803b15801561043357600080fd5b505af1158015610447573d6000803e3d6000fd5b505050506040513d601f19601f8201168201806040525081019061046b91906116a3565b505b6000836080016020810190610482919061167a565b73ffffffffffffffffffffffffffffffffffffffff16848060a001906104a89190611a70565b6040516104b692919061189e565b6000604051808303816000865af19150503d80600081146104f3576040519150601f19603f3d011682016040523d82523d6000602084013e6104f8565b606091505b505090508061053c576040517f08c379a0000000000000000000000000000000000000000000000000000000008152600401610533906119f0565b60405180910390fd5b600073ffffffffffffffffffffffffffffffffffffffff16846000016020810190610567919061167a565b73ffffffffffffffffffffffffffffffffffffffff16146105d7576105d2846080016020810190610598919061167a565b60008660000160208101906105ad919061167a565b73ffffffffffffffffffffffffffffffffffffffff1661102a9092919063ffffffff16565b610699565b7f000000000000000000000000000000000000000000000000000000000000000073ffffffffffffffffffffffffffffffffffffffff1663095ea7b3856080016020810190610626919061167a565b60006040518363ffffffff1660e01b815260040161064592919061195e565b602060405180830381600087803b15801561065f57600080fd5b505af1158015610673573d6000803e3d6000fd5b505050506040513d601f19601f8201168201806040525081019061069791906116a3565b505b60006106b68560000160208101906106b1919061167a565b610e5d565b84039050600073ffffffffffffffffffffffffffffffffffffffff168560200160208101906106e5919061167a565b73ffffffffffffffffffffffffffffffffffffffff16146107a4576107508560c0016020810190610716919061167a565b600087602001602081019061072b919061167a565b73ffffffffffffffffffffffffffffffffffffffff1661102a9092919063ffffffff16565b6107a38560c0016020810190610766919061167a565b866060013587602001602081019061077e919061167a565b73ffffffffffffffffffffffffffffffffffffffff1661102a9092919063ffffffff16565b5b8460c00160208101906107b7919061167a565b73ffffffffffffffffffffffffffffffffffffffff16631e999dad8660000160208101906107e5919061167a565b8760200160208101906107f8919061167a565b886040013589606001358a8060e001906108129190611a70565b6040518763ffffffff1660e01b815260040161083396959493929190611902565b602060405180830381600087803b15801561084d57600080fd5b505af1158015610861573d6000803e3d6000fd5b505050506040513d601f19601f8201168201806040525081019061088591906116a3565b50600073ffffffffffffffffffffffffffffffffffffffff168560200160208101906108b1919061167a565b73ffffffffffffffffffffffffffffffffffffffff161461091d5761091c8560c00160208101906108e2919061167a565b60008760200160208101906108f7919061167a565b73ffffffffffffffffffffffffffffffffffffffff1661102a9092919063ffffffff16565b5b60008186604001350390506000811115610af457600073ffffffffffffffffffffffffffffffffffffffff1686600001602081019061095c919061167a565b73ffffffffffffffffffffffffffffffffffffffff161415610ab5577f000000000000000000000000000000000000000000000000000000000000000073ffffffffffffffffffffffffffffffffffffffff16632e1a7d4d826040518263ffffffff1660e01b81526004016109d19190611a10565b600060405180830381600087803b1580156109eb57600080fd5b505af11580156109ff573d6000803e3d6000fd5b5050505060003373ffffffffffffffffffffffffffffffffffffffff1682604051610a29906118b7565b60006040518083038185875af1925050503d8060008114610a66576040519150601f19603f3d011682016040523d82523d6000602084013e610a6b565b606091505b5050905080610aaf576040517f08c379a0000000000000000000000000000000000000000000000000000000008152600401610aa6906119b0565b60405180910390fd5b50610af3565b610af23382886000016020810190610acd919061167a565b73ffffffffffffffffffffffffffffffffffffffff166111ef9092919063ffffffff16565b5b5b600084610b12886020016020810190610b0d919061167a565b610e5d565b0390506000811115610ce157600073ffffffffffffffffffffffffffffffffffffffff16876020016020810190610b49919061167a565b73ffffffffffffffffffffffffffffffffffffffff161415610ca2577f000000000000000000000000000000000000000000000000000000000000000073ffffffffffffffffffffffffffffffffffffffff16632e1a7d4d826040518263ffffffff1660e01b8152600401610bbe9190611a10565b600060405180830381600087803b158015610bd857600080fd5b505af1158015610bec573d6000803e3d6000fd5b5050505060003373ffffffffffffffffffffffffffffffffffffffff1682604051610c16906118b7565b60006040518083038185875af1925050503d8060008114610c53576040519150601f19603f3d011682016040523d82523d6000602084013e610c58565b606091505b5050905080610c9c576040517f08c379a0000000000000000000000000000000000000000000000000000000008152600401610c93906119b0565b60405180910390fd5b50610ce0565b610cdf3382896020016020810190610cba919061167a565b73ffffffffffffffffffffffffffffffffffffffff166111ef9092919063ffffffff16565b5b5b866020016020810190610cf4919061167a565b73ffffffffffffffffffffffffffffffffffffffff16876000016020810190610d1d919061167a565b73ffffffffffffffffffffffffffffffffffffffff163373ffffffffffffffffffffffffffffffffffffffff167f43415e25edb52db0638ec44209302ce9df6ab6fa46a2233aee34f9c75471ea26868b606001358787604051610d839493929190611a2b565b60405180910390a4505050505050600160008190555050565b610e57846323b872dd60e01b858585604051602401808473ffffffffffffffffffffffffffffffffffffffff1681526020018373ffffffffffffffffffffffffffffffffffffffff1681526020018281526020019350505050604051602081830303815290604052907bffffffffffffffffffffffffffffffffffffffffffffffffffffffff19166020820180517bffffffffffffffffffffffffffffffffffffffffffffffffffffffff8381831617835250505050611291565b50505050565b60008073ffffffffffffffffffffffffffffffffffffffff168273ffffffffffffffffffffffffffffffffffffffff161480610ee457507f000000000000000000000000000000000000000000000000000000000000000073ffffffffffffffffffffffffffffffffffffffff168273ffffffffffffffffffffffffffffffffffffffff16145b15610f99577f000000000000000000000000000000000000000000000000000000000000000073ffffffffffffffffffffffffffffffffffffffff166370a08231306040518263ffffffff1660e01b8152600401610f4291906118e7565b60206040518083038186803b158015610f5a57600080fd5b505afa158015610f6e573d6000803e3d6000fd5b505050506040513d601f19601f82011682018060405250810190610f92919061170d565b9050611025565b8173ffffffffffffffffffffffffffffffffffffffff166370a08231306040518263ffffffff1660e01b8152600401610fd291906118e7565b60206040518083038186803b158015610fea57600080fd5b505afa158015610ffe573d6000803e3d6000fd5b505050506040513d601f19601f82011682018060405250810190611022919061170d565b90505b919050565b60008114806110f8575060008373ffffffffffffffffffffffffffffffffffffffff1663dd62ed3e30856040518363ffffffff1660e01b8152600401808373ffffffffffffffffffffffffffffffffffffffff1681526020018273ffffffffffffffffffffffffffffffffffffffff1681526020019250505060206040518083038186803b1580156110bb57600080fd5b505afa1580156110cf573d6000803e3d6000fd5b505050506040513d60208110156110e557600080fd5b8101908080519060200190929190505050145b61114d576040517f08c379a0000000000000000000000000000000000000000000000000000000008152600401808060200182810382526036815260200180611c3a6036913960400191505060405180910390fd5b6111ea8363095ea7b360e01b8484604051602401808373ffffffffffffffffffffffffffffffffffffffff16815260200182815260200192505050604051602081830303815290604052907bffffffffffffffffffffffffffffffffffffffffffffffffffffffff19166020820180517bffffffffffffffffffffffffffffffffffffffffffffffffffffffff8381831617835250505050611291565b505050565b61128c8363a9059cbb60e01b8484604051602401808373ffffffffffffffffffffffffffffffffffffffff16815260200182815260200192505050604051602081830303815290604052907bffffffffffffffffffffffffffffffffffffffffffffffffffffffff19166020820180517bffffffffffffffffffffffffffffffffffffffffffffffffffffffff8381831617835250505050611291565b505050565b60006112f3826040518060400160405280602081526020017f5361666545524332303a206c6f772d6c6576656c2063616c6c206661696c65648152508573ffffffffffffffffffffffffffffffffffffffff166113809092919063ffffffff16565b905060008151111561137b5780806020019051602081101561131457600080fd5b810190808051906020019092919050505061137a576040517f08c379a000000000000000000000000000000000000000000000000000000000815260040180806020018281038252602a815260200180611c10602a913960400191505060405180910390fd5b5b505050565b606061138f8484600085611398565b90509392505050565b6060824710156113f3576040517f08c379a0000000000000000000000000000000000000000000000000000000008152600401808060200182810382526026815260200180611bea6026913960400191505060405180910390fd5b6113fc85611540565b61146e576040517f08c379a000000000000000000000000000000000000000000000000000000000815260040180806020018281038252601d8152602001807f416464726573733a2063616c6c20746f206e6f6e2d636f6e747261637400000081525060200191505060405180910390fd5b6000808673ffffffffffffffffffffffffffffffffffffffff1685876040518082805190602001908083835b602083106114bd578051825260208201915060208101905060208303925061149a565b6001836020036101000a03801982511681845116808217855250505050505090500191505060006040518083038185875af1925050503d806000811461151f576040519150601f19603f3d011682016040523d82523d6000602084013e611524565b606091505b5091509150611534828286611553565b92505050949350505050565b600080823b905060008111915050919050565b6060831561156357829050611618565b6000835111156115765782518084602001fd5b816040517f08c379a00000000000000000000000000000000000000000000000000000000081526004018080602001828103825283818151815260200191508051906020019080838360005b838110156115dd5780820151818401526020810190506115c2565b50505050905090810190601f16801561160a5780820380516001836020036101000a031916815260200191505b509250505060405180910390fd5b9392505050565b60008135905061162e81611ba4565b92915050565b60008151905061164381611bbb565b92915050565b6000610100828403121561165c57600080fd5b81905092915050565b60008151905061167481611bd2565b92915050565b60006020828403121561168c57600080fd5b600061169a8482850161161f565b91505092915050565b6000602082840312156116b557600080fd5b60006116c384828501611634565b91505092915050565b6000602082840312156116de57600080fd5b600082013567ffffffffffffffff8111156116f857600080fd5b61170484828501611649565b91505092915050565b60006020828403121561171f57600080fd5b600061172d84828501611665565b91505092915050565b61173f81611b3c565b82525050565b61174e81611af4565b82525050565b60006117608385611ac7565b935061176d838584611b84565b61177683611b93565b840190509392505050565b600061178d8385611ad8565b935061179a838584611b84565b82840190509392505050565b6117af81611b4e565b82525050565b60006117c2601183611ae3565b91507f45544820726566756e64206661696c65640000000000000000000000000000006000830152602082019050919050565b6000611802601283611ae3565b91507f496e76616c69642045544820616d6f756e7400000000000000000000000000006000830152602082019050919050565b6000611842601b83611ae3565b91507f6c69717569646974795461726765742063616c6c206661696c656400000000006000830152602082019050919050565b6000611882600083611ad8565b9150600082019050919050565b61189881611b32565b82525050565b60006118ab828486611781565b91508190509392505050565b60006118c282611875565b9150819050919050565b60006020820190506118e16000830184611745565b92915050565b60006020820190506118fc6000830184611736565b92915050565b600060a0820190506119176000830189611745565b6119246020830188611745565b611931604083018761188f565b61193e606083018661188f565b8181036080830152611951818486611754565b9050979650505050505050565b60006040820190506119736000830185611745565b61198060208301846117a6565b9392505050565b600060408201905061199c6000830185611745565b6119a9602083018461188f565b9392505050565b600060208201905081810360008301526119c9816117b5565b9050919050565b600060208201905081810360008301526119e9816117f5565b9050919050565b60006020820190508181036000830152611a0981611835565b9050919050565b6000602082019050611a25600083018461188f565b92915050565b6000608082019050611a40600083018761188f565b611a4d602083018661188f565b611a5a604083018561188f565b611a67606083018461188f565b95945050505050565b60008083356001602003843603038112611a8957600080fd5b80840192508235915067ffffffffffffffff821115611aa757600080fd5b602083019250600182023603831315611abf57600080fd5b509250929050565b600082825260208201905092915050565b600081905092915050565b600082825260208201905092915050565b6000611aff82611b12565b9050919050565b60008115159050919050565b600073ffffffffffffffffffffffffffffffffffffffff82169050919050565b6000819050919050565b6000611b4782611b60565b9050919050565b6000611b5982611b32565b9050919050565b6000611b6b82611b72565b9050919050565b6000611b7d82611b12565b9050919050565b82818337600083830152505050565b6000601f19601f8301169050919050565b611bad81611af4565b8114611bb857600080fd5b50565b611bc481611b06565b8114611bcf57600080fd5b50565b611bdb81611b32565b8114611be657600080fd5b5056fe416464726573733a20696e73756666696369656e742062616c616e636520666f722063616c6c5361666545524332303a204552433230206f7065726174696f6e20646964206e6f7420737563636565645361666545524332303a20617070726f76652066726f6d206e6f6e2d7a65726f20746f206e6f6e2d7a65726f20616c6c6f77616e6365a26469706673582212204b28e54f5a8dfeb26ae3b76e75a88842da7b6f60ebd4e452928168fe955faffb64736f6c63430007060033",
  "linkReferences": {},
  "deployedLinkReferences": {}
}