{
  "_format": "hh-sol-artifact-1",
  "contractName": "SwapWrapper",
  "sourceName": "contracts/wrapper/SwapWrapper.sol",
  "abi": [
    {
      "inputs": [
        {
          "internalType": "address",
          "name": "_weth",
          "type": "address"
        }
      ],
      "stateMutability": "nonpayable",
      "type": "constructor"
    },
    {
      "anonymous": false,
      "inputs": [
        {
          "indexed": true,
          "internalType": "address",
          "name": "user",
          "type": "address"
        },
        {
          "indexed": true,
          "internalType": "address",
          "name": "tokenIn",
          "type": "address"
        },
        {
          "indexed": true,
          "internalType": "address",
          "name": "tokenOut",
          "type": "address"
        },
        {
          "indexed": false,
          "internalType": "uint256",
          "name": "amountInUsed",
          "type": "uint256"
        },
        {
          "indexed": false,
          "internalType": "uint256",
          "name": "amountOut",
          "type": "uint256"
        },
        {
          "indexed": false,
          "internalType": "uint256",
          "name": "tokenInRefund",
          "type": "uint256"
        },
        {
          "indexed": false,
          "internalType": "uint256",
          "name": "tokenOutLeftover",
          "type": "uint256"
        }
      ],
      "name": "SwapExecuted",
      "type": "event"
    },
    {
      "inputs": [],
      "name": "WETH",
      "outputs": [
        {
          "internalType": "address",
          "name": "",
          "type": "address"
        }
      ],
      "stateMutability": "view",
      "type": "function"
    },
    {
      "inputs": [
        {
          "components": [
            {
              "internalType": "address",
              "name": "tokenIn",
              "type": "address"
            },
            {
              "internalType": "address",
              "name": "tokenOut",
              "type": "address"
            },
            {
              "internalType": "uint256",
              "name": "amountInMax",
              "type": "uint256"
            },
            {
              "internalType": "uint256",
              "name": "amountOut",
              "type": "uint256"
            },
            {
              "internalType": "address",
              "name": "liquidityTarget",
              "type": "address"
            },
            {
              "internalType": "bytes",
              "name": "liquidityCalldata",
              "type": "bytes"
            },
            {
              "internalType": "address",
              "name": "target",
              "type": "address"
            },
            {
              "internalType": "bytes",
              "name": "structData",
              "type": "bytes"
            }
          ],
          "internalType": "struct SwapWrapper.RouteParams",
          "name": "params",
          "type": "tuple"
        }
      ],
      "name": "executeSwap",
      "outputs": [],
      "stateMutability": "payable",
      "type": "function"
    },
    {
      "stateMutability": "payable",
      "type": "receive"
    }
  ],
  "bytecode": "0x60a06040523480156200001157600080fd5b506040516200195e3803806200195e833981810160405281019062000037919062000094565b60016000819055508073ffffffffffffffffffffffffffffffffffffffff1660808173ffffffffffffffffffffffffffffffffffffffff1660601b81525050506200010e565b6000815190506200008e81620000f4565b92915050565b600060208284031215620000a757600080fd5b6000620000b7848285016200007d565b91505092915050565b6000620000cd82620000d4565b9050919050565b600073ffffffffffffffffffffffffffffffffffffffff82169050919050565b620000ff81620000c0565b81146200010b57600080fd5b50565b60805160601c6118246200013a60003980608252806101b4528061066a528061085752506118246000f3fe60806040526004361061002d5760003560e01c8063ad5c464814610039578063b9ab5c031461006457610034565b3661003457005b600080fd5b34801561004557600080fd5b5061004e610080565b60405161005b91906114af565b60405180910390f35b61007e600480360381019061007991906112be565b6100a4565b005b7f000000000000000000000000000000000000000000000000000000000000000081565b6002600054141561011d576040517f08c379a000000000000000000000000000000000000000000000000000000000815260040180806020018281038252601f8152602001807f5265656e7472616e637947756172643a207265656e7472616e742063616c6c0081525060200191505060405180910390fd5b6002600081905550600073ffffffffffffffffffffffffffffffffffffffff16816000016020810190610150919061126c565b73ffffffffffffffffffffffffffffffffffffffff16141561023857806040013534146101b2576040517f08c379a00000000000000000000000000000000000000000000000000000000081526004016101a990611561565b60405180910390fd5b7f000000000000000000000000000000000000000000000000000000000000000073ffffffffffffffffffffffffffffffffffffffff1663d0e30db0346040518263ffffffff1660e01b81526004016000604051808303818588803b15801561021a57600080fd5b505af115801561022e573d6000803e3d6000fd5b505050505061027c565b61027b33308360400135846000016020810190610255919061126c565b73ffffffffffffffffffffffffffffffffffffffff16610a8c909392919063ffffffff16565b5b6000610299826000016020810190610294919061126c565b610b4d565b905060006102b88360200160208101906102b3919061126c565b610b4d565b905060008360800160208101906102cf919061126c565b73ffffffffffffffffffffffffffffffffffffffff16848060a001906102f59190611601565b604051610303929190611481565b6000604051808303816000865af19150503d8060008114610340576040519150601f19603f3d011682016040523d82523d6000602084013e610345565b606091505b5050905080610389576040517f08c379a000000000000000000000000000000000000000000000000000000000815260040161038090611581565b60405180910390fd5b60006103a68560000160208101906103a1919061126c565b610b4d565b84039050600073ffffffffffffffffffffffffffffffffffffffff168560200160208101906103d5919061126c565b73ffffffffffffffffffffffffffffffffffffffff1614610494576104408560c0016020810190610406919061126c565b600087602001602081019061041b919061126c565b73ffffffffffffffffffffffffffffffffffffffff16610c1c9092919063ffffffff16565b6104938560c0016020810190610456919061126c565b866060013587602001602081019061046e919061126c565b73ffffffffffffffffffffffffffffffffffffffff16610c1c9092919063ffffffff16565b5b8460c00160208101906104a7919061126c565b73ffffffffffffffffffffffffffffffffffffffff1663fc4e5a368660000160208101906104d5919061126c565b8760200160208101906104e8919061126c565b886040013589606001358a8060e001906105029190611601565b6040518763ffffffff1660e01b8152600401610523969594939291906114e5565b602060405180830381600087803b15801561053d57600080fd5b505af1158015610551573d6000803e3d6000fd5b505050506040513d601f19601f820116820180604052508101906105759190611295565b50600073ffffffffffffffffffffffffffffffffffffffff168560200160208101906105a1919061126c565b73ffffffffffffffffffffffffffffffffffffffff161461060d5761060c8560c00160208101906105d2919061126c565b60008760200160208101906105e7919061126c565b73ffffffffffffffffffffffffffffffffffffffff16610c1c9092919063ffffffff16565b5b600081866040013503905060008111156107e457600073ffffffffffffffffffffffffffffffffffffffff1686600001602081019061064c919061126c565b73ffffffffffffffffffffffffffffffffffffffff1614156107a5577f000000000000000000000000000000000000000000000000000000000000000073ffffffffffffffffffffffffffffffffffffffff16632e1a7d4d826040518263ffffffff1660e01b81526004016106c191906115a1565b600060405180830381600087803b1580156106db57600080fd5b505af11580156106ef573d6000803e3d6000fd5b5050505060003373ffffffffffffffffffffffffffffffffffffffff16826040516107199061149a565b60006040518083038185875af1925050503d8060008114610756576040519150601f19603f3d011682016040523d82523d6000602084013e61075b565b606091505b505090508061079f576040517f08c379a000000000000000000000000000000000000000000000000000000000815260040161079690611541565b60405180910390fd5b506107e3565b6107e233828860000160208101906107bd919061126c565b73ffffffffffffffffffffffffffffffffffffffff16610de19092919063ffffffff16565b5b5b6000846108028860200160208101906107fd919061126c565b610b4d565b03905060008111156109d157600073ffffffffffffffffffffffffffffffffffffffff16876020016020810190610839919061126c565b73ffffffffffffffffffffffffffffffffffffffff161415610992577f000000000000000000000000000000000000000000000000000000000000000073ffffffffffffffffffffffffffffffffffffffff16632e1a7d4d826040518263ffffffff1660e01b81526004016108ae91906115a1565b600060405180830381600087803b1580156108c857600080fd5b505af11580156108dc573d6000803e3d6000fd5b5050505060003373ffffffffffffffffffffffffffffffffffffffff16826040516109069061149a565b60006040518083038185875af1925050503d8060008114610943576040519150601f19603f3d011682016040523d82523d6000602084013e610948565b606091505b505090508061098c576040517f08c379a000000000000000000000000000000000000000000000000000000000815260040161098390611541565b60405180910390fd5b506109d0565b6109cf33828960200160208101906109aa919061126c565b73ffffffffffffffffffffffffffffffffffffffff16610de19092919063ffffffff16565b5b5b8660200160208101906109e4919061126c565b73ffffffffffffffffffffffffffffffffffffffff16876000016020810190610a0d919061126c565b73ffffffffffffffffffffffffffffffffffffffff163373ffffffffffffffffffffffffffffffffffffffff167f43415e25edb52db0638ec44209302ce9df6ab6fa46a2233aee34f9c75471ea26868b606001358787604051610a7394939291906115bc565b60405180910390a4505050505050600160008190555050565b610b47846323b872dd60e01b858585604051602401808473ffffffffffffffffffffffffffffffffffffffff1681526020018373ffffffffffffffffffffffffffffffffffffffff1681526020018281526020019350505050604051602081830303815290604052907bffffffffffffffffffffffffffffffffffffffffffffffffffffffff19166020820180517bffffffffffffffffffffffffffffffffffffffffffffffffffffffff8381831617835250505050610e83565b50505050565b60008073ffffffffffffffffffffffffffffffffffffffff168273ffffffffffffffffffffffffffffffffffffffff161415610b8b57479050610c17565b8173ffffffffffffffffffffffffffffffffffffffff166370a08231306040518263ffffffff1660e01b8152600401610bc491906114ca565b60206040518083038186803b158015610bdc57600080fd5b505afa158015610bf0573d6000803e3d6000fd5b505050506040513d601f19601f82011682018060405250810190610c1491906112ff565b90505b919050565b6000811480610cea575060008373ffffffffffffffffffffffffffffffffffffffff1663dd62ed3e30856040518363ffffffff1660e01b8152600401808373ffffffffffffffffffffffffffffffffffffffff1681526020018273ffffffffffffffffffffffffffffffffffffffff1681526020019250505060206040518083038186803b158015610cad57600080fd5b505afa158015610cc1573d6000803e3d6000fd5b505050506040513d6020811015610cd757600080fd5b8101908080519060200190929190505050145b610d3f576040517f08c379a00000000000000000000000000000000000000000000000000000000081526004018080602001828103825260368152602001806117b96036913960400191505060405180910390fd5b610ddc8363095ea7b360e01b8484604051602401808373ffffffffffffffffffffffffffffffffffffffff16815260200182815260200192505050604051602081830303815290604052907bffffffffffffffffffffffffffffffffffffffffffffffffffffffff19166020820180517bffffffffffffffffffffffffffffffffffffffffffffffffffffffff8381831617835250505050610e83565b505050565b610e7e8363a9059cbb60e01b8484604051602401808373ffffffffffffffffffffffffffffffffffffffff16815260200182815260200192505050604051602081830303815290604052907bffffffffffffffffffffffffffffffffffffffffffffffffffffffff19166020820180517bffffffffffffffffffffffffffffffffffffffffffffffffffffffff8381831617835250505050610e83565b505050565b6000610ee5826040518060400160405280602081526020017f5361666545524332303a206c6f772d6c6576656c2063616c6c206661696c65648152508573ffffffffffffffffffffffffffffffffffffffff16610f729092919063ffffffff16565b9050600081511115610f6d57808060200190516020811015610f0657600080fd5b8101908080519060200190929190505050610f6c576040517f08c379a000000000000000000000000000000000000000000000000000000000815260040180806020018281038252602a81526020018061178f602a913960400191505060405180910390fd5b5b505050565b6060610f818484600085610f8a565b90509392505050565b606082471015610fe5576040517f08c379a00000000000000000000000000000000000000000000000000000000081526004018080602001828103825260268152602001806117696026913960400191505060405180910390fd5b610fee85611132565b611060576040517f08c379a000000000000000000000000000000000000000000000000000000000815260040180806020018281038252601d8152602001807f416464726573733a2063616c6c20746f206e6f6e2d636f6e747261637400000081525060200191505060405180910390fd5b6000808673ffffffffffffffffffffffffffffffffffffffff1685876040518082805190602001908083835b602083106110af578051825260208201915060208101905060208303925061108c565b6001836020036101000a03801982511681845116808217855250505050505090500191505060006040518083038185875af1925050503d8060008114611111576040519150601f19603f3d011682016040523d82523d6000602084013e611116565b606091505b5091509150611126828286611145565b92505050949350505050565b600080823b905060008111915050919050565b606083156111555782905061120a565b6000835111156111685782518084602001fd5b816040517f08c379a00000000000000000000000000000000000000000000000000000000081526004018080602001828103825283818151815260200191508051906020019080838360005b838110156111cf5780820151818401526020810190506111b4565b50505050905090810190601f1680156111fc5780820380516001836020036101000a031916815260200191505b509250505060405180910390fd5b9392505050565b60008135905061122081611723565b92915050565b6000815190506112358161173a565b92915050565b6000610100828403121561124e57600080fd5b81905092915050565b60008151905061126681611751565b92915050565b60006020828403121561127e57600080fd5b600061128c84828501611211565b91505092915050565b6000602082840312156112a757600080fd5b60006112b584828501611226565b91505092915050565b6000602082840312156112d057600080fd5b600082013567ffffffffffffffff8111156112ea57600080fd5b6112f68482850161123b565b91505092915050565b60006020828403121561131157600080fd5b600061131f84828501611257565b91505092915050565b611331816116cd565b82525050565b61134081611685565b82525050565b60006113528385611658565b935061135f838584611703565b61136883611712565b840190509392505050565b600061137f8385611669565b935061138c838584611703565b82840190509392505050565b60006113a5601183611674565b91507f45544820726566756e64206661696c65640000000000000000000000000000006000830152602082019050919050565b60006113e5601283611674565b91507f496e76616c69642045544820616d6f756e7400000000000000000000000000006000830152602082019050919050565b6000611425601b83611674565b91507f6c69717569646974795461726765742063616c6c206661696c656400000000006000830152602082019050919050565b6000611465600083611669565b9150600082019050919050565b61147b816116c3565b82525050565b600061148e828486611373565b91508190509392505050565b60006114a582611458565b9150819050919050565b60006020820190506114c46000830184611337565b92915050565b60006020820190506114df6000830184611328565b92915050565b600060a0820190506114fa6000830189611337565b6115076020830188611337565b6115146040830187611472565b6115216060830186611472565b8181036080830152611534818486611346565b9050979650505050505050565b6000602082019050818103600083015261155a81611398565b9050919050565b6000602082019050818103600083015261157a816113d8565b9050919050565b6000602082019050818103600083015261159a81611418565b9050919050565b60006020820190506115b66000830184611472565b92915050565b60006080820190506115d16000830187611472565b6115de6020830186611472565b6115eb6040830185611472565b6115f86060830184611472565b95945050505050565b6000808335600160200384360303811261161a57600080fd5b80840192508235915067ffffffffffffffff82111561163857600080fd5b60208301925060018202360383131561165057600080fd5b509250929050565b600082825260208201905092915050565b600081905092915050565b600082825260208201905092915050565b6000611690826116a3565b9050919050565b60008115159050919050565b600073ffffffffffffffffffffffffffffffffffffffff82169050919050565b6000819050919050565b60006116d8826116df565b9050919050565b60006116ea826116f1565b9050919050565b60006116fc826116a3565b9050919050565b82818337600083830152505050565b6000601f19601f8301169050919050565b61172c81611685565b811461173757600080fd5b50565b61174381611697565b811461174e57600080fd5b50565b61175a816116c3565b811461176557600080fd5b5056fe416464726573733a20696e73756666696369656e742062616c616e636520666f722063616c6c5361666545524332303a204552433230206f7065726174696f6e20646964206e6f7420737563636565645361666545524332303a20617070726f76652066726f6d206e6f6e2d7a65726f20746f206e6f6e2d7a65726f20616c6c6f77616e6365a26469706673582212204cd68dead7fb0bc840c1d7be46a00f56226dd9943e5ccdf1a3d9ea49827dc65564736f6c63430007060033",
  "linkReferences": {},
  "deployedLinkReferences": {}
}